:100000000C9488000C94A5000C94A5000C94A500F9
:100010000C94A5000C94A5000C94A5000C94A500CC
:100020000C94A5000C94A5000C94A5000C94A500BC
:100030000C94A5000C94A5000C94A5000C94A500AC
:100040000C94A5000C94A5000C94A5000C94A5009C
:100050000C94A2010C94A5000C94A5000C94A5008E
:100060000C94A5000C94A5000C94A5000C94A5007C
:100070000C9433020C94A5000C94A500E601050233
:100080000502050205020502050205020502050238
:100090000502050205020502050205020502050228
:1000A0000502050205020502050205020502050218
:1000B0000502050205020502050205020502050208
:1000C00005020502050205020502050205020502F8
:1000D00005020502050205020502050205020502E8
:1000E00005020502050205020502D3010502DB0136
:1000F000FD01F9010502F5010502050205020502EF
:10010000050201020502EC01050205020502E201F9
:1001100011241FBECFEFD0E1DEBFCDBF13E0A0E0C2
:10012000B1E0E0E4F7E502C005900D92A033B1071D
:10013000D9F723E0A0E3B3E001C01D92A938B207CC
:10014000E1F70E94A8250C949E2B0C940000CF93FD
:10015000DF93CDB7DEB784EC90E020E130E0FC0126
:100160003183208380EC90E020EC30E0F9012081A5
:100170002260FC01208381EC90E021EC30E0F90169
:1001800020812869FC0120830000DF91CF91089530
:10019000CF93DF93CDB7DEB78CEC90E020E130E079
:1001A000FC013183208388EC90E028EC30E0F901F9
:1001B00020812260FC01208389EC90E029EC30E072
:1001C000F90120812869FC0120830000DF91CF9193
:1001D0000895CF93DF931F92CDB7DEB789830E9436
:1001E00081028BE290E02BE230E0F901308129813D
:1001F000232BFC01208300000F90DF91CF91089505
:10020000CF93DF931F92CDB7DEB78983000080ECD8
:1002100090E0FC018081882F90E080729927892BE3
:10022000B1F386EC90E02981FC01208300000F905F
:10023000DF91CF910895CF93DF931F92CDB7DEB7B3
:100240008983000088EC90E0FC018081882F90E099
:1002500080729927892BB1F38EEC90E02981FC0103
:10026000208300000F90DF91CF910895CF93DF930B
:1002700000D0CDB7DEB79A8389830BC089819A817C
:10028000FC0180810E94000189819A8101969A83F4
:10029000898389819A81FC018081882379F7109272
:1002A000660300000F900F90DF91CF910895CF93D8
:1002B000DF9300D0CDB7DEB79A8389830BC08981E5
:1002C0009A81FC0180810E941B0189819A8101969B
:1002D0009A83898389819A81FC018081882379F7B7
:1002E0001092300300000F900F90DF91CF9108958E
:1002F000CF93DF9300D0CDB7DEB79A83898389810E
:100300009A810E94570180E091E00E94570104C049
:1003100080E091E00E945701809136038133C1F360
:1003200000000F900F90DF91CF910895CF93DF934E
:10033000CDB7DEB787E091E00E9478010000DF9141
:10034000CF9108951F920F9200905F000F92112499
:100350002F933F934F935F936F937F938F939F93CD
:10036000AF93BF93EF93FF93CF93DF931F92CDB7DC
:10037000DEB786EC90E0FC01808189838981882F3B
:1003800090E0092E000CAA0BBB0B4AE050E029E4D8
:1003900030E0841B950B28173907B8F1825C9F4F1A
:1003A000FC010C948C2880E30E94E9008EE191E02E
:1003B0000E94570142C080E10E94E90081E08093E1
:1003C00068033BC080E40E94E90037C010926C03D0
:1003D00081E08093660331C080E20E94E9000E94C0
:1003E000960181E08093670328C081E080936903D0
:1003F00024C081E08093650320C081E080937A036C
:100400001CC081E08093680318C085E290E025E27B
:1004100030E0F90120812160FC01208380916C0390
:10042000882F90E082599C4F2981FC012083809184
:100430006C038F5F80936C03000000000F90DF91CE
:10044000CF91FF91EF91BF91AF919F918F917F914C
:100450006F915F914F913F912F910F9000925F00AC
:100460000F901F9018951F920F9200905F000F92AF
:1004700011242F938F939F93EF93FF93CF93DF9349
:100480001F92CDB7DEB78EEC90E0FC0180818983AE
:1004900080913003882331F589818A30B1F08981D8
:1004A0008D3099F080913103823378F4809131035B
:1004B000882F90E08E5C9C4F2981FC0120838091E5
:1004C00031038F5F809331030DC080913103882FFA
:1004D00090E08E5C9C4FFC0110821092310381E011
:1004E0008093300300000F90DF91CF91FF91EF9147
:1004F0009F918F912F910F9000925F000F901F900E
:100500001895CF93DF93CDB7DEB78BE290E02BE267
:1005100030E0F90120812F78FC0120830000DF9179
:10052000CF910895CF93DF93CDB7DEB76C970FB619
:10053000F894DEBF0FBECDBF80E891E00E94570166
:1005400080E090E0A8E4B3E489839A83AB83BC8322
:1005500020E030E04AE755E469817A818B819C8113
:100560000E94E327DC01CB018B8B9C8BAD8BBE8B78
:1005700020E030E040E85FE36B897C898D899E89CB
:100580000E945D2788232CF481E090E0988F8F8B68
:100590003FC020E03FEF4FE757E46B897C898D89AE
:1005A0009E890E94DE2718164CF520E030E040E2DC
:1005B00051E469817A818B819C810E94E327DC016F
:1005C000CB01BC01CD010E946227DC01CB01988FD9
:1005D0008F8B0FC080E991E09A8F898F898D9A8DDA
:1005E0000197F1F79A8F898F8F89988D0197988F4E
:1005F0008F8B8F89988D892B69F714C06B897C89C3
:100600008D899E890E946227DC01CB01988F8F8B98
:100610008F89988D9C8F8B8F8B8D9C8D0197F1F797
:100620009C8F8B8F81E991E00E94570180E090E0E0
:10063000AAEFB3E48D839E83AF83B88720E030E0D8
:100640004AE755E46D817E818F8198850E94E3277A
:10065000DC01CB0189879A87AB87BC8720E030E03B
:1006600040E85FE369857A858B859C850E945D27DC
:1006700088232CF481E090E09E878D873FC020E0A6
:100680003FEF4FE757E469857A858B859C850E940B
:10069000DE2718164CF520E030E040E251E46D8191
:1006A0007E818F8198850E94E327DC01CB01BC010C
:1006B000CD010E946227DC01CB019E878D870FC090
:1006C00080E991E0988B8F878F8598890197F1F762
:1006D000988B8F878D859E8501979E878D878D85C9
:1006E0009E85892B69F714C069857A858B859C85E1
:1006F0000E946227DC01CB019E878D878D859E85B8
:100700009A8B898B89899A890197F1F79A8B898BC2
:1007100083EA91E00E94570100006C960FB6F894AE
:10072000DEBF0FBECDBFDF91CF910895CF93DF9392
:10073000CDB7DEB787E091E00E94780104C080E089
:1007400091E00E945701809136038133C1F300008C
:10075000DF91CF910895CF93DF93CDB7DEB785EBCF
:1007600091E00E9457010000DF91CF910895CF934F
:10077000DF93CDB7DEB783E290E0FC018081837028
:10078000DF91CF910895CF93DF931F92CDB7DEB75E
:1007900089838981882F90E081709927892B21F0A6
:1007A0000E9496030E948A228981882F90E082709D
:1007B0009927892B11F00E94E20300000F90DF912E
:1007C000CF9108950F931F93CF93DF93CDB7DEB7EB
:1007D000C053D2400FB6F894DEBF0FBECDBF87EC3A
:1007E00091E00E94570180E090E0A6E1B3E48983A4
:1007F0009A83AB83BC838E01095D1D4F20E030E0FE
:100800004AE755E469817A818B819C810E94E327C4
:10081000DC01CB01F80180839183A283B383CE01F5
:10082000895D9D4F20E030E040E85FE3FC0160819E
:100830007181828193810E945D2788234CF4CE01CF
:10084000855D9D4F21E030E0FC013183208369C04C
:10085000CE01895D9D4F20E03FEF4FE757E4FC015B
:1008600060817181828193810E94DE2718160CF0CD
:1008700046C020E030E040E251E469817A818B811A
:100880009C810E94E327DC01CB018E01055D1D4F99
:10089000BC01CD010E946227DC01CB01F8019183EC
:1008A000808324C0CE01835D9D4F20E931E0FC01AF
:1008B00031832083CE01835D9D4FFC018081918136
:1008C0000197F1F79E01235D3D4FF90191838083EC
:1008D000CE01855D9D4F9E01255D3D4FF901208133
:1008E000318121503109FC0131832083CE01855DA6
:1008F0009D4FFC0180819181892BA1F62CC08E0136
:10090000055D1D4FCE01895D9D4FFC0160817181A8
:10091000828193810E946227DC01CB01F8019183DF
:100920008083CE01815D9D4F9E01255D3D4FF90184
:1009300020813181FC0131832083CE01815D9D4F77
:10094000FC01808191810197F1F79E01215D3D4F6E
:10095000F9019183808387EC91E00E94570180E048
:1009600090E0A6E9B3E48D839E83AF83B8878E01C0
:10097000035E1D4F20E030E04AE755E46D817E8143
:100980008F8198850E94E327DC01CB01F8018083E9
:100990009183A283B383CE01835E9D4F20E030E03C
:1009A00040E85FE3FC0160817181828193810E9454
:1009B0005D2788234CF4CE018F5D9D4F21E030E010
:1009C000FC013183208369C0CE01835E9D4F20E00E
:1009D0003FEF4FE757E4FC01608171818281938191
:1009E0000E94DE2718160CF046C020E030E040E2FE
:1009F00051E46D817E818F8198850E94E327DC011F
:100A0000CB018E010F5D1D4FBC01CD010E946227FD
:100A1000DC01CB01F8019183808324C0CE018D5D80
:100A20009D4F20E931E0FC0131832083CE018D5DB3
:100A30009D4FFC01808191810197F1F79E012D5D11
:100A40003D4FF90191838083CE018F5D9D4F9E01C3
:100A50002F5D3D4FF9012081318121503109FC0189
:100A600031832083CE018F5D9D4FFC018081918178
:100A7000892BA1F62CC08E010F5D1D4FCE01835E28
:100A80009D4FFC0160817181828193810E94622768
:100A9000DC01CB01F80191838083CE018B5D9D4FFA
:100AA0009E012F5D3D4FF90120813181FC01318391
:100AB0002083CE018B5D9D4FFC0180819181019748
:100AC000F1F79E012B5D3D4FF9019183808387EC07
:100AD00091E00E94570180E090E0A6E9B3E48987A5
:100AE0009A87AB87BC878E010D5E1D4F20E030E0FA
:100AF0004AE755E469857A858B859C850E94E327C2
:100B0000DC01CB01F80180839183A283B383CE0102
:100B10008D5E9D4F20E030E040E85FE3FC016081A6
:100B20007181828193810E945D2788234CF4CE01DC
:100B3000895E9D4F21E030E0FC013183208369C054
:100B4000CE018D5E9D4F20E03FEF4FE757E4FC0163
:100B500060817181828193810E94DE2718160CF0DA
:100B600046C020E030E040E251E469857A858B851B
:100B70009C850E94E327DC01CB018E01095E1D4F9D
:100B8000BC01CD010E946227DC01CB01F8019183F9
:100B9000808324C0CE01875E9D4F20E931E0FC01B7
:100BA00031832083CE01875E9D4FFC01808191813E
:100BB0000197F1F79E01275E3D4FF90191838083F4
:100BC000CE01895E9D4F9E01295E3D4FF901208136
:100BD000318121503109FC0131832083CE01895EAE
:100BE0009D4FFC0180819181892BA1F62CC08E0143
:100BF000095E1D4FCE018D5E9D4FFC0160817181AC
:100C0000828193810E946227DC01CB01F8019183EC
:100C10008083CE01855E9D4F9E01295E3D4FF90187
:100C200020813181FC0131832083CE01855E9D4F7F
:100C3000FC01808191810197F1F79E01255E3D4F76
:100C4000F9019183808388ED91E00E94570180E053
:100C500090E0A8ECB2E48D879E87AF87B88B8E01B9
:100C6000075F1D4F20E030E04AE755E46D857E8543
:100C70008F8598890E94E327DC01CB01F8018083EE
:100C80009183A283B383CE01875F9D4F20E030E044
:100C900040E85FE3FC0160817181828193810E9461
:100CA0005D2788234CF4CE01835F9D4F21E030E027
:100CB000FC013183208369C0CE01875F9D4F20E016
:100CC0003FEF4FE757E4FC0160817181828193819E
:100CD0000E94DE2718160CF046C020E030E040E20B
:100CE00051E46D857E858F8598890E94E327DC011C
:100CF000CB018E01035F1D4FBC01CD010E94622715
:100D0000DC01CB01F8019183808324C0CE01815F97
:100D10009D4F20E931E0FC0131832083CE01815FCA
:100D20009D4FFC01808191810197F1F79E01215F28
:100D30003D4FF90191838083CE01835F9D4F9E01DA
:100D4000235F3D4FF9012081318121503109FC01A0
:100D500031832083CE01835F9D4FFC01808191818F
:100D6000892BA1F62CC08E01035F1D4FCE01875F3A
:100D70009D4FFC0160817181828193810E94622775
:100D8000DC01CB01F80191838083CE018F5E9D4F02
:100D90009E01235F3D4FF90120813181FC013183A8
:100DA0002083CE018F5E9D4FFC0180819181019750
:100DB000F1F79E012F5E3D4FF9019183808387EC0F
:100DC00091E00E94570180E090E0A6E9B3E4898BAE
:100DD0009A8BAB8BBC8B8E0101501E4F20E030E014
:100DE0004AE755E469897A898B899C890E94E327BF
:100DF000DC01CB01F80180839183A283B383CE0110
:100E000081509E4F20E030E040E85FE3FC016081CC
:100E10007181828193810E945D2788234CF4CE01E9
:100E20008D5F9D4F21E030E0FC013183208369C05C
:100E3000CE0181509E4F20E03FEF4FE757E4FC0189
:100E400060817181828193810E94DE2718160CF0E7
:100E500046C020E030E040E251E469897A898B891C
:100E60009C890E94E327DC01CB018E010D5F1D4FA1
:100E7000BC01CD010E946227DC01CB01F801918306
:100E8000808324C0CE018B5F9D4F20E931E0FC01BF
:100E900031832083CE018B5F9D4FFC018081918146
:100EA0000197F1F79E012B5F3D4FF90191838083FC
:100EB000CE018D5F9D4F9E012D5F3D4FF901208139
:100EC000318121503109FC0131832083CE018D5FB6
:100ED0009D4FFC0180819181892BA1F62CC08E0150
:100EE0000D5F1D4FCE0181509E4FFC0160817181CD
:100EF000828193810E946227DC01CB01F8019183FA
:100F00008083CE01895F9D4F9E012D5F3D4FF9018A
:100F100020813181FC0131832083CE01895F9D4F87
:100F2000FC01808191810197F1F79E01295F3D4F7E
:100F3000F9019183808389EE91E00E94570180E05E
:100F400090E8A9E0B4E48D8B9E8BAF8BB88F8E01B7
:100F50000B501E4F20E030E04AE755E46D897E8952
:100F60008F89988D0E94E327DC01CB01F8018083F3
:100F70009183A283B383CE018B509E4F20E030E05B
:100F800040E85FE3FC0160817181828193810E946E
:100F90005D2788234CF4CE0187509E4F21E030E03E
:100FA000FC013183208369C0CE018B509E4F20E02D
:100FB0003FEF4FE757E4FC016081718182819381AB
:100FC0000E94DE2718160CF046C020E030E040E218
:100FD00051E46D897E898F89988D0E94E327DC0119
:100FE000CB018E0107501E4FBC01CD010E9462272C
:100FF000DC01CB01F8019183808324C0CE018550B0
:101000009E4F20E931E0FC0131832083CE018550E1
:101010009E4FFC01808191810197F1F79E0125503F
:101020003E4FF90191838083CE0187509E4F9E01F0
:1010300027503E4FF9012081318121503109FC01B7
:1010400031832083CE0187509E4FFC0180819181A6
:10105000892BA1F62CC08E0107501E4FCE018B505C
:101060009E4FFC0160817181828193810E94622781
:10107000DC01CB01F80191838083CE0183509E4F28
:101080009E0127503E4FF90120813181FC013183BF
:101090002083CE0183509E4FFC0180819181019776
:1010A000F1F79E0123503E4FF901918380838AEF2F
:1010B00091E00E94570180E090ECAFE0B4E4898FAA
:1010C0009A8FAB8FBC8F8E0105511E4F20E030E010
:1010D0004AE755E4698D7A8D8B8D9C8D0E94E327BC
:1010E000DC01CB01F80180839183A283B383CE011D
:1010F00085519E4F20E030E040E85FE3FC016081D5
:101100007181828193810E945D2788234CF4CE01F6
:1011100081519E4F21E030E0FC013183208369C082
:10112000CE0185519E4F20E03FEF4FE757E4FC0191
:1011300060817181828193810E94DE2718160CF0F4
:1011400046C020E030E040E251E4698D7A8D8B8D1D
:101150009C8D0E94E327DC01CB018E0101511E4FC3
:10116000BC01CD010E946227DC01CB01F801918313
:10117000808324C0CE018F509E4F20E931E0FC01D6
:1011800031832083CE018F509E4FFC01808191815D
:101190000197F1F79E012F503E4FF9019183808313
:1011A000CE0181519E4F9E0121513E4FF901208178
:1011B000318121503109FC0131832083CE018151DD
:1011C0009E4FFC0180819181892BA1F62CC08E015C
:1011D00001511E4FCE0185519E4FFC0160817181EE
:1011E000828193810E946227DC01CB01F801918307
:1011F0008083CE018D509E4F9E0121513E4FF901BB
:1012000020813181FC0131832083CE018D509E4F9E
:10121000FC01808191810197F1F79E012D503E4F95
:10122000F9019183808388ED91E00E94570180E06D
:1012300090E0A1EEB3E48D8F9E8FAF8FB8A38E01A7
:101240000F511E4F20E030E04AE755E46D8D7E8D52
:101250008F8D98A10E94E327DC01CB01F8018083E8
:101260009183A283B383CE018F519E4F20E030E063
:1012700040E85FE3FC0160817181828193810E947B
:101280005D2788234CF4CE018B519E4F21E030E046
:10129000FC013183208369C0CE018F519E4F20E035
:1012A0003FEF4FE757E4FC016081718182819381B8
:1012B0000E94DE2718160CF046C020E030E040E225
:1012C00051E46D8D7E8D8F8D98A10E94E327DC0106
:1012D000CB018E010B511E4FBC01CD010E94622734
:1012E000DC01CB01F8019183808324C0CE018951B8
:1012F0009E4F20E931E0FC0131832083CE018951EA
:101300009E4FFC01808191810197F1F79E01295147
:101310003E4FF90191838083CE018B519E4F9E01F8
:101320002B513E4FF9012081318121503109FC01BF
:1013300031832083CE018B519E4FFC0180819181AE
:10134000892BA1F62CC08E010B511E4FCE018F515F
:101350009E4FFC0160817181828193810E9462278E
:10136000DC01CB01F80191838083CE0187519E4F30
:101370009E012B513E4FF90120813181FC013183C7
:101380002083CE0187519E4FFC018081918101977E
:10139000F1F79E0127513E4FF901918380838AEF37
:1013A00091E00E94570180E090E0A8ECB3E489A3AB
:1013B0009AA3ABA3BCA38E0109521E4F20E030E0DC
:1013C0004AE755E469A17AA18BA19CA10E94E32779
:1013D000DC01CB01F80180839183A283B383CE012A
:1013E00089529E4F20E030E040E85FE3FC016081DD
:1013F0007181828193810E945D2788234CF4CE0104
:1014000085529E4F21E030E0FC013183208369C08A
:10141000CE0189529E4F20E03FEF4FE757E4FC0199
:1014200060817181828193810E94DE2718160CF001
:1014300046C020E030E040E251E469A17AA18BA1EE
:101440009CA10E94E327DC01CB018E0105521E4FB7
:10145000BC01CD010E946227DC01CB01F801918320
:10146000808324C0CE0183529E4F20E931E0FC01ED
:1014700031832083CE0183529E4FFC018081918174
:101480000197F1F79E0123523E4FF901918380832A
:10149000CE0185529E4F9E0125523E4FF90120817B
:1014A000318121503109FC0131832083CE018552E5
:1014B0009E4FFC0180819181892BA1F62CC08E0169
:1014C00005521E4FCE0189529E4FFC0160817181F1
:1014D000828193810E946227DC01CB01F801918314
:1014E0008083CE0181529E4F9E0125523E4FF901CD
:1014F00020813181FC0131832083CE0181529E4FB6
:10150000FC01808191810197F1F79E0121523E4FAC
:10151000F901918380838BE092E00E94570180E083
:1015200090E0AAEFB3E48DA39EA3AFA3B8A78E016A
:1015300003531E4F20E030E04AE755E46DA17EA141
:101540008FA198A50E94E327DC01CB01F8018083DD
:101550009183A283B383CE0183539E4F20E030E07A
:1015600040E85FE3FC0160817181828193810E9488
:101570005D2788234CF4CE018F529E4F21E030E04E
:10158000FC013183208369C0CE0183539E4F20E04C
:101590003FEF4FE757E4FC016081718182819381C5
:1015A0000E94DE2718160CF046C020E030E040E232
:1015B00051E46DA17EA18FA198A50E94E327DC01D3
:1015C000CB018E010F521E4FBC01CD010E9462273C
:1015D000DC01CB01F8019183808324C0CE018D52C0
:1015E0009E4F20E931E0FC0131832083CE018D52F2
:1015F0009E4FFC01808191810197F1F79E012D5250
:101600003E4FF90191838083CE018F529E4F9E0100
:101610002F523E4FF9012081318121503109FC01C7
:1016200031832083CE018F529E4FFC0180819181B6
:10163000892BA1F62CC08E010F521E4FCE01835371
:101640009E4FFC0160817181828193810E9462279B
:10165000DC01CB01F80191838083CE018B529E4F38
:101660009E012F523E4FF90120813181FC013183CF
:101670002083CE018B529E4FFC0180819181019786
:10168000F1F79E012B523E4FF901918380838CE14B
:1016900092E00E94570180E090E0A6E9B3E489A7B8
:1016A0009AA7ABA7BCA78E010D531E4F20E030E0D8
:1016B0004AE755E469A57AA58BA59CA50E94E32776
:1016C000DC01CB01F80180839183A283B383CE0137
:1016D0008D539E4F20E030E040E85FE3FC016081E5
:1016E0007181828193810E945D2788234CF4CE0111
:1016F00089539E4F21E030E0FC013183208369C093
:10170000CE018D539E4F20E03FEF4FE757E4FC01A1
:1017100060817181828193810E94DE2718160CF00E
:1017200046C020E030E040E251E469A57AA58BA5EF
:101730009CA50E94E327DC01CB018E0109531E4FBB
:10174000BC01CD010E946227DC01CB01F80191832D
:10175000808324C0CE0187539E4F20E931E0FC01F5
:1017600031832083CE0187539E4FFC01808191817C
:101770000197F1F79E0127533E4FF9019183808332
:10178000CE0189539E4F9E0129533E4FF90120817E
:10179000318121503109FC0131832083CE018953ED
:1017A0009E4FFC0180819181892BA1F62CC08E0176
:1017B00009531E4FCE018D539E4FFC0160817181F4
:1017C000828193810E946227DC01CB01F801918321
:1017D0008083CE0185539E4F9E0129533E4FF901D0
:1017E00020813181FC0131832083CE0185539E4FBE
:1017F000FC01808191810197F1F79E0125533E4FB5
:10180000F901918380838DE292E00E94570180E08C
:1018100090E0A5EAB3E48DA79EA7AFA7B8AB8E0171
:1018200007541E4F20E030E04AE755E46DA57EA541
:101830008FA598A90E94E327DC01CB01F8018083E2
:101840009183A283B383CE0187549E4F20E030E082
:1018500040E85FE3FC0160817181828193810E9495
:101860005D2788234CF4CE0183549E4F21E030E065
:10187000FC013183208369C0CE0187549E4F20E054
:101880003FEF4FE757E4FC016081718182819381D2
:101890000E94DE2718160CF046C020E030E040E23F
:1018A00051E46DA57EA58FA598A90E94E327DC01D0
:1018B000CB018E0103541E4FBC01CD010E94622753
:1018C000DC01CB01F8019183808324C0CE018154D7
:1018D0009E4F20E931E0FC0131832083CE01815409
:1018E0009E4FFC01808191810197F1F79E01215467
:1018F0003E4FF90191838083CE0183549E4F9E0118
:1019000023543E4FF9012081318121503109FC01DE
:1019100031832083CE0183549E4FFC0180819181CD
:10192000892BA1F62CC08E0103541E4FCE01875483
:101930009E4FFC0160817181828193810E946227A8
:10194000DC01CB01F80191838083CE018F539E4F40
:101950009E0123543E4FF90120813181FC013183E6
:101960002083CE018F539E4FFC018081918101978E
:10197000F1F79E012F533E4FF901918380838DE350
:1019800092E00E94570180E090E0A6E1B3E489ABC9
:101990009AABABABBCAB8E0101551E4F20E030E0E3
:1019A0004AE755E469A97AA98BA99CA90E94E32773
:1019B000DC01CB01F80180839183A283B383CE0144
:1019C00081559E4F20E030E040E85FE3FC016081FC
:1019D0007181828193810E945D2788234CF4CE011E
:1019E0008D549E4F21E030E0FC013183208369C09B
:1019F000CE0181559E4F20E03FEF4FE757E4FC01B9
:101A000060817181828193810E94DE2718160CF01B
:101A100046C020E030E040E251E469A97AA98BA9F0
:101A20009CA90E94E327DC01CB018E010D541E4FBF
:101A3000BC01CD010E946227DC01CB01F80191833A
:101A4000808324C0CE018B549E4F20E931E0FC01FD
:101A500031832083CE018B549E4FFC018081918184
:101A60000197F1F79E012B543E4FF901918380833A
:101A7000CE018D549E4F9E012D543E4FF901208181
:101A8000318121503109FC0131832083CE018D54F5
:101A90009E4FFC0180819181892BA1F62CC08E0183
:101AA0000D541E4FCE0181559E4FFC016081718106
:101AB000828193810E946227DC01CB01F80191832E
:101AC0008083CE0189549E4F9E012D543E4FF901D3
:101AD00020813181FC0131832083CE0189549E4FC6
:101AE000FC01808191810197F1F79E0129543E4FBD
:101AF000F901918380838EE492E00E94570180E097
:101B000090E0A6E9B3E48DAB9EABAFABB8AF8E016E
:101B10000B551E4F20E030E04AE755E46DA97EA941
:101B20008FA998AD0E94E327DC01CB01F8018083E7
:101B30009183A283B383CE018B559E4F20E030E08A
:101B400040E85FE3FC0160817181828193810E94A2
:101B50005D2788234CF4CE0187559E4F21E030E06D
:101B6000FC013183208369C0CE018B559E4F20E05C
:101B70003FEF4FE757E4FC016081718182819381DF
:101B80000E94DE2718160CF046C020E030E040E24C
:101B900051E46DA97EA98FA998AD0E94E327DC01CD
:101BA000CB018E0107551E4FBC01CD010E9462275B
:101BB000DC01CB01F8019183808324C0CE018555DF
:101BC0009E4F20E931E0FC0131832083CE01855511
:101BD0009E4FFC01808191810197F1F79E0125556F
:101BE0003E4FF90191838083CE0187559E4F9E0120
:101BF00027553E4FF9012081318121503109FC01E7
:101C000031832083CE0187559E4FFC0180819181D5
:101C1000892BA1F62CC08E0107551E4FCE018B5586
:101C20009E4FFC0160817181828193810E946227B5
:101C3000DC01CB01F80191838083CE0183559E4F57
:101C40009E0127553E4FF90120813181FC013183EE
:101C50002083CE0183559E4FFC01808191810197A5
:101C6000F1F79E0123553E4FF901918380838AEF5E
:101C700091E00E94570180E090E0A8E4B3E489AFCE
:101C80009AAFABAFBCAF8E0105561E4F20E030E0DF
:101C90004AE755E469AD7AAD8BAD9CAD0E94E32770
:101CA000DC01CB01F80180839183A283B383CE0151
:101CB00085569E4F20E030E040E85FE3FC01608104
:101CC0007181828193810E945D2788234CF4CE012B
:101CD00081569E4F21E030E0FC013183208369C0B2
:101CE000CE0185569E4F20E03FEF4FE757E4FC01C1
:101CF00060817181828193810E94DE2718160CF029
:101D000046C020E030E040E251E469AD7AAD8BADF1
:101D10009CAD0E94E327DC01CB018E0101561E4FD2
:101D2000BC01CD010E946227DC01CB01F801918347
:101D3000808324C0CE018F559E4F20E931E0FC0105
:101D400031832083CE018F559E4FFC01808191818C
:101D50000197F1F79E012F553E4FF9019183808342
:101D6000CE0181569E4F9E0121563E4FF9012081A2
:101D7000318121503109FC0131832083CE0181560C
:101D80009E4FFC0180819181892BA1F62CC08E0190
:101D900001561E4FCE0185569E4FFC016081718118
:101DA000828193810E946227DC01CB01F80191833B
:101DB0008083CE018D559E4F9E0121563E4FF901E5
:101DC00020813181FC0131832083CE018D559E4FCE
:101DD000FC01808191810197F1F79E012D553E4FC5
:101DE000F901918380838FE592E00E94570180E0A2
:101DF00090E0A8E4B3E49E01235C3F4FF9018083A7
:101E00009183A283B3838E010F561E4F20E030E0F2
:101E10004AE755E4CE01CD96FC0160817181828153
:101E200093810E94E327DC01CB01F8018083918339
:101E3000A283B383CE018F569E4F20E030E040E86E
:101E40005FE3FC0160817181828193810E945D2743
:101E500088234CF4CE018B569E4F21E030E0FC01EC
:101E6000318320836CC0CE018F569E4F20E03FEF20
:101E70004FE757E4FC0160817181828193810E9468
:101E8000DE2718160CF049C020E030E040E251E4B3
:101E9000CE01CD96FC0160817181828193810E9487
:101EA000E327DC01CB018E010B561E4FBC01CD0197
:101EB0000E946227DC01CB01F8019183808324C05A
:101EC000CE0189569E4F20E931E0FC013183208309
:101ED000CE0189569E4FFC01808191810197F1F7D7
:101EE0009E0129563E4FF90191838083CE018B5686
:101EF0009E4F9E012B563E4FF9012081318121508A
:101F00003109FC0131832083CE018B569E4FFC01A9
:101F100080819181892BA1F62CC08E010B561E4F1A
:101F2000CE018F569E4FFC01608171818281938129
:101F30000E946227DC01CB01F80191838083CE01EE
:101F400087569E4F9E012B563E4FF90120813181CD
:101F5000FC0131832083CE0187569E4FFC01808196
:101F600091810197F1F79E0127563E4FF901918328
:101F700080838FE692E00E9457019E012F5B3F4FC6
:101F800080E090E0A6E1B3E4F90180839183A2832D
:101F9000B3838E0109571E4FCE018F5B9F4F20E008
:101FA00030E04AE755E4FC016081718182819381D0
:101FB0000E94E327DC01CB01F80180839183A28397
:101FC000B383CE0189579E4F20E030E040E85FE3C5
:101FD000FC0160817181828193810E945D27882349
:101FE0004CF4CE0185579E4F21E030E0FC01318357
:101FF00020836DC0CE0189579E4F20E03FEF4FE711
:1020000057E4FC0160817181828193810E94DE2707
:1020100018160CF04AC0CE018F5B9F4F20E030E0D5
:1020200040E251E4FC0160817181828193810E94D0
:10203000E327DC01CB018E0105571E4FBC01CD010A
:102040000E946227DC01CB01F8019183808324C0C8
:10205000CE0183579E4F20E931E0FC01318320837C
:10206000CE0183579E4FFC01808191810197F1F74A
:102070009E0123573E4FF90191838083CE018557FE
:102080009E4F9E0125573E4FF901208131812150FD
:102090003109FC0131832083CE0185579E4FFC011D
:1020A00080819181892BA1F62CC08E0105571E4F8E
:1020B000CE0189579E4FFC0160817181828193819D
:1020C0000E946227DC01CB01F80191838083CE015D
:1020D00081579E4F9E0125573E4FF9012081318146
:1020E000FC0131832083CE0181579E4FFC0180810A
:1020F00091810197F1F79E0121573E4FF90191839C
:1021000080838FE792E00E9457019E012B5B3F4F37
:1021100080E090E0A6E9B3E4F90180839183A28393
:10212000B3838E0103581E4FCE018B5B9F4F20E07F
:1021300030E04AE755E4FC0160817181828193813E
:102140000E94E327DC01CB01F80180839183A28305
:10215000B383CE0183589E4F20E030E040E85FE338
:10216000FC0160817181828193810E945D278823B7
:102170004CF4CE018F579E4F21E030E0FC013183BB
:1021800020836DC0CE0183589E4F20E03FEF4FE784
:1021900057E4FC0160817181828193810E94DE2776
:1021A00018160CF04AC0CE018B5B9F4F20E030E048
:1021B00040E251E4FC0160817181828193810E943F
:1021C000E327DC01CB018E010F571E4FBC01CD016F
:1021D0000E946227DC01CB01F8019183808324C037
:1021E000CE018D579E4F20E931E0FC0131832083E1
:1021F000CE018D579E4FFC01808191810197F1F7AF
:102200009E012D573E4FF90191838083CE018F5758
:102210009E4F9E012F573E4FF90120813181215061
:102220003109FC0131832083CE018F579E4FFC0181
:1022300080819181892BA1F62CC08E010F571E4FF2
:10224000CE0183589E4FFC01608171818281938110
:102250000E946227DC01CB01F80191838083CE01CB
:102260008B579E4F9E012F573E4FF90120813181A0
:10227000FC0131832083CE018B579E4FFC0180816E
:1022800091810197F1F79E012B573E4FF901918300
:10229000808380E992E00E9457019E01275B3F4FB7
:1022A00080E090E0A6E1B3E4F90180839183A2830A
:1022B000B3838E010D581E4FCE01875B9F4F20E0E8
:1022C00030E04AE755E4FC016081718182819381AD
:1022D0000E94E327DC01CB01F80180839183A28374
:1022E000B383CE018D589E4F20E030E040E85FE39D
:1022F000FC0160817181828193810E945D27882326
:102300004CF4CE0189589E4F21E030E0FC0131832E
:1023100020836DC0CE018D589E4F20E03FEF4FE7E8
:1023200057E4FC0160817181828193810E94DE27E4
:1023300018160CF04AC0CE01875B9F4F20E030E0BA
:1023400040E251E4FC0160817181828193810E94AD
:10235000E327DC01CB018E0109581E4FBC01CD01E2
:102360000E946227DC01CB01F8019183808324C0A5
:10237000CE0187589E4F20E931E0FC013183208354
:10238000CE0187589E4FFC01808191810197F1F722
:102390009E0127583E4FF90191838083CE018958D1
:1023A0009E4F9E0129583E4FF901208131812150D5
:1023B0003109FC0131832083CE0189589E4FFC01F5
:1023C00080819181892BA1F62CC08E0109581E4F66
:1023D000CE018D589E4FFC01608171818281938175
:1023E0000E946227DC01CB01F80191838083CE013A
:1023F00085589E4F9E0129583E4FF9012081318119
:10240000FC0131832083CE0185589E4FFC018081E1
:1024100091810197F1F79E0125583E4FF901918373
:1024200080838FE692E00E9457019E01235B3F4F1D
:1024300080E090E0AFEAB3E4F90180839183A28366
:10244000B3838E0107591E4FCE01835B9F4F20E05F
:1024500030E04AE755E4FC0160817181828193811B
:102460000E94E327DC01CB01F80180839183A283E2
:10247000B383CE0187599E4F20E030E040E85FE310
:10248000FC0160817181828193810E945D27882394
:102490004CF4CE0183599E4F21E030E0FC013183A2
:1024A00020836DC0CE0187599E4F20E03FEF4FE75C
:1024B00057E4FC0160817181828193810E94DE2753
:1024C00018160CF04AC0CE01835B9F4F20E030E02D
:1024D00040E251E4FC0160817181828193810E941C
:1024E000E327DC01CB018E0103591E4FBC01CD0156
:1024F0000E946227DC01CB01F8019183808324C014
:10250000CE0181599E4F20E931E0FC0131832083C7
:10251000CE0181599E4FFC01808191810197F1F795
:102520009E0121593E4FF90191838083CE01835949
:102530009E4F9E0123593E4FF90120813181215048
:102540003109FC0131832083CE0183599E4FFC0168
:1025500080819181892BA1F62CC08E0103591E4FD9
:10256000CE0187599E4FFC016081718182819381E8
:102570000E946227DC01CB01F80191838083CE01A8
:102580008F589E4F9E0123593E4FF9012081318182
:10259000FC0131832083CE018F589E4FFC01808146
:1025A00091810197F1F79E012F583E4FF9019183D8
:1025B00080838FE592E00E9457019E012F5A3F4F82
:1025C00080E090E0A6E9B3E4F90180839183A283DF
:1025D000B3838E01015A1E4FCE018F5A9F4F20E0C8
:1025E00030E04AE755E4FC0160817181828193818A
:1025F0000E94E327DC01CB01F80180839183A28351
:10260000B383CE01815A9E4F20E030E040E85FE383
:10261000FC0160817181828193810E945D27882302
:102620004CF4CE018D599E4F21E030E0FC01318306
:1026300020836DC0CE01815A9E4F20E03FEF4FE7CF
:1026400057E4FC0160817181828193810E94DE27C1
:1026500018160CF04AC0CE018F5A9F4F20E030E090
:1026600040E251E4FC0160817181828193810E948A
:10267000E327DC01CB018E010D591E4FBC01CD01BA
:102680000E946227DC01CB01F8019183808324C082
:10269000CE018B599E4F20E931E0FC01318320832C
:1026A000CE018B599E4FFC01808191810197F1F7FA
:1026B0009E012B593E4FF90191838083CE018D59A4
:1026C0009E4F9E012D593E4FF901208131812150AD
:1026D0003109FC0131832083CE018D599E4FFC01CD
:1026E00080819181892BA1F62CC08E010D591E4F3E
:1026F000CE01815A9E4FFC0160817181828193815C
:102700000E946227DC01CB01F80191838083CE0116
:1027100089599E4F9E012D593E4FF90120813181EB
:10272000FC0131832083CE0189599E4FFC018081B9
:1027300091810197F1F79E0129593E4FF90191834B
:1027400080838FE992E00E9457019E012B5A3F4FF0
:1027500080E090E0A6E1B3E4F90180839183A28355
:10276000B3838E010B5A1E4FCE018B5A9F4F20E030
:1027700030E04AE755E4FC016081718182819381F8
:102780000E94E327DC01CB01F80180839183A283BF
:10279000B383CE018B5A9E4F20E030E040E85FE3E8
:1027A000FC0160817181828193810E945D27882371
:1027B0004CF4CE01875A9E4F21E030E0FC0131837A
:1027C00020836DC0CE018B5A9E4F20E03FEF4FE734
:1027D00057E4FC0160817181828193810E94DE2730
:1027E00018160CF04AC0CE018B5A9F4F20E030E003
:1027F00040E251E4FC0160817181828193810E94F9
:10280000E327DC01CB018E01075A1E4FBC01CD012D
:102810000E946227DC01CB01F8019183808324C0F0
:10282000CE01855A9E4F20E931E0FC01318320839F
:10283000CE01855A9E4FFC01808191810197F1F76D
:102840009E01255A3E4FF90191838083CE01875A1C
:102850009E4F9E01275A3E4FF90120813181215020
:102860003109FC0131832083CE01875A9E4FFC0140
:1028700080819181892BA1F62CC08E01075A1E4FB1
:10288000CE018B5A9E4FFC016081718182819381C0
:102890000E946227DC01CB01F80191838083CE0185
:1028A000835A9E4F9E01275A3E4FF9012081318164
:1028B000FC0131832083CE01835A9E4FFC0180812D
:1028C00091810197F1F79E01235A3E4FF9019183BF
:1028D00080838FEA92E00E9457019E01275A3F4F62
:1028E00080E090E0A6E1B3E4F90180839183A283C4
:1028F000B3838E01055B1E4FCE01875A9F4F20E0A8
:1029000030E04AE755E4FC01608171818281938166
:102910000E94E327DC01CB01F80180839183A2832D
:10292000B383CE01855B9E4F20E030E040E85FE35B
:10293000FC0160817181828193810E945D278823DF
:102940004CF4CE01815B9E4F21E030E0FC013183ED
:1029500020836DC0CE01855B9E4F20E03FEF4FE7A7
:1029600057E4FC0160817181828193810E94DE279E
:1029700018160CF04AC0CE01875A9F4F20E030E075
:1029800040E251E4FC0160817181828193810E9467
:10299000E327DC01CB018E01015B1E4FBC01CD01A1
:1029A0000E946227DC01CB01F8019183808324C05F
:1029B000CE018F5A9E4F20E931E0FC013183208304
:1029C000CE018F5A9E4FFC01808191810197F1F7D2
:1029D0009E012F5A3E4FF90191838083CE01815B86
:1029E0009E4F9E01215B3E4FF90120813181215094
:1029F0003109FC0131832083CE01815B9E4FFC01B4
:102A000080819181892BA1F62CC08E01015B1E4F24
:102A1000CE01855B9E4FFC01608171818281938133
:102A20000E946227DC01CB01F80191838083CE01F3
:102A30008D5A9E4F9E01215B3E4FF90120813181CD
:102A4000FC0131832083CE018D5A9E4FFC01808191
:102A500091810197F1F79E012D5A3E4FF901918323
:102A600080838DE292E00E9457019E01235A3F4FDE
:102A700080E090E0AAEFB3E4F90180839183A28320
:102A8000B3838E010F5B1E4FCE01835A9F4F20E010
:102A900030E04AE755E4FC016081718182819381D5
:102AA0000E94E327DC01CB01F80180839183A2839C
:102AB000B383CE018F5B9E4F20E030E040E85FE3C0
:102AC000FC0160817181828193810E945D2788234E
:102AD0004CF4CE018B5B9E4F21E030E0FC01318352
:102AE00020836DC0CE018F5B9E4F20E03FEF4FE70C
:102AF00057E4FC0160817181828193810E94DE270D
:102B000018160CF04AC0CE01835A9F4F20E030E0E7
:102B100040E251E4FC0160817181828193810E94D5
:102B2000E327DC01CB018E010B5B1E4FBC01CD0105
:102B30000E946227DC01CB01F8019183808324C0CD
:102B4000CE01895B9E4F20E931E0FC013183208377
:102B5000CE01895B9E4FFC01808191810197F1F745
:102B60009E01295B3E4FF90191838083CE018B5BEF
:102B70009E4F9E012B5B3E4FF901208131812150F8
:102B80003109FC0131832083CE018B5B9E4FFC0118
:102B900080819181892BA1F62CC08E010B5B1E4F89
:102BA000CE018F5B9E4FFC01608171818281938198
:102BB0000E946227DC01CB01F80191838083CE0162
:102BC000875B9E4F9E012B5B3E4FF9012081318137
:102BD000FC0131832083CE01875B9E4FFC01808105
:102BE00091810197F1F79E01275B3E4FF901918397
:102BF000808388ED91E00E9457019E012F593F4F3D
:102C000080E090E0A1EEB3E4F90180839183A28398
:102C1000B3838E01095C1E4FCE018F599F4F20E078
:102C200030E04AE755E4FC01608171818281938143
:102C30000E94E327DC01CB01F80180839183A2830A
:102C4000B383CE01895C9E4F20E030E040E85FE333
:102C5000FC0160817181828193810E945D278823BC
:102C60004CF4CE01855C9E4F21E030E0FC013183C5
:102C700020836DC0CE01895C9E4F20E03FEF4FE77F
:102C800057E4FC0160817181828193810E94DE277B
:102C900018160CF04AC0CE018F599F4F20E030E04B
:102CA00040E251E4FC0160817181828193810E9444
:102CB000E327DC01CB018E01055C1E4FBC01CD0179
:102CC0000E946227DC01CB01F8019183808324C03C
:102CD000CE01835C9E4F20E931E0FC0131832083EB
:102CE000CE01835C9E4FFC01808191810197F1F7B9
:102CF0009E01235C3E4FF90191838083CE01855C68
:102D00009E4F9E01255C3E4FF9012081318121506B
:102D10003109FC0131832083CE01855C9E4FFC018B
:102D200080819181892BA1F62CC08E01055C1E4FFC
:102D3000CE01895C9E4FFC0160817181828193810B
:102D40000E946227DC01CB01F80191838083CE01D0
:102D5000815C9E4F9E01255C3E4FF90120813181AF
:102D6000FC0131832083CE01815C9E4FFC01808178
:102D700091810197F1F79E01215C3E4FF90191830A
:102D800080838AEF91E00E9457019E012B593F4FAB
:102D900080E090E0A8ECB3E4F90180839183A28302
:102DA000B3838E01035D1E4FCE018B599F4F20E0F0
:102DB00030E04AE755E4FC016081718182819381B2
:102DC0000E94E327DC01CB01F80180839183A28379
:102DD000B383CE01835D9E4F20E030E040E85FE3A7
:102DE000FC0160817181828193810E945D2788232B
:102DF0004CF4CE018F5C9E4F21E030E0FC0131832A
:102E000020836DC0CE01835D9E4F20E03FEF4FE7F2
:102E100057E4FC0160817181828193810E94DE27E9
:102E200018160CF04AC0CE018B599F4F20E030E0BD
:102E300040E251E4FC0160817181828193810E94B2
:102E4000E327DC01CB018E010F5C1E4FBC01CD01DD
:102E50000E946227DC01CB01F8019183808324C0AA
:102E6000CE018D5C9E4F20E931E0FC01318320834F
:102E7000CE018D5C9E4FFC01808191810197F1F71D
:102E80009E012D5C3E4FF90191838083CE018F5CC2
:102E90009E4F9E012F5C3E4FF901208131812150D0
:102EA0003109FC0131832083CE018F5C9E4FFC01F0
:102EB00080819181892BA1F62CC08E010F5C1E4F61
:102EC000CE01835D9E4FFC0160817181828193817F
:102ED0000E946227DC01CB01F80191838083CE013F
:102EE0008B5C9E4F9E012F5C3E4FF901208131810A
:102EF000FC0131832083CE018B5C9E4FFC018081DD
:102F000091810197F1F79E012B5C3E4FF90191836E
:102F100080838BE092E00E9457019E0127593F4F2A
:102F200080E090E0AAEFB3E4F90180839183A2836B
:102F3000B3838E010D5D1E4FCE0187599F4F20E058
:102F400030E04AE755E4FC01608171818281938120
:102F50000E94E327DC01CB01F80180839183A283E7
:102F6000B383CE018D5D9E4F20E030E040E85FE30B
:102F7000FC0160817181828193810E945D27882399
:102F80004CF4CE01895D9E4F21E030E0FC0131839D
:102F900020836DC0CE018D5D9E4F20E03FEF4FE757
:102FA00057E4FC0160817181828193810E94DE2758
:102FB00018160CF04AC0CE0187599F4F20E030E030
:102FC00040E251E4FC0160817181828193810E9421
:102FD000E327DC01CB018E01095D1E4FBC01CD0151
:102FE0000E946227DC01CB01F8019183808324C019
:102FF000CE01875D9E4F20E931E0FC0131832083C3
:10300000CE01875D9E4FFC01808191810197F1F790
:103010009E01275D3E4FF90191838083CE01895D3A
:103020009E4F9E01295D3E4FF90120813181215043
:103030003109FC0131832083CE01895D9E4FFC0163
:1030400080819181892BA1F62CC08E01095D1E4FD4
:10305000CE018D5D9E4FFC016081718182819381E3
:103060000E946227DC01CB01F80191838083CE01AD
:10307000855D9E4F9E01295D3E4FF9012081318182
:10308000FC0131832083CE01855D9E4FFC01808150
:1030900091810197F1F79E01255D3E4FF9019183E2
:1030A00080838CE192E00E9457019E0123593F4F9B
:1030B00080E090E0A6E9B3E4F90180839183A283E4
:1030C000B3838E01075E1E4FCE0183599F4F20E0D0
:1030D00030E04AE755E4FC0160817181828193818F
:1030E0000E94E327DC01CB01F80180839183A28356
:1030F000B383CE01875E9E4F20E030E040E85FE37F
:10310000FC0160817181828193810E945D27882307
:103110004CF4CE01835E9E4F21E030E0FC01318310
:1031200020836DC0CE01875E9E4F20E03FEF4FE7CA
:1031300057E4FC0160817181828193810E94DE27C6
:1031400018160CF04AC0CE0183599F4F20E030E0A2
:1031500040E251E4FC0160817181828193810E948F
:10316000E327DC01CB018E01035E1E4FBC01CD01C4
:103170000E946227DC01CB01F8019183808324C087
:10318000CE01815E9E4F20E931E0FC013183208336
:10319000CE01815E9E4FFC01808191810197F1F704
:1031A0009E01215E3E4FF90191838083CE01835EB3
:1031B0009E4F9E01235E3E4FF901208131812150B7
:1031C0003109FC0131832083CE01835E9E4FFC01D7
:1031D00080819181892BA1F62CC08E01035E1E4F48
:1031E000CE01875E9E4FFC01608171818281938157
:1031F0000E946227DC01CB01F80191838083CE011C
:103200008F5D9E4F9E01235E3E4FF90120813181EB
:10321000FC0131832083CE018F5D9E4FFC018081B4
:1032200091810197F1F79E012F5D3E4FF901918346
:1032300080838DE292E00E9457019E012F583F4FFC
:1032400080E090E0A5EAB3E4F90180839183A28352
:10325000B3838E01015F1E4FCE018F589F4F20E038
:1032600030E04AE755E4FC016081718182819381FD
:103270000E94E327DC01CB01F80180839183A283C4
:10328000B383CE01815F9E4F20E030E040E85FE3F2
:10329000FC0160817181828193810E945D27882376
:1032A0004CF4CE018D5E9E4F21E030E0FC01318375
:1032B00020836DC0CE01815F9E4F20E03FEF4FE73E
:1032C00057E4FC0160817181828193810E94DE2735
:1032D00018160CF04AC0CE018F589F4F20E030E006
:1032E00040E251E4FC0160817181828193810E94FE
:1032F000E327DC01CB018E010D5E1E4FBC01CD0129
:103300000E946227DC01CB01F8019183808324C0F5
:10331000CE018B5E9E4F20E931E0FC01318320839A
:10332000CE018B5E9E4FFC01808191810197F1F768
:103330009E012B5E3E4FF90191838083CE018D5E0D
:103340009E4F9E012D5E3E4FF9012081318121501B
:103350003109FC0131832083CE018D5E9E4FFC013B
:1033600080819181892BA1F62CC08E010D5E1E4FAC
:10337000CE01815F9E4FFC016081718182819381CA
:103380000E946227DC01CB01F80191838083CE018A
:10339000895E9E4F9E012D5E3E4FF9012081318155
:1033A000FC0131832083CE01895E9E4FFC01808128
:1033B00091810197F1F79E01295E3E4FF9019183BA
:1033C00080838DE392E00E9457019E012B583F4F6E
:1033D00080E090E0A6E1B3E4F90180839183A283C9
:1033E000B3838E010B5F1E4FCE018B589F4F20E0A1
:1033F00030E04AE755E4FC0160817181828193816C
:103400000E94E327DC01CB01F80180839183A28332
:10341000B383CE018B5F9E4F20E030E040E85FE356
:10342000FC0160817181828193810E945D278823E4
:103430004CF4CE01875F9E4F21E030E0FC013183E8
:1034400020836DC0CE018B5F9E4F20E03FEF4FE7A2
:1034500057E4FC0160817181828193810E94DE27A3
:1034600018160CF04AC0CE018B589F4F20E030E078
:1034700040E251E4FC0160817181828193810E946C
:10348000E327DC01CB018E01075F1E4FBC01CD019C
:103490000E946227DC01CB01F8019183808324C064
:1034A000CE01855F9E4F20E931E0FC01318320830E
:1034B000CE01855F9E4FFC01808191810197F1F7DC
:1034C0009E01255F3E4FF90191838083CE01875F86
:1034D0009E4F9E01275F3E4FF9012081318121508F
:1034E0003109FC0131832083CE01875F9E4FFC01AF
:1034F00080819181892BA1F62CC08E01075F1E4F20
:10350000CE018B5F9E4FFC0160817181828193812E
:103510000E946227DC01CB01F80191838083CE01F8
:10352000835F9E4F9E01275F3E4FF90120813181CD
:10353000FC0131832083CE01835F9E4FFC0180819B
:1035400091810197F1F79E01235F3E4FF90191832D
:1035500080838EE492E00E9457019E0127583F4FDE
:1035600080E090E0A6E9B3E4F90180839183A2832F
:10357000B3838E0105501F4FCE0187589F4F20E027
:1035800030E04AE755E4FC016081718182819381DA
:103590000E94E327DC01CB01F80180839183A283A1
:1035A000B383CE0185509F4F20E030E040E85FE3D9
:1035B000FC0160817181828193810E945D27882353
:1035C0004CF4CE0181509F4F21E030E0FC0131836B
:1035D00020836DC0CE0185509F4F20E03FEF4FE725
:1035E00057E4FC0160817181828193810E94DE2712
:1035F00018160CF04AC0CE0187589F4F20E030E0EB
:1036000040E251E4FC0160817181828193810E94DA
:10361000E327DC01CB018E0101501F4FBC01CD011E
:103620000E946227DC01CB01F8019183808324C0D2
:10363000CE018F5F9E4F20E931E0FC013183208372
:10364000CE018F5F9E4FFC01808191810197F1F740
:103650009E012F5F3E4FF90191838083CE018150FF
:103660009F4F9E0121503F4FF90120813181215010
:103670003109FC0131832083CE0181509F4FFC0131
:1036800080819181892BA1F62CC08E0101501F4FA2
:10369000CE0185509F4FFC016081718182819381B1
:1036A0000E946227DC01CB01F80191838083CE0167
:1036B0008D5F9E4F9E0121503F4FF9012081318146
:1036C000FC0131832083CE018D5F9E4FFC01808100
:1036D00091810197F1F79E012D5F3E4FF901918392
:1036E00080838AEF91E00E9457019E0123583F4F4B
:1036F00080E090E0A8E4B3E4F90180839183A283A1
:10370000B3838E010F501F4FCE0183589F4F20E08F
:1037100030E04AE755E4FC01608171818281938148
:103720000E94E327DC01CB01F80180839183A2830F
:10373000B383CE018F509F4F20E030E040E85FE33D
:10374000FC0160817181828193810E945D278823C1
:103750004CF4CE018B509F4F21E030E0FC013183CF
:1037600020836DC0CE018F509F4F20E03FEF4FE789
:1037700057E4FC0160817181828193810E94DE2780
:1037800018160CF04AC0CE0183589F4F20E030E05D
:1037900040E251E4FC0160817181828193810E9449
:1037A000E327DC01CB018E010B501F4FBC01CD0183
:1037B0000E946227DC01CB01F8019183808324C041
:1037C000CE0189509F4F20E931E0FC0131832083F5
:1037D000CE0189509F4FFC01808191810197F1F7C3
:1037E0009E0129503F4FF90191838083CE018B5078
:1037F0009F4F9E012B503F4FF90120813181215075
:103800003109FC0131832083CE018B509F4FFC0195
:1038100080819181892BA1F62CC08E010B501F4F06
:10382000CE018F509F4FFC01608171818281938115
:103830000E946227DC01CB01F80191838083CE01D5
:1038400087509F4F9E012B503F4FF90120813181BE
:10385000FC0131832083CE0187509F4FFC01808182
:1038600091810197F1F79E0127503F4FF901918314
:1038700080838FE592E00E9457019E012F573F4FB2
:1038800080E090E0A8E4B3E4F90180839183A2830F
:10389000B3838E0109511F4FCE018F579F4F20E0F8
:1038A00030E04AE755E4FC016081718182819381B7
:1038B0000E94E327DC01CB01F80180839183A2837E
:1038C000B383CE0189519F4F20E030E040E85FE3B1
:1038D000FC0160817181828193810E945D27882330
:1038E0004CF4CE0185519F4F21E030E0FC01318343
:1038F00020836DC0CE0189519F4F20E03FEF4FE7FD
:1039000057E4FC0160817181828193810E94DE27EE
:1039100018160CF04AC0CE018F579F4F20E030E0C0
:1039200040E251E4FC0160817181828193810E94B7
:10393000E327DC01CB018E0105511F4FBC01CD01F6
:103940000E946227DC01CB01F8019183808324C0AF
:10395000CE0183519F4F20E931E0FC013183208368
:10396000CE0183519F4FFC01808191810197F1F736
:103970009E0123513F4FF90191838083CE018551F0
:103980009F4F9E0125513F4FF901208131812150E8
:103990003109FC0131832083CE0185519F4FFC0109
:1039A00080819181892BA1F62CC08E0105511F4F7A
:1039B000CE0189519F4FFC01608171818281938189
:1039C0000E946227DC01CB01F80191838083CE0144
:1039D00081519F4F9E0125513F4FF9012081318137
:1039E000FC0131832083CE0181519F4FFC018081F6
:1039F00091810197F1F79E0121513F4FF901918388
:103A000080838FE692E00E9457019E012B573F4F23
:103A100080E090E0A6E1B3E4F90180839183A28382
:103A2000B3838E0103521F4FCE018B579F4F20E06F
:103A300030E04AE755E4FC01608171818281938125
:103A40000E94E327DC01CB01F80180839183A283EC
:103A5000B383CE0183529F4F20E030E040E85FE324
:103A6000FC0160817181828193810E945D2788239E
:103A70004CF4CE018F519F4F21E030E0FC013183A7
:103A800020836DC0CE0183529F4F20E03FEF4FE770
:103A900057E4FC0160817181828193810E94DE275D
:103AA00018160CF04AC0CE018B579F4F20E030E033
:103AB00040E251E4FC0160817181828193810E9426
:103AC000E327DC01CB018E010F511F4FBC01CD015B
:103AD0000E946227DC01CB01F8019183808324C01E
:103AE000CE018D519F4F20E931E0FC0131832083CD
:103AF000CE018D519F4FFC01808191810197F1F79B
:103B00009E012D513F4FF90191838083CE018F514A
:103B10009F4F9E012F513F4FF9012081318121504C
:103B20003109FC0131832083CE018F519F4FFC016D
:103B300080819181892BA1F62CC08E010F511F4FDE
:103B4000CE0183529F4FFC016081718182819381FC
:103B50000E946227DC01CB01F80191838083CE01B2
:103B60008B519F4F9E012F513F4FF9012081318191
:103B7000FC0131832083CE018B519F4FFC0180815A
:103B800091810197F1F79E012B513F4FF9019183EC
:103B900080838FE792E00E9457019E0127573F4F95
:103BA00080E090E0A6E9B3E4F90180839183A283E9
:103BB000B3838E010D521F4FCE0187579F4F20E0D8
:103BC00030E04AE755E4FC01608171818281938194
:103BD0000E94E327DC01CB01F80180839183A2835B
:103BE000B383CE018D529F4F20E030E040E85FE389
:103BF000FC0160817181828193810E945D2788230D
:103C00004CF4CE0189529F4F21E030E0FC0131831A
:103C100020836DC0CE018D529F4F20E03FEF4FE7D4
:103C200057E4FC0160817181828193810E94DE27CB
:103C300018160CF04AC0CE0187579F4F20E030E0A5
:103C400040E251E4FC0160817181828193810E9494
:103C5000E327DC01CB018E0109521F4FBC01CD01CE
:103C60000E946227DC01CB01F8019183808324C08C
:103C7000CE0187529F4F20E931E0FC013183208340
:103C8000CE0187529F4FFC01808191810197F1F70E
:103C90009E0127523F4FF90191838083CE018952C3
:103CA0009F4F9E0129523F4FF901208131812150C0
:103CB0003109FC0131832083CE0189529F4FFC01E1
:103CC00080819181892BA1F62CC08E0109521F4F52
:103CD000CE018D529F4FFC01608171818281938161
:103CE0000E946227DC01CB01F80191838083CE0121
:103CF00085529F4F9E0129523F4FF901208131810A
:103D0000FC0131832083CE0185529F4FFC018081CD
:103D100091810197F1F79E0125523F4FF90191835F
:103D200080838FEB92E00E9457019E0123573F4F03
:103D300080E090E0A6E1B3E4F90180839183A2835F
:103D4000B3838E0107531F4FCE0183579F4F20E04F
:103D500030E04AE755E4FC01608171818281938102
:103D60000E94E327DC01CB01F80180839183A283C9
:103D7000B383CE0187539F4F20E030E040E85FE3FC
:103D8000FC0160817181828193810E945D2788237B
:103D90004CF4CE0183539F4F21E030E0FC0131838E
:103DA00020836DC0CE0187539F4F20E03FEF4FE748
:103DB00057E4FC0160817181828193810E94DE273A
:103DC00018160CF04AC0CE0183579F4F20E030E018
:103DD00040E251E4FC0160817181828193810E9403
:103DE000E327DC01CB018E0103531F4FBC01CD0142
:103DF0000E946227DC01CB01F8019183808324C0FB
:103E0000CE0181539F4F20E931E0FC0131832083B3
:103E1000CE0181539F4FFC01808191810197F1F781
:103E20009E0121533F4FF90191838083CE0183533B
:103E30009F4F9E0123533F4FF90120813181215033
:103E40003109FC0131832083CE0183539F4FFC0154
:103E500080819181892BA1F62CC08E0103531F4FC5
:103E6000CE0187539F4FFC016081718182819381D4
:103E70000E946227DC01CB01F80191838083CE018F
:103E80008F529F4F9E0123533F4FF9012081318173
:103E9000FC0131832083CE018F529F4FFC01808132
:103EA00091810197F1F79E012F523F4FF9019183C4
:103EB00080838FE692E00E9457019E012F563F4F6C
:103EC00080E090E0AFEAB3E4F90180839183A283BC
:103ED000B3838E0101541F4FCE018F569F4F20E0B8
:103EE00030E04AE755E4FC01608171818281938171
:103EF0000E94E327DC01CB01F80180839183A28338
:103F0000B383CE0181549F4F20E030E040E85FE36F
:103F1000FC0160817181828193810E945D278823E9
:103F20004CF4CE018D539F4F21E030E0FC013183F2
:103F300020836DC0CE0181549F4F20E03FEF4FE7BB
:103F400057E4FC0160817181828193810E94DE27A8
:103F500018160CF04AC0CE018F569F4F20E030E07B
:103F600040E251E4FC0160817181828193810E9471
:103F7000E327DC01CB018E010D531F4FBC01CD01A6
:103F80000E946227DC01CB01F8019183808324C069
:103F9000CE018B539F4F20E931E0FC013183208318
:103FA000CE018B539F4FFC01808191810197F1F7E6
:103FB0009E012B533F4FF90191838083CE018D5396
:103FC0009F4F9E012D533F4FF90120813181215098
:103FD0003109FC0131832083CE018D539F4FFC01B9
:103FE00080819181892BA1F62CC08E010D531F4F2A
:103FF000CE0181549F4FFC01608171818281938148
:104000000E946227DC01CB01F80191838083CE01FD
:1040100089539F4F9E012D533F4FF90120813181DC
:10402000FC0131832083CE0189539F4FFC018081A5
:1040300091810197F1F79E0129533F4FF901918337
:1040400080838FE592E00E9457019E012B563F4FDF
:1040500080E090E0A6E9B3E4F90180839183A28334
:10406000B3838E010B541F4FCE018B569F4F20E020
:1040700030E04AE755E4FC016081718182819381DF
:104080000E94E327DC01CB01F80180839183A283A6
:10409000B383CE018B549F4F20E030E040E85FE3D4
:1040A000FC0160817181828193810E945D27882358
:1040B0004CF4CE0187549F4F21E030E0FC01318366
:1040C00020836DC0CE018B549F4F20E03FEF4FE720
:1040D00057E4FC0160817181828193810E94DE2717
:1040E00018160CF04AC0CE018B569F4F20E030E0EE
:1040F00040E251E4FC0160817181828193810E94E0
:10410000E327DC01CB018E0107541F4FBC01CD0119
:104110000E946227DC01CB01F8019183808324C0D7
:10412000CE0185549F4F20E931E0FC01318320838B
:10413000CE0185549F4FFC01808191810197F1F759
:104140009E0125543F4FF90191838083CE0187540E
:104150009F4F9E0127543F4FF9012081318121500B
:104160003109FC0131832083CE0187549F4FFC012C
:1041700080819181892BA1F62CC08E0107541F4F9D
:10418000CE018B549F4FFC016081718182819381AC
:104190000E946227DC01CB01F80191838083CE016C
:1041A00083549F4F9E0127543F4FF9012081318155
:1041B000FC0131832083CE0183549F4FFC01808119
:1041C00091810197F1F79E0123543F4FF9019183AB
:1041D00080838FE992E00E9457019E0127563F4F4E
:1041E00080E090E0A6E1B3E4F90180839183A283AB
:1041F000B3838E0105551F4FCE0187569F4F20E098
:1042000030E04AE755E4FC0160817181828193814D
:104210000E94E327DC01CB01F80180839183A28314
:10422000B383CE0185559F4F20E030E040E85FE347
:10423000FC0160817181828193810E945D278823C6
:104240004CF4CE0181559F4F21E030E0FC013183D9
:1042500020836DC0CE0185559F4F20E03FEF4FE793
:1042600057E4FC0160817181828193810E94DE2785
:1042700018160CF04AC0CE0187569F4F20E030E060
:1042800040E251E4FC0160817181828193810E944E
:10429000E327DC01CB018E0101551F4FBC01CD018D
:1042A0000E946227DC01CB01F8019183808324C046
:1042B000CE018F549F4F20E931E0FC0131832083F0
:1042C000CE018F549F4FFC01808191810197F1F7BE
:1042D0009E012F543F4FF90191838083CE01815578
:1042E0009F4F9E0121553F4FF9012081318121507F
:1042F0003109FC0131832083CE0181559F4FFC01A0
:1043000080819181892BA1F62CC08E0101551F4F10
:10431000CE0185559F4FFC0160817181828193811F
:104320000E946227DC01CB01F80191838083CE01DA
:104330008D549F4F9E0121553F4FF90120813181BE
:10434000FC0131832083CE018D549F4FFC0180817D
:1043500091810197F1F79E012D543F4FF90191830F
:1043600080838FEA92E00E9457019E0123563F4FBF
:1043700080E090E0A6E1B3E4F90180839183A28319
:10438000B3838E010F551F4FCE0183569F4F20E000
:1043900030E04AE755E4FC016081718182819381BC
:1043A0000E94E327DC01CB01F80180839183A28383
:1043B000B383CE018F559F4F20E030E040E85FE3AC
:1043C000FC0160817181828193810E945D27882335
:1043D0004CF4CE018B559F4F21E030E0FC0131833E
:1043E00020836DC0CE018F559F4F20E03FEF4FE7F8
:1043F00057E4FC0160817181828193810E94DE27F4
:1044000018160CF04AC0CE0183569F4F20E030E0D2
:1044100040E251E4FC0160817181828193810E94BC
:10442000E327DC01CB018E010B551F4FBC01CD01F1
:104430000E946227DC01CB01F8019183808324C0B4
:10444000CE0189559F4F20E931E0FC013183208363
:10445000CE0189559F4FFC01808191810197F1F731
:104460009E0129553F4FF90191838083CE018B55E1
:104470009F4F9E012B553F4FF901208131812150E3
:104480003109FC0131832083CE018B559F4FFC0104
:1044900080819181892BA1F62CC08E010B551F4F75
:1044A000CE018F559F4FFC01608171818281938184
:1044B0000E946227DC01CB01F80191838083CE0149
:1044C00087559F4F9E012B553F4FF9012081318128
:1044D000FC0131832083CE0187559F4FFC018081F1
:1044E00091810197F1F79E0127553F4FF901918383
:1044F00080838DE292E00E9457010000C05DDD4F95
:104500000FB6F894DEBF0FBECDBFDF91CF911F91E4
:104510000F910895CF93DF93CDB7DEB78FEC92E084
:104520000E9457010000DF91CF910895CF93DF9350
:10453000CDB7DEB7AA970FB6F894DEBF0FBECDBFDA
:104540008FED92E00E94570180E090E0A6E9B3E48D
:1045500089839A83AB83BC8320E030E04AE755E44B
:1045600069817A818B819C810E94E327DC01CB01E8
:1045700089A39AA3ABA3BCA320E030E040E85FE3AB
:1045800069A17AA18BA19CA10E945D2788232CF4AC
:1045900081E090E09EA38DA33FC020E03FEF4FE776
:1045A00057E469A17AA18BA19CA10E94DE2718166D
:1045B0004CF520E030E040E251E469817A818B8162
:1045C0009C810E94E327DC01CB01BC01CD010E944C
:1045D0006227DC01CB019EA38DA30FC080E991E08F
:1045E00098A78FA38FA198A50197F1F798A78FA3FC
:1045F0008DA19EA101979EA38DA38DA19EA1892B24
:1046000069F714C069A17AA18BA19CA10E946227BD
:10461000DC01CB019EA38DA38DA19EA19AA789A7A2
:1046200089A59AA50197F1F79AA789A780EF92E04B
:104630000E94570180E090E0A6E9B3E48D839E8359
:10464000AF83B88720E030E04AE755E46D817E8192
:104650008F8198850E94E327DC01CB018F8B988F97
:10466000A98FBA8F20E030E040E85FE36F89788D52
:10467000898D9A8D0E945D2788232CF481E090E03B
:104680009C8F8B8F3FC020E03FEF4FE757E46F894F
:10469000788D898D9A8D0E94DE2718164CF520E0C2
:1046A00030E040E251E46D817E818F8198850E94E7
:1046B000E327DC01CB01BC01CD010E946227DC01B4
:1046C000CB019C8F8B8F0FC080E991E09E8F8D8FE7
:1046D0008D8D9E8D0197F1F79E8F8D8F8B8D9C8D8B
:1046E00001979C8F8B8F8B8D9C8D892B69F714C0C4
:1046F0006F89788D898D9A8D0E946227DC01CB01AC
:104700009C8F8B8F8B8D9C8D98A38F8F8F8D98A175
:104710000197F1F798A38F8F81E093E00E945701F2
:1047200080E090E0A6E9B3E489879A87AB87BC87ED
:1047300020E030E04AE755E469857A858B859C85E1
:104740000E94E327DC01CB018D879E87AF87B88B62
:1047500020E030E040E85FE36D857E858F859889B5
:104760000E945D2788232CF481E090E09A8B898B4E
:104770003FC020E03FEF4FE757E46D857E858F8592
:1047800098890E94DE2718164CF520E030E040E2C0
:1047900051E469857A858B859C850E94E327DC013D
:1047A000CB01BC01CD010E946227DC01CB019A8BB9
:1047B000898B0FC080E991E09C8B8B8B8B899C89C6
:1047C0000197F1F79C8B8B8B89899A8901979A8B3A
:1047D000898B89899A89892B69F714C06D857E85B3
:1047E0008F8598890E946227DC01CB019A8B898B87
:1047F00089899A899E8B8D8B8D899E890197F1F786
:104800009E8B8D8B0000AA960FB6F894DEBF0FBE6C
:10481000CDBFDF91CF910895CF93DF93CDB7DEB7B2
:10482000AA970FB6F894DEBF0FBECDBF81E290E02D
:104830002FE0FC01208384E290E0FC01108287E2FB
:1048400090E0FC0110828AE290E0FC0110827894F2
:104850000E94A7000E94C80080E40E94E90080E056
:1048600090E0A0E2B1E489879A87AB87BC8720E01B
:1048700030E04AE755E469857A858B859C850E94FE
:10488000E327DC01CB018D879E87AF87B88B20E0C3
:1048900030E040E85FE36D857E858F8598890E94D2
:1048A0005D2788232CF481E090E09A8B898B3FC0B0
:1048B00020E03FEF4FE757E46D857E858F8598892F
:1048C0000E94DE2718164CF520E030E040E251E46B
:1048D00069857A858B859C850E94E327DC01CB0165
:1048E000BC01CD010E946227DC01CB019A8B898B30
:1048F0000FC080E991E09C8B8B8B8B899C89019701
:10490000F1F79C8B8B8B89899A8901979A8B898B7C
:1049100089899A89892B69F714C06D857E858F8571
:1049200098890E946227DC01CB019A8B898B898947
:104930009A899E8B8D8B8D899E890197F1F79E8B2D
:104940008D8B0E9496030E94920275C084E40E949F
:10495000000180E090E0AAEFB3E489839A83AB83FF
:10496000BC8320E030E04AE755E469817A818B819D
:104970009C810E94E327DC01CB018F8B988FA98F4C
:10498000BA8F20E030E040E85FE36F89788D898D51
:104990009A8D0E945D2788232CF481E090E09C8F03
:1049A0008B8F3FC020E03FEF4FE757E46F89788D52
:1049B000898D9A8D0E94DE2718164CF520E030E094
:1049C00040E251E469817A818B819C810E94E327D6
:1049D000DC01CB01BC01CD010E946227DC01CB01CF
:1049E0009C8F8B8F0FC080E991E09E8F8D8F8D8D76
:1049F0009E8D0197F1F79E8F8D8F8B8D9C8D0197EA
:104A00009C8F8B8F8B8D9C8D892B69F714C06F8940
:104A1000788D898D9A8D0E946227DC01CB019C8F55
:104A20008B8F8B8D9C8D98A38F8F8F8D98A10197E5
:104A3000F1F798A38F8F80917A03882309F486CFAA
:104A40000E948A220E94960380E20E94E90080E090
:104A500090E4ACE9B5E48D839E83AF83B88720E012
:104A600030E04AE755E46D817E818F8198850E9410
:104A7000E327DC01CB0189A39AA3ABA3BCA320E06D
:104A800030E040E85FE369A17AA18BA19CA10E947C
:104A90005D2788232CF481E090E09EA38DA33FC086
:104AA00020E03FEF4FE757E469A17AA18BA19CA1D9
:104AB0000E94DE2718164CF520E030E040E251E479
:104AC0006D817E818F8198850E94E327DC01CB0177
:104AD000BC01CD010E946227DC01CB019EA38DA306
:104AE0000FC080E991E098A78FA38FA198A50197A7
:104AF000F1F798A78FA38DA19EA101979EA38DA3E7
:104B00008DA19EA1892B69F714C069A17AA18BA1FF
:104B10009CA10E946227DC01CB019EA38DA38DA1E5
:104B20009EA19AA789A789A59AA50197F1F79AA7A7
:104B300089A780E40E94E9000E9496030000AA96DB
:104B40000FB6F894DEBF0FBECDBFDF91CF910895B1
:104B5000CF93DF93CDB7DEB7CF54D1090FB6F8941A
:104B6000DEBF0FBECDBF0E940C240E94B703898315
:104B700089810E94C30380916803882321F00E94E9
:104B8000E2031092680380916703882321F00E945A
:104B900092021092670380916603882331F310928A
:104BA000660381E30E94000180916F03882F90E0EB
:104BB000AC014053510988EE93E0489F9001499F12
:104BC000300D589F300D112480917003882F90E094
:104BD000AC014053510964E6649FC001659F900D8C
:104BE0001124280F391F80917103882F90E0C097FE
:104BF000880F991FAC01440F551F440F551F840F98
:104C0000951F280F391F80917203882F90E0820F23
:104C1000931FC0979B838A8380917403882F90E0B1
:104C2000AC014053510988EE93E0489F9001499FA1
:104C3000300D589F300D112480917503882F90E01E
:104C4000AC014053510964E6649FC001659F900D1B
:104C50001124280F391F80917603882F90E0C09788
:104C6000880F991FAC01440F551F440F551F840F27
:104C7000951F280F391F80917703882F90E0820FAE
:104C8000931FC0979D838C838B818F938A818F9391
:104C90008D818F938C818F9382E193E0892F8F9305
:104CA00082E193E08F931F928EE18F93CE01C296A3
:104CB000292F2F938F930E94A6288DB79EB70A960F
:104CC0000FB6F894DEBF0FBECDBFCE01C2960E94D4
:104CD000360103C00E94B70389838091650388234E
:104CE00021F4809169038823A9F38981882F90E0BA
:104CF00081709927892B71F780916903882309F4C2
:104D0000CFC08C819D81805891409D838C838A8106
:104D10009B8192509B838A838C819D8125E030E02A
:104D2000B9010E947828CB019C0188EC90E0821B9D
:104D3000930B9D838C838A819B8125E030E0B901B0
:104D40000E947828CB019195819591099B838A8354
:104D50008B818F938A818F938D818F938C818F9399
:104D600088E193E0892F8F9388E193E08F931F92DE
:104D70008EE18F93CE014496292F2F938F930E941B
:104D8000A6288DB79EB70A960FB6F894DEBF0FBE61
:104D9000CDBFCE0144960E94780180E090E0A0E073
:104DA000B0E48E839F83A887B98720E030E04AE78C
:104DB00055E46E817F81888599850E94E327DC0117
:104DC000CB018A879B87AC87BD8720E030E040E835
:104DD0005FE36A857B858C859D850E945D2788239E
:104DE0002CF481E090E09F878E873FC020E03FEF6A
:104DF0004FE757E46A857B858C859D850E94DE2779
:104E000018164CF520E030E040E251E46E817F81DD
:104E1000888599850E94E327DC01CB01BC01CD0187
:104E20000E946227DC01CB019F878E870FC080E93B
:104E300091E0998B888B888999890197F1F7998BF3
:104E4000888B8E859F8501979F878E878E859F850E
:104E5000892B69F714C06A857B858C859D850E94A6
:104E60006227DC01CB019F878E878E859F859B8B78
:104E70008A8B8A899B890197F1F79B8B8A8B04C067
:104E800080E091E00E945701809136038133C1F3A5
:104E90000E94AB0381E30E9400011092690365CE7A
:104EA00080E10E94E9000E9496220E94960380E41D
:104EB0000E94E9001092650358CE0E94912708F4E1
:104EC00081E008950E94BD2788F09F5798F0B92F80
:104ED0009927B751B0F0E1F0660F771F881F991F2F
:104EE0001AF0BA95C9F714C0B13091F00E94D727D3
:104EF000B1E008950C94D727672F782F8827B85FE3
:104F000039F0B93FCCF3869577956795B395D9F786
:104F10003EF490958095709561957F4F8F4F9F4F90
:104F20000895990F0008550FAA0BE0E8FEEF16163A
:104F30001706E807F907C0F012161306E407F5078D
:104F400098F0621B730B840B950B39F40A2661F001
:104F5000232B242B252B21F408950A2609F4A140A4
:104F6000A6958FEF811D811D089557FD9058440F20
:104F7000551F59F05F3F71F04795880F97FB991FB8
:104F800061F09F3F79F08795089512161306140675
:104F9000551FF2CF4695F1DF08C016161706180602
:104FA000991FF1CF86957105610508940895E894DD
:104FB000BB2766277727CB0197F908950E94912791
:104FC00008F48FEF08950E94F6270C9467280E943A
:104FD000592838F00E94602820F0952311F00C9495
:104FE00050280C94562811240C94D8270E94B527D9
:104FF00070F3959FC1F3950F50E0551F629FF0012C
:10500000729FBB27F00DB11D639FAA27F00DB11D44
:10501000AA1F649F6627B00DA11D661F829F2227CD
:10502000B00DA11D621F739FB00DA11D621F839F54
:10503000A00D611D221F749F3327A00D611D231F2A
:10504000849F600D211D822F762F6A2F11249F5778
:1050500050409AF0F1F088234AF0EE0FFF1FBB1F7B
:10506000661F771F881F91505040A9F79E3F51053A
:1050700080F00C9450280C94D8275F3FE4F3983EBE
:10508000D4F3869577956795B795F795E7959F5FE4
:10509000C1F7FE2B880F911D9695879597F9089576
:1050A00097F99F6780E870E060E008959FEF80ECDB
:1050B000089500240A94161617061806090608957E
:1050C00000240A9412161306140605060895092EE4
:1050D0000394000C11F4882352F0BB0F40F4BF2B53
:1050E00011F460FF04C06F5F7F4F8F4F9F4F089593
:1050F00097FB072E16F4009407D077FD09D00E9485
:10510000922807FC05D03EF4909581959F4F089515
:10511000709561957F4F0895EE0FFF1F0590F491F4
:10512000E02D0994AA1BBB1B51E107C0AA1FBB1F9E
:10513000A617B70710F0A61BB70B881F991F5A9523
:10514000A9F780959095BC01CD010895AEE0B0E03F
:10515000ECEAF8E20C94752B0D891E898F89988DE5
:1051600026E02C831A83098397FF02C080E090E831
:1051700001979E838D83AE01455E5F4F698D7A8D69
:10518000CE0101960E94D6284D815E8157FD0AC04E
:105190002F813885421753070CF49A01F801E20F6A
:1051A000F31F10822E96E4E00C94912BABE0B0E05C
:1051B000ECEDF8E20C94672B6C017B018A01FC0199
:1051C00017821682838181FFCCC1CE0101963C01FA
:1051D000F6019381F70193FD859193FF81917F0102
:1051E000882309F4BAC1853239F493FD859193FF80
:1051F00081917F01853229F4B60190E00E94CD2A89
:10520000E7CF912C212C312CFFE1F315D8F08B3214
:1052100079F038F4803279F08332A1F4232D2061C3
:105220001DC08D3261F0803369F4232D216016C0DA
:10523000832D8260382EE32DE4603E2E2AC0F32DAC
:10524000F8601DC037FC2DC020ED280F2A3040F03B
:105250008E32B9F436FC81C1232D2064322E19C060
:1052600036FE06C08AE0989E200D1124922E11C0B1
:10527000EAE02E9E200D1124222EF32DF0623F2E07
:1052800008C08C3621F4832D8068382E02C0883601
:1052900041F4F70193FD859193FF81917F01811185
:1052A000B3CF982F9F7D9554933028F40C5F1F4FF8
:1052B0009FE399830DC0833631F0833771F08335D6
:1052C00009F059C021C0F801808189830E5F1F4F0A
:1052D00088248394912C530113C02801F2E04F0ECF
:1052E000511CF801A080B18036FE03C0692D70E02A
:1052F00002C06FEF7FEFC5010E94C22A4C018201FC
:10530000F32DFF773F2E16C0280122E0420E511CDC
:10531000F801A080B18036FE03C0692D70E002C0A4
:105320006FEF7FEFC5010E94B72A4C01F32DF068A3
:105330003F2E820133FC1BC0822D90E08816990617
:10534000B0F4B60180E290E00E94CD2A2A94F4CF16
:10535000F50137FC859137FE81915F01B60190E040
:105360000E94CD2A21102A9421E0821A91088114EA
:10537000910471F7E8C0843611F0893641F5F801DF
:1053800037FE07C060817181828193810C5F1F4F5E
:1053900008C060817181072E000C880B990B0E5F8D
:1053A0001F4FF32DFF763F2E97FF09C090958095F4
:1053B000709561957F4F8F4F9F4FF0683F2E2AE089
:1053C00030E0A3010E94092B882E861845C085373E
:1053D00031F4232D2F7EB22E2AE030E025C0932D0C
:1053E000997FB92E8F36C1F018F4883579F0B5C0A1
:1053F000803719F0883721F0B0C0E92FE061BE2E68
:10540000B4FE0DC0FB2DF460BF2E09C034FE0AC0EF
:10541000292F2660B22E06C028E030E005C020E12A
:1054200030E002C020E132E0F801B7FE07C0608141
:105430007181828193810C5F1F4F06C060817181F1
:1054400080E090E00E5F1F4FA3010E94092B882E81
:105450008618FB2DFF773F2E36FE0DC0232D2E7FA5
:10546000A22E891458F434FE0BC032FC09C0832DDF
:105470008E7EA82E05C0B82CA32C03C0B82C01C06A
:10548000B92CA4FE0FC0FE01E80DF11D8081803310
:1054900021F49A2D997EA92E09C0A2FE06C0B394CC
:1054A000B39404C08A2D867809F0B394A3FC11C08C
:1054B000A0FE06C0B21488F4280C922C9B180EC0D3
:1054C000B21460F4B60180E290E00E94CD2AB39459
:1054D000F7CFB21418F42B1802C0982C212CA4FE7C
:1054E00010C0B60180E390E00E94CD2AA2FE17C052
:1054F000A1FC03C088E790E002C088E590E0B60117
:105500000CC08A2D867859F0A1FE02C08BE201C042
:1055100080E2A7FC8DE2B60190E00E94CD2A8914BA
:1055200038F4B60180E390E00E94CD2A9A94F7CF38
:105530008A94F301E80DF11D8081B60190E00E948C
:10554000CD2A8110F5CF222009F442CEB60180E2A7
:1055500090E00E94CD2A2A94F6CFF60186819781A9
:1055600002C08FEF9FEF2B96E2E10C94832BFC019E
:105570000590615070400110D8F7809590958E0F7E
:105580009F1F0895FC016150704001900110D8F7F1
:10559000809590958E0F9F1F08950F931F93CF9323
:1055A000DF93FB01238121FD03C08FEF9FEF2CC010
:1055B00022FF16C046815781248135814217530747
:1055C00044F4A081B1819D012F5F3F4F318320833F
:1055D0008C93268137812F5F3F4F3783268314C0FA
:1055E0008B01EC01FB010084F185E02D0995892BED
:1055F000E1F6D80116968D919C9117970196179612
:105600009C938E931697CE01DF91CF911F910F91AE
:105610000895FA01AA27283051F1203181F1E89448
:105620006F936E7F6E5F7F4F8F4F9F4FAF4FB1E095
:105630003ED0B4E03CD0670F781F891F9A1FA11D90
:10564000680F791F8A1F911DA11D6A0F711D811D91
:10565000911DA11D20D009F468943F912AE0269F56
:1056600011243019305D3193DEF6CF010895462FB5
:105670004770405D4193B3E00FD0C9F7F6CF462F96
:105680004F70405D4A3318F0495D31FD40524193FF
:1056900002D0A9F7EACFB4E0A695979587957795BC
:1056A0006795BA95C9F700976105710508959B0143
:1056B000AC010A2E06945795479537952795BA95CC
:1056C000C9F7620F731F841F951FA01D08952F92A5
:1056D0003F924F925F926F927F928F929F92AF9282
:1056E000BF92CF92DF92EF92FF920F931F93CF93CF
:1056F000DF93CDB7DEB7CA1BDB0B0FB6F894DEBF66
:105700000FBECDBF09942A88398848885F846E848B
:105710007D848C849B84AA84B984C884DF80EE80D5
:10572000FD800C811B81AA81B981CE0FD11D0FB6DE
:10573000F894DEBF0FBECDBFED010895F894FFCF02
:105740004D323230300A0047302058323030205944
:1057500030205A3135302046363030300A0047305C
:105760002058323030205930205A2D3230204636E1
:105770003030300A00473232303420582564205906
:105780003030205A30302046313030300A00473235
:105790003230342058303020593030205A2564209F
:1057A00046313030300A0047323230342058303001
:1057B00020592564205A30302046313030300A00DC
:1057C0004D32323130204635303020543230300ABC
:1057D000004D3232313020463130303020543530B7
:1057E000300A004D323231302046323030302054D1
:1057F0003530300A004D32323130204632303030D0
:1058000020543230300A004D3232313020463636A4
:105810003020543130300A004D323231302046359C
:10582000313020543130300A004D32323130204690
:1058300037373020543130300A004D323231302089
:105840004633383020543130300A004D3232313056
:10585000204633323020543130300A004D3232315C
:1058600030204634343020543130300A004D32324A
:1058700031302046343830205438300A004D32322E
:105880003130204634353020543130300A004D322A
:10589000323130204634333020543130300A004D1C
:1058A000323231302046363630205438300A004DFE
:1058B000323231302046373630205435300A004DF0
:1058C00032323130204638363020543130300A0000
:1058D0004D3232313020373030205438300A004DCC
:1058E000323231302046353230205438300A004DC3
:1058F000323231302046353830205438300A004DAD
:10590000323231302046373030205438300A004DA2
:10591000323231302046353030205432300A004D9A
:1059200032323130204638303020543235300A009F
:105930004D32323130204634303020543235300A46
:10594000004D323231302046323030205432353042
:105950000A0025642025640047302058256420591A
:105960002564205A2D32302046363030300A00006F
:00000001FF
