:100000000C943E000C945B000C945B000C945B0021
:100010000C945B000C945B000C945B000C945B00F4
:100020000C945B000C945B000C945B000C945B00E4
:100030000C945B000C945B000C945B000C945B00D4
:100040000C949D020C945B000C945B000C945B0080
:100050000C94E1010C945B000C945B000C945B002D
:100060000C945B000C945B000C945B000C945B00A4
:100070000C945B000C945B000C945B0011241FBE7D
:10008000CFEFD0E1DEBFCDBF11E0A0E0B1E0E4EF03
:10009000FBE002C005900D92A235B107D9F721E02F
:1000A000A2E5B1E001C01D92AC3AB207E1F70E94AF
:1000B0002F020C94F8050C940000CF93DF9300D02E
:1000C0001F92CDB7DEB7198282E290E022E230E0E3
:1000D000F90120812062FC01208382E290E022E28B
:1000E00030E0F90120812F7DFC01208382E290E045
:1000F00022E230E0F90120812062FC01208387E0C8
:1001000090E09B838A8330C080E290E0FC01808194
:10011000882F90E08078992747E050E02A813B8142
:10012000BA01621B730B9B0102C0959587952A95B6
:10013000E2F7982F8981892B898382E290E022E27D
:1001400030E0F90120812F7BFC01208382E290E0E6
:1001500022E230E0F90120812064FC0120838A81C1
:100160009B8101979B838A838A819B81992364F673
:1001700089810F900F900F90DF91CF910895CF93C9
:10018000DF931F92CDB7DEB785E290E025E230E045
:10019000F9012081207FFC01208384E290E020EFA0
:1001A000FC012083000000000000000000000000AF
:1001B000000000000000000083E290E0FC0180816C
:1001C0008F70898384E290E02FEFFC012083898186
:1001D0000F90DF91CF910895CF93DF93CDB7DEB726
:1001E0008AE790E02AE730E0F90120812068FC01ED
:1001F00020838CE790E02CE730E0F9012081206437
:10020000FC0120838AE790E02AE730E0F9012081B1
:100210002760FC0120830000DF91CF910895CF93E8
:10022000DF93CDB7DEB784EC90E020E130E0FC0155
:100230003183208380EC90E020EC30E0F9012081D4
:100240002260FC01208381EC90E021EC30E0F90198
:1002500020812869FC0120830000DF91CF9108955F
:10026000CF93DF931F92CDB7DEB78983000080EC78
:1002700090E0FC018081882F90E080729927892B83
:10028000B1F386EC90E02981FC01208300000F90FF
:10029000DF91CF910895CF93DF9300D0CDB7DEB734
:1002A0009A83898381E0809356010E94290560E04A
:1002B00071E088E591E00E94CC059093A3018093C2
:1002C000A2011AC08091A2019091A3012091550131
:1002D000AC0160E0822F0E94CD03809155018F5FB9
:1002E0008093550160E071E080E090E00E94CC05D1
:1002F0009093A3018093A2018091A2019091A30108
:10030000892B01F7109255011092560189819A812B
:10031000CC01A0E0B0E0BC01CD010E9423030000AD
:100320000F900F90DF91CF910895CF93DF9300D07E
:10033000CDB7DEB79A8389830BC089819A81FC018E
:1003400080810E94300189819A8101969A838983F4
:1003500089819A81FC018081882379F71092560166
:100360000000809156018823E1F300000F900F9068
:10037000DF91CF910895CF93DF9300D0CDB7DEB753
:100380009A83898389819A810E94950182E091E014
:100390000E94950104C082E091E00E949501809145
:1003A0005C018133C1F389E091E00E94950180E016
:1003B00090E00E944B0100000F900F90DF91CF91D1
:1003C00008951F920F9200905F000F9211242F93B7
:1003D0008F939F93EF93FF93CF93DF931F92CDB7AC
:1003E000DEB786EC90E0FC01808189838091560124
:1003F000882331F589818A30B1F089818D3099F077
:1004000080915701823378F480915701882F90E0D2
:10041000885A9E4F2981FC012083809157018F5F6C
:10042000809357010DC080915701882F90E0885A22
:100430009E4FFC0110821092570181E0809356017B
:1004400000000F90DF91CF91FF91EF919F918F91DD
:100450002F910F9000925F000F901F901895CF92F0
:10046000EF920F93CF93DF9300D0CDB7DEB70E940A
:100470008C0568EE73E080E090E00E9423030E9408
:1004800029050E94EC000E940F0185E191E00E9485
:10049000BB010E94290581E291E00E94BB0188E234
:1004A00091E00E94BB0186E391E00E94BB0189813B
:1004B000882F90E0A0E0B0E06894CC24C1F8689464
:1004C000EE24E1F802E09C01AD0167E080E00E94CB
:1004D000EC030E94BF008A830E945D008093540158
:1004E00084E491E00E94BB01F4CFCF93DF93CDB7BA
:1004F000DEB784E490E024E430E0F901208122605A
:10050000FC01208385E490E025E430E0F9012081BE
:100510002360FC01208387E490E029EFFC01208325
:100520008EE690E02EE630E0F90120812260FC01A9
:1005300020830000DF91CF9108951F920F920090C9
:100540005F000F9211242F933F934F935F936F930C
:100550007F938F939F93AF93BF93EF93FF93CF932B
:10056000DF93CDB7DEB780918F0190919001A0917C
:100570009101B09192010196A11DB11D80938F014F
:1005800090939001A0939101B093920180918F017B
:1005900090919001A0919101B091920128EE33E0E9
:1005A00040E050E0BC01CD010E94AA05DC01CB0176
:1005B000892B8A2B8B2B99F4809193019091940134
:1005C000A0919501B09196010196A11DB11D809356
:1005D000930190939401A0939501B093960180911B
:1005E0008B0190918C01A0918D01B0918E01892B8E
:1005F0008A2B8B2B99F080918B0190918C01A0918B
:100600008D01B0918E010197A109B10980938B01F1
:1006100090938C01A0938D01B0938E010000DF9127
:10062000CF91FF91EF91BF91AF919F918F917F916A
:100630006F915F914F913F912F910F9000925F00CA
:100640000F901F901895CF93DF9300D000D0CDB7B7
:10065000DEB769837A838B839C8389819A81AB819E
:10066000BC81892B8A2B8B2B69F089819A81AB8184
:10067000BC8180938B0190938C01A0938D01B093EA
:100680008E010CC081E090E0A0E0B0E080938B018F
:1006900090938C01A0938D01B0938E010000809106
:1006A0008B0190918C01A0918D01B0918E01892BCD
:1006B0008A2B8B2BA1F700000F900F900F900F90BB
:1006C000DF91CF910895CF93DF9300D0CDB7DEB700
:1006D0008A83198204C0000089818F5F8983998190
:1006E0008A819817C0F300000F900F90DF91CF918F
:1006F000089591E090939701409A41984198419ACA
:10070000419A41984198419A419A41984198419A19
:10071000419A41984198419A419A41984198419A09
:10072000409841984198419A8334A9F1409A419860
:100730004198419A409841984198419A84E0419863
:1007400060FF27C0409A66954198419A8150B9F759
:10075000409884E041984198419A8150D9F784E0CB
:10076000419860FF14C0409A66954198419A815023
:10077000B9F7409884E041984198419A8150D9F75F
:1007800084E1409A8150E9F71092970108954098CA
:10079000EBCF4098D8CF4098CACF0F931F93DF93E9
:1007A0008A0190E2899F600D1124606883E40E94B1
:1007B0007903F8016081662359F0D0E0DF5F84E4BB
:1007C0000E947903F801ED0FF11D60816111F6CFF0
:1007D000DF911F910F9108952F923F924F925F9258
:1007E0006F927F928F929F92AF92BF92CF92DF9241
:1007F000EF92FF920F931F93CF93DF93CDB7DEB7A6
:1008000063970FB6F894DEBF0FBECDBF8A8B6B8B9C
:1008100029013A01C88A043608F4BDC00456198A71
:100820000B3008F00AE0EF8688898E1508F48F8770
:10083000202E312CC101EF858E0F911D0B971CF0DE
:100840008AE0801B8F87C301B2012AE030E040E0DC
:1008500050E00E94AA05605D6C871AE03AE0C32E62
:10086000D12CE12CF12C4AE0842E912CA12CB12C1E
:1008700081E090E08C0F9D1F810F911D9E878D87D9
:10088000C301B201A70196010E94AA05CA01B901DC
:10089000A50194010E94AA05605DED85FE85608337
:1008A000CC0CDD1CEE1CFF1CD701C601880F991F64
:1008B000AA1FBB1F880F991FAA1FBB1FC80ED91ED6
:1008C000EA1EFB1E1150A0F62CE0F8892F1B822F88
:1008D000801B002309F485C0FE013196A1E0B0E041
:1008E000AC0FBD1FA80FB11D9C9191938F5F281372
:1008F000F5CF8F85811152C0F10181E090E08C0F1E
:100900009D1FE80FF91F10829989992321F1898190
:10091000803309F5A1014150510914161506DCF484
:1009200080E090E020E060E203C0841795079CF42B
:100930002F5FE1E0F0E0EC0FFD1FE80FF91F60838F
:10094000822F90E0E1E0F0E0EC0FFD1FE80FF91FCF
:100950003081303351F3AE014F5F5F4F6B898A892D
:100960000E94CD0363960FB6F894DEBF0FBECDBFD5
:10097000DF91CF911F910F91FF90EF90DF90CF907B
:10098000BF90AF909F908F907F906F905F904F90AF
:100990003F902F90089521E0298B42CF0F5F8EE288
:1009A000E1E0F0E0EC0FFD1FE20DF31D8083E02F8E
:1009B000201B822F8E0FA1E0B0E0AC0FBD1FA80F4F
:1009C000B11D8C91A1E0B0E0AC0FBD1FAE0FB11D09
:1009D0008C93EF5F8E2F801B9F85891750F3F0E07B
:1009E0008CCFEF85EE2321F08EE2898301E0DFCF0B
:1009F000E0E0F0E082CFDF93389A399AD2E388E7DB
:100A00000E946303D150D9F764E383E40E94790321
:100A100064E383E40E94790369E083E40E9479033C
:100A200060E383E40E9479036CE083E40E9479032D
:100A300061E083E40E947903D8E088E70E946303C1
:100A4000D150D9F767E083E40E947903DF910C94D9
:100A50007502DF9361E083E40E947903D8E088E7C0
:100A60000E946303D150D9F7DF910895CF93DF93AC
:100A70001F92CDB7DEB785E290E021E0FC01208334
:100A8000198217C062E370E080E090E00E942303C7
:100A900085E290E02981422F50E021E030E002C061
:100AA000220F331F4A95E2F7FC01208389818F5F73
:100AB00089838981883030F385E290E020E8FC0169
:100AC0002083198217C062E370E080E090E00E940A
:100AD000230385E290E02981422F50E020E830E0B6
:100AE00002C0359527954A95E2F7FC01208389815C
:100AF0008F5F89838981883030F364E670E080E01D
:100B000090E00E94230385E290E0FC011082000047
:100B10000F90DF91CF910895CF93DF93CDB7DEB7DC
:100B200081E290E020E6FC01208384E290E02FEF58
:100B3000FC0120838AE290E02CEFFC012083789472
:100B40000E94FB040E9429050E9436050000DF91E7
:100B5000CF910895A1E21A2EAA1BBB1BFD010DC067
:100B6000AA1FBB1FEE1FFF1FA217B307E407F5075D
:100B700020F0A21BB30BE40BF50B661F771F881F39
:100B8000991F1A9469F760957095809590959B01CF
:100B9000AC01BD01CF01089542E551E00E94D105AD
:100BA0000895FA01A191B081009719F41097E1F02E
:100BB000CD01DC01CD010D90002011F4C00113C066
:100BC000FB012191222319F02015D9F7F3CFFB0166
:100BD0002191201519F41E92119606C02223C1F707
:100BE0000D900020A1F7D001FA01A193B0830895E0
:040BF000F894FFCFA7
:100BF40020004D323230300A0050323232300A0096
:100C040047302058004730204D323032204E300AD1
:100C14000050323230310A004732323032204E3006
:100C2400205634350A004732323032204E312056B5
:100C340034350A004732323032204E3020563930B3
:020C44000A00A4
:00000001FF
