S01200004D795F50726F6A6563742E7372656316
S11300000C945C000C9479000C9479000C947900A5
S11300100C9479000C9479000C9479000C94790078
S11300200C9479000C9479000C9479000C94790068
S11300300C9479000C9479000C9479000C94790058
S11300400C94D8050C9479000C9479000C947900E4
S11300500C9408030C9479000C9479000C947900A6
S11300600C9479000C9479000C9479000C94790028
S11300700C9479000C9479000C9479004E414E490B
S11300804E495459494E46CDCCCC3D0AD7233C1752
S1130090B7D13877CC2B329595E6241FB14F0A009F
S11300A00020410000C84200401C4620BCBE4CCA8F
S11300B01B0E5AAEC59D740011241FBECFEFD0E1B4
S11300C0DEBFCDBF11E0A0E0B1E0EEE2FEE102C090
S11300D005900D92A23CB107D9F722E0A2ECB1E061
S11300E001C01D92A035B207E1F70E94B8040C9438
S11300F0150F0C940000CF93DF9300D01F92CDB75F
S1130100DEB7198282E290E022E230E0F901208138
S11301102062FC01208382E290E022E230E0F901D7
S113012020812F7DFC01208382E290E022E230E0F6
S1130130F90120812062FC01208387E090E09B8309
S11301408A8330C080E290E0FC018081882F90E0B7
S11301508078992747E050E02A813B81BA01621BED
S1130160730B9B0102C0959587952A95E2F7982F0A
S11301708981892B898382E290E022E230E0F901CF
S113018020812F7BFC01208382E290E022E230E098
S1130190F90120812064FC0120838A819B810197DD
S11301A09B838A838A819B81992364F689810F903A
S11301B00F900F90DF91CF910895CF93DF931F920B
S11301C0CDB7DEB785E290E025E230E0F901208189
S11301D0207FFC01208384E290E020EFFC01208357
S11301E0000000000000000000000000000000000B
S11301F00000000083E290E0FC0180818F7089831D
S113020084E290E02FEFFC01208389810F90DF913D
S1130210CF910895CF93DF93CDB7DEB78AE790E00F
S11302202AE730E0F90120812068FC0120838CE773
S113023090E02CE730E0F90120812064FC01208368
S11302408AE790E02AE730E0F90120812760FC0189
S113025020830000DF91CF910895CF93DF9300D0E6
S11302601F92CDB7DEB78B838CE790E02CE730E0AC
S1130270F9012081322F387F2B81232BFC0120832D
S11302808AE790E02AE730E0F90120812064FC014C
S1130290208300008AE790E0FC018081882F90E0B1
S11302A080749927892BB1F788E790E0FC0180815D
S11302B0282F30E089E790E0FC018081882F90E0CE
S11302C0982F8827820F931F9A83898389819A8123
S11302D00F900F900F90DF91CF910895CF93DF93FC
S11302E0CDB7DEB784EC90E020E130E0FC0131834F
S11302F0208380EC90E020EC30E0F9012081226042
S1130300FC01208381EC90E021EC30E0F9012081B4
S11303102869FC0120830000DF91CF910895CF93D9
S1130320DF931F92CDB7DEB78983000080EC90E0A5
S1130330FC018081882F90E080729927892BB1F38A
S113034086EC90E02981FC01208300000F90DF916E
S1130350CF910895CF93DF9300D0CDB7DEB79A83C2
S1130360898381E08093C6010E94640860E071E0A3
S113037088EC91E00E946A09909313028093120220
S11303801AC080911202909113022091C501AC0110
S113039060E0822F0E9408078091C5018F5F8093DF
S11303A0C50160E071E080E090E00E946A099093EA
S11303B01302809312028091120290911302892BEE
S11303C001F71092C5011092C60189819A81CC016E
S11303D0A0E0B0E0BC01CD010E945E0600000F90D9
S11303E00F90DF91CF910895CF93DF9300D0CDB7D5
S11303F0DEB79A8389830BC089819A81FC0180814D
S11304000E948F0189819A8101969A8389838981C7
S11304109A81FC018081882379F71092C60100003B
S11304208091C6018823E1F300000F900F90DF91C3
S1130430CF910895CF93DF9300D0CDB7DEB79A83E1
S1130440898389819A810E94F40182E091E00E946B
S1130450F40104C082E091E00E94F4018091CC0197
S11304608133C1F389E091E00E94F40180E090E0DF
S11304700E94AA0100000F900F90DF91CF91089580
S1130480CF93DF93CDB7DEB727970FB6F894DEBFCF
S11304900FBECDBF8F8389E091E00E94F40181E01B
S11304A08093C60160E071E088EC91E00E946A09E3
S11304B090931302809312021092C50195C08F810C
S11304C0882F90E08230910571F18330910509F411
S11304D051C0019709F079C08091C501813009F0BC
S11304E06FC08091120290911302019690931302AF
S11304F08093120280911202909113020E94660965
S1130500DC01CB0189839A83AB83BC8369817A81C3
S11305108B819C810E94E508DC01CB019E838D8345
S11305208D819E816CC08091C501823009F04AC0E2
S1130530809112029091130201969093130280937A
S1130540120280911202909113020E946609DC014A
S1130550CB0189839A83AB83BC8369817A818B8144
S11305609C810E94E508DC01CB019E838D838D81F3
S11305709E8145C08091C501833031F5809112027E
S1130580909113020196909313028093120280912A
S11305901202909113020E946609DC01CB01898347
S11305A09A83AB83BC8369817A818B819C810E940D
S11305B0E508DC01CB019E838D838D819E811FC064
S11305C0000003C0000001C000008091C5018F5FDE
S11305D08093C50160E071E080E090E00E946A09C8
S11305E0909313028093120280911202909113024D
S11305F0892B09F064CF1092C5011092C601279689
S11306000FB6F894DEBF0FBECDBFDF91CF91089532
S11306101F920F9200905F000F9211242F938F93DB
S11306209F93EF93FF93CF93DF931F92CDB7DEB7E2
S113063086EC90E0FC01808189838091C601882347
S113064031F589818A30B1F089818D3099F08091BA
S1130650C701823378F48091C701882F90E08853D2
S11306609E4F2981FC0120838091C7018F5F809375
S1130670C7010DC08091C701882F90E088539E4F19
S1130680FC0110821092C70181E08093C601000032
S11306900F90DF91CF91FF91EF919F918F912F91C7
S11306A00F9000925F000F901F901895CF93DF93E7
S11306B000D01F92CDB7DEB789837B836A8389819B
S11306C0882F90E08330910509F464C0843091054B
S11306D044F48130910509F4D7C0029709F4A9C004
S11306E0F7C08530910539F0853091050CF476C05A
S11306F0069761F1EDC08A819B819195819591095D
S11307009B838A838B818F938A818F9386E491E084
S1130710892F8F9386E491E08F931F9282E38F93C6
S113072088E192E0892F8F9388E192E08F930E9471
S113073096098DB79EB708960FB6F894DEBF0FBE24
S1130740CDBF88E192E00E94F401C2C08B818F93F7
S11307508A818F9386E491E0892F8F9386E491E0D8
S11307608F931F9282E38F9388E192E0892F8F9376
S113077088E192E08F930E9496098DB79EB7089600
S11307800FB6F894DEBF0FBECDBF88E192E00E94A1
S1130790F4019EC08B818F938A818F938FE591E0C2
S11307A0892F8F938FE591E08F931F9282E38F932C
S11307B088E192E0892F8F9388E192E08F930E94E1
S11307C096098DB79EB708960FB6F894DEBF0FBE94
S11307D0CDBF88E192E00E94F4017AC08A819B81B6
S11307E09195819591099B838A838B818F938A81CB
S11307F08F938FE591E0892F8F938FE591E08F930D
S11308001F9282E38F9388E192E0892F8F9388E18E
S113081092E08F930E9496098DB79EB708960FB603
S1130820F894DEBF0FBECDBF88E192E00E94F401D0
S11308304FC08A819B819195819591099B838A837D
S11308408B818F938A818F9388E791E0892F8F938F
S113085088E791E08F931F9282E38F9388E192E07F
S1130860892F8F9388E192E08F930E9496098DB728
S11308709EB708960FB6F894DEBF0FBECDBF88E1D1
S113088092E00E94F40124C08B818F938A818F931C
S113089088E791E0892F8F9388E791E08F931F92E7
S11308A082E38F9388E192E0892F8F9388E192E02D
S11308B08F930E9496098DB79EB708960FB6F89449
S11308C0DEBF0FBECDBF88E192E00E94F4010000BC
S11308D000000F900F900F90DF91CF910895CF9368
S11308E0DF9300D000D0CDB7DEB781E00E942D01A8
S11308F09A83898380E00E942D019C838B83898164
S11309009A818D3B924010F081E02BC089819A81BD
S11309108C32914010F482E024C08B819C818D3B09
S1130920924010F085E01DC08B819C818C329140F7
S113093010F486E016C089819A818D32914088F046
S113094089819A818C3B924060F48B819C818C3BA1
S1130950924038F48B819C818D32914010F080E07C
S113096000C00F900F900F900F90DF91CF910895DA
S1130970CF92EF920F93CF93DF93CDB7DEB7279744
S11309800FB6F894DEBF0FBECDBF0E94C70868EE55
S113099073E080E090E00E945E060E9464080E947A
S11309A00A010E946E011C821D820E9464080E943A
S11309B06F048E830E94DD008F838F818D830E945C
S11309C07B008093C40161E070E08E810E94560335
S11309D08981882F90E0A0E0B0E06894CC24C1F82D
S11309E06894EE24E1F806E09C01AD0168E080E043
S11309F00E9427078A81882F90E0A0E0B0E06894E5
S1130A00CC24C1F86894EE24E1F806E09C01AD0121
S1130A1068E081E00E9427078B81882F90E0A0E0A6
S1130A20B0E06894CC24C1F86894EE24E1F806E0C0
S1130A309C01AD0168E082E00E9427078E81882F27
S1130A4090E0A0E0B0E0C12CE12C04E09C01AD01F9
S1130A5061E080E00E9427078F81882F90E0A0E06A
S1130A60B0E0C12CE12C04E09C01AD0161E081E027
S1130A700E9427078091C401882F90E0823091055D
S1130A80A1F18430910509F455C0019709F065C0BE
S1130A908F81882F90E081709927892B29F061E05C
S1130AA070E083E00E9456038F81882F90E082706B
S1130AB09927892B29F061E070E084E00E945603B5
S1130AC08F81882F90E084709927892B09F440C086
S1130AD081E00E944002898382E00E9440028A836E
S1130AE083E00E9440028B8333C09D818C818917EF
S1130AF088F58F81813029F461E070E081E00E9403
S1130B0056038F81823029F461E070E085E00E9411
S1130B1056038F81843029F461E070E082E00E9402
S1130B2056038F818830B1F461E070E086E00E9462
S1130B30560310C08F81882F90E088709927892BE5
S1130B4059F08BEA91E00E941A020E94640804C0E2
S1130B50000003C0000001C000008D818C8327CFFA
S1130B60CF93DF93CDB7DEB784E490E024E430E0A4
S1130B70F90120812260FC01208385E490E025E4D2
S1130B8030E0F90120812360FC01208387E490E0B8
S1130B9029EFFC0120838EE690E02EE630E0F90197
S1130BA020812260FC0120830000DF91CF91089511
S1130BB01F920F9200905F000F9211242F933F9386
S1130BC04F935F936F937F938F939F93AF93BF9351
S1130BD0EF93FF93CF93DF93CDB7DEB78091FF01FF
S1130BE090910002A0910102B09102020196A11D10
S1130BF0B11D8093FF0190930002A0930102B09372
S1130C0002028091FF0190910002A0910102B09133
S1130C10020228EE33E040E050E0BC01CD010E9426
S1130C204409DC01CB01892B8A2B8B2B99F480910D
S1130C30030290910402A0910502B091060201966C
S1130C40A11DB11D8093030290930402A093050299
S1130C50B09306028091FB019091FC01A091FD01EB
S1130C60B091FE01892B8A2B8B2B99F08091FB018B
S1130C709091FC01A091FD01B091FE010197A109A1
S1130C80B1098093FB019093FC01A093FD01B09303
S1130C90FE010000DF91CF91FF91EF91BF91AF91E1
S1130CA09F918F917F916F915F914F913F912F9180
S1130CB00F9000925F000F901F901895CF93DF93D1
S1130CC000D000D0CDB7DEB769837A838B839C8351
S1130CD089819A81AB81BC81892B8A2B8B2B69F00A
S1130CE089819A81AB81BC818093FB019093FC0143
S1130CF0A093FD01B093FE010CC081E090E0A0E060
S1130D00B0E08093FB019093FC01A093FD01B093AC
S1130D10FE0100008091FB019091FC01A091FD0176
S1130D20B091FE01892B8A2B8B2BA1F700000F9029
S1130D300F900F900F90DF91CF910895CF93DF9391
S1130D4000D0CDB7DEB78A83198204C00000898140
S1130D508F5F898399818A819817C0F300000F906F
S1130D600F90DF91CF91089591E090930702409AFC
S1130D7041984198419A419A41984198419A419A9F
S1130D8041984198419A419A41984198419A419A8F
S1130D9041984198419A409841984198419A8334A6
S1130DA0A9F1409A41984198419A409841984198B4
S1130DB0419A84E0419860FF27C0409A6695419823
S1130DC0419A8150B9F7409884E041984198419AFA
S1130DD08150D9F784E0419860FF14C0409A669529
S1130DE04198419A8150B9F7409884E041984198DC
S1130DF0419A8150D9F784E1409A8150E9F71092E1
S1130E00070208954098EBCF4098D8CF4098CACFB6
S1130E100F931F93DF938A0190E2899F600D112441
S1130E20606883E40E94B406F8016081662359F087
S1130E30D0E0DF5F84E40E94B406F801ED0FF11DF9
S1130E4060816111F6CFDF911F910F9108952F9268
S1130E503F924F925F926F927F928F929F92AF9246
S1130E60BF92CF92DF92EF92FF920F931F93CF9393
S1130E70DF93CDB7DEB763970FB6F894DEBF0FBE2E
S1130E80CDBF8A8B6B8B29013A01C88A043608F4DA
S1130E90BDC00456198A0B3008F00AE0EF86888931
S1130EA08E1508F48F87202E312CC101EF858E0F0B
S1130EB0911D0B971CF08AE0801B8F87C301B20140
S1130EC02AE030E040E050E00E944409605D6C8715
S1130ED01AE03AE0C32ED12CE12CF12C4AE0842E06
S1130EE0912CA12CB12C81E090E08C0F9D1F810FDF
S1130EF0911D9E878D87C301B201A70196010E94AF
S1130F004409CA01B901A50194010E944409605D24
S1130F10ED85FE856083CC0CDD1CEE1CFF1CD70127
S1130F20C601880F991FAA1FBB1F880F991FAA1FEC
S1130F30BB1FC80ED91EEA1EFB1E1150A0F62CE0E2
S1130F40F8892F1B822F801B002309F485C0FE0122
S1130F503196A1E0B0E0AC0FBD1FA80FB11D9C916C
S1130F6091938F5F2813F5CF8F85811152C0F101C2
S1130F7081E090E08C0F9D1FE80FF91F1082998982
S1130F80992321F18981803309F5A1014150510947
S1130F9014161506DCF480E090E020E060E203C063
S1130FA0841795079CF42F5FE1E0F0E0EC0FFD1F40
S1130FB0E80FF91F6083822F90E0E1E0F0E0EC0F8E
S1130FC0FD1FE80FF91F3081303351F3AE014F5F3D
S1130FD05F4F6B898A890E94080763960FB6F8945D
S1130FE0DEBF0FBECDBFDF91CF911F910F91FF9058
S1130FF0EF90DF90CF90BF90AF909F908F907F90B5
S11310006F905F904F903F902F90089521E0298B2F
S113101042CF0F5F8EE2E1E0F0E0EC0FFD1FE20D46
S1131020F31D8083E02F201B822F8E0FA1E0B0E000
S1131030AC0FBD1FA80FB11D8C91A1E0B0E0AC0FA7
S1131040BD1FAE0FB11D8C93EF5F8E2F801B9F854C
S1131050891750F3F0E08CCFEF85EE2321F08EE278
S1131060898301E0DFCFE0E0F0E082CFDF93389ABC
S1131070399AD2E388E70E949E06D150D9F764E3F7
S113108083E40E94B40664E383E40E94B40669E046
S113109083E40E94B40660E383E40E94B4066CE037
S11310A083E40E94B40661E083E40E94B406D8E0BD
S11310B088E70E949E06D150D9F767E083E40E9436
S11310C0B406DF910C94B005DF9361E083E40E94E1
S11310D0B406D8E088E70E949E06D150D9F7DF9184
S11310E00895CF93DF931F92CDB7DEB785E290E0EA
S11310F021E0FC012083198217C062E370E080E0E4
S113110090E00E945E0685E290E02981422F50E043
S113111021E030E002C0220F331F4A95E2F7FC01C0
S1131120208389818F5F89838981883030F385E2C8
S113113090E020E8FC012083198217C062E370E08C
S113114080E090E00E945E0685E290E02981422FD3
S113115050E020E830E002C0359527954A95E2F743
S1131160FC01208389818F5F89838981883030F3F2
S113117064E670E080E090E00E945E0685E290E024
S1131180FC01108200000F90DF91CF910895CF935E
S1131190DF93CDB7DEB781E290E020E6FC01208347
S11311A084E290E02FEFFC0120838AE290E02CEFB0
S11311B0FC01208378940E9436080E9464080E94EF
S11311C071080000DF91CF9108950E94EC086894A3
S11311D0B1110C943E0908950E94230988F09F5789
S11311E098F0B92F9927B751B0F0E1F0660F771F47
S11311F0881F991F1AF0BA95C9F714C0B13091F03D
S11312000E943D09B1E008950C943D09672F782FA1
S11312108827B85F39F0B93FCCF386957795679501
S1131220B395D9F73EF490958095709561957F4F6D
S11312308F4F9F4F089557FD9058440F551F59F0F5
S11312405F3F71F04795880F97FB991F61F09F3FAF
S113125079F087950895121613061406551FF2CFD8
S11312604695F1DF08C0161617061806991FF1CF28
S113127086957105610508940895E894BB2766274F
S11312807727CB0197F90895A1E21A2EAA1BBB1B5D
S1131290FD010DC0AA1FBB1FEE1FFF1FA217B3073E
S11312A0E407F50720F0A21BB30BE40BF50B661F54
S11312B0771F881F991F1A9469F760957095809518
S11312C090959B01AC01BD01CF0108956627772756
S11312D00C94A70B42EC51E00E946F090895FA01A7
S11312E0A191B081009719F41097E1F0CD01DC01D0
S11312F0CD010D90002011F4C00113C0FB01219118
S1131300222319F02015D9F7F3CFFB0121912015E1
S113131019F41E92119606C02223C1F70D900020E5
S1131320A1F7D001FA01A193B0830895AEE0B0E033
S1131330ECE9F9E00C94DD0E0D891E898F89988DF6
S113134026E02C831A83098397FF02C080E090E88B
S113135001979E838D83AE01455E5F4F698D7A8DC3
S1131360CE0101960E94C6094D815E8157FD0AC0D7
S11313702F813885421753070CF49A01F801E20FC4
S1131380F31F10822E96E4E00C94F90EABE0B0E06B
S1131390ECECF9E00C94CF0E6C017B018A01FC01AA
S11313A017821682838181FFCCC1CE0101963C0154
S11313B0F6019381F70193FD859193FF81917F015C
S11313C0882309F4BAC1853239F493FD859193FFDA
S11313D081917F01853229F4B60190E00E942C0DA1
S11313E0E7CF912C212C312CFFE1F315D8F08B326F
S11313F079F038F4803279F08332A1F4232D20611E
S11314001DC08D3261F0803369F4232D216016C034
S1131410832D8260382EE32DE4603E2E2AC0F32D06
S1131420F8601DC037FC2DC020ED280F2A3040F095
S11314308E32B9F436FC81C1232D2064322E19C0BA
S113144036FE06C08AE0989E200D1124922E11C00B
S1131450EAE02E9E200D1124222EF32DF0623F2E61
S113146008C08C3621F4832D8068382E02C088365B
S113147041F4F70193FD859193FF81917F018111DF
S1131480B3CF982F9F7D9554933028F40C5F1F4F52
S11314909FE399830DC0833631F0833771F0833530
S11314A009F059C021C0F801808189830E5F1F4F64
S11314B088248394912C530113C02801F2E04F0E29
S11314C0511CF801A080B18036FE03C0692D70E084
S11314D002C06FEF7FEFC5010E94210D4C01820114
S11314E0F32DFF773F2E16C0280122E0420E511C37
S11314F0F801A080B18036FE03C0692D70E002C0FF
S11315006FEF7FEFC5010E94160D4C01F32DF068BB
S11315103F2E820133FC1BC0822D90E08816990671
S1131520B0F4B60180E290E00E942C0D2A94F4CF2E
S1131530F50137FC859137FE81915F01B60190E09A
S11315400E942C0D21102A9421E0821A9108811402
S1131550910471F7E8C0843611F0893641F5F80139
S113156037FE07C060817181828193810C5F1F4FB8
S113157008C060817181072E000C880B990B0E5FE7
S11315801F4FF32DFF763F2E97FF09C0909580954E
S1131590709561957F4F8F4F9F4FF0683F2E2AE0E3
S11315A030E0A3010E94680D882E861845C0853757
S11315B031F4232D2F7EB22E2AE030E025C0932D66
S11315C0997FB92E8F36C1F018F4883579F0B5C0FB
S11315D0803719F0883721F0B0C0E92FE061BE2EC2
S11315E0B4FE0DC0FB2DF460BF2E09C034FE0AC04A
S11315F0292F2660B22E06C028E030E005C020E185
S113160030E002C020E132E0F801B7FE07C060819B
S11316107181828193810C5F1F4F06C0608171814B
S113162080E090E00E5F1F4FA3010E94680D882E9A
S11316308618FB2DFF773F2E36FE0DC0232D2E7FFF
S1131640A22E891458F434FE0BC032FC09C0832D39
S11316508E7EA82E05C0B82CA32C03C0B82C01C0C4
S1131660B92CA4FE0FC0FE01E80DF11D808180336A
S113167021F49A2D997EA92E09C0A2FE06C0B39426
S1131680B39404C08A2D867809F0B394A3FC11C0E6
S1131690A0FE06C0B21488F4280C922C9B180EC02D
S11316A0B21460F4B60180E290E00E942C0DB39471
S11316B0F7CFB21418F42B1802C0982C212CA4FED6
S11316C010C0B60180E390E00E942C0DA2FE17C06A
S11316D0A1FC03C088E790E002C088E590E0B60171
S11316E00CC08A2D867859F0A1FE02C08BE201C09D
S11316F080E2A7FC8DE2B60190E00E942C0D8914D3
S113170038F4B60180E390E00E942C0D9A94F7CF50
S11317108A94F301E80DF11D8081B60190E00E94E6
S11317202C0D8110F5CF222009F442CEB60180E2BF
S113173090E00E942C0D2A94F6CFF60186819781C1
S113174002C08FEF9FEF2B96E2E10C94EB0EA0E02A
S1131750B0E0EDEAFBE00C94D50EEC016B016115F1
S1131760710519F0FB01918380837E01FFEFEF1A6D
S1131770FF0A0881802F90E00E94F50C892B11F05C
S1131780E701F3CF0D3239F47E0182E0E80EF11C5B
S1131790098111E008C00B3229F47E0192E0E90EC0
S11317A0F11C098110E0E701219743E050E064E86F
S11317B070E0CE010E94FE0C892BC1F4239645E013
S11317C050E06FE770E0CE010E94FE0C892B09F413
S11317D02596C114D10419F0F601D183C0831111E7
S11317E0F6C060E070E080E89FE7FAC043E050E0B4
S11317F06CE770E0CE010E94FE0C892B59F4C114F1
S1131800D10409F4E9C0F2E0EF0EF11CF601F18213
S1131810E082E2C020E030E0A901C0E0D0E0F701BE
S113182080EDA82EA00E89E08A1530F1912F9260E8
S1131830B92E812F887012FF04C0811124C0219613
S113184022C081112197A5E0B0E00E94C40EDC0102
S1131850CB01880F991FAA1FBB1F9C01AD012A0D44
S1131860311D411D511D283989E93807480789E18F
S1131870580748F0166006C09EEFA9120AC013FD6F
S113188040C01860B12E8FEFE81AF80A00811B2DB2
S1131890C6CF802F8F7D8534A1F580818D3211F4E0
S11318A0106106C08B3221F0319661E070E004C013
S11318B08181329662E070E080538A3018F0E61B32
S11318C0F70B1FC060E070E060389CE079075CF4BF
S11318D0DB01AA0FBB1FAA0FBB1F6A0F7B1F660F7A
S11318E0771F680F711D3196DF0111978C9180531A
S11318F08A3050F314FF03C0719561957109C60FC6
S1131900D71F11FF08C0C114D10429F0CF010197DA
S1131910F60191838083CA01B9010E94CB0D212F66
S11319202370233019F04B015C0106C04B015C01AC
S1131930B7FAB094B7F8B09420E030E0A901C5013B
S1131940B4010E94C60D882309F43EC0D7FF06C027
S1131950D195C195D1090BE910E002C003EB10E069
S11319606801F8E1CF1AD10890E2E92EF12CCE15E6
S1131970DF0574F0F8012591359145915491C50125
S1131980B4010E942C0E4B015C01CE19DF09EFCF8C
S113199004501109F594E7940C151D0541F78A2D9F
S11319A0880F8B2D881F8F3F49F020E030E0A9017C
S11319B0C501B4010E94C60D811106C082E290E007
S11319C090934F0280934E02C501B40109C060E0B8
S11319D070E080E89FEF04C060E070E080EC9FE777
S11319E0CDB7DEB7ECE00C94F10E91110C94990E86
S11319F0803219F089508550C8F70895FB01DC0145
S1131A004150504088F08D9181341CF08B350CF49A
S1131A10805E659161341CF06B350CF4605E861B4E
S1131A20611171F3990B0895881BFCCFFC0105909B
S1131A30615070400110D8F7809590958E0F9F1FCC
S1131A400895FC016150704001900110D8F7809511
S1131A5090958E0F9F1F08950F931F93CF93DF933D
S1131A60FB01238121FD03C08FEF9FEF2CC022FFD8
S1131A7016C046815781248135814217530744F4A7
S1131A80A081B1819D012F5F3F4F318320838C93CF
S1131A90268137812F5F3F4F3783268314C08B0104
S1131AA0EC01FB010084F185E02D0995892BE1F619
S1131AB0D80116968D919C911797019617969C9331
S1131AC08E931697CE01DF91CF911F910F910895B8
S1131AD0FA01AA27283051F1203181F1E8946F935B
S1131AE06E7F6E5F7F4F8F4F9F4FAF4FB1E03ED001
S1131AF0B4E03CD0670F781F891F9A1FA11D680F9F
S1131B00791F8A1F911DA11D6A0F711D811D911DD1
S1131B10A11D20D009F468943F912AE0269F112446
S1131B203019305D3193DEF6CF010895462F4770AA
S1131B30405D4193B3E00FD0C9F7F6CF462F4F7005
S1131B40405D4A3318F0495D31FD4052419302D063
S1131B50A9F7EACFB4E0A695979587957795679509
S1131B60BA95C9F700976105710508959B01AC0109
S1131B700A2E06945795479537952795BA95C9F730
S1131B80620F731F841F951FA01D08950E94080EE5
S1131B9008F481E00895E89409C097FB3EF4909519
S1131BA08095709561957F4F8F4F9F4F9923A9F032
S1131BB0F92F96E9BB279395F695879577956795C1
S1131BC0B795F111F8CFFAF4BB0F11F460FF1BC005
S1131BD06F5F7F4F8F4F9F4F16C0882311F096E998
S1131BE011C0772321F09EE8872F762F05C0662346
S1131BF071F096E8862F70E060E02AF09A95660FFF
S1131C00771F881FDAF7880F9695879597F90895B7
S1131C10990F0008550FAA0BE0E8FEEF16161706F9
S1131C20E807F907C0F012161306E407F50798F061
S1131C30621B730B840B950B39F40A2661F0232B7A
S1131C40242B252B21F408950A2609F4A140A695F6
S1131C508FEF811D811D08950E943F0E0C94B30ED9
S1131C600E94A50E38F00E94AC0E20F0952311F0CE
S1131C700C949C0E0C94A20E11240C943E090E9408
S1131C801B0970F3959FC1F3950F50E0551F629F98
S1131C90F001729FBB27F00DB11D639FAA27F00DC1
S1131CA0B11DAA1F649F6627B00DA11D661F829FE8
S1131CB02227B00DA11D621F739FB00DA11D621FCD
S1131CC0839FA00D611D221F749F3327A00D611DEA
S1131CD0231F849F600D211D822F762F6A2F1124CC
S1131CE09F5750409AF0F1F088234AF0EE0FFF1FFF
S1131CF0BB1F661F771F881F91505040A9F79E3F56
S1131D00510580F00C949C0E0C943E095F3FE4F363
S1131D10983ED4F3869577956795B795F795E795AB
S1131D209F5FC1F7FE2B880F911D9695879597F9B4
S1131D30089599278827089597F99F6780E870E0A8
S1131D4060E008959FEF80EC089500240A9416162D
S1131D50170618060906089500240A941216130695
S1131D60140605060895092E0394000C11F4882323
S1131D7052F0BB0F40F4BF2B11F460FF04C06F5F3F
S1131D807F4F8F4F9F4F08950E94060FA59F900D80
S1131D90B49F900DA49F800D911D112408952F923E
S1131DA03F924F925F926F927F928F929F92AF92E7
S1131DB0BF92CF92DF92EF92FF920F931F93CF9334
S1131DC0DF93CDB7DEB7CA1BDB0B0FB6F894DEBFCB
S1131DD00FBECDBF09942A88398848885F846E84F1
S1131DE07D848C849B84AA84B984C884DF80EE803B
S1131DF0FD800C811B81AA81B981CE0FD11D0FB644
S1131E00F894DEBF0FBECDBFED010895A29FB001CF
S1131E10B39FC001A39F700D811D1124911DB29F1A
S1111E20700D811D1124911D0895F894FFCFBB
S1131E2E20004D323230300A0050323232300A0045
S1131E3E473020580050323230300A00503232309F
S1131E4E310A0050323230320A0050323230330A04
S1131E5E0050323230340A0050323230350A0050DB
S1131E6E323430300A004732323034205825642060
S1131E7E593030205A30302046313030300A004745
S1131E8E323230342058303020593030205A2564C4
S1131E9E2046313030300A00473232303420583048
S1131EAE3020592564205A30302046313030300AE3
S1131EBE004D323233342056310A004D323234352D
S1131ECE204755475553454C490A00473020583250
S1131EDE3030205930205A313530204631303030B0
S1051EEE0A00E4
S9030000FC
