S01900004D795F50726F6A6563745F365F322831292E7372656367
S11300000C943E000C945B000C945B000C945B001D
S11300100C945B000C945B000C945B000C945B00F0
S11300200C945B000C945B000C945B000C945B00E0
S11300300C945B000C945B000C945B000C945B00D0
S11300400C94F92D0C945B000C945B000C945B00F5
S11300500C94CB010C945B000C945B000C945B003F
S11300600C945B000C945B000C945B000C945B00A0
S11300700C9426020C945B000C945B0011241FBEAC
S1130080CFEFD0E1DEBFCDBF13E0A0E0B1E0EAECFA
S1130090FAE602C005900D92AE37B107D9F724E015
S11300A0AEE7B3E001C01D92A232B207E1F70E94AD
S11300B08E030C9463350C940000CF93DF9300D02F
S11300C01F92CDB7DEB7198282E290E022E230E0DF
S11300D0F90120812062FC01208382E290E022E287
S11300E030E0F90120812F7DFC01208382E290E041
S11300F022E230E0F90120812062FC01208387E0C4
S113010090E09B838A8330C080E290E0FC01808190
S1130110882F90E08078992747E050E02A813B813E
S1130120BA01621B730B9B0102C0959587952A95B2
S1130130E2F7982F8981892B898382E290E022E279
S113014030E0F90120812F7BFC01208382E290E0E2
S113015022E230E0F90120812064FC0120838A81BD
S11301609B8101979B838A838A819B81992364F66F
S113017089810F900F900F90DF91CF910895CF93C5
S1130180DF931F92CDB7DEB785E290E025E230E041
S1130190F9012081207FFC01208384E290E020EF9C
S11301A0FC012083000000000000000000000000AB
S11301B0000000000000000083E290E0FC01808168
S11301C08F70898384E290E02FEFFC012083898182
S11301D00F90DF91CF910895CF93DF93CDB7DEB722
S11301E08AE790E02AE730E0F90120812068FC01E9
S11301F020838CE790E02CE730E0F9012081206433
S1130200FC0120838AE790E02AE730E0F9012081AD
S11302102760FC0120830000DF91CF910895CF93E4
S1130220DF93CDB7DEB784EC90E020E130E0FC0151
S11302303183208380EC90E020EC30E0F9012081D0
S11302402260FC01208381EC90E021EC30E0F90194
S113025020812869FC0120830000DF91CF9108955B
S1130260CF93DF93CDB7DEB78CEC90E020E130E0A4
S1130270FC013183208388EC90E028EC30E0F90124
S113028020812260FC01208389EC90E029EC30E09D
S1130290F90120812869FC0120830000DF91CF91BE
S11302A00895CF93DF931F92CDB7DEB78983000003
S11302B080EC90E0FC018081882F90E08072992787
S11302C0892BB1F386EC90E02981FC0120830000A6
S11302D00F90DF91CF910895CF93DF931F92CDB705
S11302E0DEB78983000088EC90E0FC018081882FD0
S11302F090E080729927892BB1F38EEC90E02981EC
S1130300FC01208300000F90DF91CF910895CF93DB
S1130310DF9300D0CDB7DEB79A8389830BC0898180
S11303209A81FC0180810E946C0189819A810196E5
S11303309A83898389819A81FC018081882379F752
S1130340109280030000809180038823E1F3000071
S11303500F900F90DF91CF910895CF93DF9300D04A
S1130360CDB7DEB79A83898389819A810E948701F8
S113037080E091E00E94870104C080E091E00E9447
S113038087018091BA038133C1F300000F900F906D
S1130390DF91CF9108951F920F9200905F000F920A
S11303A011242F933F938F939F93EF93FF93CF93B6
S11303B0DF9300D01F92CDB7DEB71A8286EC90E0AF
S11303C0FC0180818B838B818A3099F08091820338
S11303D0823378F480918103882F90E08A5F9B4F69
S11303E02B81FC012083809181038F5F80938103A3
S11303F01BC0198211C08981882F90E02981222F86
S113040030E02A5F3B4FF90120818C5E9B4FFC0159
S1130410208389818F5F89838091810399818917E2
S113042050F781E080937F0300000F900F900F90AE
S1130430DF91CF91FF91EF919F918F913F912F91F8
S11304400F9000925F000F901F9018951F920F92CB
S113045000905F000F9211242F938F939F93EF933B
S1130460FF93CF93DF931F92CDB7DEB78EEC90E06E
S1130470FC018081898380918003882331F58981FF
S11304808A30B1F089818D3099F080918203823372
S113049078F480918203882F90E08A549C4F2981BC
S11304A0FC012083809182038F5F809382030DC0BF
S11304B080918203882F90E08A549C4FFC01108223
S11304C01092820381E08093800300000F90DF91FB
S11304D0CF91FF91EF919F918F912F910F90009267
S11304E05F000F901F901895CF93DF93CDB7DEB7C1
S11304F06C970FB6F894DEBF0FBECDBF0E94E830F4
S113050068EE73E080E090E00E947F2E0E94EC0091
S11305100E940F010E94300168EE73E080E090E0D9
S11305200E947F2E8EE591E00E94870180E090E09A
S1130530A8E4B3E489839A83AB83BC8320E030E0EE
S11305404AE755E469817A818B819C810E948C31D0
S1130550DC01CB018B8B9C8BAD8BBE8B20E030E020
S113056040E85FE36B897C898D899E890E9406310E
S113057088232CF481E090E0988F8F8B3FC020E09B
S11305803FEF4FE757E46B897C898D899E890E94F0
S1130590873118164CF520E030E040E251E46981DF
S11305A07A818B819C810E948C31DC01CB01BC015E
S11305B0CD010E940B31DC01CB01988F8F8B0FC0D2
S11305C080E991E09A8F898F898D9A8D0197F1F74F
S11305D09A8F898F8F89988D0197988F8F8B8F89A8
S11305E0988D892B69F714C06B897C898D899E89C4
S11305F00E940B31DC01CB01988F8F8B8F89988DF2
S11306009C8F8B8F8B8D9C8D0197F1F79C8F8B8F9B
S11306108FE691E00E94870180E090E0AAEFB3E4C6
S11306208D839E83AF83B88720E030E04AE755E4AA
S11306306D817E818F8198850E948C31DC01CB0194
S113064089879A87AB87BC8720E030E040E85FE386
S113065069857A858B859C850E94063188232CF4D4
S113066081E090E09E878D873FC020E03FEF4FE719
S113067057E469857A858B859C850E948731181695
S11306804CF520E030E040E251E46D817E818F81C1
S113069098850E948C31DC01CB01BC01CD010E9404
S11306A00B31DC01CB019E878D870FC080E991E07F
S11306B0988B8F878F8598890197F1F7988B8F870F
S11306C08D859E8501979E878D878D859E85892B37
S11306D069F714C069857A858B859C850E940B31E6
S11306E0DC01CB019E878D878D859E859A8B898BB6
S11306F089899A890197F1F79A8B898B81E891E02E
S11307000E9487010E94853000006C960FB6F89411
S1130710DEBF0FBECDBFDF91CF910895CF92EF9290
S11307200F931F93CF93DF93CDB7DEB7C056D3405B
S11307300FB6F894DEBF0FBECDBF0E9474021D82B7
S11307401E821F82CE0181509D4F2CE1E0E3F3E035
S1130750DC0101900D922A95E1F7CE01855E9C4F54
S113076022E3ECE4F3E0DC0101900D922A95E1F739
S11307700E94BF0088870E945D0080937E03809161
S11307807E03882F90E081709927892B11F40C94B3
S113079030278885882F90E081709927892B11F460
S11307A00C94302783E991E00E94870180E090E077
S11307B0A6E1B3E48D879E87AF87B88B8E0105567B
S11307C01D4F20E030E04AE755E46D857E858F8536
S11307D098890E948C31DC01CB01F80180839183DC
S11307E0A283B383CE0185569D4F20E030E040E8DC
S11307F05FE3FC0160817181828193810E940631F3
S113080088234CF4CE0181569D4F21E030E0FC0159
S11308103183208369C0CE0185569D4F20E03FEF90
S11308204FE757E4FC0160817181828193810E94CA
S1130830873118160CF046C020E030E040E251E465
S11308406D857E858F8598890E948C31DC01CB0172
S11308508E0101561D4FBC01CD010E940B31DC01FC
S1130860CB01F8019183808324C0CE018F559D4F25
S113087020E931E0FC0131832083CE018F559D4F67
S1130880FC01808191810197F1F79E012F553D4F25
S1130890F90191838083CE0181569D4F9E0121569B
S11308A03D4FF9012081318121503109FC0131830F
S11308B02083CE0181569D4FFC0180819181892B3B
S11308C0A1F62CC08E0101561D4FCE0185569D4FB9
S11308D0FC0160817181828193810E940B31DC0172
S11308E0CB01F80191838083CE018D559D4F9E01EC
S11308F021563D4FF90120813181FC013183208350
S1130900CE018D559D4FFC01808191810197F1F7B6
S11309109E012D553D4FF9019183808383E991E038
S11309200E94870180E090E0A6E9B3E4898B9A8B6A
S1130930AB8BBC8B8E010F561D4F20E030E04AE795
S113094055E469897A898B899C890E948C31DC0100
S1130950CB01F80180839183A283B383CE018F56A8
S11309609D4F20E030E040E85FE3FC01608171814D
S1130970828193810E94063188234CF4CE018B56E8
S11309809D4F21E030E0FC013183208369C0CE011A
S11309908F569D4F20E03FEF4FE757E4FC01608105
S11309A07181828193810E94873118160CF046C0B0
S11309B020E030E040E251E469897A898B899C899E
S11309C00E948C31DC01CB018E010B561D4FBC0102
S11309D0CD010E940B31DC01CB01F80191838083AE
S11309E024C0CE0189569D4F20E931E0FC013183BA
S11309F02083CE0189569D4FFC018081918101970E
S1130A00F1F79E0129563D4FF90191838083CE0170
S1130A108B569D4F9E012B563D4FF901208131810C
S1130A2021503109FC0131832083CE018B569D4F27
S1130A30FC0180819181892BA1F62CC08E010B567B
S1130A401D4FCE018F569D4FFC01608171818281C3
S1130A5093810E940B31DC01CB01F80191838083E7
S1130A60CE0187569D4F9E012B563D4FF9012081A3
S1130A703181FC0131832083CE0187569D4FFC01D7
S1130A80808191810197F1F79E0127563D4FF9012D
S1130A909183808383E991E00E94870180E090E064
S1130AA0A6E9B3E48D8B9E8BAF8BB88F8E0109576B
S1130AB01D4F20E030E04AE755E46D897E898F8937
S1130AC0988D0E948C31DC01CB01F80180839183E5
S1130AD0A283B383CE0189579D4F20E030E040E8E4
S1130AE05FE3FC0160817181828193810E94063100
S1130AF088234CF4CE0185579D4F21E030E0FC0162
S1130B003183208369C0CE0189579D4F20E03FEF98
S1130B104FE757E4FC0160817181828193810E94D7
S1130B20873118160CF046C020E030E040E251E472
S1130B306D897E898F89988D0E948C31DC01CB016F
S1130B408E0105571D4FBC01CD010E940B31DC0104
S1130B50CB01F8019183808324C0CE0183579D4F3C
S1130B6020E931E0FC0131832083CE0183579D4F7E
S1130B70FC01808191810197F1F79E0123573D4F3C
S1130B80F90191838083CE0185579D4F9E0125579E
S1130B903D4FF9012081318121503109FC0131831C
S1130BA02083CE0185579D4FFC0180819181892B43
S1130BB0A1F62CC08E0105571D4FCE0189579D4FBC
S1130BC0FC0160817181828193810E940B31DC017F
S1130BD0CB01F80191838083CE0181579D4F9E0103
S1130BE025573D4FF90120813181FC013183208358
S1130BF0CE0181579D4FFC01808191810197F1F7CE
S1130C009E0121573D4FF9019183808384EA91E04D
S1130C100E94870180E090E0A8ECB2E4898F9A8F6B
S1130C20AB8FBC8F8E0103581D4F20E030E04AE7A4
S1130C3055E4698D7A8D8B8D9C8D0E948C31DC01FD
S1130C40CB01F80180839183A283B383CE018358BF
S1130C509D4F20E030E040E85FE3FC01608171815A
S1130C60828193810E94063188234CF4CE018F57F0
S1130C709D4F21E030E0FC013183208369C0CE0127
S1130C8083589D4F20E03FEF4FE757E4FC0160811C
S1130C907181828193810E94873118160CF046C0BD
S1130CA020E030E040E251E4698D7A8D8B8D9C8D9B
S1130CB00E948C31DC01CB018E010F571D4FBC010A
S1130CC0CD010E940B31DC01CB01F80191838083BB
S1130CD024C0CE018D579D4F20E931E0FC013183C2
S1130CE02083CE018D579D4FFC0180819181019716
S1130CF0F1F79E012D573D4FF90191838083CE0179
S1130D008F579D4F9E012F573D4FF901208131810F
S1130D1021503109FC0131832083CE018F579D4F2F
S1130D20FC0180819181892BA1F62CC08E010F5783
S1130D301D4FCE0183589D4FFC01608171818281DA
S1130D4093810E940B31DC01CB01F80191838083F4
S1130D50CE018B579D4F9E012F573D4FF9012081A6
S1130D603181FC0131832083CE018B579D4FFC01DF
S1130D70808191810197F1F79E012B573D4FF90135
S1130D809183808383E991E00E94870180E090E071
S1130D90A6E9B3E48D8F9E8FAF8FB8A38E010D5853
S1130DA01D4F20E030E04AE755E46D8D7E8D8F8D38
S1130DB098A10E948C31DC01CB01F80180839183DE
S1130DC0A283B383CE018D589D4F20E030E040E8EC
S1130DD05FE3FC0160817181828193810E9406310D
S1130DE088234CF4CE0189589D4F21E030E0FC016A
S1130DF03183208369C0CE018D589D4F20E03FEFA1
S1130E004FE757E4FC0160817181828193810E94E4
S1130E10873118160CF046C020E030E040E251E47F
S1130E206D8D7E8D8F8D98A10E948C31DC01CB015C
S1130E308E0109581D4FBC01CD010E940B31DC010C
S1130E40CB01F8019183808324C0CE0187589D4F44
S1130E5020E931E0FC0131832083CE0187589D4F86
S1130E60FC01808191810197F1F79E0127583D4F44
S1130E70F90191838083CE0189589D4F9E012958A1
S1130E803D4FF9012081318121503109FC01318329
S1130E902083CE0189589D4FFC0180819181892B4B
S1130EA0A1F62CC08E0109581D4FCE018D589D4FBF
S1130EB0FC0160817181828193810E940B31DC018C
S1130EC0CB01F80191838083CE0185589D4F9E010B
S1130ED029583D4FF90120813181FC013183208360
S1130EE0CE0185589D4FFC01808191810197F1F7D6
S1130EF09E0125583D4FF9019183808385EB91E054
S1130F000E94870180E090E8A9E0B4E489A39AA351
S1130F10ABA3BCA38E0107591D4F20E030E04AE784
S1130F2055E469A17AA18BA19CA10E948C31DC01BA
S1130F30CB01F80180839183A283B383CE018759C7
S1130F409D4F20E030E040E85FE3FC016081718167
S1130F50828193810E94063188234CF4CE01835907
S1130F609D4F21E030E0FC013183208369C0CE0134
S1130F7087599D4F20E03FEF4FE757E4FC01608124
S1130F807181828193810E94873118160CF046C0CA
S1130F9020E030E040E251E469A17AA18BA19CA158
S1130FA00E948C31DC01CB018E0103591D4FBC0121
S1130FB0CD010E940B31DC01CB01F80191838083C8
S1130FC024C0CE0181599D4F20E931E0FC013183D9
S1130FD02083CE0181599D4FFC018081918101972D
S1130FE0F1F79E0121593D4FF90191838083CE0190
S1130FF083599D4F9E0123593D4FF9012081318131
S113100021503109FC0131832083CE0183599D4F46
S1131010FC0180819181892BA1F62CC08E0103599A
S11310201D4FCE0187599D4FFC01608171818281E2
S113103093810E940B31DC01CB01F8019183808301
S1131040CE018F589D4F9E0123593D4FF9012081B8
S11310503181FC0131832083CE018F589D4FFC01E7
S1131060808191810197F1F79E012F583D4FF9013D
S11310709183808386EC91E00E94870180E090EC6C
S1131080AFE0B4E48DA39EA3AFA3B8A78E01015A29
S11310901D4F20E030E04AE755E46DA17EA18FA109
S11310A098A50E948C31DC01CB01F80180839183E7
S11310B0A283B383CE01815A9D4F20E030E040E803
S11310C05FE3FC0160817181828193810E9406311A
S11310D088234CF4CE018D599D4F21E030E0FC0172
S11310E03183208369C0CE01815A9D4F20E03FEFB8
S11310F04FE757E4FC0160817181828193810E94F2
S1131100873118160CF046C020E030E040E251E48C
S11311106DA17EA18FA198A50E948C31DC01CB0129
S11311208E010D591D4FBC01CD010E940B31DC0114
S1131130CB01F8019183808324C0CE018B599D4F4C
S113114020E931E0FC0131832083CE018B599D4F8E
S1131150FC01808191810197F1F79E012B593D4F4C
S1131160F90191838083CE018D599D4F9E012D59A4
S11311703D4FF9012081318121503109FC01318336
S11311802083CE018D599D4FFC0180819181892B53
S1131190A1F62CC08E010D591D4FCE01815A9D4FD1
S11311A0FC0160817181828193810E940B31DC0199
S11311B0CB01F80191838083CE0189599D4F9E0113
S11311C02D593D4FF90120813181FC013183208368
S11311D0CE0189599D4FFC01808191810197F1F7DE
S11311E09E0129593D4FF9019183808384EA91E05E
S11311F00E94870180E090E0A1EEB3E489A79AA75A
S1131200ABA7BCA78E010B5A1D4F20E030E04AE784
S113121055E469A57AA58BA59CA50E948C31DC01B7
S1131220CB01F80180839183A283B383CE018B5ACF
S11312309D4F20E030E040E85FE3FC016081718174
S1131240828193810E94063188234CF4CE01875A0F
S11312509D4F21E030E0FC013183208369C0CE0141
S11312608B5A9D4F20E03FEF4FE757E4FC0160812C
S11312707181828193810E94873118160CF046C0D7
S113128020E030E040E251E469A57AA58BA59CA555
S11312900E948C31DC01CB018E01075A1D4FBC0129
S11312A0CD010E940B31DC01CB01F80191838083D5
S11312B024C0CE01855A9D4F20E931E0FC013183E1
S11312C02083CE01855A9D4FFC0180819181019735
S11312D0F1F79E01255A3D4FF90191838083CE0198
S11312E0875A9D4F9E01275A3D4FF9012081318134
S11312F021503109FC0131832083CE01875A9D4F4F
S1131300FC0180819181892BA1F62CC08E01075AA2
S11313101D4FCE018B5A9D4FFC01608171818281EA
S113132093810E940B31DC01CB01F801918380830E
S1131330CE01835A9D4F9E01275A3D4FF9012081CA
S11313403181FC0131832083CE01835A9D4FFC01FE
S1131350808191810197F1F79E01235A3D4FF90154
S11313609183808386EC91E00E94870180E090E085
S1131370A8ECB3E48DA79EA7AFA7B8AB8E01055B1D
S11313801D4F20E030E04AE755E46DA57EA58FA50A
S113139098A90E948C31DC01CB01F80180839183F0
S11313A0A283B383CE01855B9D4F20E030E040E80B
S11313B05FE3FC0160817181828193810E94063127
S11313C088234CF4CE01815B9D4F21E030E0FC0189
S11313D03183208369C0CE01855B9D4F20E03FEFC0
S11313E04FE757E4FC0160817181828193810E94FF
S11313F0873118160CF046C020E030E040E251E49A
S11314006DA57EA58FA598A90E948C31DC01CB0126
S11314108E01015B1D4FBC01CD010E940B31DC012B
S1131420CB01F8019183808324C0CE018F5A9D4F54
S113143020E931E0FC0131832083CE018F5A9D4F96
S1131440FC01808191810197F1F79E012F5A3D4F54
S1131450F90191838083CE01815B9D4F9E01215BC5
S11314603D4FF9012081318121503109FC01318343
S11314702083CE01815B9D4FFC0180819181892B6A
S1131480A1F62CC08E01015B1D4FCE01855B9D4FE3
S1131490FC0160817181828193810E940B31DC01A6
S11314A0CB01F80191838083CE018D5A9D4F9E011B
S11314B0215B3D4FF90120813181FC01318320837F
S11314C0CE018D5A9D4FFC01808191810197F1F7E6
S11314D09E012D5A3D4FF9019183808387ED91E060
S11314E00E94870180E090E0AAEFB3E489AB9AAB55
S11314F0ABABBCAB8E010F5B1D4F20E030E04AE785
S113150055E469A97AA98BA99CA90E948C31DC01B4
S1131510CB01F80180839183A283B383CE018F5BD7
S11315209D4F20E030E040E85FE3FC016081718181
S1131530828193810E94063188234CF4CE018B5B17
S11315409D4F21E030E0FC013183208369C0CE014E
S11315508F5B9D4F20E03FEF4FE757E4FC01608134
S11315607181828193810E94873118160CF046C0E4
S113157020E030E040E251E469A97AA98BA99CA952
S11315800E948C31DC01CB018E010B5B1D4FBC0131
S1131590CD010E940B31DC01CB01F80191838083E2
S11315A024C0CE01895B9D4F20E931E0FC013183E9
S11315B02083CE01895B9D4FFC018081918101973D
S11315C0F1F79E01295B3D4FF90191838083CE01A0
S11315D08B5B9D4F9E012B5B3D4FF9012081318137
S11315E021503109FC0131832083CE018B5B9D4F57
S11315F0FC0180819181892BA1F62CC08E010B5BAB
S11316001D4FCE018F5B9D4FFC01608171818281F2
S113161093810E940B31DC01CB01F801918380831B
S1131620CE01875B9D4F9E012B5B3D4FF9012081CD
S11316303181FC0131832083CE01875B9D4FFC0106
S1131640808191810197F1F79E01275B3D4FF9015C
S11316509183808388EE91E00E94870180E090E08E
S1131660A6E9B3E48DAB9EABAFABB8AF8E01095C1A
S11316701D4F20E030E04AE755E46DA97EA98FA90B
S113168098AD0E948C31DC01CB01F80180839183F9
S1131690A283B383CE01895C9D4F20E030E040E813
S11316A05FE3FC0160817181828193810E94063134
S11316B088234CF4CE01855C9D4F21E030E0FC0191
S11316C03183208369C0CE01895C9D4F20E03FEFC8
S11316D04FE757E4FC0160817181828193810E940C
S11316E0873118160CF046C020E030E040E251E4A7
S11316F06DA97EA98FA998AD0E948C31DC01CB0124
S11317008E01055C1D4FBC01CD010E940B31DC0133
S1131710CB01F8019183808324C0CE01835C9D4F6B
S113172020E931E0FC0131832083CE01835C9D4FAD
S1131730FC01808191810197F1F79E01235C3D4F6B
S1131740F90191838083CE01855C9D4F9E01255CC8
S11317503D4FF9012081318121503109FC01318350
S11317602083CE01855C9D4FFC0180819181892B72
S1131770A1F62CC08E01055C1D4FCE01895C9D4FE6
S1131780FC0160817181828193810E940B31DC01B3
S1131790CB01F80191838083CE01815C9D4F9E0132
S11317A0255C3D4FF90120813181FC013183208387
S11317B0CE01815C9D4FFC01808191810197F1F7FD
S11317C09E01215C3D4FF9019183808389EF91E073
S11317D00E94870180E090E0A5EAB3E489AF9AAF64
S11317E0ABAFBCAF8E01035D1D4F20E030E04AE794
S11317F055E469AD7AAD8BAD9CAD0E948C31DC01B2
S1131800CB01F80180839183A283B383CE01835DEE
S11318109D4F20E030E040E85FE3FC01608171818E
S1131820828193810E94063188234CF4CE018F5C1F
S11318309D4F21E030E0FC013183208369C0CE015B
S1131840835D9D4F20E03FEF4FE757E4FC0160814B
S11318507181828193810E94873118160CF046C0F1
S113186020E030E040E251E469AD7AAD8BAD9CAD4F
S11318700E948C31DC01CB018E010F5C1D4FBC0139
S1131880CD010E940B31DC01CB01F80191838083EF
S113189024C0CE018D5C9D4F20E931E0FC013183F1
S11318A02083CE018D5C9D4FFC0180819181019745
S11318B0F1F79E012D5C3D4FF90191838083CE01A8
S11318C08F5C9D4F9E012F5C3D4FF901208131813A
S11318D021503109FC0131832083CE018F5C9D4F5F
S11318E0FC0180819181892BA1F62CC08E010F5CB3
S11318F01D4FCE01835D9D4FFC016081718182810A
S113190093810E940B31DC01CB01F8019183808328
S1131910CE018B5C9D4F9E012F5C3D4FF9012081D0
S11319203181FC0131832083CE018B5C9D4FFC010E
S1131930808191810197F1F79E012B5C3D4FF90164
S11319409183808389E092E00E94870180E090E0A7
S1131950A6E1B3E49E01235C3F4FF90180839183A8
S1131960A283B3838E010D5D1D4F20E030E04AE772
S113197055E4CE01CD96FC01608171818281938111
S11319800E948C31DC01CB01F80180839183A28316
S1131990B383CE018D5D9D4F20E030E040E85FE3EE
S11319A0FC0160817181828193810E9406318823C8
S11319B04CF4CE01895D9D4F21E030E0FC01318380
S11319C020836CC0CE018D5D9D4F20E03FEF4FE73B
S11319D057E4FC0160817181828193810E94873187
S11319E018160CF049C020E030E040E251E4CE018A
S11319F0CD96FC0160817181828193810E948C313A
S1131A00DC01CB018E01095D1D4FBC01CD010E949B
S1131A100B31DC01CB01F8019183808324C0CE011A
S1131A20875D9D4F20E931E0FC0131832083CE01A5
S1131A30875D9D4FFC01808191810197F1F79E01A3
S1131A40275D3D4FF90191838083CE01895D9D4FD0
S1131A509E01295D3D4FF9012081318121503109D9
S1131A60FC0131832083CE01895D9D4FFC0180817F
S1131A709181892BA1F62CC08E01095D1D4FCE01E9
S1131A808D5D9D4FFC0160817181828193810E94F3
S1131A900B31DC01CB01F80191838083CE01855D9C
S1131AA09D4F9E01295D3D4FF90120813181FC014B
S1131AB031832083CE01855D9D4FFC01808191811E
S1131AC00197F1F79E01255D3D4FF90191838083D4
S1131AD08AE192E00E9487019E012F5B3F4F80E0E4
S1131AE090E0A6E9B3E4F90180839183A283B383F0
S1131AF08E01075E1D4FCE018F5B9F4F20E030E0CB
S1131B004AE755E4FC0160817181828193810E94DE
S1131B108C31DC01CB01F80180839183A283B383F0
S1131B20CE01875E9D4F20E030E040E85FE3FC019A
S1131B3060817181828193810E94063188234CF4F3
S1131B40CE01835E9D4F21E030E0FC013183208390
S1131B506DC0CE01875E9D4F20E03FEF4FE757E415
S1131B60FC0160817181828193810E948731181602
S1131B700CF04AC0CE018F5B9F4F20E030E040E282
S1131B8051E4FC0160817181828193810E948C31D6
S1131B90DC01CB018E01035E1D4FBC01CD010E940F
S1131BA00B31DC01CB01F8019183808324C0CE0189
S1131BB0815E9D4F20E931E0FC0131832083CE0119
S1131BC0815E9D4FFC01808191810197F1F79E0117
S1131BD0215E3D4FF90191838083CE01835E9D4F49
S1131BE09E01235E3D4FF90120813181215031094D
S1131BF0FC0131832083CE01835E9D4FFC018081F3
S1131C009181892BA1F62CC08E01035E1D4FCE015C
S1131C10875E9D4FFC0160817181828193810E9466
S1131C200B31DC01CB01F80191838083CE018F5D00
S1131C309D4F9E01235E3D4FF90120813181FC01BE
S1131C4031832083CE018F5D9D4FFC018081918182
S1131C500197F1F79E012F5D3D4FF9019183808338
S1131C6086EC91E00E9487019E012B5B3F4F80E050
S1131C7090E0A8E4B3E4F90180839183A283B38361
S1131C808E01015F1D4FCE018B5B9F4F20E030E042
S1131C904AE755E4FC0160817181828193810E944D
S1131CA08C31DC01CB01F80180839183A283B3835F
S1131CB0CE01815F9D4F20E030E040E85FE3FC010E
S1131CC060817181828193810E94063188234CF462
S1131CD0CE018D5E9D4F21E030E0FC0131832083F5
S1131CE06DC0CE01815F9D4F20E03FEF4FE757E489
S1131CF0FC0160817181828193810E948731181671
S1131D000CF04AC0CE018B5B9F4F20E030E040E2F4
S1131D1051E4FC0160817181828193810E948C3144
S1131D20DC01CB018E010D5E1D4FBC01CD010E9473
S1131D300B31DC01CB01F8019183808324C0CE01F7
S1131D408B5E9D4F20E931E0FC0131832083CE017D
S1131D508B5E9D4FFC01808191810197F1F79E017B
S1131D602B5E3D4FF90191838083CE018D5E9D4FA3
S1131D709E012D5E3D4FF9012081318121503109B1
S1131D80FC0131832083CE018D5E9D4FFC01808157
S1131D909181892BA1F62CC08E010D5E1D4FCE01C1
S1131DA0815F9D4FFC0160817181828193810E94DA
S1131DB00B31DC01CB01F80191838083CE01895E74
S1131DC09D4F9E012D5E3D4FF90120813181FC0123
S1131DD031832083CE01895E9D4FFC0180819181F6
S1131DE00197F1F79E01295E3D4FF90191838083AC
S1131DF08BE292E00E9487019E01275B3F4F80E0C7
S1131E0090E0A8E4B3E4F90180839183A283B383CF
S1131E108E010B5F1D4FCE01875B9F4F20E030E0AA
S1131E204AE755E4FC0160817181828193810E94BB
S1131E308C31DC01CB01F80180839183A283B383CD
S1131E40CE018B5F9D4F20E030E040E85FE3FC0172
S1131E5060817181828193810E94063188234CF4D0
S1131E60CE01875F9D4F21E030E0FC013183208368
S1131E706DC0CE018B5F9D4F20E03FEF4FE757E4ED
S1131E80FC0160817181828193810E9487311816DF
S1131E900CF04AC0CE01875B9F4F20E030E040E267
S1131EA051E4FC0160817181828193810E948C31B3
S1131EB0DC01CB018E01075F1D4FBC01CD010E94E7
S1131EC00B31DC01CB01F8019183808324C0CE0166
S1131ED0855F9D4F20E931E0FC0131832083CE01F1
S1131EE0855F9D4FFC01808191810197F1F79E01EF
S1131EF0255F3D4FF90191838083CE01875F9D4F1C
S1131F009E01275F3D4FF901208131812150310924
S1131F10FC0131832083CE01875F9D4FFC018081CA
S1131F209181892BA1F62CC08E01075F1D4FCE0134
S1131F308B5F9D4FFC0160817181828193810E943E
S1131F400B31DC01CB01F80191838083CE01835FE7
S1131F509D4F9E01275F3D4FF90120813181FC0196
S1131F6031832083CE01835F9D4FFC018081918169
S1131F700197F1F79E01235F3D4FF901918380831F
S1131F808BE392E00E9487019E01235B3F4F80E038
S1131F9090E0A6E1B3E4F90180839183A283B38343
S1131FA08E0105501E4FCE01835B9F4F20E030E031
S1131FB04AE755E4FC0160817181828193810E942A
S1131FC08C31DC01CB01F80180839183A283B3833C
S1131FD0CE0185509E4F20E030E040E85FE3FC01F5
S1131FE060817181828193810E94063188234CF43F
S1131FF0CE0181509E4F21E030E0FC0131832083EB
S11320006DC0CE0185509E4F20E03FEF4FE757E46F
S1132010FC0160817181828193810E94873118164D
S11320200CF04AC0CE01835B9F4F20E030E040E2D9
S113203051E4FC0160817181828193810E948C3121
S1132040DC01CB018E0101501E4FBC01CD010E9469
S11320500B31DC01CB01F8019183808324C0CE01D4
S11320608F5F9D4F20E931E0FC0131832083CE0155
S11320708F5F9D4FFC01808191810197F1F79E0153
S11320802F5F3D4FF90191838083CE0181509E4F94
S11320909E0121503E4FF9012081318121503109A7
S11320A0FC0131832083CE0181509E4FFC0180814D
S11320B09181892BA1F62CC08E0101501E4FCE01B7
S11320C085509E4FFC0160817181828193810E94C1
S11320D00B31DC01CB01F80191838083CE018D5F4C
S11320E09D4F9E0121503E4FF90120813181FC0119
S11320F031832083CE018D5F9D4FFC0180819181CE
S11321000197F1F79E012D5F3D4FF9019183808383
S11321108BE492E00E9487019E012F5A3F4F80E09A
S113212090E0A6E9B3E4F90180839183A283B383A9
S11321308E010F501E4FCE018F5A9F4F20E030E08A
S11321404AE755E4FC0160817181828193810E9498
S11321508C31DC01CB01F80180839183A283B383AA
S1132160CE018F509E4F20E030E040E85FE3FC0159
S113217060817181828193810E94063188234CF4AD
S1132180CE018B509E4F21E030E0FC01318320834F
S11321906DC0CE018F509E4F20E03FEF4FE757E4D4
S11321A0FC0160817181828193810E9487311816BC
S11321B00CF04AC0CE018F5A9F4F20E030E040E23D
S11321C051E4FC0160817181828193810E948C3190
S11321D0DC01CB018E010B501E4FBC01CD010E94CE
S11321E00B31DC01CB01F8019183808324C0CE0143
S11321F089509E4F20E931E0FC0131832083CE01D8
S113220089509E4FFC01808191810197F1F79E01D5
S113221029503E4FF90191838083CE018B509E4F0C
S11322209E012B503E4FF90120813181215031090B
S1132230FC0131832083CE018B509E4FFC018081B1
S11322409181892BA1F62CC08E010B501E4FCE011B
S11322508F509E4FFC0160817181828193810E9425
S11322600B31DC01CB01F80191838083CE018750CF
S11322709E4F9E012B503E4FF90120813181FC017C
S113228031832083CE0187509E4FFC018081918150
S11322900197F1F79E0127503E4FF9019183808306
S11322A08CE592E00E9487019E012B5A3F4F80E00B
S11322B090E0A6E1B3E4F90180839183A283B38320
S11322C08E0109511E4FCE018B5A9F4F20E030E002
S11322D04AE755E4FC0160817181828193810E9407
S11322E08C31DC01CB01F80180839183A283B38319
S11322F0CE0189519E4F20E030E040E85FE3FC01CD
S113230060817181828193810E94063188234CF41B
S1132310CE0185519E4F21E030E0FC0131832083C2
S11323206DC0CE0189519E4F20E03FEF4FE757E447
S1132330FC0160817181828193810E94873118162A
S11323400CF04AC0CE018B5A9F4F20E030E040E2AF
S113235051E4FC0160817181828193810E948C31FE
S1132360DC01CB018E0105511E4FBC01CD010E9441
S11323700B31DC01CB01F8019183808324C0CE01B1
S113238083519E4F20E931E0FC0131832083CE014B
S113239083519E4FFC01808191810197F1F79E0149
S11323A023513E4FF90191838083CE0185519E4F85
S11323B09E0125513E4FF90120813181215031097F
S11323C0FC0131832083CE0185519E4FFC01808125
S11323D09181892BA1F62CC08E0105511E4FCE018F
S11323E089519E4FFC0160817181828193810E9499
S11323F00B31DC01CB01F80191838083CE01815143
S11324009E4F9E0125513E4FF90120813181FC01EF
S113241031832083CE0181519E4FFC0180819181C3
S11324200197F1F79E0121513E4FF9019183808379
S11324308BE392E00E9487019E01275A3F4F80E080
S113244090E0AFEAB3E4F90180839183A283B3837C
S11324508E0103521E4FCE01875A9F4F20E030E079
S11324604AE755E4FC0160817181828193810E9475
S11324708C31DC01CB01F80180839183A283B38387
S1132480CE0183529E4F20E030E040E85FE3FC0140
S113249060817181828193810E94063188234CF48A
S11324A0CE018F519E4F21E030E0FC013183208327
S11324B06DC0CE0183529E4F20E03FEF4FE757E4BB
S11324C0FC0160817181828193810E948731181699
S11324D00CF04AC0CE01875A9F4F20E030E040E222
S11324E051E4FC0160817181828193810E948C316D
S11324F0DC01CB018E010F511E4FBC01CD010E94A6
S11325000B31DC01CB01F8019183808324C0CE011F
S11325108D519E4F20E931E0FC0131832083CE01AF
S11325208D519E4FFC01808191810197F1F79E01AD
S11325302D513E4FF90191838083CE018F519E4FDF
S11325409E012F513E4FF9012081318121503109E3
S1132550FC0131832083CE018F519E4FFC01808189
S11325609181892BA1F62CC08E010F511E4FCE01F3
S113257083529E4FFC0160817181828193810E940C
S11325800B31DC01CB01F80191838083CE018B51A7
S11325909E4F9E012F513E4FF90120813181FC0154
S11325A031832083CE018B519E4FFC018081918128
S11325B00197F1F79E012B513E4FF90191838083DE
S11325C08BE292E00E9487019E01235A3F4F80E0F4
S11325D090E0A6E9B3E4F90180839183A283B383F5
S11325E08E010D521E4FCE01835A9F4F20E030E0E2
S11325F04AE755E4FC0160817181828193810E94E4
S11326008C31DC01CB01F80180839183A283B383F5
S1132610CE018D529E4F20E030E040E85FE3FC01A4
S113262060817181828193810E94063188234CF4F8
S1132630CE0189529E4F21E030E0FC01318320839A
S11326406DC0CE018D529E4F20E03FEF4FE757E41F
S1132650FC0160817181828193810E948731181607
S11326600CF04AC0CE01835A9F4F20E030E040E294
S113267051E4FC0160817181828193810E948C31DB
S1132680DC01CB018E0109521E4FBC01CD010E9419
S11326900B31DC01CB01F8019183808324C0CE018E
S11326A087529E4F20E931E0FC0131832083CE0123
S11326B087529E4FFC01808191810197F1F79E0121
S11326C027523E4FF90191838083CE0189529E4F58
S11326D09E0129523E4FF901208131812150310957
S11326E0FC0131832083CE0189529E4FFC018081FD
S11326F09181892BA1F62CC08E0109521E4FCE0167
S11327008D529E4FFC0160817181828193810E9470
S11327100B31DC01CB01F80191838083CE0185521A
S11327209E4F9E0129523E4FF90120813181FC01C7
S113273031832083CE0185529E4FFC01808191819B
S11327400197F1F79E0125523E4FF9019183808351
S11327508CE692E00E9487019E012F593F4F80E052
S113276090E0A6E1B3E4F90180839183A283B3836B
S11327708E0107531E4FCE018F599F4F20E030E04A
S11327804AE755E4FC0160817181828193810E9452
S11327908C31DC01CB01F80180839183A283B38364
S11327A0CE0187539E4F20E030E040E85FE3FC0118
S11327B060817181828193810E94063188234CF467
S11327C0CE0183539E4F21E030E0FC01318320830E
S11327D06DC0CE0187539E4F20E03FEF4FE757E493
S11327E0FC0160817181828193810E948731181676
S11327F00CF04AC0CE018F599F4F20E030E040E2F8
S113280051E4FC0160817181828193810E948C3149
S1132810DC01CB018E0103531E4FBC01CD010E948C
S11328200B31DC01CB01F8019183808324C0CE01FC
S113283081539E4F20E931E0FC0131832083CE0196
S113284081539E4FFC01808191810197F1F79E0194
S113285021533E4FF90191838083CE0183539E4FD0
S11328609E0123533E4FF9012081318121503109CA
S1132870FC0131832083CE0183539E4FFC01808170
S11328809181892BA1F62CC08E0103531E4FCE01DA
S113289087539E4FFC0160817181828193810E94E4
S11328A00B31DC01CB01F80191838083CE018F527F
S11328B09E4F9E0123533E4FF90120813181FC013B
S11328C031832083CE018F529E4FFC018081918100
S11328D00197F1F79E012F523E4FF90191838083B6
S11328E08CE792E00E9487019E012B593F4F80E0C4
S11328F090E0A6E1B3E4F90180839183A283B383DA
S11329008E0101541E4FCE018B599F4F20E030E0C1
S11329104AE755E4FC0160817181828193810E94C0
S11329208C31DC01CB01F80180839183A283B383D2
S1132930CE0181549E4F20E030E040E85FE3FC018B
S113294060817181828193810E94063188234CF4D5
S1132950CE018D539E4F21E030E0FC013183208372
S11329606DC0CE0181549E4F20E03FEF4FE757E406
S1132970FC0160817181828193810E9487311816E4
S11329800CF04AC0CE018B599F4F20E030E040E26A
S113299051E4FC0160817181828193810E948C31B8
S11329A0DC01CB018E010D531E4FBC01CD010E94F1
S11329B00B31DC01CB01F8019183808324C0CE016B
S11329C08B539E4F20E931E0FC0131832083CE01FB
S11329D08B539E4FFC01808191810197F1F79E01F9
S11329E02B533E4FF90191838083CE018D539E4F2B
S11329F09E012D533E4FF90120813181215031092F
S1132A00FC0131832083CE018D539E4FFC018081D4
S1132A109181892BA1F62CC08E010D531E4FCE013E
S1132A2081549E4FFC0160817181828193810E9457
S1132A300B31DC01CB01F80191838083CE018953F2
S1132A409E4F9E012D533E4FF90120813181FC019F
S1132A5031832083CE0189539E4FFC018081918173
S1132A600197F1F79E0129533E4FF9019183808329
S1132A7089EF91E00E9487019E0127593F4F80E032
S1132A8090E0AAEFB3E4F90180839183A283B38336
S1132A908E010B541E4FCE0187599F4F20E030E02A
S1132AA04AE755E4FC0160817181828193810E942F
S1132AB08C31DC01CB01F80180839183A283B38341
S1132AC0CE018B549E4F20E030E040E85FE3FC01F0
S1132AD060817181828193810E94063188234CF444
S1132AE0CE0187549E4F21E030E0FC0131832083E6
S1132AF06DC0CE018B549E4F20E03FEF4FE757E46B
S1132B00FC0160817181828193810E948731181652
S1132B100CF04AC0CE0187599F4F20E030E040E2DC
S1132B2051E4FC0160817181828193810E948C3126
S1132B30DC01CB018E0107541E4FBC01CD010E9464
S1132B400B31DC01CB01F8019183808324C0CE01D9
S1132B5085549E4F20E931E0FC0131832083CE016E
S1132B6085549E4FFC01808191810197F1F79E016C
S1132B7025543E4FF90191838083CE0187549E4FA3
S1132B809E0127543E4FF9012081318121503109A2
S1132B90FC0131832083CE0187549E4FFC01808148
S1132BA09181892BA1F62CC08E0107541E4FCE01B2
S1132BB08B549E4FFC0160817181828193810E94BC
S1132BC00B31DC01CB01F80191838083CE01835466
S1132BD09E4F9E0127543E4FF90120813181FC0113
S1132BE031832083CE0183549E4FFC0180819181E7
S1132BF00197F1F79E0123543E4FF901918380839D
S1132C0084EA91E00E9487019E0123593F4F80E0AE
S1132C1090E0A1EEB3E4F90180839183A283B383AE
S1132C208E0105551E4FCE0183599F4F20E030E0A1
S1132C304AE755E4FC0160817181828193810E949D
S1132C408C31DC01CB01F80180839183A283B383AF
S1132C50CE0185559E4F20E030E040E85FE3FC0163
S1132C6060817181828193810E94063188234CF4B2
S1132C70CE0181559E4F21E030E0FC013183208359
S1132C806DC0CE0185559E4F20E03FEF4FE757E4DE
S1132C90FC0160817181828193810E9487311816C1
S1132CA00CF04AC0CE0183599F4F20E030E040E24F
S1132CB051E4FC0160817181828193810E948C3195
S1132CC0DC01CB018E0101551E4FBC01CD010E94D8
S1132CD00B31DC01CB01F8019183808324C0CE0148
S1132CE08F549E4F20E931E0FC0131832083CE01D3
S1132CF08F549E4FFC01808191810197F1F79E01D1
S1132D002F543E4FF90191838083CE0181559E4F0C
S1132D109E0121553E4FF901208131812150310915
S1132D20FC0131832083CE0181559E4FFC018081BB
S1132D309181892BA1F62CC08E0101551E4FCE0125
S1132D4085559E4FFC0160817181828193810E942F
S1132D500B31DC01CB01F80191838083CE018D54CA
S1132D609E4F9E0121553E4FF90120813181FC0186
S1132D7031832083CE018D549E4FFC01808191814B
S1132D800197F1F79E012D543E4FF9019183808301
S1132D9086EC91E00E9487019E012F583F4F80E00E
S1132DA090E0A8ECB3E4F90180839183A283B38318
S1132DB08E010F551E4FCE018F589F4F20E030E0FB
S1132DC04AE755E4FC0160817181828193810E940C
S1132DD08C31DC01CB01F80180839183A283B3831E
S1132DE0CE018F559E4F20E030E040E85FE3FC01C8
S1132DF060817181828193810E94063188234CF421
S1132E00CE018B559E4F21E030E0FC0131832083BD
S1132E106DC0CE018F559E4F20E03FEF4FE757E442
S1132E20FC0160817181828193810E94873118162F
S1132E300CF04AC0CE018F589F4F20E030E040E2B2
S1132E4051E4FC0160817181828193810E948C3103
S1132E50DC01CB018E010B551E4FBC01CD010E943C
S1132E600B31DC01CB01F8019183808324C0CE01B6
S1132E7089559E4F20E931E0FC0131832083CE0146
S1132E8089559E4FFC01808191810197F1F79E0144
S1132E9029553E4FF90191838083CE018B559E4F76
S1132EA09E012B553E4FF90120813181215031097A
S1132EB0FC0131832083CE018B559E4FFC01808120
S1132EC09181892BA1F62CC08E010B551E4FCE018A
S1132ED08F559E4FFC0160817181828193810E9494
S1132EE00B31DC01CB01F80191838083CE0187553E
S1132EF09E4F9E012B553E4FF90120813181FC01EB
S1132F0031832083CE0187559E4FFC0180819181BE
S1132F100197F1F79E0127553E4FF9019183808374
S1132F2087ED91E00E9487019E012B583F4F80E07E
S1132F3090E0AAEFB3E4F90180839183A283B38381
S1132F408E0109561E4FCE018B589F4F20E030E072
S1132F504AE755E4FC0160817181828193810E947A
S1132F608C31DC01CB01F80180839183A283B3838C
S1132F70CE0189569E4F20E030E040E85FE3FC013B
S1132F8060817181828193810E94063188234CF48F
S1132F90CE0185569E4F21E030E0FC013183208331
S1132FA06DC0CE0189569E4F20E03FEF4FE757E4B6
S1132FB0FC0160817181828193810E94873118169E
S1132FC00CF04AC0CE018B589F4F20E030E040E225
S1132FD051E4FC0160817181828193810E948C3172
S1132FE0DC01CB018E0105561E4FBC01CD010E94B0
S1132FF00B31DC01CB01F8019183808324C0CE0125
S113300083569E4F20E931E0FC0131832083CE01B9
S113301083569E4FFC01808191810197F1F79E01B7
S113302023563E4FF90191838083CE0185569E4FEE
S11330309E0125563E4FF9012081318121503109ED
S1133040FC0131832083CE0185569E4FFC01808193
S11330509181892BA1F62CC08E0105561E4FCE01FD
S113306089569E4FFC0160817181828193810E9407
S11330700B31DC01CB01F80191838083CE018156B1
S11330809E4F9E0125563E4FF90120813181FC015E
S113309031832083CE0181569E4FFC018081918132
S11330A00197F1F79E0121563E4FF90191838083E8
S11330B088EE91E00E9487019E0127583F4F80E0EF
S11330C090E0A6E9B3E4F90180839183A283B383FA
S11330D08E0103571E4FCE0187589F4F20E030E0EA
S11330E04AE755E4FC0160817181828193810E94E9
S11330F08C31DC01CB01F80180839183A283B383FB
S1133100CE0183579E4F20E030E040E85FE3FC01AE
S113311060817181828193810E94063188234CF4FD
S1133120CE018F569E4F21E030E0FC013183208395
S11331306DC0CE0183579E4F20E03FEF4FE757E429
S1133140FC0160817181828193810E94873118160C
S11331500CF04AC0CE0187589F4F20E030E040E297
S113316051E4FC0160817181828193810E948C31E0
S1133170DC01CB018E010F561E4FBC01CD010E9414
S11331800B31DC01CB01F8019183808324C0CE0193
S11331908D569E4F20E931E0FC0131832083CE011E
S11331A08D569E4FFC01808191810197F1F79E011C
S11331B02D563E4FF90191838083CE018F569E4F49
S11331C09E012F563E4FF901208131812150310952
S11331D0FC0131832083CE018F569E4FFC018081F8
S11331E09181892BA1F62CC08E010F561E4FCE0162
S11331F083579E4FFC0160817181828193810E947B
S11332000B31DC01CB01F80191838083CE018B5615
S11332109E4F9E012F563E4FF90120813181FC01C2
S113322031832083CE018B569E4FFC018081918196
S11332300197F1F79E012B563E4FF901918380834C
S113324089EF91E00E9487019E0123583F4F80E05F
S113325090E0A5EAB3E4F90180839183A283B38368
S11332608E010D571E4FCE0183589F4F20E030E052
S11332704AE755E4FC0160817181828193810E9457
S11332808C31DC01CB01F80180839183A283B38369
S1133290CE018D579E4F20E030E040E85FE3FC0113
S11332A060817181828193810E94063188234CF46C
S11332B0CE0189579E4F21E030E0FC013183208309
S11332C06DC0CE018D579E4F20E03FEF4FE757E48E
S11332D0FC0160817181828193810E94873118167B
S11332E00CF04AC0CE0183589F4F20E030E040E20A
S11332F051E4FC0160817181828193810E948C314F
S1133300DC01CB018E0109571E4FBC01CD010E9487
S11333100B31DC01CB01F8019183808324C0CE0101
S113332087579E4F20E931E0FC0131832083CE0191
S113333087579E4FFC01808191810197F1F79E018F
S113334027573E4FF90191838083CE0189579E4FC1
S11333509E0129573E4FF9012081318121503109C5
S1133360FC0131832083CE0189579E4FFC0180816B
S11333709181892BA1F62CC08E0109571E4FCE01D5
S11333808D579E4FFC0160817181828193810E94DF
S11333900B31DC01CB01F80191838083CE01855789
S11333A09E4F9E0129573E4FF90120813181FC0136
S11333B031832083CE0185579E4FFC01808191810A
S11333C00197F1F79E0125573E4FF90191838083C0
S11333D089E092E00E9487019E012F573F4F80E0D1
S11333E090E0A6E1B3E4F90180839183A283B383DF
S11333F08E0107581E4FCE018F579F4F20E030E0BB
S11334004AE755E4FC0160817181828193810E94C5
S11334108C31DC01CB01F80180839183A283B383D7
S1133420CE0187589E4F20E030E040E85FE3FC0186
S113343060817181828193810E94063188234CF4DA
S1133440CE0183589E4F21E030E0FC01318320837C
S11334506DC0CE0187589E4F20E03FEF4FE757E401
S1133460FC0160817181828193810E9487311816E9
S11334700CF04AC0CE018F579F4F20E030E040E26D
S113348051E4FC0160817181828193810E948C31BD
S1133490DC01CB018E0103581E4FBC01CD010E94FB
S11334A00B31DC01CB01F8019183808324C0CE0170
S11334B081589E4F20E931E0FC0131832083CE0105
S11334C081589E4FFC01808191810197F1F79E0103
S11334D021583E4FF90191838083CE0183589E4F3A
S11334E09E0123583E4FF901208131812150310939
S11334F0FC0131832083CE0183589E4FFC018081DF
S11335009181892BA1F62CC08E0103581E4FCE0148
S113351087589E4FFC0160817181828193810E9452
S11335200B31DC01CB01F80191838083CE018F57ED
S11335309E4F9E0123583E4FF90120813181FC01A9
S113354031832083CE018F579E4FFC01808191816E
S11335500197F1F79E012F573E4FF9019183808324
S11335608AE192E00E9487019E012B573F4F80E041
S113357090E0A6E9B3E4F90180839183A283B38345
S11335808E0101591E4FCE018B579F4F20E030E032
S11335904AE755E4FC0160817181828193810E9434
S11335A08C31DC01CB01F80180839183A283B38346
S11335B0CE0181599E4F20E030E040E85FE3FC01FA
S11335C060817181828193810E94063188234CF449
S11335D0CE018D589E4F21E030E0FC0131832083E1
S11335E06DC0CE0181599E4F20E03FEF4FE757E475
S11335F0FC0160817181828193810E948731181658
S11336000CF04AC0CE018B579F4F20E030E040E2DF
S113361051E4FC0160817181828193810E948C312B
S1133620DC01CB018E010D581E4FBC01CD010E945F
S11336300B31DC01CB01F8019183808324C0CE01DE
S11336408B589E4F20E931E0FC0131832083CE0169
S11336508B589E4FFC01808191810197F1F79E0167
S11336602B583E4FF90191838083CE018D589E4F94
S11336709E012D583E4FF90120813181215031099D
S1133680FC0131832083CE018D589E4FFC01808143
S11336909181892BA1F62CC08E010D581E4FCE01AD
S11336A081599E4FFC0160817181828193810E94C6
S11336B00B31DC01CB01F80191838083CE01895861
S11336C09E4F9E012D583E4FF90120813181FC010E
S11336D031832083CE0189589E4FFC0180819181E2
S11336E00197F1F79E0129583E4FF9019183808398
S11336F086EC91E00E9487019E0127573F4F80E0AE
S113370090E0A8E4B3E4F90180839183A283B383B6
S11337108E010B591E4FCE0187579F4F20E030E09A
S11337204AE755E4FC0160817181828193810E94A2
S11337308C31DC01CB01F80180839183A283B383B4
S1133740CE018B599E4F20E030E040E85FE3FC015E
S113375060817181828193810E94063188234CF4B7
S1133760CE0187599E4F21E030E0FC013183208354
S11337706DC0CE018B599E4F20E03FEF4FE757E4D9
S1133780FC0160817181828193810E9487311816C6
S11337900CF04AC0CE0187579F4F20E030E040E252
S11337A051E4FC0160817181828193810E948C319A
S11337B0DC01CB018E0107591E4FBC01CD010E94D3
S11337C00B31DC01CB01F8019183808324C0CE014D
S11337D085599E4F20E931E0FC0131832083CE01DD
S11337E085599E4FFC01808191810197F1F79E01DB
S11337F025593E4FF90191838083CE0187599E4F0D
S11338009E0127593E4FF901208131812150310910
S1133810FC0131832083CE0187599E4FFC018081B6
S11338209181892BA1F62CC08E0107591E4FCE0120
S11338308B599E4FFC0160817181828193810E942A
S11338400B31DC01CB01F80191838083CE018359D4
S11338509E4F9E0127593E4FF90120813181FC0181
S113386031832083CE0183599E4FFC018081918155
S11338700197F1F79E0123593E4FF901918380830B
S11338808BE292E00E9487019E0123573F4F80E024
S113389090E0A8E4B3E4F90180839183A283B38325
S11338A08E01055A1E4FCE0183579F4F20E030E012
S11338B04AE755E4FC0160817181828193810E9411
S11338C08C31DC01CB01F80180839183A283B38323
S11338D0CE01855A9E4F20E030E040E85FE3FC01D2
S11338E060817181828193810E94063188234CF426
S11338F0CE01815A9E4F21E030E0FC0131832083C8
S11339006DC0CE01855A9E4F20E03FEF4FE757E44C
S1133910FC0160817181828193810E948731181634
S11339200CF04AC0CE0183579F4F20E030E040E2C4
S113393051E4FC0160817181828193810E948C3108
S1133940DC01CB018E01015A1E4FBC01CD010E9446
S11339500B31DC01CB01F8019183808324C0CE01BB
S11339608F599E4F20E931E0FC0131832083CE0141
S11339708F599E4FFC01808191810197F1F79E013F
S11339802F593E4FF90191838083CE01815A9E4F76
S11339909E01215A3E4FF901208131812150310984
S11339A0FC0131832083CE01815A9E4FFC0180812A
S11339B09181892BA1F62CC08E01015A1E4FCE0194
S11339C0855A9E4FFC0160817181828193810E949E
S11339D00B31DC01CB01F80191838083CE018D5939
S11339E09E4F9E01215A3E4FF90120813181FC01F5
S11339F031832083CE018D599E4FFC0180819181BA
S1133A000197F1F79E012D593E4FF901918380836F
S1133A108BE392E00E9487019E012F563F4F80E086
S1133A2090E0A6E1B3E4F90180839183A283B38398
S1133A308E010F5A1E4FCE018F569F4F20E030E06B
S1133A404AE755E4FC0160817181828193810E947F
S1133A508C31DC01CB01F80180839183A283B38391
S1133A60CE018F5A9E4F20E030E040E85FE3FC0136
S1133A7060817181828193810E94063188234CF494
S1133A80CE018B5A9E4F21E030E0FC01318320832C
S1133A906DC0CE018F5A9E4F20E03FEF4FE757E4B1
S1133AA0FC0160817181828193810E9487311816A3
S1133AB00CF04AC0CE018F569F4F20E030E040E228
S1133AC051E4FC0160817181828193810E948C3177
S1133AD0DC01CB018E010B5A1E4FBC01CD010E94AB
S1133AE00B31DC01CB01F8019183808324C0CE012A
S1133AF0895A9E4F20E931E0FC0131832083CE01B5
S1133B00895A9E4FFC01808191810197F1F79E01B2
S1133B10295A3E4FF90191838083CE018B5A9E4FDF
S1133B209E012B5A3E4FF9012081318121503109E8
S1133B30FC0131832083CE018B5A9E4FFC0180818E
S1133B409181892BA1F62CC08E010B5A1E4FCE01F8
S1133B508F5A9E4FFC0160817181828193810E9402
S1133B600B31DC01CB01F80191838083CE01875AAC
S1133B709E4F9E012B5A3E4FF90120813181FC0159
S1133B8031832083CE01875A9E4FFC01808191812D
S1133B900197F1F79E01275A3E4FF90191838083E3
S1133BA08BE492E00E9487019E012B563F4F80E0F8
S1133BB090E0A6E9B3E4F90180839183A283B383FF
S1133BC08E01095B1E4FCE018B569F4F20E030E0E3
S1133BD04AE755E4FC0160817181828193810E94EE
S1133BE08C31DC01CB01F80180839183A283B38300
S1133BF0CE01895B9E4F20E030E040E85FE3FC01AA
S1133C0060817181828193810E94063188234CF402
S1133C10CE01855B9E4F21E030E0FC01318320839F
S1133C206DC0CE01895B9E4F20E03FEF4FE757E424
S1133C30FC0160817181828193810E948731181611
S1133C400CF04AC0CE018B569F4F20E030E040E29A
S1133C5051E4FC0160817181828193810E948C31E5
S1133C60DC01CB018E01055B1E4FBC01CD010E941E
S1133C700B31DC01CB01F8019183808324C0CE0198
S1133C80835B9E4F20E931E0FC0131832083CE0128
S1133C90835B9E4FFC01808191810197F1F79E0126
S1133CA0235B3E4FF90191838083CE01855B9E4F58
S1133CB09E01255B3E4FF90120813181215031095C
S1133CC0FC0131832083CE01855B9E4FFC01808102
S1133CD09181892BA1F62CC08E01055B1E4FCE016C
S1133CE0895B9E4FFC0160817181828193810E9476
S1133CF00B31DC01CB01F80191838083CE01815B20
S1133D009E4F9E01255B3E4FF90120813181FC01CC
S1133D1031832083CE01815B9E4FFC0180819181A0
S1133D200197F1F79E01215B3E4FF9019183808356
S1133D308CE892E00E9487019E0127563F4F80E065
S1133D4090E0A6E1B3E4F90180839183A283B38375
S1133D508E01035C1E4FCE0187569F4F20E030E05A
S1133D604AE755E4FC0160817181828193810E945C
S1133D708C31DC01CB01F80180839183A283B3836E
S1133D80CE01835C9E4F20E030E040E85FE3FC011D
S1133D9060817181828193810E94063188234CF471
S1133DA0CE018F5B9E4F21E030E0FC013183208304
S1133DB06DC0CE01835C9E4F20E03FEF4FE757E498
S1133DC0FC0160817181828193810E948731181680
S1133DD00CF04AC0CE0187569F4F20E030E040E20D
S1133DE051E4FC0160817181828193810E948C3154
S1133DF0DC01CB018E010F5B1E4FBC01CD010E9483
S1133E000B31DC01CB01F8019183808324C0CE0106
S1133E108D5B9E4F20E931E0FC0131832083CE018C
S1133E208D5B9E4FFC01808191810197F1F79E018A
S1133E302D5B3E4FF90191838083CE018F5B9E4FB2
S1133E409E012F5B3E4FF9012081318121503109C0
S1133E50FC0131832083CE018F5B9E4FFC01808166
S1133E609181892BA1F62CC08E010F5B1E4FCE01D0
S1133E70835C9E4FFC0160817181828193810E94E9
S1133E800B31DC01CB01F80191838083CE018B5B84
S1133E909E4F9E012F5B3E4FF90120813181FC0131
S1133EA031832083CE018B5B9E4FFC018081918105
S1133EB00197F1F79E012B5B3E4FF90191838083BB
S1133EC08BE392E00E9487019E0123563F4F80E0DE
S1133ED090E0AFEAB3E4F90180839183A283B383D2
S1133EE08E010D5C1E4FCE0183569F4F20E030E0C3
S1133EF04AE755E4FC0160817181828193810E94CB
S1133F008C31DC01CB01F80180839183A283B383DC
S1133F10CE018D5C9E4F20E030E040E85FE3FC0181
S1133F2060817181828193810E94063188234CF4DF
S1133F30CE01895C9E4F21E030E0FC013183208377
S1133F406DC0CE018D5C9E4F20E03FEF4FE757E4FC
S1133F50FC0160817181828193810E9487311816EE
S1133F600CF04AC0CE0183569F4F20E030E040E27F
S1133F7051E4FC0160817181828193810E948C31C2
S1133F80DC01CB018E01095C1E4FBC01CD010E94F6
S1133F900B31DC01CB01F8019183808324C0CE0175
S1133FA0875C9E4F20E931E0FC0131832083CE0100
S1133FB0875C9E4FFC01808191810197F1F79E01FE
S1133FC0275C3E4FF90191838083CE01895C9E4F2B
S1133FD09E01295C3E4FF901208131812150310934
S1133FE0FC0131832083CE01895C9E4FFC018081DA
S1133FF09181892BA1F62CC08E01095C1E4FCE0144
S11340008D5C9E4FFC0160817181828193810E944D
S11340100B31DC01CB01F80191838083CE01855CF7
S11340209E4F9E01295C3E4FF90120813181FC01A4
S113403031832083CE01855C9E4FFC018081918178
S11340400197F1F79E01255C3E4FF901918380832E
S11340508BE292E00E9487019E012F553F4F80E042
S113406090E0A6E9B3E4F90180839183A283B3834A
S11340708E01075D1E4FCE018F559F4F20E030E02B
S11340804AE755E4FC0160817181828193810E9439
S11340908C31DC01CB01F80180839183A283B3834B
S11340A0CE01875D9E4F20E030E040E85FE3FC01F5
S11340B060817181828193810E94063188234CF44E
S11340C0CE01835D9E4F21E030E0FC0131832083EB
S11340D06DC0CE01875D9E4F20E03FEF4FE757E470
S11340E0FC0160817181828193810E94873118165D
S11340F00CF04AC0CE018F559F4F20E030E040E2E3
S113410051E4FC0160817181828193810E948C3130
S1134110DC01CB018E01035D1E4FBC01CD010E9469
S11341200B31DC01CB01F8019183808324C0CE01E3
S1134130815D9E4F20E931E0FC0131832083CE0173
S1134140815D9E4FFC01808191810197F1F79E0171
S1134150215D3E4FF90191838083CE01835D9E4FA3
S11341609E01235D3E4FF9012081318121503109A7
S1134170FC0131832083CE01835D9E4FFC0180814D
S11341809181892BA1F62CC08E01035D1E4FCE01B7
S1134190875D9E4FFC0160817181828193810E94C1
S11341A00B31DC01CB01F80191838083CE018F5C5C
S11341B09E4F9E01235D3E4FF90120813181FC0118
S11341C031832083CE018F5C9E4FFC0180819181DD
S11341D00197F1F79E012F5C3E4FF9019183808393
S11341E08CE692E00E9487019E012B553F4F80E0B0
S11341F090E0A6E1B3E4F90180839183A283B383C1
S11342008E01015E1E4FCE018B559F4F20E030E0A2
S11342104AE755E4FC0160817181828193810E94A7
S11342208C31DC01CB01F80180839183A283B383B9
S1134230CE01815E9E4F20E030E040E85FE3FC0168
S113424060817181828193810E94063188234CF4BC
S1134250CE018D5D9E4F21E030E0FC01318320834F
S11342606DC0CE01815E9E4F20E03FEF4FE757E4E3
S1134270FC0160817181828193810E9487311816CB
S11342800CF04AC0CE018B559F4F20E030E040E255
S113429051E4FC0160817181828193810E948C319F
S11342A0DC01CB018E010D5D1E4FBC01CD010E94CE
S11342B00B31DC01CB01F8019183808324C0CE0152
S11342C08B5D9E4F20E931E0FC0131832083CE01D8
S11342D08B5D9E4FFC01808191810197F1F79E01D6
S11342E02B5D3E4FF90191838083CE018D5D9E4FFE
S11342F09E012D5D3E4FF90120813181215031090C
S1134300FC0131832083CE018D5D9E4FFC018081B1
S11343109181892BA1F62CC08E010D5D1E4FCE011B
S1134320815E9E4FFC0160817181828193810E9434
S11343300B31DC01CB01F80191838083CE01895DCF
S11343409E4F9E012D5D3E4FF90120813181FC017C
S113435031832083CE01895D9E4FFC018081918150
S11343600197F1F79E01295D3E4FF9019183808306
S11343708CE792E00E9487019E0127553F4F80E021
S113438090E0A6E1B3E4F90180839183A283B3832F
S11343908E010B5E1E4FCE0187559F4F20E030E00B
S11343A04AE755E4FC0160817181828193810E9416
S11343B08C31DC01CB01F80180839183A283B38328
S11343C0CE018B5E9E4F20E030E040E85FE3FC01CD
S11343D060817181828193810E94063188234CF42B
S11343E0CE01875E9E4F21E030E0FC0131832083C3
S11343F06DC0CE018B5E9E4F20E03FEF4FE757E448
S1134400FC0160817181828193810E948731181639
S11344100CF04AC0CE0187559F4F20E030E040E2C7
S113442051E4FC0160817181828193810E948C310D
S1134430DC01CB018E01075E1E4FBC01CD010E9441
S11344400B31DC01CB01F8019183808324C0CE01C0
S1134450855E9E4F20E931E0FC0131832083CE014B
S1134460855E9E4FFC01808191810197F1F79E0149
S1134470255E3E4FF90191838083CE01875E9E4F76
S11344809E01275E3E4FF90120813181215031097F
S1134490FC0131832083CE01875E9E4FFC01808125
S11344A09181892BA1F62CC08E01075E1E4FCE018F
S11344B08B5E9E4FFC0160817181828193810E9499
S11344C00B31DC01CB01F80191838083CE01835E43
S11344D09E4F9E01275E3E4FF90120813181FC01F0
S11344E031832083CE01835E9E4FFC0180819181C4
S11344F00197F1F79E01235E3E4FF901918380837A
S113450089EF91E00E9487019E0123553F4F80E08F
S113451090E0AAEFB3E4F90180839183A283B3838B
S11345208E01055F1E4FCE0183559F4F20E030E082
S11345304AE755E4FC0160817181828193810E9484
S11345408C31DC01CB01F80180839183A283B38396
S1134550CE01855F9E4F20E030E040E85FE3FC0140
S113456060817181828193810E94063188234CF499
S1134570CE01815F9E4F21E030E0FC013183208336
S11345806DC0CE01855F9E4F20E03FEF4FE757E4BB
S1134590FC0160817181828193810E9487311816A8
S11345A00CF04AC0CE0183559F4F20E030E040E23A
S11345B051E4FC0160817181828193810E948C317C
S11345C0DC01CB018E01015F1E4FBC01CD010E94B5
S11345D00B31DC01CB01F8019183808324C0CE012F
S11345E08F5E9E4F20E931E0FC0131832083CE01B0
S11345F08F5E9E4FFC01808191810197F1F79E01AE
S11346002F5E3E4FF90191838083CE01815F9E4FDF
S11346109E01215F3E4FF9012081318121503109F2
S1134620FC0131832083CE01815F9E4FFC01808198
S11346309181892BA1F62CC08E01015F1E4FCE0102
S1134640855F9E4FFC0160817181828193810E940C
S11346500B31DC01CB01F80191838083CE018D5EA7
S11346609E4F9E01215F3E4FF90120813181FC0163
S113467031832083CE018D5E9E4FFC018081918128
S11346800197F1F79E012D5E3E4FF90191838083DE
S11346908BE992E00E9487019E012F543F4F80E0F6
S11346A090E0A6E9B3E4F90180839183A283B38304
S11346B08E010F5F1E4FCE018F549F4F20E030E0DC
S11346C04AE755E4FC0160817181828193810E94F3
S11346D08C31DC01CB01F80180839183A283B38305
S11346E0CE018F5F9E4F20E030E040E85FE3FC01A5
S11346F060817181828193810E94063188234CF408
S1134700CE018B5F9E4F21E030E0FC01318320839A
S11347106DC0CE018F5F9E4F20E03FEF4FE757E41F
S1134720FC0160817181828193810E948731181616
S11347300CF04AC0CE018F549F4F20E030E040E29D
S113474051E4FC0160817181828193810E948C31EA
S1134750DC01CB018E010B5F1E4FBC01CD010E9419
S11347600B31DC01CB01F8019183808324C0CE019D
S1134770895F9E4F20E931E0FC0131832083CE0123
S1134780895F9E4FFC01808191810197F1F79E0121
S1134790295F3E4FF90191838083CE018B5F9E4F49
S11347A09E012B5F3E4FF901208131812150310957
S11347B0FC0131832083CE018B5F9E4FFC018081FD
S11347C09181892BA1F62CC08E010B5F1E4FCE0167
S11347D08F5F9E4FFC0160817181828193810E9471
S11347E00B31DC01CB01F80191838083CE01875F1B
S11347F09E4F9E012B5F3E4FF90120813181FC01C8
S113480031832083CE01875F9E4FFC01808191819B
S11348100197F1F79E01275F3E4FF9019183808351
S11348208CEA92E00E9487019E012B543F4F80E066
S113483090E0A8ECB2E4F90180839183A283B3836E
S11348408E0109501F4FCE018B549F4F20E030E062
S11348504AE755E4FC0160817181828193810E9461
S11348608C31DC01CB01F80180839183A283B38373
S1134870CE0189509F4F20E030E040E85FE3FC0127
S113488060817181828193810E94063188234CF476
S1134890CE0185509F4F21E030E0FC01318320831D
S11348A06DC0CE0189509F4F20E03FEF4FE757E4A2
S11348B0FC0160817181828193810E948731181685
S11348C00CF04AC0CE018B549F4F20E030E040E210
S11348D051E4FC0160817181828193810E948C3159
S11348E0DC01CB018E0105501F4FBC01CD010E949C
S11348F00B31DC01CB01F8019183808324C0CE010C
S113490083509F4F20E931E0FC0131832083CE01A5
S113491083509F4FFC01808191810197F1F79E01A3
S113492023503F4FF90191838083CE0185509F4FDF
S11349309E0125503F4FF9012081318121503109D9
S1134940FC0131832083CE0185509F4FFC0180817F
S11349509181892BA1F62CC08E0105501F4FCE01E9
S113496089509F4FFC0160817181828193810E94F3
S11349700B31DC01CB01F80191838083CE0181509E
S11349809F4F9E0125503F4FF90120813181FC0149
S113499031832083CE0181509F4FFC01808191811E
S11349A00197F1F79E0121503F4FF90191838083D4
S11349B08DEB92E00E9487019E0127543F4F80E0D7
S11349C090E0A6E1B3E4F90180839183A283B383E9
S11349D08E0103511F4FCE0187549F4F20E030E0DA
S11349E04AE755E4FC0160817181828193810E94D0
S11349F08C31DC01CB01F80180839183A283B383E2
S1134A00CE0183519F4F20E030E040E85FE3FC019A
S1134A1060817181828193810E94063188234CF4E4
S1134A20CE018F509F4F21E030E0FC013183208381
S1134A306DC0CE0183519F4F20E03FEF4FE757E415
S1134A40FC0160817181828193810E9487311816F3
S1134A500CF04AC0CE0187549F4F20E030E040E282
S1134A6051E4FC0160817181828193810E948C31C7
S1134A70DC01CB018E010F501F4FBC01CD010E9400
S1134A800B31DC01CB01F8019183808324C0CE017A
S1134A908D509F4F20E931E0FC0131832083CE010A
S1134AA08D509F4FFC01808191810197F1F79E0108
S1134AB02D503F4FF90191838083CE018F509F4F3A
S1134AC09E012F503F4FF90120813181215031093E
S1134AD0FC0131832083CE018F509F4FFC018081E4
S1134AE09181892BA1F62CC08E010F501F4FCE014E
S1134AF083519F4FFC0160817181828193810E9467
S1134B000B31DC01CB01F80191838083CE018B5002
S1134B109F4F9E012F503F4FF90120813181FC01AD
S1134B2031832083CE018B509F4FFC018081918182
S1134B300197F1F79E012B503F4FF9019183808338
S1134B408EEC92E00E9487019E0123543F4F80E047
S1134B5090E0A6E1B3E4F90180839183A283B38357
S1134B608E010D511F4FCE0183549F4F20E030E042
S1134B704AE755E4FC0160817181828193810E943E
S1134B808C31DC01CB01F80180839183A283B38350
S1134B90CE018D519F4F20E030E040E85FE3FC01FF
S1134BA060817181828193810E94063188234CF453
S1134BB0CE0189519F4F21E030E0FC0131832083F5
S1134BC06DC0CE018D519F4F20E03FEF4FE757E47A
S1134BD0FC0160817181828193810E948731181662
S1134BE00CF04AC0CE0183549F4F20E030E040E2F5
S1134BF051E4FC0160817181828193810E948C3136
S1134C00DC01CB018E0109511F4FBC01CD010E9473
S1134C100B31DC01CB01F8019183808324C0CE01E8
S1134C2087519F4F20E931E0FC0131832083CE017D
S1134C3087519F4FFC01808191810197F1F79E017B
S1134C4027513F4FF90191838083CE0189519F4FB2
S1134C509E0129513F4FF9012081318121503109B1
S1134C60FC0131832083CE0189519F4FFC01808157
S1134C709181892BA1F62CC08E0109511F4FCE01C1
S1134C808D519F4FFC0160817181828193810E94CB
S1134C900B31DC01CB01F80191838083CE01855176
S1134CA09F4F9E0129513F4FF90120813181FC0121
S1134CB031832083CE0185519F4FFC0180819181F6
S1134CC00197F1F79E0125513F4FF90191838083AC
S1134CD08FED92E00E9487019E012B523F4F80E0AE
S1134CE090E0A6E9B3E4F90180839183A283B383BE
S1134CF08E0107521F4FCE018B529F4F20E030E0B0
S1134D004AE755E4FC0160817181828193810E94AC
S1134D108C31DC01CB01F80180839183A283B383BE
S1134D20CE0187529F4F20E030E040E85FE3FC0172
S1134D3060817181828193810E94063188234CF4C1
S1134D40CE0183529F4F21E030E0FC013183208368
S1134D506DC0CE0187529F4F20E03FEF4FE757E4ED
S1134D60FC0160817181828193810E9487311816D0
S1134D700CF04AC0CE018B529F4F20E030E040E25D
S1134D8051E4FC0160817181828193810E948C31A4
S1134D90DC01CB018E0103521F4FBC01CD010E94E7
S1134DA00B31DC01CB01F8019183808324C0CE0157
S1134DB081529F4F20E931E0FC0131832083CE01F1
S1134DC081529F4FFC01808191810197F1F79E01EF
S1134DD021523F4FF90191838083CE0183529F4F2B
S1134DE09E0123523F4FF901208131812150310925
S1134DF0FC0131832083CE0183529F4FFC018081CB
S1134E009181892BA1F62CC08E0103521F4FCE0134
S1134E1087529F4FFC0160817181828193810E943E
S1134E200B31DC01CB01F80191838083CE018F51DA
S1134E309F4F9E0123523F4FF90120813181FC0194
S1134E4031832083CE018F519F4FFC01808191815A
S1134E500197F1F79E012F513F4FF9019183808310
S1134E608885882F90E088709927892B09F49EC142
S1134E7080EF92E00E94AD0104C080E091E00E94C6
S1134E8087018091BA038133C1F380917E03882F17
S1134E9090E081709927892B09F488C18EE591E00F
S1134EA00E9487019E012F523F4F80E090E0A8E4CA
S1134EB0B3E4F90180839183A283B3838E01015506
S1134EC01D4FCE018F529F4F20E030E04AE755E45A
S1134ED0FC0160817181828193810E948C31DC01AB
S1134EE0CB01F80180839183A283B383CE018155E2
S1134EF09D4F20E030E040E85FE3FC016081718178
S1134F00828193810E94063188234CF4CE018D5412
S1134F109D4F21E030E0FC01318320836DC0CE0140
S1134F2081559D4F20E03FEF4FE757E4FC0160813E
S1134F307181828193810E94873118160CF04AC0D6
S1134F40CE018F529F4F20E030E040E251E4FC015B
S1134F5060817181828193810E948C31DC01CB015B
S1134F608E010D541D4FBC01CD010E940B31DC019B
S1134F70CB01F8019183808324C0CE018B549D4FD3
S1134F8020E931E0FC0131832083CE018B549D4F15
S1134F90FC01808191810197F1F79E012B543D4FD3
S1134FA0F90191838083CE018D549D4F9E012D5430
S1134FB03D4FF9012081318121503109FC013183B8
S1134FC02083CE018D549D4FFC0180819181892BDA
S1134FD0A1F62CC08E010D541D4FCE0181559D4F5D
S1134FE0FC0160817181828193810E940B31DC011B
S1134FF0CB01F80191838083CE0189549D4F9E019A
S11350002D543D4FF90120813181FC0131832083EE
S1135010CE0189549D4FFC01808191810197F1F764
S11350209E0129543D4FF901918380838FE691E0DD
S11350300E94870180E090E0AAEFB3E489879A8711
S1135040AB87BC878E010B551D4F20E030E04AE74B
S113505055E469857A858B859C850E948C31DC01B9
S1135060CB01F80180839183A283B383CE018B5556
S11350709D4F20E030E040E85FE3FC0160817181F6
S1135080828193810E94063188234CF4CE01875596
S11350909D4F21E030E0FC013183208369C0CE01C3
S11350A08B559D4F20E03FEF4FE757E4FC016081B3
S11350B07181828193810E94873118160CF046C059
S11350C020E030E040E251E469857A858B859C8557
S11350D00E948C31DC01CB018E0107551D4FBC01B0
S11350E0CD010E940B31DC01CB01F8019183808357
S11350F024C0CE0185559D4F20E931E0FC01318368
S11351002083CE0185559D4FFC01808191810197BB
S1135110F1F79E0125553D4FF90191838083CE011E
S113512087559D4F9E0127553D4FF90120813181BF
S113513021503109FC0131832083CE0187559D4FD5
S1135140FC0180819181892BA1F62CC08E01075529
S11351501D4FCE018B559D4FFC0160817181828171
S113516093810E940B31DC01CB01F8019183808390
S1135170CE0183559D4F9E0127553D4FF901208156
S11351803181FC0131832083CE0183559D4FFC0185
S1135190808191810197F1F79E0123553D4FF901DB
S11351A09183808381E891E00E94870180917F034D
S11351B0882311F40C94B8031F8285E290E025E261
S11351C030E0F90120812160FC01208310927F03EB
S11351D081E30E9451011E8253C28E81882F90E088
S11351E08C5E9B4FFC018081882F90E0883591056F
S11351F049F08935910509F420C18F34910509F4EA
S113520037C23BC28E81882F90E001968C5E9B4F03
S1135210FC018081882F90E0AC014053510988EE55
S113522093E0489F9001499F300D589F300D112401
S11352308E81882F90E002968C5E9B4FFC018081CA
S1135240882F90E0AC014053510964E6649FC0018B
S1135250659F900D1124280F391F8E81882F90E0AF
S113526003968C5E9B4FFC018081882F90E0C09751
S1135270880F991FAC01440F551F440F551F840F0D
S1135280951F280F391F8E81882F90E004968C5E1D
S11352909B4FFC018081882F90E0820F931FC09761
S11352A09C838B8381E30E9451019E0123533F4FD2
S11352B080E090E0A8ECB2E4F90180839183A283BA
S11352C0B3838E0107541D4FCE0183539F4F20E0BB
S11352D030E04AE755E4FC01608171818281938169
S11352E00E948C31DC01CB01F80180839183A2837D
S11352F0B383CE0187549D4F20E030E040E85FE364
S1135300FC0160817181828193810E94063188232E
S11353104CF4CE0183549D4F21E030E0FC013183F5
S113532020836DC0CE0187549D4F20E03FEF4FE7AF
S113533057E4FC0160817181828193810E948731ED
S113534018160CF04AC0CE0183539F4F20E030E082
S113535040E251E4FC0160817181828193810E9469
S11353608C31DC01CB018E0103541D4FBC01CD01F6
S11353700E940B31DC01CB01F8019183808324C0AE
S1135380CE0181549D4F20E931E0FC01318320831B
S1135390CE0181549D4FFC01808191810197F1F7E9
S11353A09E0121543D4FF90191838083CE018354A2
S11353B09D4F9E0123543D4FF9012081318121509D
S11353C03109FC0131832083CE0183549D4FFC01BC
S11353D080819181892BA1F62CC08E0103541D4F2D
S11353E0CE0187549D4FFC0160817181828193813C
S11353F00E940B31DC01CB01F80191838083CE0143
S11354008F539D4F9E0123543D4FF90120813181DB
S1135410FC0131832083CE018F539D4FFC01808199
S113542091810197F1F79E012F533D4FF90191832B
S113543080838D818F5F8D8320C18E81882F90E042
S113544001968C5E9B4FFC018081882F90E0AC011B
S11354504053510988EE93E0489F9001499F300DD5
S1135460589F300D11248E81882F90E002968C5E17
S11354709B4FFC018081882F90E0AC01405351097F
S113548064E6649FC001659F900D1124280F391FA5
S11354908E81882F90E003968C5E9B4FFC01808167
S11354A0882F90E0C097880F991FAC01440F551FB7
S11354B0440F551F840F951F280F391F8E81882F85
S11354C090E004968C5E9B4FFC018081882F90E0D5
S11354D0820F931FC0979A83898381E30E945101AD
S11354E09E012F533F4F80E090E0A8ECB2E4F90115
S11354F080839183A283B3838E010D531D4FCE010C
S11355008F539F4F20E030E04AE755E4FC0160816F
S11355107181828193810E948C31DC01CB01F8017D
S113552080839183A283B383CE018D539D4F20E06A
S113553030E040E85FE3FC01608171818281938106
S11355400E94063188234CF4CE0189539D4F21E0FB
S113555030E0FC01318320836DC0CE018D539D4F1B
S113556020E03FEF4FE757E4FC01608171818281C5
S113557093810E94873118160CF04AC0CE018F53D4
S11355809F4F20E030E040E251E4FC0160817181F2
S1135590828193810E948C31DC01CB018E010953FD
S11355A01D4FBC01CD010E940B31DC01CB01F80180
S11355B09183808324C0CE0187539D4F20E931E03D
S11355C0FC0131832083CE0187539D4FFC018081F0
S11355D091810197F1F79E0127533D4FF901918382
S11355E08083CE0189539D4F9E0129533D4FF9017C
S11355F02081318121503109FC0131832083CE0186
S113560089539D4FFC0180819181892BA1F62CC087
S11356108E0109531D4FCE018D539D4FFC016081B6
S11356207181828193810E940B31DC01CB01F801ED
S113563091838083CE0185539D4F9E0129533D4F15
S1135640F90120813181FC0131832083CE0185530E
S11356509D4FFC01808191810197F1F79E012553B3
S11356603D4FF901918380838D818F5F8D8305C0C8
S113567081E08F838D818F5F8D838E818F5F8E8399
S1135680809181039E81891708F0A7CD1092810330
S11356908D81882319F08D81833020F080E30E946E
S11356A0510101C01D828F81882309F4B6C180EFA6
S11356B092E00E94AD011F8204C080E091E00E944C
S11356C087018091BA038133C1F380917E03882FCF
S11356D090E081709927892B09F494C18EE591E0BB
S11356E00E9487019E0127533F4F80E090E0A8E489
S11356F0B3E4F90180839183A283B3838E010952B9
S11357001D4FCE0187539F4F20E030E04AE755E418
S1135710FC0160817181828193810E948C31DC0162
S1135720CB01F80180839183A283B383CE01895294
S11357309D4F20E030E040E85FE3FC01608171812F
S1135740828193810E94063188234CF4CE018552D4
S11357509D4F21E030E0FC01318320836DC0CE01F8
S113576089529D4F20E03FEF4FE757E4FC016081F1
S11357707181828193810E94873118160CF04AC08E
S1135780CE0187539F4F20E030E040E251E4FC011A
S113579060817181828193810E948C31DC01CB0113
S11357A08E0105521D4FBC01CD010E940B31DC015D
S11357B0CB01F8019183808324C0CE0183529D4F95
S11357C020E931E0FC0131832083CE0183529D4FD7
S11357D0FC01808191810197F1F79E0123523D4F95
S11357E0F90191838083CE0185529D4F9E012552FC
S11357F03D4FF9012081318121503109FC01318370
S11358002083CE0185529D4FFC0180819181892B9B
S1135810A1F62CC08E0105521D4FCE0189529D4F19
S1135820FC0160817181828193810E940B31DC01D2
S1135830CB01F80191838083CE0181529D4F9E015B
S113584025523D4FF90120813181FC0131832083B0
S1135850CE0181529D4FFC01808191810197F1F726
S11358609E0121523D4FF901918380838FE691E09F
S11358700E9487019E012B533F4F80E090E0AAEFE6
S1135880B3E4F90180839183A283B3838E0103532C
S11358901D4FCE018B539F4F20E030E04AE755E483
S11358A0FC0160817181828193810E948C31DC01D1
S11358B0CB01F80180839183A283B383CE01835308
S11358C09D4F20E030E040E85FE3FC01608171819E
S11358D0828193810E94063188234CF4CE018F5239
S11358E09D4F21E030E0FC01318320836DC0CE0167
S11358F083539D4F20E03FEF4FE757E4FC01608165
S11359007181828193810E94873118160CF04AC0FC
S1135910CE018B539F4F20E030E040E251E4FC0184
S113592060817181828193810E948C31DC01CB0181
S11359308E010F521D4FBC01CD010E940B31DC01C1
S1135940CB01F8019183808324C0CE018D529D4FF9
S113595020E931E0FC0131832083CE018D529D4F3B
S1135960FC01808191810197F1F79E012D523D4FF9
S1135970F90191838083CE018F529D4F9E012F5256
S11359803D4FF9012081318121503109FC013183DE
S11359902083CE018F529D4FFC0180819181892B00
S11359A0A1F62CC08E010F521D4FCE0183539D4F83
S11359B0FC0160817181828193810E940B31DC0141
S11359C0CB01F80191838083CE018B529D4F9E01C0
S11359D02F523D4FF90120813181FC013183208315
S11359E0CE018B529D4FFC01808191810197F1F78B
S11359F09E012B523D4FF9019183808381E891E010
S1135A000E94870185E290E025E230E0F9012081DF
S1135A102E7FFC0120830C94B80380917E0388239D
S1135A20F4F489819A81092E000CAA0BBB0BC12CBA
S1135A30E12C04E09C01AD016AE082E00E94482F61
S1135A408B819C81092E000CAA0BBB0BC12CE12C71
S1135A5004E09C01AD016AE083E00E94482F898143
S1135A609A81805891409A8389838B819C8192503A
S1135A709C838B8389819A8125E030E0B9010E945F
S1135A802132CB019C0188EC90E0821B930B9A831A
S1135A9089838B819C8125E030E0B9010E94213209
S1135AA0CB019195819591099C838B838C818F93F4
S1135AB08B818F938A818F9389818F9387E093E081
S1135AC0892F8F9387E093E08F931F928EE18F93BA
S1135AD0CE018F519D4F292F2F938F930E946B32AC
S1135AE08DB79EB70A960FB6F894DEBF0FBECDBF32
S1135AF080917E038823F4F489819A81092E000C15
S1135B00AA0BBB0BC12CE12C04E09C01AD0160E0AD
S1135B1082E00E94482F8B819C81092E000CAA0BE5
S1135B20BB0BC12CE12C04E09C01AD0160E083E0DF
S1135B300E94482FCE018F519D4F0E94AD0113C08A
S1135B4080E091E00E94870180918703882F90E094
S1135B50A0E0B0E0C12CE12C04E09C01AD016AE0BE
S1135B6080E00E94482F8091BA03813349F38091E9
S1135B707E03882F90E081709927892B21F08EE194
S1135B8093E00E94870181E30E94510185E290E045
S1135B9025E230E0F90120812E7FFC0120830C9462
S1135BA0B803CF93DF93CDB7DEB784E490E024E469
S1135BB030E0F90120812260FC01208385E490E03B
S1135BC025E430E0F90120812360FC01208387E48F
S1135BD090E029EFFC0120838EE690E02EE630E091
S1135BE0F90120812260FC0120830000DF91CF9124
S1135BF008951F920F9200905F000F9211242F932B
S1135C003F934F935F936F937F938F939F93AF9340
S1135C10BF93EF93FF93CF93DF93CDB7DEB780911C
S1135C20ED039091EE03A091EF03B091F003019680
S1135C30A11DB11D8093ED039093EE03A093EF0398
S1135C40B093F0038091ED039091EE03A091EF03E4
S1135C50B091F00328EE33E040E050E0BC01CD0108
S1135C600E943532DC01CB01892B8A2B8B2B99F4D2
S1135C708091F1039091F203A091F303B091F403A6
S1135C800196A11DB11D8093F1039093F203A0939B
S1135C90F303B093F4038091E9039091EA03A09194
S1135CA0EB03B091EC03892B8A2B8B2B99F0809119
S1135CB0E9039091EA03A091EB03B091EC030197FF
S1135CC0A109B1098093E9039093EA03A093EB033C
S1135CD0B093EC030000DF91CF91FF91EF91BF915E
S1135CE0AF919F918F917F916F915F914F913F9170
