S01200004D795F50726F6A6563742E7372656316
S11300000C943E000C945B000C945B000C945B001D
S11300100C945B000C945B000C945B000C945B00F0
S11300200C945B000C945B000C945B000C945B00E0
S11300300C945B000C945B000C945B000C945B00D0
S11300400C9485070C945B000C945B000C945B008F
S11300500C94CB010C945B000C945B000C945B003F
S11300600C945B000C945B000C945B000C945B00A0
S11300700C9426020C945B000C945B0011241FBEAC
S1130080CFEFD0E1DEBFCDBF12E0A0E0B1E0E2EE01
S1130090FDE102C005900D92AE31B107D9F722E01F
S11300A0AEE1B2E001C01D92A23CB207E1F70E94AA
S11300B074020C94EF0E0C940000CF93DF9300D0E5
S11300C01F92CDB7DEB7198282E290E022E230E0DF
S11300D0F90120812062FC01208382E290E022E287
S11300E030E0F90120812F7DFC01208382E290E041
S11300F022E230E0F90120812062FC01208387E0C4
S113010090E09B838A8330C080E290E0FC01808190
S1130110882F90E08078992747E050E02A813B813E
S1130120BA01621B730B9B0102C0959587952A95B2
S1130130E2F7982F8981892B898382E290E022E279
S113014030E0F90120812F7BFC01208382E290E0E2
S113015022E230E0F90120812064FC0120838A81BD
S11301609B8101979B838A838A819B81992364F66F
S113017089810F900F900F90DF91CF910895CF93C5
S1130180DF931F92CDB7DEB785E290E025E230E041
S1130190F9012081207FFC01208384E290E020EF9C
S11301A0FC012083000000000000000000000000AB
S11301B0000000000000000083E290E0FC01808168
S11301C08F70898384E290E02FEFFC012083898182
S11301D00F90DF91CF910895CF93DF93CDB7DEB722
S11301E08AE790E02AE730E0F90120812068FC01E9
S11301F020838CE790E02CE730E0F9012081206433
S1130200FC0120838AE790E02AE730E0F9012081AD
S11302102760FC0120830000DF91CF910895CF93E4
S1130220DF93CDB7DEB784EC90E020E130E0FC0151
S11302303183208380EC90E020EC30E0F9012081D0
S11302402260FC01208381EC90E021EC30E0F90194
S113025020812869FC0120830000DF91CF9108955B
S1130260CF93DF93CDB7DEB78CEC90E020E130E0A4
S1130270FC013183208388EC90E028EC30E0F90124
S113028020812260FC01208389EC90E029EC30E09D
S1130290F90120812869FC0120830000DF91CF91BE
S11302A00895CF93DF931F92CDB7DEB78983000003
S11302B080EC90E0FC018081882F90E08072992787
S11302C0892BB1F386EC90E02981FC0120830000A6
S11302D00F90DF91CF910895CF93DF931F92CDB705
S11302E0DEB78983000088EC90E0FC018081882FD0
S11302F090E080729927892BB1F38EEC90E02981EC
S1130300FC01208300000F90DF91CF910895CF93DB
S1130310DF9300D0CDB7DEB79A8389830BC0898180
S11303209A81FC0180810E946C0189819A810196E5
S11303309A83898389819A81FC018081882379F752
S1130340109220020000809120028823E1F3000033
S11303500F900F90DF91CF910895CF93DF9300D04A
S1130360CDB7DEB79A83898389819A810E948701F8
S113037080E091E00E94870104C080E091E00E9447
S1130380870180915A028133C1F300000F900F90CE
S1130390DF91CF9108951F920F9200905F000F920A
S11303A011242F933F938F939F93EF93FF93CF93B6
S11303B0DF9300D01F92CDB7DEB71A8286EC90E0AF
S11303C0FC0180818B838B818A3099F08091220299
S11303D0823378F480912102882F90E08A559D4FD2
S11303E02B81FC012083809121028F5F8093210265
S11303F01BC0198211C08981882F90E02981222F86
S113040030E02A553D4FF90120818C549D4FFC0169
S1130410208389818F5F8983809121029981891743
S113042050F781E080931F0200000F900F900F900F
S1130430DF91CF91FF91EF919F918F913F912F91F8
S11304400F9000925F000F901F9018951F920F92CB
S113045000905F000F9211242F938F939F93EF933B
S1130460FF93CF93DF931F92CDB7DEB78EEC90E06E
S1130470FC018081898380912002882331F5898160
S11304808A30B1F089818D3099F0809122028233D3
S113049078F480912202882F90E08A5A9D4F298116
S11304A0FC012083809122028F5F809322020DC081
S11304B080912202882F90E08A5A9D4FFC0110827D
S11304C01092220281E08093200200000F90DF91BD
S11304D0CF91FF91EF919F918F912F910F90009267
S11304E05F000F901F901895CF92EF920F931F9378
S11304F0CF93DF93CDB7DEB7CE56D1090FB6F894BC
S1130500DEBF0FBECDBF0E94740A68EE73E080E0C8
S113051090E00E940B080E94110A0E94EC000E94C5
S11305200F010E943001188619861D821E821F82C7
S11305300E94110A0E94BF008A870E945D00809376
S11305401E028A85882F90E088709927892B09F4E8
S1130550FDC089EA91E00E94AD0104C080E091E011
S11305600E94870180915A028133C1F380EC91E0AB
S11305700E94870180E090E0A8ECB2E48F8B988F12
S1130580A98FBA8F20E030E04AE755E46F89788D6F
S1130590898D9A8D0E94180BDC01CB0189A79AA73B
S11305A0ABA7BCA720E030E040E85FE369A57AA5EB
S11305B08BA59CA50E94920A88232CF481E090E0EC
S11305C09EA78DA73FC020E03FEF4FE757E469A502
S11305D07AA58BA59CA50E94130B18164CF520E058
S11305E030E040E251E46F89788D898D9A8D0E94C4
S11305F0180BDC01CB01BC01CD010E94970ADC0180
S1130600CB019EA78DA70FC080E991E098AB8FA77F
S11306108FA598A90197F1F798AB8FA78DA59EA5F3
S113062001979EA78DA78DA59EA5892B69F714C058
S113063069A57AA58BA59CA50E94970ADC01CB012C
S11306409EA78DA78DA59EA59AAB89AB89A99AA9CA
S11306500197F1F79AAB89AB81ED91E00E94870194
S113066080E090E0A8E4B3E48B8F9C8FAD8FBE8FC5
S113067020E030E04AE755E46B8D7C8D8D8D9E8DB6
S11306800E94180BDC01CB018F8F98A3A9A3BAA3F6
S113069020E030E040E85FE36F8D78A189A19AA162
S11306A00E94920A88232CF481E090E09CA38BA3FF
S11306B03FC020E03FEF4FE757E46F8D78A189A159
S11306C09AA10E94130B18164CF520E030E040E28A
S11306D051E46B8D7C8D8D8D9E8D0E94180BDC01F9
S11306E0CB01BC01CD010E94970ADC01CB019CA384
S11306F08BA30FC080E991E09EA38DA38DA19EA141
S11307000197F1F79EA38DA38BA19CA101979CA3B4
S11307108BA38BA19CA1892B69F714C06F8D78A141
S113072089A19AA10E94970ADC01CB019CA38BA307
S11307308BA19CA198A78FA38FA198A50197F1F7EE
S113074098A78FA383EE91E00E94870180911F02F6
S1130750882309F4AFC31F8285E290E025E230E0EC
S1130760F90120812160FC01208310921F0281E3A2
S11307700E94510180E090E0A8ECB2E48B8B9C8B4A
S1130780AD8BBE8B20E030E04AE755E46B897C8971
S11307908D899E890E94180BDC01CB018BAB9CAB2D
S11307A0ADABBEAB20E030E040E85FE36BA97CA9D1
S11307B08DA99EA90E94920A88232CF481E090E0DE
S11307C098AF8FAB3FC020E03FEF4FE757E46BA9F2
S11307D07CA98DA99EA90E94130B18164CF520E044
S11307E030E040E251E46B897C898D899E890E94C6
S11307F0180BDC01CB01BC01CD010E94970ADC017E
S1130800CB0198AF8FAB0FC080E991E09AAF89AF6D
S113081089AD9AAD0197F1F79AAF89AF8FA998ADD9
S1130820019798AF8FAB8FA998AD892B69F714C046
S11308306BA97CA98DA99EA90E94970ADC01CB0112
S113084098AF8FAB8FA998AD9CAF8BAF8BAD9CADA0
S11308500197F1F79CAF8BAF1E8238C28E81882F2F
S113086090E08C549D4FFC018081882F90E0883566
S1130870910549F08935910509F411C18F34910529
S113088009F41CC220C28E81882F90E001968C54FA
S11308909D4FFC018081882F90E0AC0140535109A9
S11308A088EE93E0489F9001499F300D589F300D8A
S11308B011248E81882F90E002968C549D4FFC0168
S11308C08081882F90E0AC014053510964E6649F15
S11308D0C001659F900D1124280F391F8E81882F28
S11308E090E003968C549D4FFC018081882F90E00A
S11308F0C097880F991FAC01440F551F440F551F13
S1130900840F951F280F391F8E81882F90E004963D
S11309108C549D4FFC018081882F90E0820F931F9F
S1130920C0979C838B8381E30E94510180E090E017
S1130930A8ECB2E48B879C87AD87BE8720E030E0CB
S11309404AE755E46B857C858D859E850E94180B4E
S1130950DC01CB019E01235C3F4FF901808391832D
S1130960A283B38320E030E040E85FE3CE01CD967C
S1130970FC0160817181828193810E94920A8823A3
S11309804CF4CE018F5B9F4F21E030E0FC013183BA
S1130990208367C020E03FEF4FE757E4CE01CD96B8
S11309A0FC0160817181828193810E94130B18166E
S11309B00CF046C020E030E040E251E46B857C85D9
S11309C08D859E850E94180BDC01CB018E010F5B87
S11309D01F4FBC01CD010E94970ADC01CB01F80135
S11309E09183808324C0CE018D5B9F4F20E931E049
S11309F0FC0131832083CE018D5B9F4FFC018081FC
S1130A0091810197F1F79E012D5B3F4FF90191838D
S1130A108083CE018F5B9F4F9E012F5B3F4FF90177
S1130A202081318121503109FC0131832083CE01A1
S1130A308F5B9F4FFC0180819181892BA1F62BC094
S1130A408E010F5B1F4FCE01CD96FC016081718139
S1130A50828193810E94970ADC01CB01F801918382
S1130A608083CE018B5B9F4F9E012F5B3F4FF9012B
S1130A7020813181FC0131832083CE018B5B9F4F28
S1130A80FC01808191810197F1F79E012B5B3F4F1F
S1130A90F901918380838D818F5F8D8314C18E8151
S1130AA0882F90E001968C549D4FFC018081882F03
S1130AB090E0AC014053510988EE93E0489F9001C7
S1130AC0499F300D589F300D11248E81882F90E05E
S1130AD002968C549D4FFC018081882F90E0AC01DC
S1130AE04053510964E6649FC001659F900D112431
S1130AF0280F391F8E81882F90E003968C549D4FC8
S1130B00FC018081882F90E0C097880F991FAC0169
S1130B10440F551F440F551F840F951F280F391F6D
S1130B208E81882F90E004968C549D4FFC01808127
S1130B30882F90E0820F931FC0979A83898381E363
S1130B400E94510180E090E0A8ECB2E48F87988B7A
S1130B50A98BBA8B8E01095B1F4F20E030E04AE776
S1130B6055E46F85788989899A890E94180BDC017C
S1130B70CB01F80180839183A283B383CE01895B87
S1130B809F4F20E030E040E85FE3FC016081718129
S1130B90828193810E94920A88234CF4CE01855B62
S1130BA09F4F21E030E0FC013183208369C0CE01F6
S1130BB0895B9F4F20E03FEF4FE757E4FC016081E2
S1130BC07181828193810E94130B18160CF046C028
S1130BD020E030E040E251E46F85788989899A8980
S1130BE00E94180BDC01CB018E01055B1F4FBC0179
S1130BF0CD010E94970ADC01CB01F8019183808327
S1130C0024C0CE01835B9F4F20E931E0FC01318396
S1130C102083CE01835B9F4FFC01808191810197EA
S1130C20F1F79E01235B3F4FF90191838083CE014D
S1130C30855B9F4F9E01255B3F4FF90120813181E8
S1130C4021503109FC0131832083CE01855B9F4F04
S1130C50FC0180819181892BA1F62CC08E01055B5A
S1130C601F4FCE01895B9F4FFC016081718182819E
S1130C7093810E94970ADC01CB01F8019183808360
S1130C80CE01815B9F4F9E01255B3F4FF90120817F
S1130C903181FC0131832083CE01815B9F4FFC01B4
S1130CA0808191810197F1F79E01215B3F4FF9010A
S1130CB0918380838D818F5F8D8305C081E08F83D5
S1130CC08D818F5F8D838E818F5F8E8380912102D2
S1130CD09E81891708F0C2CD109221028D8188234C
S1130CE019F08D81833020F080E30E94510101C00E
S1130CF01D828F81882321F189EA91E00E94AD0150
S1130D001F8204C080E091E00E94870180915A0212
S1130D108133C1F380EC91E00E94870181ED91E081
S1130D200E94870183EE91E00E94870185E290E0B2
S1130D3025E230E0F90120812E7FFC012083BAC036
S1130D4080911E028823F4F489819A81092E000C73
S1130D50AA0BBB0BC12CE12C04E09C01AD016AE0A1
S1130D6082E00E94D4088B819C81092E000CAA0B7E
S1130D70BB0BC12CE12C04E09C01AD016AE083E0D3
S1130D800E94D40889819A81805891409A838983EA
S1130D908B819C8192509C838B8389819A8125E0ED
S1130DA030E0B9010E94AD0BCB019C0188EC90E0CE
S1130DB0821B930B9A8389838B819C8125E030E08D
S1130DC0B9010E94AD0BCB019195819591099C834A
S1130DD08B838C818F938B818F938A818F9389816D
S1130DE08F9385EF91E0892F8F9385EF91E08F9317
S1130DF01F928EE18F93CE018F5A9F4F292F2F93ED
S1130E008F930E94F70B8DB79EB70A960FB6F8948E
S1130E10DEBF0FBECDBF80911E028823F4F489810A
S1130E209A81092E000CAA0BBB0BC12CE12C04E007
S1130E309C01AD0160E082E00E94D4088B819C811A
S1130E40092E000CAA0BBB0BC12CE12C04E09C0165
S1130E50AD0160E083E00E94D408CE018F5A9F4F19
S1130E600E94AD0113C080E091E00E94870180914F
S1130E702702882F90E0A0E0B0E0C12CE12C04E030
S1130E809C01AD016AE080E00E94D40880915A027E
S1130E90813349F38CE092E00E94870181E30E9450
S1130EA0510185E290E025E230E0F90120812E7FB6
S1130EB0FC012083898588873DCBCF93DF93CDB711
S1130EC0DEB784E490E024E430E0F901208122607C
S1130ED0FC01208385E490E025E430E0F9012081E1
S1130EE02360FC01208387E490E029EFFC01208348
S1130EF08EE690E02EE630E0F90120812260FC01CC
S1130F0020830000DF91CF9108951F920F920090EB
S1130F105F000F9211242F933F934F935F936F932E
S1130F207F938F939F93AF93BF93EF93FF93CF934D
S1130F30DF93CDB7DEB780918D0290918E02A091A0
S1130F408F02B09190020196A11DB11D80938D0274
S1130F5090938E02A0938F02B093900280918D02A1
S1130F6090918E02A0918F02B091900228EE33E00E
S1130F7040E050E0BC01CD010E94C10BDC01CB017B
S1130F80892B8A2B8B2B99F4809191029091920258
S1130F90A0919302B09194020196A11DB11D80937A
S1130FA0910290939202A0939302B0939402809141
S1130FB0890290918A02A0918B02B0918C02892BB4
S1130FC08A2B8B2B99F08091890290918A02A091AF
S1130FD08B02B0918C020197A109B1098093890217
S1130FE090938A02A0938B02B0938C020000DF914D
S1130FF0CF91FF91EF91BF91AF919F918F917F918D
S11310006F915F914F913F912F910F9000925F00EC
S11310100F901F901895CF93DF9300D000D0CDB7D9
S1131020DEB769837A838B839C8389819A81AB81C0
S1131030BC81892B8A2B8B2B69F089819A81AB81A6
S1131040BC818093890290938A02A0938B02B0930F
S11310508C020CC081E090E0A0E0B0E080938902B3
S113106090938A02A0938B02B0938C02000080912B
S1131070890290918A02A0918B02B0918C02892BF3
S11310808A2B8B2BA1F700000F900F900F900F90DD
S1131090DF91CF910895CF93DF9300D0CDB7DEB722
S11310A08A83198204C0000089818F5F89839981B2
S11310B08A819817C0F300000F900F90DF91CF91B1
S11310C0089591E090939502409A41984198419AED
S11310D0419A41984198419A419A41984198419A3C
S11310E0419A41984198419A419A41984198419A2C
S11310F0409841984198419A8334A9F1409A419883
S11311004198419A409841984198419A84E0419885
S113111060FF27C0409A66954198419A8150B9F77B
S1131120409884E041984198419A8150D9F784E0ED
S1131130419860FF14C0409A66954198419A815045
S1131140B9F7409884E041984198419A8150D9F781
S113115084E1409A8150E9F71092950208954098ED
S1131160EBCF4098D8CF4098CACF0F931F93DF930B
S11311708A0190E2899F600D1124606883E40E94D3
S11311806108F8016081662359F0D0E0DF5F84E4F0
S11311900E946108F801ED0FF11D60816111F6CF25
S11311A0DF911F910F9108952F923F924F925F927A
S11311B06F927F928F929F92AF92BF92CF92DF9263
S11311C0EF92FF920F931F93CF93DF93CDB7DEB7C8
S11311D063970FB6F894DEBF0FBECDBF8A8B6B8BBF
S11311E029013A01C88A043608F4BDC00456198A94
S11311F00B3008F00AE0EF8688898E1508F48F8793
S1131200202E312CC101EF858E0F911D0B971CF000
S11312108AE0801B8F87C301B2012AE030E040E0FE
S113122050E00E94C10B605D6C871AE03AE0C32E67
S1131230D12CE12CF12C4AE0842E912CA12CB12C40
S113124081E090E08C0F9D1F810F911D9E878D87FB
S1131250C301B201A70196010E94C10BCA01B901E1
S1131260A50194010E94C10B605DED85FE8560833C
S1131270CC0CDD1CEE1CFF1CD701C601880F991F86
S1131280AA1FBB1F880F991FAA1FBB1FC80ED91EF8
S1131290EA1EFB1E1150A0F62CE0F8892F1B822FAA
S11312A0801B002309F485C0FE013196A1E0B0E063
S11312B0AC0FBD1FA80FB11D9C9191938F5F281394
S11312C0F5CF8F85811152C0F10181E090E08C0F40
S11312D09D1FE80FF91F10829989992321F18981B3
S11312E0803309F5A1014150510914161506DCF4A7
S11312F080E090E020E060E203C0841795079CF44E
S11313002F5FE1E0F0E0EC0FFD1FE80FF91F6083B1
S1131310822F90E0E1E0F0E0EC0FFD1FE80FF91FF1
S11313203081303351F3AE014F5F5F4F6B898A894F
S11313300E94B50863960FB6F894DEBF0FBECDBF0A
S1131340DF91CF911F910F91FF90EF90DF90CF909D
S1131350BF90AF909F908F907F906F905F904F90D1
S11313603F902F90089521E0298B42CF0F5F8EE2AA
S1131370E1E0F0E0EC0FFD1FE20DF31D8083E02FB0
S1131380201B822F8E0FA1E0B0E0AC0FBD1FA80F71
S1131390B11D8C91A1E0B0E0AC0FBD1FAE0FB11D2B
S11313A08C93EF5F8E2F801B9F85891750F3F0E09D
S11313B08CCFEF85EE2321F08EE2898301E0DFCF2D
S11313C0E0E0F0E082CFDF93389A399AD2E388E7FD
S11313D00E944B08D150D9F764E383E40E9461086A
S11313E064E383E40E94610869E083E40E94610885
S11313F060E383E40E9461086CE083E40E94610876
S113140061E083E40E946108D8E088E70E944B0809
S1131410D150D9F767E083E40E946108DF910C940E
S11314205D07DF9361E083E40E946108D8E088E708
S11314300E944B08D150D9F7DF910895CF93DF93E1
S11314401F92CDB7DEB785E290E021E0FC01208356
S1131450198217C062E370E080E090E00E940B08FC
S113146085E290E02981422F50E021E030E002C083
S1131470220F331F4A95E2F7FC01208389818F5F95
S113148089838981883030F385E290E020E8FC018B
S11314902083198217C062E370E080E090E00E942C
S11314A00B0885E290E02981422F50E020E830E0EB
S11314B002C0359527954A95E2F7FC01208389817E
S11314C08F5F89838981883030F364E670E080E03F
S11314D090E00E940B0885E290E0FC01108200007D
S11314E00F90DF91CF910895CF93DF93CDB7DEB7FF
S11314F081E290E020E6FC01208384E290E02FEF7B
S1131500FC0120838AE290E02CEFFC012083789494
S11315100E94E3090E94110A0E941E0A0000DF9142
S1131520CF9108950E94C60A08F481E008950E94AC
S1131530F20A88F09F5798F0B92F9927B751B0F065
S1131540E1F0660F771F881F991F1AF0BA95C9F743
S113155014C0B13091F00E940C0BB1E008950C94CA
S11315600C0B672F782F8827B85F39F0B93FCCF37D
S1131570869577956795B395D9F73EF490958095C0
S1131580709561957F4F8F4F9F4F0895990F000875
S1131590550FAA0BE0E8FEEF16161706E807F90741
S11315A0C0F012161306E407F50798F0621B730BDC
S11315B0840B950B39F40A2661F0232B242B252B5D
S11315C021F408950A2609F4A140A6958FEF811D00
S11315D0811D089557FD9058440F551F59F05F3FE2
S11315E071F04795880F97FB991F61F09F3F79F041
S11315F087950895121613061406551FF2CF4695C3
S1131600F1DF08C0161617061806991FF1CF869544
S11316107105610508940895E894BB276627772728
S1131620CB0197F908950E94C60A08F48FEF089534
S11316300E942B0B0C949C0B0E948E0B38F00E9482
S1131640950B20F0952311F00C94850B0C948B0BC7
S113165011240C940D0B0E94EA0A70F3959FC1F3B8
S1131660950F50E0551F629FF001729FBB27F00D4C
S1131670B11D639FAA27F00DB11DAA1F649F6627A1
S1131680B00DA11D661F829F2227B00DA11D621FF0
S1131690739FB00DA11D621F839FA00D611D221FAA
S11316A0749F3327A00D611D231F849F600D211D8E
S11316B0822F762F6A2F11249F5750409AF0F1F011
S11316C088234AF0EE0FFF1FBB1F661F771F881F7A
S11316D091505040A9F79E3F510580F00C94850B22
S11316E00C940D0B5F3FE4F3983ED4F38695779505
S11316F06795B795F795E7959F5FC1F7FE2B880F20
S1131700911D9695879597F9089597F99F6780E8B5
S113171070E060E008959FEF80EC089500240A943F
S11317201616170618060906089500240A941216B8
S11317301306140605060895092E0394000C11F4EB
S1131740882352F0BB0F40F4BF2B11F460FF04C098
S11317506F5F7F4F8F4F9F4F089597FB072E16F4AF
S1131760009407D077FD09D00E94E30B07FC05D055
S11317703EF4909581959F4F0895709561957F4FA4
S11317800895A1E21A2EAA1BBB1BFD010DC0AA1FBE
S1131790BB1FEE1FFF1FA217B307E407F50720F0D6
S11317A0A21BB30BE40BF50B661F771F881F991F51
S11317B01A9469F760957095809590959B01AC019A
S11317C0BD01CF010895AA1BBB1B51E107C0AA1F8D
S11317D0BB1FA617B70710F0A61BB70B881F991FCE
S11317E05A95A9F780959095BC01CD010895AEE076
S11317F0B0E0EDEFFBE00C94C60E0D891E898F89D5
S1131800988D26E02C831A83098397FF02C080E019
S113181090E801979E838D83AE01455E5F4F698D8D
S11318207A8DCE0101960E94270C4D815E8157FD71
S11318300AC02F813885421753070CF49A01F80126
S1131840E20FF31F10822E96E4E00C94E20EABE05C
S1131850B0E0EDE2FCE00C94B80E6C017B018A016F
S1131860FC0117821682838181FFCCC1CE010196CF
S11318703C01F6019381F70193FD859193FF8191DA
S11318807F01882309F4BAC1853239F493FD859127
S113189093FF81917F01853229F4B60190E00E9483
S11318A01E0EE7CF912C212C312CFFE1F315D8F03B
S11318B08B3279F038F4803279F08332A1F4232D1D
S11318C020611DC08D3261F0803369F4232D2160C5
S11318D016C0832D8260382EE32DE4603E2E2AC08C
S11318E0F32DF8601DC037FC2DC020ED280F2A30E1
S11318F040F08E32B9F436FC81C1232D2064322E9F
S113190019C036FE06C08AE0989E200D1124922E3E
S113191011C0EAE02E9E200D1124222EF32DF06238
S11319203F2E08C08C3621F4832D8068382E02C0E7
S1131930883641F4F70193FD859193FF81917F01EE
S11319408111B3CF982F9F7D9554933028F40C5F69
S11319501F4F9FE399830DC0833631F0833771F0B5
S1131960833509F059C021C0F801808189830E5F55
S11319701F4F88248394912C530113C02801F2E053
S11319804F0E511CF801A080B18036FE03C0692DB2
S113199070E002C06FEF7FEFC5010E94130E4C018F
S11319A08201F32DFF773F2E16C0280122E0420E5C
S11319B0511CF801A080B18036FE03C0692D70E08F
S11319C002C06FEF7FEFC5010E94080E4C01F32D9A
S11319D0F0683F2E820133FC1BC0822D90E08816F4
S11319E09906B0F4B60180E290E00E941E0E2A949B
S11319F0F4CFF50137FC859137FE81915F01B60183
S1131A0090E00E941E0E21102A9421E0821A91086F
S1131A108114910471F7E8C0843611F0893641F5D8
S1131A20F80137FE07C060817181828193810C5F68
S1131A301F4F08C060817181072E000C880B990B21
S1131A400E5F1F4FF32DFF763F2E97FF09C0909531
S1131A508095709561957F4F8F4F9F4FF0683F2E13
S1131A602AE030E0A3010E945A0E882E861845C051
S1131A70853731F4232D2F7EB22E2AE030E025C0A5
S1131A80932D997FB92E8F36C1F018F4883579F0EB
S1131A90B5C0803719F0883721F0B0C0E92FE06174
S1131AA0BE2EB4FE0DC0FB2DF460BF2E09C034FE63
S1131AB00AC0292F2660B22E06C028E030E005C0F7
S1131AC020E130E002C020E132E0F801B7FE07C0B7
S1131AD060817181828193810C5F1F4F06C0608198
S1131AE0718180E090E00E5F1F4FA3010E945A0EA7
S1131AF0882E8618FB2DFF773F2E36FE0DC0232D32
S1131B002E7FA22E891458F434FE0BC032FC09C077
S1131B10832D8E7EA82E05C0B82CA32C03C0B82C10
S1131B2001C0B92CA4FE0FC0FE01E80DF11D808197
S1131B30803321F49A2D997EA92E09C0A2FE06C0F5
S1131B40B394B39404C08A2D867809F0B394A3FCAB
S1131B5011C0A0FE06C0B21488F4280C922C9B1865
S1131B600EC0B21460F4B60180E290E00E941E0E32
S1131B70B394F7CFB21418F42B1802C0982C212C6C
S1131B80A4FE10C0B60180E390E00E941E0EA2FEE7
S1131B9017C0A1FC03C088E790E002C088E590E08C
S1131BA0B6010CC08A2D867859F0A1FE02C08BE2E2
S1131BB001C080E2A7FC8DE2B60190E00E941E0EF7
S1131BC0891438F4B60180E390E00E941E0E9A94C2
S1131BD0F7CF8A94F301E80DF11D8081B60190E0FE
S1131BE00E941E0E8110F5CF222009F442CEB601C8
S1131BF080E290E00E941E0E2A94F6CFF6018681C0
S1131C00978102C08FEF9FEF2B96E2E10C94D40EE4
S1131C10FC010590615070400110D8F780959095B3
S1131C208E0F9F1F0895FC016150704001900110B8
S1131C30D8F7809590958E0F9F1F08950F931F934B
S1131C40CF93DF93FB01238121FD03C08FEF9FEF2F
S1131C502CC022FF16C0468157812481358142174A
S1131C60530744F4A081B1819D012F5F3F4F31831D
S1131C7020838C93268137812F5F3F4F37832683C0
S1131C8014C08B01EC01FB010084F185E02D099562
S1131C90892BE1F6D80116968D919C9117970196A0
S1131CA017969C938E931697CE01DF91CF911F9137
S1131CB00F910895FA01AA27283051F1203181F1BA
S1131CC0E8946F936E7F6E5F7F4F8F4F9F4FAF4F40
S1131CD0B1E03ED0B4E03CD0670F781F891F9A1F53
S1131CE0A11D680F791F8A1F911DA11D6A0F711D07
S1131CF0811D911DA11D20D009F468943F912AE013
S1131D00269F11243019305D3193DEF6CF010895FA
S1131D10462F4770405D4193B3E00FD0C9F7F6CF2B
S1131D20462F4F70405D4A3318F0495D31FD4052F3
S1131D30419302D0A9F7EACFB4E0A6959795879589
S1131D4077956795BA95C9F7009761057105089568
S1131D509B01AC010A2E0694579547953795279514
S1131D60BA95C9F7620F731F841F951FA01D0895AC
S1131D702F923F924F925F926F927F928F929F9297
S1131D80AF92BF92CF92DF92EF92FF920F931F9385
S1131D90CF93DF93CDB7DEB7CA1BDB0B0FB6F89436
S1131DA0DEBF0FBECDBF09942A88398848885F8476
S1131DB06E847D848C849B84AA84B984C884DF80E7
S1131DC0EE80FD800C811B81AA81B981CE0FD11DCB
S1131DD00FB6F894DEBF0FBECDBFED010895F894A1
S1051DE0FFCF2F
S1131DE24D323230300A00473020580050323232FD
S1131DF2300A0050323230300A0050323230310A66
S1131E020050323230320A0050323230330A00503B
S1131E12323230340A0050323230350A0050323411
S1131E2230300A0047323230342058256420593089
S1131E3230205A30302046313030300A00473232B6
S1131E4230342058303020593030205A256420460E
S1131E52313030300A0047323230342058303020AA
S1131E62592564205A30302046313030300A004D32
S1131E72323233342056310A004D3232343520475F
S1131E8255475553454C490A0047302058323030A3
S1131E92205930205A3135302046313030300A0052
S1131EA24D32323130204635303020543130300A10
S1131EB2004D32323130204631303030205432300D
S1131EC2300A004D32323130204632303030205424
S1131ED23530300A004730205825642059256420C3
S1131EE25A2D33302046363030300A004D323231EA
S1111EF23020463230303020543230300A0076
S9030000FC
