:100000000C943E000C945B000C945B000C945B0021
:100010000C945B000C945B000C945B000C945B00F4
:100020000C945B000C945B000C945B000C945B00E4
:100030000C945B000C945B000C945B000C945B00D4
:100040000C9417030C945B000C945B000C945B0005
:100050000C9469010C945B000C945B000C945B00A5
:100060000C945B000C945B000C945B000C945B00A4
:100070000C94BC010C945B000C945B0011241FBE1B
:10008000CFEFD0E1DEBFCDBF11E0A0E0B1E0E4E210
:10009000F0E102C005900D92A23CB107D9F722E031
:1000A000A2ECB1E001C01D92A632B207E1F70E94B6
:1000B000F2010C9410080C940000CF93DF931F9270
:1000C000CDB7DEB785E290E025E230E0F90120818E
:1000D000207FFC01208384E290E020EFFC0120835C
:1000E0000000000000000000000000000000000010
:1000F0000000000083E290E0FC0180818F70898322
:1001000084E290E02FEFFC01208389810F90DF9142
:10011000CF910895CF93DF93CDB7DEB78AE790E014
:100120002AE730E0F90120812068FC0120838CE778
:1001300090E02CE730E0F90120812064FC0120836D
:100140008AE790E02AE730E0F90120812760FC018E
:1001500020830000DF91CF910895CF93DF93CDB737
:10016000DEB784EC90E020E130E0FC0131832083B5
:1001700080EC90E020EC30E0F90120812260FC016D
:10018000208381EC90E021EC30E0F90120812869A6
:10019000FC0120830000DF91CF910895CF93DF937E
:1001A000CDB7DEB78CEC90E020E130E0FC0131838C
:1001B000208388EC90E028EC30E0F9012081226077
:1001C000FC01208389EC90E029EC30E0F9012081EA
:1001D0002869FC0120830000DF91CF910895CF931F
:1001E000DF931F92CDB7DEB78983000080EC90E0EB
:1001F000FC018081882F90E080729927892BB1F3D0
:1002000086EC90E02981FC01208300000F90DF91B3
:10021000CF910895CF93DF931F92CDB7DEB7898337
:10022000000088EC90E0FC018081882F90E08072D3
:100230009927892BB1F38EEC90E02981FC01208372
:1002400000000F90DF91CF910895CF93DF9300D0FE
:10025000CDB7DEB79A8389830BC089819A81FC016F
:1002600080810E940A0189819A8101969A838983FB
:1002700089819A81FC018081882379F71092C301DA
:1002800000008091C3018823E1F300000F900F90DC
:10029000DF91CF910895CF93DF9300D0CDB7DEB734
:1002A0009A83898389819A810E94250180E091E067
:1002B0000E94250104C080E091E00E942501809108
:1002C000CA018133C1F300000F900F90DF91CF91ED
:1002D00008951F920F9200905F000F9211242F93A8
:1002E0008F939F93EF93FF93CF93DF931F92CDB79D
:1002F000DEB786EC90E0FC01808189838091C401A7
:10030000853058F58091C401882F90E08A5E9D4F1A
:100310002981FC0120838091C4018F5F8093C401F7
:100320008091C4018530C8F01092C40180911602FA
:1003300080931E028091170280931F028091180201
:1003400080932002809119028093210280911A02E9
:100350008093220281E08093C20100000F90DF9120
:10036000CF91FF91EF919F918F912F910F900092DC
:100370005F000F901F9018951F920F9200905F00E2
:100380000F9211242F938F939F93EF93FF93CF930B
:10039000DF931F92CDB7DEB78EEC90E0FC01808139
:1003A00089838091C501853070F48091C501882FC3
:1003B00090E08A539E4F2981FC0120838091C501E2
:1003C0008F5F8093C50100000F90DF91CF91FF9167
:1003D000EF919F918F912F910F9000925F000F905E
:1003E0001F901895CF93DF93CDB7DEB7A3970FB6C5
:1003F000F894DEBF0FBECDBF0E94D80468EE73E054
:1004000080E090E00E949D030E9475040E948A0093
:100410000E94AD000E94CE001B821C820E947504C7
:100420000E945D008D838091C201882309F4B0C0D1
:100430001092C20181E40E94EF0080911E02882F79
:1004400090E08935910509F441C08A35910509F498
:100450006EC08835910509F09BC080911F02882FDE
:1004600090E0AC014053510988EE93E0489F900121
:10047000499F300D589F300D112480912002882F04
:1004800090E0AC014053510964E6649FC001659F50
:10049000900D1124280F391F80912102882F90E0A0
:1004A000C097880F991FAC01440F551F440F551F6B
:1004B000840F951F280F391F80912202882F90E00A
:1004C000820F931FC0979A83898362C080911F0215
:1004D000482F50E088EE93E0489F9001499F300DEF
:1004E000589F300D112480912002482F50E064E67F
:1004F000649FC001659F900D1124280F391F8091C2
:100500002102882F90E0880F991FAC01440F551FDE
:10051000440F551F840F951F280F391F8091220209
:10052000882F90E0820F931F9F838E8331C080912C
:100530001F02482F50E088EE93E0489F9001499FAA
:10054000300D589F300D112480912002482F50E02B
:1005500064E6649FC001659F900D1124280F391F28
:1005600080912102882F90E0880F991FAC01440FE1
:10057000551F440F551F840F951F280F391F809159
:100580002202882F90E0820F931F998788870000AE
:100590008D81882309F18A818F9389818F9389EADC
:1005A00091E0892F8F9389EA91E08F931F9282E3E4
:1005B0008F93CE010A96292F2F938F930E941805AF
:1005C0008DB79EB708960FB6F894DEBF0FBECDBFAD
:1005D000CE010A960E944B018C818B8321CFCF9351
:1005E000DF93CDB7DEB784E490E024E430E0F90196
:1005F00020812260FC01208385E490E025E430E046
:10060000F90120812360FC01208387E490E029EF39
:10061000FC0120838EE690E02EE630E0F901208197
:100620002260FC0120830000DF91CF9108951F928A
:100630000F9200905F000F9211242F933F934F93DE
:100640005F936F937F938F939F93AF93BF93EF933A
:10065000FF93CF93DF93CDB7DEB78091FD019091EB
:10066000FE01A091FF01B09100020196A11DB11DF4
:100670008093FD019093FE01A093FF01B0930002CF
:100680008091FD019091FE01A091FF01B0910002C7
:1006900028EE33E040E050E0BC01CD010E94F604BA
:1006A000DC01CB01892B8A2B8B2B99F480910102E1
:1006B00090910202A0910302B09104020196A11D43
:1006C000B11D8093010290930202A0930302B093A4
:1006D00004028091F9019091FA01A091FB01B0917F
:1006E000FC01892B8A2B8B2B99F08091F901909139
:1006F000FA01A091FB01B091FC010197A109B10998
:100700008093F9019093FA01A093FB01B093FC014F
:100710000000DF91CF91FF91EF91BF91AF919F9139
:100720008F917F916F915F914F913F912F910F909A
:1007300000925F000F901F901895CF93DF9300D029
:1007400000D0CDB7DEB769837A838B839C838981A0
:100750009A81AB81BC81892B8A2B8B2B69F0898193
:100760009A81AB81BC818093F9019093FA01A093A7
:10077000FB01B093FC010CC081E090E0A0E0B0E090
:100780008093F9019093FA01A093FB01B093FC01CF
:1007900000008091F9019091FA01A091FB01B091C4
:1007A000FC01892B8A2B8B2BA1F700000F900F9057
:1007B0000F900F90DF91CF910895CF93DF9300D0EA
:1007C000CDB7DEB78A83198204C0000089818F5FAC
:1007D000898399818A819817C0F300000F900F9048
:1007E000DF91CF91089591E090930502409A41984E
:1007F0004198419A419A41984198419A419A419829
:100800004198419A419A41984198419A419A419818
:100810004198419A409841984198419A8334A9F16E
:10082000409A41984198419A409841984198419AFC
:1008300084E0419860FF27C0409A66954198419AAC
:100840008150B9F7409884E041984198419A81508D
:10085000D9F784E0419860FF14C0409A66954198AA
:10086000419A8150B9F7409884E041984198419A63
:100870008150D9F784E1409A8150E9F7109205023E
:1008800008954098EBCF4098D8CF4098CACFDF93D7
:10089000389A399AD2E388E70E94DD03D150D9F71C
:1008A00064E383E40E94F30364E383E40E94F303BC
:1008B00069E083E40E94F30360E383E40E94F303AE
:1008C0006CE083E40E94F30361E083E40E94F3039D
:1008D000D8E088E70E94DD03D150D9F767E083E4D0
:1008E0000E94F303DF910C94EF02DF9361E083E455
:1008F0000E94F303D8E088E70E94DD03D150D9F7C6
:10090000DF910895CF93DF931F92CDB7DEB785E2D5
:1009100090E021E0FC012083198217C062E370E0BF
:1009200080E090E00E949D0385E290E02981422FC3
:1009300050E021E030E002C0220F331F4A95E2F779
:10094000FC01208389818F5F89838981883030F31E
:1009500085E290E020E8FC012083198217C062E361
:1009600070E080E090E00E949D0385E290E02981A4
:10097000422F50E020E830E002C0359527954A9597
:10098000E2F7FC01208389818F5F89838981883028
:1009900030F364E670E080E090E00E949D0385E221
:1009A00090E0FC01108200000F90DF91CF9108953C
:1009B000CF93DF93CDB7DEB781E290E020E6FC0174
:1009C000208384E290E02FEFFC0120838AE290E014
:1009D0002CEFFC01208378940E9447040E94750448
:1009E0000E9482040000DF91CF910895A1E21A2EA7
:1009F000AA1BBB1BFD010DC0AA1FBB1FEE1FFF1FC3
:100A0000A217B307E407F50720F0A21BB30BE40B12
:100A1000F50B661F771F881F991F1A9469F7609559
:100A20007095809590959B01AC01BD01CF01089513
:100A3000AEE0B0E0EEE1F5E00C94E7070D891E8929
:100A40008F89988D26E02C831A83098397FF02C033
:100A500080E090E801979E838D83AE01455E5F4FF5
:100A6000698D7A8DCE0101960E9448054D815E8187
:100A700057FD0AC02F813885421753070CF49A019D
:100A8000F801E20FF31F10822E96E4E00C940308A5
:100A9000ABE0B0E0EEE4F5E00C94D9076C017B012B
:100AA0008A01FC0117821682838181FFCCC1CE01AD
:100AB00001963C01F6019381F70193FD859193FF27
:100AC00081917F01882309F4BAC1853239F493FDFD
:100AD000859193FF81917F01853229F4B60190E0E1
:100AE0000E943F07E7CF912C212C312CFFE1F31519
:100AF000D8F08B3279F038F4803279F08332A1F477
:100B0000232D20611DC08D3261F0803369F4232DC7
:100B1000216016C0832D8260382EE32DE4603E2EC6
:100B20002AC0F32DF8601DC037FC2DC020ED280F22
:100B30002A3040F08E32B9F436FC81C1232D206476
:100B4000322E19C036FE06C08AE0989E200D112470
:100B5000922E11C0EAE02E9E200D1124222EF32D9C
:100B6000F0623F2E08C08C3621F4832D8068382E29
:100B700002C0883641F4F70193FD859193FF81917E
:100B80007F018111B3CF982F9F7D9554933028F426
:100B90000C5F1F4F9FE399830DC0833631F083377D
:100BA00071F0833509F059C021C0F8018081898333
:100BB0000E5F1F4F88248394912C530113C028018A
:100BC000F2E04F0E511CF801A080B18036FE03C048
:100BD000692D70E002C06FEF7FEFC5010E943407FE
:100BE0004C018201F32DFF773F2E16C0280122E031
:100BF000420E511CF801A080B18036FE03C0692D61
:100C000070E002C06FEF7FEFC5010E9429074C0121
:100C1000F32DF0683F2E820133FC1BC0822D90E043
:100C200088169906B0F4B60180E290E00E943F0772
:100C30002A94F4CFF50137FC859137FE81915F014D
:100C4000B60190E00E943F0721102A9421E0821A09
:100C500091088114910471F7E8C0843611F0893647
:100C600041F5F80137FE07C060817181828193816F
:100C70000C5F1F4F08C060817181072E000C880B2C
:100C8000990B0E5F1F4FF32DFF763F2E97FF09C084
:100C900090958095709561957F4F8F4F9F4FF0682D
:100CA0003F2E2AE030E0A3010E947B07882E8618A1
:100CB00045C0853731F4232D2F7EB22E2AE030E057
:100CC00025C0932D997FB92E8F36C1F018F4883541
:100CD00079F0B5C0803719F0883721F0B0C0E92F1E
:100CE000E061BE2EB4FE0DC0FB2DF460BF2E09C026
:100CF00034FE0AC0292F2660B22E06C028E030E05C
:100D000005C020E130E002C020E132E0F801B7FE8A
:100D100007C060817181828193810C5F1F4F06C083
:100D20006081718180E090E00E5F1F4FA3010E94FF
:100D30007B07882E8618FB2DFF773F2E36FE0DC0D1
:100D4000232D2E7FA22E891458F434FE0BC032FCC2
:100D500009C0832D8E7EA82E05C0B82CA32C03C0FD
:100D6000B82C01C0B92CA4FE0FC0FE01E80DF11D86
:100D70008081803321F49A2D997EA92E09C0A2FE8C
:100D800006C0B394B39404C08A2D867809F0B39456
:100D9000A3FC11C0A0FE06C0B21488F4280C922C4B
:100DA0009B180EC0B21460F4B60180E290E00E947D
:100DB0003F07B394F7CFB21418F42B1802C0982C45
:100DC000212CA4FE10C0B60180E390E00E943F07F2
:100DD000A2FE17C0A1FC03C088E790E002C088E52E
:100DE00090E0B6010CC08A2D867859F0A1FE02C0B1
:100DF0008BE201C080E2A7FC8DE2B60190E00E9488
:100E00003F07891438F4B60180E390E00E943F0761
:100E10009A94F7CF8A94F301E80DF11D8081B60111
:100E200090E00E943F078110F5CF222009F442CEC6
:100E3000B60180E290E00E943F072A94F6CFF601C7
:100E40008681978102C08FEF9FEF2B96E2E10C9491
:100E5000F507FC010590615070400110D8F78095AE
:100E600090958E0F9F1F0895FC0161507040019076
:100E70000110D8F7809590958E0F9F1F08950F93BE
:100E80001F93CF93DF93FB01238121FD03C08FEFDD
:100E90009FEF2CC022FF16C04681578124813581E7
:100EA0004217530744F4A081B1819D012F5F3F4F4A
:100EB000318320838C93268137812F5F3F4F378387
:100EC000268314C08B01EC01FB010084F185E02D29
:100ED0000995892BE1F6D80116968D919C9117976B
:100EE000019617969C938E931697CE01DF91CF9122
:100EF0001F910F910895FA01AA27283051F120314E
:100F000081F1E8946F936E7F6E5F7F4F8F4F9F4F9D
:100F1000AF4FB1E03ED0B4E03CD0670F781F891FDF
:100F20009A1FA11D680F791F8A1F911DA11D6A0FAD
:100F3000711D811D911DA11D20D009F468943F9160
:100F40002AE0269F11243019305D3193DEF6CF015F
:100F50000895462F4770405D4193B3E00FD0C9F725
:100F6000F6CF462F4F70405D4A3318F0495D31FD92
:100F70004052419302D0A9F7EACFB4E0A6959795E5
:100F8000879577956795BA95C9F7009761057105BB
:100F900008959B01AC010A2E069457954795379505
:100FA0002795BA95C9F7620F731F841F951FA01D5F
:100FB00008952F923F924F925F926F927F928F92FD
:100FC0009F92AF92BF92CF92DF92EF92FF920F93D8
:100FD0001F93CF93DF93CDB7DEB7CA1BDB0B0FB6E2
:100FE000F894DEBF0FBECDBF09942A88398848889F
:100FF0005F846E847D848C849B84AA84B984C88435
:10100000DF80EE80FD800C811B81AA81B981CE0F2B
:10101000D11D0FB6F894DEBF0FBECDBFED01089510
:04102000F894FFCF72
:101024004D323230300A00473020580050323232CC
:10103400300A0050323230300A0050323230310A35
:101044000050323230320A0050323230330A00500B
:10105400323230340A0050323230350A00503234E1
:1010640030300A0047323230342058256420593059
:1010740030205A30302046313030300A0047323286
:1010840030342058303020593030205A25642046DE
:10109400313030300A00473232303420583030207A
:1010A400592564205A30302046313030300A004D02
:1010B400323233342056310A004D3232343520472F
:1010C40055475553454C490A00473020582564205C
:1010D40059303030205A3135302046313030300AE2
:0210E40000000A
:00000001FF
