:100000000C943E000C945B000C945B000C945B0021
:100010000C945B000C945B000C945B000C945B00F4
:100020000C945B000C945B000C945B000C945B00E4
:100030000C945B000C945B000C945B000C945B00D4
:100040000C941A060C945B000C945B000C945B00FF
:100050000C9469010C945B000C945B000C945B00A5
:100060000C945B000C945B000C945B000C945B00A4
:100070000C94C4010C945B000C945B0011241FBE13
:10008000CFEFD0E1DEBFCDBF11E0A0E0B1E0E2E014
:10009000FDE102C005900D92A03FB107D9F722E023
:1000A000A0EFB1E001C01D92A339B207E1F70E94B1
:1000B00012020C947F0E0C940000CF93DF931F92DA
:1000C000CDB7DEB785E290E025E230E0F90120818E
:1000D000207FFC01208384E290E020EFFC0120835C
:1000E0000000000000000000000000000000000010
:1000F0000000000083E290E0FC0180818F70898322
:1001000084E290E02FEFFC01208389810F90DF9142
:10011000CF910895CF93DF93CDB7DEB78AE790E014
:100120002AE730E0F90120812068FC0120838CE778
:1001300090E02CE730E0F90120812064FC0120836D
:100140008AE790E02AE730E0F90120812760FC018E
:1001500020830000DF91CF910895CF93DF93CDB737
:10016000DEB784EC90E020E130E0FC0131832083B5
:1001700080EC90E020EC30E0F90120812260FC016D
:10018000208381EC90E021EC30E0F90120812869A6
:10019000FC0120830000DF91CF910895CF93DF937E
:1001A000CDB7DEB78CEC90E020E130E0FC0131838C
:1001B000208388EC90E028EC30E0F9012081226077
:1001C000FC01208389EC90E029EC30E0F9012081EA
:1001D0002869FC0120830000DF91CF910895CF931F
:1001E000DF931F92CDB7DEB78983000080EC90E0EB
:1001F000FC018081882F90E080729927892BB1F3D0
:1002000086EC90E02981FC01208300000F90DF91B3
:10021000CF910895CF93DF931F92CDB7DEB7898337
:10022000000088EC90E0FC018081882F90E08072D3
:100230009927892BB1F38EEC90E02981FC01208372
:1002400000000F90DF91CF910895CF93DF9300D0FE
:10025000CDB7DEB79A8389830BC089819A81FC016F
:1002600080810E940A0189819A8101969A838983FB
:1002700089819A81FC018081882379F71092F101AC
:1002800000008091F1018823E1F300000F900F90AE
:10029000DF91CF910895CF93DF9300D0CDB7DEB734
:1002A0009A83898389819A810E94250180E091E067
:1002B0000E94250104C080E091E00E942501809108
:1002C0002B028133C1F300000F900F90DF91CF918B
:1002D00008951F920F9200905F000F9211242F93A8
:1002E0003F938F939F93EF93FF93CF93DF9300D030
:1002F0001F92CDB7DEB71A8286EC90E0FC018081B8
:100300008B838B818A3099F08091F301823378F46A
:100310008091F201882F90E089589D4F2B81FC013C
:1003200020838091F2018F5F8093F2011BC01982BC
:1003300011C08981882F90E02981222F30E029582F
:100340003D4FF90120818B579D4FFC01208389810E
:100350008F5F89838091F2019981891750F781E03D
:100360008093F00100000F900F900F90DF91CF91DC
:10037000FF91EF919F918F913F912F910F9000925C
:100380005F000F901F9018951F920F9200905F00D2
:100390000F9211242F938F939F93EF93FF93CF93FB
:1003A000DF931F92CDB7DEB78EEC90E0FC01808129
:1003B00089838091F101882331F589818A30B1F0F8
:1003C00089818D3099F08091F301823378F48091A6
:1003D000F301882F90E0895D9D4F2981FC012083E6
:1003E0008091F3018F5F8093F3010DC08091F30141
:1003F000882F90E0895D9D4FFC0110821092F301DF
:1004000081E08093F10100000F90DF91CF91FF9187
:10041000EF919F918F912F910F9000925F000F901D
:100420001F901895CF92EF920F93CF93DF93CDB794
:10043000DEB7CF55D1090FB6F894DEBF0FBECDBFE2
:100440000E94090968EE73E080E090E00E94A00637
:100450000E94A6080E948A000E94AD000E94CE0061
:100460001F8218861D821E820E94A6080E945D00BF
:1004700089878985882F90E088709927892B21F0BA
:1004800089EA91E00E944B018985882F90E0847071
:100490009927892B21F080EC91E00E944B018985FE
:1004A000882F90E0A0E0B0E0C12CE12C03E09C019B
:1004B000AD0160E080E00E9469078D81882F90E0A7
:1004C000A0E0B0E0C12CE12C03E09C01AD0160E0B4
:1004D00081E00E9469078091F001882309F47FC3BD
:1004E0001092F00181E30E94EF0080E090E0A8EC20
:1004F000B2E48E8B9F8BA88FB98F20E030E04AE763
:1005000053E46E897F89888D998D0E94F80ADC01F9
:10051000CB018A8F9B8FAC8FBD8F20E030E040E80D
:100520005FE36A8D7B8D8C8D9D8D0E94940988235D
:100530002CF481E090E09F8F8E8F3FC020E03FEF52
:100540004FE757E46A8D7B8D8C8D9D8D0E94F30A59
:1005500018164CF520E030E040E251E46E897F89C6
:10056000888D998D0E94F80ADC01CB01BC01CD0178
:100570000E94120ADC01CB019F8F8E8F0FC089E190
:1005800090E099A388A388A199A10197F1F799A375
:1005900088A38E8D9F8D01979F8F8E8F8E8D9F8DBF
:1005A000892B69F714C06A8D7B8D8C8D9D8D0E947F
:1005B000120ADC01CB019F8F8E8F8E8D9F8D9BA3A6
:1005C0008AA38AA19BA10197F1F79BA38AA31E820C
:1005D000A6C18E81882F90E08B579D4FFC018081B2
:1005E000882F90E08835910529F08935910509F427
:1005F000CAC092C18E81882F90E001968B579D4F83
:10060000FC018081882F90E0AC014053510988EEB5
:1006100093E0489F9001499F300D589F300D112461
:100620008E81882F90E002968B579D4FFC01808130
:10063000882F90E0AC014053510964E6649FC001EB
:10064000659F900D1124280F391F8E81882F90E00F
:1006500003968B579D4FFC018081882F90E0C097B7
:10066000880F991FAC01440F551F440F551F840F6D
:10067000951F280F391F8E81882F90E004968B5785
:100680009D4FFC018081882F90E0820F931FC097BF
:100690009A83898381E30E94EF0080E090E0A8ECD8
:1006A000B2E48A879B87AC87BD8720E030E04AE7C9
:1006B00053E46A857B858C859D850E94F80ADC0160
:1006C000CB018CA39DA3AEA3BFA320E030E040E804
:1006D0005FE36CA17DA18EA19FA10E949409882354
:1006E0002CF481E090E099A788A73FC020E03FEF7D
:1006F0004FE757E46CA17DA18EA19FA10E94F30A50
:1007000018164CF520E030E040E251E46A857B8524
:100710008C859D850E94F80ADC01CB01BC01CD01CE
:100720000E94120ADC01CB0199A788A70FC089E1BA
:1007300090E09BA78AA78AA59BA50197F1F79BA7A5
:100740008AA788A599A5019799A788A788A599A59B
:10075000892B69F714C06CA17DA18EA19FA10E9475
:10076000120ADC01CB0199A788A788A599A59DA7A6
:100770008CA78CA59DA50197F1F79DA78CA78D81CE
:100780008F5F8D83C9C08E81882F90E001968B5733
:100790009D4FFC018081882F90E0AC0140535109AE
:1007A00088EE93E0489F9001499F300D589F300D8F
:1007B00011248E81882F90E002968B579D4FFC016B
:1007C0008081882F90E0AC014053510964E6649F1A
:1007D000C001659F900D1124280F391F8E81882F2D
:1007E00090E003968B579D4FFC018081882F90E00D
:1007F000C097880F991FAC01440F551F440F551F18
:10080000840F951F280F391F8E81882F90E0049642
:100810008B579D4FFC018081882F90E0820F931FA2
:10082000C0979C838B8381E30E94EF0080E090E07F
:10083000A8ECB2E48E879F87A88BB98B20E030E0CC
:100840004AE753E46E857F85888999890E94F80A72
:10085000DC01CB018EA79FA7A8ABB9AB20E030E0AD
:1008600040E85FE36EA57FA588A999A90E94940935
:1008700088232CF481E090E09BAB8AAB3FC020E062
:100880003FEF4FE757E46EA57FA588A999A90E947D
:10089000F30A18164CF520E030E040E251E46E8592
:1008A0007F85888999890E94F80ADC01CB01BC0107
:1008B000CD010E94120ADC01CB019BAB8AAB0FC0B9
:1008C00089E190E09DAB8CAB8CA99DA90197F1F7D4
:1008D0009DAB8CAB8AA99BA901979BAB8AAB8AA9DC
:1008E0009BA9892B69F714C06EA57FA588A999A932
:1008F0000E94120ADC01CB019BAB8AAB8AA99BA99F
:100900009FAB8EAB8EA99FA90197F1F79FAB8EABE2
:100910008D818F5F8D8300008E818F5F8E838091AC
:10092000F2019E81891708F054CE1092F2018D8158
:10093000882319F08D81833020F080E30E94EF003E
:1009400001C01D8289819A81092E000CAA0BBB0B64
:10095000C12CE12C04E09C01AD016AE082E00E9420
:1009600069078B819C81092E000CAA0BBB0BC12C43
:10097000E12C04E09C01AD016AE083E00E9469077C
:1009800089819A8192509A8389838B819C81805836
:1009900091409C838B8389819A81092E000CAA0B3C
:1009A000BB0BBC01CD010E94430ADC01CB0123E358
:1009B00033E343E550E4BC01CD010E949909DC0119
:1009C000CB0120E030E048E453E4BC01CD010E94BB
:1009D0002809DC01CB01BC01CD010E940B0ADC011E
:1009E000CB019A8389838B819C81092E000CAA0BF1
:1009F000BB0BBC01CD010E94430ADC01CB012BE7FC
:100A000034E14EE150E4BC01CD010E949909DC01C2
:100A1000CB01BC01CD010E940B0ADC01CB019C8300
:100A20008B838C818F938B818F938A818F93898124
:100A30008F9389ED91E0892F8F9389ED91E08F93CA
:100A40001F928EE18F93CE018E5B9F4F292F2F93A4
:100A50008F930E94870B8DB79EB70A960FB6F894B6
:100A6000DEBF0FBECDBF80E090E0AAEFB4E48A8B7A
:100A70009B8BAC8BBD8B20E030E04AE753E46A8966
:100A80007B898C899D890E94F80ADC01CB0188AFA3
:100A900099AFAAAFBBAF20E030E040E85FE368ADBC
:100AA00079AD8AAD9BAD0E94940988232CF481E036
:100AB00090E09DAF8CAF3FC020E03FEF4FE757E4A1
:100AC00068AD79AD8AAD9BAD0E94F30A18164CF55E
:100AD00020E030E040E251E46A897B898C899D897D
:100AE0000E94F80ADC01CB01BC01CD010E94120A70
:100AF000DC01CB019DAF8CAF0FC089E190E09FAFCF
:100B00008EAF8EAD9FAD0197F1F79FAF8EAF8CADDD
:100B10009DAD01979DAF8CAF8CAD9DAD892B69F7D5
:100B200020C068AD79AD8AAD9BAD0E94120ADC0190
:100B3000CB019DAF8CAFCE01805C9F4F2CAD3DAD06
:100B4000FC0131832083CE01805C9F4FFC018081BA
:100B500091810197F1F79E01205C3F4FF90191834C
:100B6000808389819A81092E000CAA0BBB0BC12CB2
:100B7000E12C04E09C01AD0160E082E00E94690785
:100B80008B819C81092E000CAA0BBB0BC12CE12C84
:100B900004E09C01AD0160E083E00E946907CE01A2
:100BA0008E5B9F4F0E944B0113C080E091E00E943A
:100BB00025018091F801882F90E0A0E0B0E0C12CE1
:100BC000E12C04E09C01AD016AE080E00E9469072D
:100BD00080912B02813349F381E30E94EF008885E5
:100BE0008F8344CCCF93DF93CDB7DEB784E490E01E
:100BF00024E430E0F90120812260FC01208385E4B7
:100C000090E025E430E0F90120812360FC0120839D
:100C100087E490E029EFFC0120838EE690E02EE649
:100C200030E0F90120812260FC0120830000DF9187
:100C3000CF9108951F920F9200905F000F921124A0
:100C40002F933F934F935F936F937F938F939F93D4
:100C5000AF93BF93EF93FF93CF93DF93CDB7DEB7FF
:100C600080915E0290915F02A0916002B09161025A
:100C70000196A11DB11D80935E0290935F02A09327
:100C80006002B093610280915E0290915F02A09138
:100C90006002B091610228EE33E040E050E0BC0118
:100CA000CD010E94650BDC01CB01892B8A2B8B2B9C
:100CB00099F48091620290916302A0916402B091D4
:100CC00065020196A11DB11D80936202909363029B
:100CD000A0936402B093650280915A0290915B02E6
:100CE000A0915C02B0915D02892B8A2B8B2B99F02D
:100CF00080915A0290915B02A0915C02B0915D02DA
:100D00000197A109B10980935A0290935B02A093C5
:100D10005C02B0935D020000DF91CF91FF91EF91F3
:100D2000BF91AF919F918F917F916F915F914F9103
:100D30003F912F910F9000925F000F901F90189598
:100D4000CF93DF9300D000D0CDB7DEB769837A832D
:100D50008B839C8389819A81AB81BC81892B8A2B6F
:100D60008B2B69F089819A81AB81BC8180935A0277
:100D700090935B02A0935C02B0935D020CC081E093
:100D800090E0A0E0B0E080935A0290935B02A093C1
:100D90005C02B0935D02000080915A0290915B0268
:100DA000A0915C02B0915D02892B8A2B8B2BA1F75D
:100DB00000000F900F900F900F90DF91CF9108954A
:100DC000CF93DF9300D0CDB7DEB78A83198204C0FA
:100DD000000089818F5F898399818A819817C0F388
:100DE00000000F900F90DF91CF91089591E09093C4
:100DF0006602409A41984198419A419A4198419897
:100E0000419A419A41984198419A419A4198419812
:100E1000419A419A41984198419A40984198419805
:100E2000419A8334A9F1409A41984198419A409857
:100E300041984198419A84E0419860FF27C0409AC8
:100E400066954198419A8150B9F7409884E041985D
:100E50004198419A8150D9F784E0419860FF14C0CD
:100E6000409A66954198419A8150B9F7409884E03C
:100E700041984198419A8150D9F784E1409A815034
:100E8000E9F71092660208954098EBCF4098D8CFCA
:100E90004098CACF0F931F93DF938A0190E2899FF6
:100EA000600D1124606883E40E94F606F8016081F9
:100EB000662359F0D0E0DF5F84E40E94F606F80173
:100EC000ED0FF11D60816111F6CFDF911F910F9140
:100ED00008952F923F924F925F926F927F928F92DE
:100EE0009F92AF92BF92CF92DF92EF92FF920F93B9
:100EF0001F93CF93DF93CDB7DEB763970FB6F89408
:100F0000DEBF0FBECDBF8A8B6B8B29013A01C88A29
:100F1000043608F4BDC00456198A0B3008F00AE004
:100F2000EF8688898E1508F48F87202E312CC10119
:100F3000EF858E0F911D0B971CF08AE0801B8F8729
:100F4000C301B2012AE030E040E050E00E94650BAE
:100F5000605D6C871AE03AE0C32ED12CE12CF12CB5
:100F60004AE0842E912CA12CB12C81E090E08C0FD2
:100F70009D1F810F911D9E878D87C301B201A7011F
:100F800096010E94650BCA01B901A50194010E9456
:100F9000650B605DED85FE856083CC0CDD1CEE1C71
:100FA000FF1CD701C601880F991FAA1FBB1F880FFE
:100FB000991FAA1FBB1FC80ED91EEA1EFB1E115087
:100FC000A0F62CE0F8892F1B822F801B002309F448
:100FD00085C0FE013196A1E0B0E0AC0FBD1FA80FA7
:100FE000B11D9C9191938F5F2813F5CF8F8581114F
:100FF00052C0F10181E090E08C0F9D1FE80FF91FB6
:1010000010829989992321F18981803309F5A10101
:101010004150510914161506DCF480E090E020E000
:1010200060E203C0841795079CF42F5FE1E0F0E0D5
:10103000EC0FFD1FE80FF91F6083822F90E0E1E0C5
:10104000F0E0EC0FFD1FE80FF91F3081303351F352
:10105000AE014F5F5F4F6B898A890E944A07639692
:101060000FB6F894DEBF0FBECDBFDF91CF911F91B9
:101070000F91FF90EF90DF90CF90BF90AF909F9037
:101080008F907F906F905F904F903F902F9008953A
:1010900021E0298B42CF0F5F8EE2E1E0F0E0EC0F20
:1010A000FD1FE20DF31D8083E02F201B822F8E0F8A
:1010B000A1E0B0E0AC0FBD1FA80FB11D8C91A1E065
:1010C000B0E0AC0FBD1FAE0FB11D8C93EF5F8E2F44
:1010D000801B9F85891750F3F0E08CCFEF85EE23BE
:1010E00021F08EE2898301E0DFCFE0E0F0E082CF03
:1010F000DF93389A399AD2E388E70E94E006D1500C
:10110000D9F764E383E40E94F60664E383E40E9473
:10111000F60669E083E40E94F60660E383E40E9439
:10112000F6066CE083E40E94F60661E083E40E9428
:10113000F606D8E088E70E94E006D150D9F767E0CC
:1011400083E40E94F606DF910C94F205DF9361E0E0
:1011500083E40E94F606D8E088E70E94E006D150BA
:10116000D9F7DF910895CF93DF931F92CDB7DEB704
:1011700085E290E021E0FC012083198217C062E340
:1011800070E080E090E00E94A00685E290E0298176
:10119000422F50E021E030E002C0220F331F4A9579
:1011A000E2F7FC01208389818F5F89838981883000
:1011B00030F385E290E020E8FC012083198217C01B
:1011C00062E370E080E090E00E94A00685E290E09B
:1011D0002981422F50E020E830E002C03595279564
:1011E0004A95E2F7FC01208389818F5F8983898199
:1011F000883030F364E670E080E090E00E94A00662
:1012000085E290E0FC01108200000F90DF91CF9109
:101210000895CF93DF93CDB7DEB781E290E020E66B
:10122000FC01208384E290E02FEFFC0120838AE21E
:1012300090E02CEFFC01208378940E9478080E94B3
:10124000A6080E94B3080000DF91CF91089550587E
:10125000BB27AA270E943F090C94B90A0E94AB0A37
:1012600038F00E94B20A20F039F49F3F19F426F4B6
:101270000C94A80A0EF4E095E7FB0C94A20AE92F5F
:101280000E94CA0A58F3BA176207730784079507C2
:1012900020F079F4A6F50C94EC0A0EF4E0950B2EF0
:1012A000BA2FA02D0B01B90190010C01CA01A001B8
:1012B0001124FF27591B99F0593F50F4503E68F113
:1012C0001A16F040A22F232F342F4427585FF3CF54
:1012D000469537952795A795F0405395C9F77EF425
:1012E0001F16BA0B620B730B840BBAF09150A1F06E
:1012F000FF0FBB1F661F771F881FC2F70EC0BA0FF4
:10130000621F731F841F48F4879577956795B7957B
:10131000F7959E3F08F0B0CF9395880F08F0992776
:10132000EE0F9795879508950E947E0A08F481E054
:1013300008950E94AD090C94B90A0E94B20A58F0AF
:101340000E94AB0A40F029F45F3F29F00C94A20AF6
:1013500051110C94ED0A0C94A80A0E94CA0A68F371
:101360009923B1F3552391F3951B550BBB27AA275E
:1013700062177307840738F09F5F5F4F220F331F98
:10138000441FAA1FA9F335D00E2E3AF0E0E832D060
:1013900091505040E695001CCAF72BD0FE2F29D063
:1013A000660F771F881FBB1F261737074807AB0735
:1013B000B0E809F0BB0B802DBF01FF2793585F4FAA
:1013C0003AF09E3F510578F00C94A20A0C94ED0A75
:1013D0005F3FE4F3983ED4F3869577956795B7958C
:1013E000F7959F5FC9F7880F911D9695879597F997
:1013F0000895E1E0660F771F881FBB1F6217730710
:101400008407BA0720F0621B730B840BBA0BEE1F24
:1014100088F7E09508950E94120A6894B1110C941F
:10142000ED0A08950E94D20A88F09F5798F0B92FCC
:101430009927B751B0F0E1F0660F771F881F991F09
:101440001AF0BA95C9F714C0B13091F00E94EC0AB5
:10145000B1E008950C94EC0A672F782F8827B85FC5
:1014600039F0B93FCCF3869577956795B395D9F761
:101470003EF490958095709561957F4F8F4F9F4F6B
:101480000895E89409C097FB3EF490958095709577
:1014900061957F4F8F4F9F4F9923A9F0F92F96E9C0
:1014A000BB279395F695879577956795B795F11135
:1014B000F8CFFAF4BB0F11F460FF1BC06F5F7F4FD2
:1014C0008F4F9F4F16C0882311F096E911C07723E4
:1014D00021F09EE8872F762F05C0662371F096E8ED
:1014E000862F70E060E02AF09A95660F771F881FBC
:1014F000DAF7880F9695879597F90895990F000860
:10150000550FAA0BE0E8FEEF16161706E807F907D5
:10151000C0F012161306E407F50798F0621B730B70
:10152000840B950B39F40A2661F0232B242B252BF1
:1015300021F408950A2609F4A140A6958FEF811D94
:10154000811D089597F99F6780E870E060E0089535
:101550009FEF80EC089500240A94161617061806CB
:101560000906089500240A941216130614060506A7
:101570000895092E0394000C11F4882352F0BB0F38
:1015800040F4BF2B11F460FF04C06F5F7F4F8F4F9B
:101590009F4F089557FD9058440F551F59F05F3FD6
:1015A00071F04795880F97FB991F61F09F3F79F085
:1015B00087950895121613061406551FF2CF469507
:1015C000F1DF08C0161617061806991FF1CF869589
:1015D0007105610508940895E894BB27662777276D
:1015E000CB0197F908950E947E0A08F48FEF0895C1
:1015F0000E940B0B0C94B90A0E94AB0A38F00E94AF
:10160000B20A20F0952311F00C94A20A0C94A80AB7
:1016100011240C94ED0A0E94CA0A70F3959FC1F33D
:10162000950F50E0551F629FF001729FBB27F00D90
:10163000B11D639FAA27F00DB11DAA1F649F6627E5
:10164000B00DA11D661F829F2227B00DA11D621F34
:10165000739FB00DA11D621F839FA00D611D221FEE
:10166000749F3327A00D611D231F849F600D211DD2
:10167000822F762F6A2F11249F5750409AF0F1F055
:1016800088234AF0EE0FFF1FBB1F661F771F881FBE
:1016900091505040A9F79E3F510580F00C94A20A4A
:1016A0000C94ED0A5F3FE4F3983ED4F3869577956A
:1016B0006795B795F795E7959F5FC1F7FE2B880F64
:1016C000911D9695879597F90895A1E21A2EAA1B68
:1016D000BB1BFD010DC0AA1FBB1FEE1FFF1FA217E2
:1016E000B307E407F50720F0A21BB30BE40BF50BDF
:1016F000661F771F881F991F1A9469F76095709568
:10170000809590959B01AC01BD01CF010895AEE09D
:10171000B0E0EDE8FBE00C94560E0D891E898F8930
:10172000988D26E02C831A83098397FF02C080E0FE
:1017300090E801979E838D83AE01455E5F4F698D72
:101740007A8DCE0101960E94B70B4D815E8157FDC7
:101750000AC02F813885421753070CF49A01F8010B
:10176000E20FF31F10822E96E4E00C94720EABE0B1
:10177000B0E0EDEBFBE00C94480E6C017B018A01BC
:10178000FC0117821682838181FFCCC1CE010196B4
:101790003C01F6019381F70193FD859193FF8191BF
:1017A0007F01882309F4BAC1853239F493FD85910C
:1017B00093FF81917F01853229F4B60190E00E9468
:1017C000AE0DE7CF912C212C312CFFE1F315D8F091
:1017D0008B3279F038F4803279F08332A1F4232D02
:1017E00020611DC08D3261F0803369F4232D2160AA
:1017F00016C0832D8260382EE32DE4603E2E2AC071
:10180000F32DF8601DC037FC2DC020ED280F2A30C5
:1018100040F08E32B9F436FC81C1232D2064322E83
:1018200019C036FE06C08AE0989E200D1124922E23
:1018300011C0EAE02E9E200D1124222EF32DF0621D
:101840003F2E08C08C3621F4832D8068382E02C0CC
:10185000883641F4F70193FD859193FF81917F01D3
:101860008111B3CF982F9F7D9554933028F40C5F4E
:101870001F4F9FE399830DC0833631F0833771F09A
:10188000833509F059C021C0F801808189830E5F3A
:101890001F4F88248394912C530113C02801F2E038
:1018A0004F0E511CF801A080B18036FE03C0692D97
:1018B00070E002C06FEF7FEFC5010E94A30D4C01E5
:1018C0008201F32DFF773F2E16C0280122E0420E41
:1018D000511CF801A080B18036FE03C0692D70E074
:1018E00002C06FEF7FEFC5010E94980D4C01F32DF0
:1018F000F0683F2E820133FC1BC0822D90E08816D9
:101900009906B0F4B60180E290E00E94AE0D2A94F0
:10191000F4CFF50137FC859137FE81915F01B60167
:1019200090E00E94AE0D21102A9421E0821A9108C5
:101930008114910471F7E8C0843611F0893641F5BD
:10194000F80137FE07C060817181828193810C5F4D
:101950001F4F08C060817181072E000C880B990B06
:101960000E5F1F4FF32DFF763F2E97FF09C0909516
:101970008095709561957F4F8F4F9F4FF0683F2EF8
:101980002AE030E0A3010E94EA0D882E861845C0A7
:10199000853731F4232D2F7EB22E2AE030E025C08A
:1019A000932D997FB92E8F36C1F018F4883579F0D0
:1019B000B5C0803719F0883721F0B0C0E92FE06159
:1019C000BE2EB4FE0DC0FB2DF460BF2E09C034FE48
:1019D0000AC0292F2660B22E06C028E030E005C0DC
:1019E00020E130E002C020E132E0F801B7FE07C09C
:1019F00060817181828193810C5F1F4F06C060817D
:101A0000718180E090E00E5F1F4FA3010E94EA0DFC
:101A1000882E8618FB2DFF773F2E36FE0DC0232D16
:101A20002E7FA22E891458F434FE0BC032FC09C05C
:101A3000832D8E7EA82E05C0B82CA32C03C0B82CF5
:101A400001C0B92CA4FE0FC0FE01E80DF11D80817C
:101A5000803321F49A2D997EA92E09C0A2FE06C0DA
:101A6000B394B39404C08A2D867809F0B394A3FC90
:101A700011C0A0FE06C0B21488F4280C922C9B184A
:101A80000EC0B21460F4B60180E290E00E94AE0D88
:101A9000B394F7CFB21418F42B1802C0982C212C51
:101AA000A4FE10C0B60180E390E00E94AE0DA2FE3D
:101AB00017C0A1FC03C088E790E002C088E590E071
:101AC000B6010CC08A2D867859F0A1FE02C08BE2C7
:101AD00001C080E2A7FC8DE2B60190E00E94AE0D4D
:101AE000891438F4B60180E390E00E94AE0D9A9418
:101AF000F7CF8A94F301E80DF11D8081B60190E0E3
:101B00000E94AE0D8110F5CF222009F442CEB6011D
:101B100080E290E00E94AE0D2A94F6CFF601868115
:101B2000978102C08FEF9FEF2B96E2E10C94640E39
:101B3000FC010590615070400110D8F78095909598
:101B40008E0F9F1F0895FC0161507040019001109D
:101B5000D8F7809590958E0F9F1F08950F931F9330
:101B6000CF93DF93FB01238121FD03C08FEF9FEF14
:101B70002CC022FF16C0468157812481358142172F
:101B8000530744F4A081B1819D012F5F3F4F318302
:101B900020838C93268137812F5F3F4F37832683A5
:101BA00014C08B01EC01FB010084F185E02D099547
:101BB000892BE1F6D80116968D919C911797019685
:101BC00017969C938E931697CE01DF91CF911F911C
:101BD0000F910895FA01AA27283051F1203181F19F
:101BE000E8946F936E7F6E5F7F4F8F4F9F4FAF4F25
:101BF000B1E03ED0B4E03CD0670F781F891F9A1F38
:101C0000A11D680F791F8A1F911DA11D6A0F711DEB
:101C1000811D911DA11D20D009F468943F912AE0F7
:101C2000269F11243019305D3193DEF6CF010895DF
:101C3000462F4770405D4193B3E00FD0C9F7F6CF10
:101C4000462F4F70405D4A3318F0495D31FD4052D8
:101C5000419302D0A9F7EACFB4E0A695979587956E
:101C600077956795BA95C9F700976105710508954D
:101C70009B01AC010A2E06945795479537952795F9
:101C8000BA95C9F7620F731F841F951FA01D089591
:101C90002F923F924F925F926F927F928F929F927C
:101CA000AF92BF92CF92DF92EF92FF920F931F936A
:101CB000CF93DF93CDB7DEB7CA1BDB0B0FB6F8941B
:101CC000DEBF0FBECDBF09942A88398848885F845B
:101CD0006E847D848C849B84AA84B984C884DF80CC
:101CE000EE80FD800C811B81AA81B981CE0FD11DB0
:101CF0000FB6F894DEBF0FBECDBFED010895F89486
:021D0000FFCF13
:101D02004D323230300A00473020580050323232E1
:101D1200300A0050323230300A0050323230310A4A
:101D22000050323230320A0050323230330A005020
:101D3200323230340A0050323230350A00503234F6
:101D420030300A004732323034205825642059306E
:101D520030205A30302046313030300A004732329B
:101D620030342058303020593030205A25642046F3
:101D7200313030300A00473232303420583030208F
:101D8200592564205A30302046313030300A004D17
:101D9200323233342056310A004D32323435204744
:101DA20055475553454C490A004730205832303088
:101DB200205930205A3130302046313030300A003C
:101DC2004730205832303020592D3530205A3135A5
:101DD200302046313030300A004730205825642008
:101DE200592564205A3135302046313030300A00CE
:00000001FF
