:100000000C94DC000C94F9000C94F9000C94F900A9
:100010000C94F9000C94F9000C94F9000C94F9007C
:100020000C94F9000C94F9000C94F9000C94F9006C
:100030000C94F9000C94F9000C94F9000C94F9005C
:100040000C94792B0C94F9000C94F9000C94F900A1
:100050000C9490020C94F9000C94F9000C94F900A3
:100060000C94F9000C94F9000C94F9000C94F9002C
:100070000C9425030C94F9000C94F900D702F702B4
:10008000F702F702F702F702F702F702F702F702A8
:10009000F702F702F702F702F702F702F702F70298
:1000A000F702F702F702F702F702F702F702F70288
:1000B000F702F702F702F702F702F702F702F70278
:1000C000F702F702F702F702F702F702F702F70268
:1000D000F702F702F702F702F702F702F702F70258
:1000E000F702F702F702F702F702C102F702CA02AB
:1000F000EF02EB02F702E702F702F702F702F7025C
:10010000F702F302F702DD02F702F702F702D2026A
:1001100020202020202020204F4B45202020202060
:100120002020202000202020202020202042592094
:1001300020202020202020202000202020202020DF
:1001400020204A414E202020202020202020002056
:1001500020202020202054454E44414920202020AA
:100160002020200020202020202020204F4B452030
:10017000202020202020202000202020202020209F
:100180002042592020202020202020202000202034
:100190002020202020204A414E20202020202020E6
:1001A0002020002020202020202054454E4441497A
:1001B000202020202020200011241FBECFEFD0E1DE
:1001C000DEBFCDBF12E0A0E0B1E0E8E1F6E602C09C
:1001D00005900D92AC3FB107D9F723E0ACEFB2E048
:1001E00001C01D92A836B207E1F70E9421280C94A5
:1001F0000A330C940000CF93DF9300D01F92CDB749
:10020000DEB7198282E290E022E230E0F90120813B
:100210002062FC01208382E290E022E230E0F901DA
:1002200020812F7DFC01208382E290E022E230E0F9
:10023000F90120812062FC01208387E090E09B830C
:100240008A8330C080E290E0FC018081882F90E0BA
:100250008078992747E050E02A813B81BA01621BF0
:10026000730B9B0102C0959587952A95E2F7982F0D
:100270008981892B898382E290E022E230E0F901D2
:1002800020812F7BFC01208382E290E022E230E09B
:10029000F90120812064FC0120838A819B810197E0
:1002A0009B838A838A819B81992364F689810F903D
:1002B0000F900F90DF91CF910895CF93DF9300D0EF
:1002C000CDB7DEB783E290E0FC018081898385E2CF
:1002D00090E025E230E0F9012081207FFC012083BD
:1002E00084E290E020EFFC01208300000000000089
:1002F000000000000000000000000000000083E299
:1003000090E0FC0180818F708A8384E290E02FEF7F
:10031000FC01208385E290E02981FC0120838A8111
:100320000F900F90DF91CF910895CF93DF93CDB7CA
:10033000DEB78AE790E02AE730E0F9012081206803
:10034000FC0120838CE790E02CE730E0F90120816C
:100350002064FC0120838AE790E02AE730E0F9017D
:1003600020812760FC0120830000DF91CF91089558
:10037000CF93DF93CDB7DEB784EC90E020E130E09F
:10038000FC013183208380EC90E020EC30E0F90127
:1003900020812260FC01208381EC90E021EC30E0A0
:1003A000F90120812869FC0120830000DF91CF91B1
:1003B0000895CF93DF93CDB7DEB78CEC90E020E1CA
:1003C00030E0FC013183208388EC90E028EC30E0C1
:1003D000F90120812260FC01208389EC90E029EC66
:1003E00030E0F90120812869FC0120830000DF91C1
:1003F000CF910895CF93DF931F92CDB7DEB7898356
:10040000000080EC90E0FC018081882F90E08072F9
:100410009927892BB1F386EC90E02981FC01208398
:1004200000000F90DF91CF910895CF93DF931F923B
:10043000CDB7DEB78983000088EC90E0FC018081B5
:10044000882F90E080729927892BB1F38EEC90E091
:100450002981FC01208300000F90DF91CF91089546
:10046000CF93DF9300D0CDB7DEB79A8389830BC0DB
:1004700089819A81FC0180810E94FA0189819A8197
:1004800001969A83898389819A81FC0180818823DE
:1004900079F71092430300000F900F90DF91CF91F6
:1004A0000895CF93DF9300D0CDB7DEB79A838983C9
:1004B0000BC089819A81FC0180810E94150289818B
:1004C0009A8101969A83898389819A81FC0180812E
:1004D000882379F71092FD0200000F900F90DF91B2
:1004E000CF910895CF93DF9300D0CDB7DEB79A8335
:1004F000898389819A810E94510280E091E00E9463
:10050000510204C080E091E00E94510280910303F7
:100510008133C1F300000F900F90DF91CF910895C8
:100520001F920F9200905F000F9211242F933F9320
:100530004F935F936F937F938F939F93AF93BF93EB
:10054000EF93FF93CF93DF931F92CDB7DEB786EC87
:1005500090E0FC01808189838981882F90E0092EB9
:10056000000CAA0BBB0B4AE050E029E430E0841BEE
:10057000950B28173907D8F1825C9F4FFC010C942A
:10058000F82F80E390E00E94840387E091E00E94CE
:10059000510245C080E190E00E94840381E0809395
:1005A00045033DC080E490E00E94840338C010926F
:1005B0004B0381E08093430332C080E290E00E94CD
:1005C00084030E94CA0481E08093440328C081E030
:1005D0008093480324C081E08093320320C081E0EF
:1005E000809333031CC081E08093450318C085E2EB
:1005F00090E025E230E0F90120812160FC012083B8
:1006000080914B03882F90E0835B9C4F2981FC01F4
:10061000208380914B038F5F80934B030000000089
:100620000F90DF91CF91FF91EF91BF91AF919F918B
:100630008F917F916F915F914F913F912F910F908B
:1006400000925F000F901F9018951F920F920090DC
:100650005F000F9211242F938F939F93EF93FF933B
:10066000CF93DF931F92CDB7DEB78EEC90E0FC0105
:10067000808189838091FD02882331F589818A30C8
:10068000B1F089818D3099F08091FE02823378F447
:100690008091FE02882F90E081509D4F2981FC01BE
:1006A00020838091FE028F5F8093FE020DC08091B7
:1006B000FE02882F90E081509D4FFC011082109225
:1006C000FE0281E08093FD0200000F90DF91CF9148
:1006D000FF91EF919F918F912F910F9000925F006A
:1006E0000F901F901895CF93DF93CDB7DEB78BE2B5
:1006F00090E02BE230E0F90120812F78FC0120838B
:100700000000DF91CF910895CF93DF931F92CDB773
:10071000DEB789830E9473038BE290E02BE230E026
:10072000F90130812981232BFC01208300000F90E7
:10073000DF91CF910895CF93DF93CDB7DEB76C975C
:100740000FB6F894DEBF0FBECDBF89E691E00E94E0
:10075000510280E090E0A8E4B3E489839A83AB83FC
:10076000BC8320E030E04AE755E469817A818B81DF
:100770009C810E942D2FDC01CB018B8B9C8BAD8B40
:10078000BE8B20E030E040E85FE36B897C898D8997
:100790009E890E94A72E88232CF481E090E0988FF8
:1007A0008F8B3FC020E03FEF4FE757E46B897C8998
:1007B0008D899E890E94282F18164CF520E030E084
:1007C00040E251E469817A818B819C810E942D2FC6
:1007D000DC01CB01BC01CD010E94AC2EDC01CB01C0
:1007E000988F8F8B0FC080E991E09A8F898F898DC8
:1007F0009A8D0197F1F79A8F898F8F89988D01973C
:10080000988F8F8B8F89988D892B69F714C06B898E
:100810007C898D899E890E94AC2EDC01CB01988F4A
:100820008F8B8F89988D9C8F8B8F8B8D9C8D019753
:10083000F1F79C8F8B8F8AE791E00E94510280E054
:1008400090E0AAEFB3E48D839E83AF83B88720E066
:1008500030E04AE755E46D817E818F8198850E9462
:100860002D2FDC01CB0189879A87AB87BC8720E0DD
:1008700030E040E85FE369857A858B859C850E943E
:10088000A72E88232CF481E090E09E878D873FC0BF
:1008900020E03FEF4FE757E469857A858B859C859B
:1008A0000E94282F18164CF520E030E040E251E479
:1008B0006D817E818F8198850E942D2FDC01CB0177
:1008C000BC01CD010E94AC2EDC01CB019E878D873F
:1008D0000FC080E991E0988B8F878F859889019769
:1008E000F1F7988B8F878D859E8501979E878D87E1
:1008F0008D859E85892B69F714C069857A858B85DE
:100900009C850E94AC2EDC01CB019E878D878D8556
:100910009E859A8B898B89899A890197F1F79A8BA1
:10092000898B8CE891E00E94510200006C960FB612
:10093000F894DEBF0FBECDBFDF91CF910895CF9366
:10094000DF93CDB7DEB78EE991E00E94720204C05A
:1009500080E091E00E945102809103038133C1F352
:100960000000DF91CF910895CF93DF931F92CDB711
:10097000DEB789838981882F90E081709927892B40
:1009800021F085EB91E00E94510200000F90DF9171
:10099000CF910895CF93DF93CDB7DEB78EE991E085
:1009A0000E9472020000DF91CF910895CF93DF93F0
:1009B000CDB7DEB70E94892E6AE070E080E090E05B
:1009C0000E94FF2B0E9495010E94B8010E94D9014C
:1009D0006AE070E080E090E00E94FF2B62E370E04C
:1009E00080E090E00E94FF2B80E191E0AC0160E0AC
:1009F00080E00E94A92C85E291E0AC0160E081E0FA
:100A00000E94A92C8AE391E0AC0160E082E00E94A0
:100A1000A92C8FE491E0AC0160E083E00E94A92C56
:100A200080E40E9484030E949F040E949B030E9412
:100A30009F0480E20E9484030000DF91CF9108951B
:100A40000F931F93CF93DF93CDB7DEB7C053D24040
:100A50000FB6F894DEBF0FBECDBF87EC91E00E94C9
:100A6000510280E090E0A6E1B3E489839A83AB83EE
:100A7000BC838E01095D1D4F20E030E04AE755E45C
:100A800069817A818B819C810E942D2FDC01CB01B1
:100A9000F80180839183A283B383CE01895D9D4F4A
:100AA00020E030E040E85FE3FC01608171818281F9
:100AB00093810E94A72E88234CF4CE01855D9D4F23
:100AC00021E030E0FC013183208369C0CE01895DE3
:100AD0009D4F20E03FEF4FE757E4FC0160817181BB
:100AE000828193810E94282F18160CF046C020E0C6
:100AF00030E040E251E469817A818B819C810E94DF
:100B00002D2FDC01CB018E01055D1D4FBC01CD01F8
:100B10000E94AC2EDC01CB01F8019183808324C0BC
:100B2000CE01835D9D4F20E931E0FC0131832083BC
:100B3000CE01835D9D4FFC01808191810197F1F78A
:100B40009E01235D3D4FF90191838083CE01855D38
:100B50009D4F9E01255D3D4FF9012081318121503E
:100B60003109FC0131832083CE01855D9D4FFC015D
:100B700080819181892BA1F62CC08E01055D1D4FCE
:100B8000CE01895D9D4FFC016081718182819381DD
:100B90000E94AC2EDC01CB01F80191838083CE0151
:100BA000815D9D4F9E01255D3D4FF9012081318181
:100BB000FC0131832083CE01815D9D4FFC0180814A
:100BC00091810197F1F79E01215D3D4FF9019183DC
:100BD000808387EC91E00E94510280E090E0A6E9DA
:100BE000B3E48D839E83AF83B8878E01035E1D4F70
:100BF00020E030E04AE755E46D817E818F81988561
:100C00000E942D2FDC01CB01F80180839183A28308
:100C1000B383CE01835E9D4F20E030E040E85FE388
:100C2000FC0160817181828193810E94A72E8823BB
:100C30004CF4CE018F5D9D4F21E030E0FC0131830B
:100C4000208369C0CE01835E9D4F20E03FEF4FE7D8
:100C500057E4FC0160817181828193810E94282F79
:100C600018160CF046C020E030E040E251E46D81FF
:100C70007E818F8198850E942D2FDC01CB018E0112
:100C80000F5D1D4FBC01CD010E94AC2EDC01CB01DC
:100C9000F8019183808324C0CE018D5D9D4F20E9B2
:100CA00031E0FC0131832083CE018D5D9D4FFC013D
:100CB000808191810197F1F79E012D5D3D4FF901F2
:100CC00091838083CE018F5D9D4F9E012F5D3D4FAF
:100CD000F9012081318121503109FC0131832083C8
:100CE000CE018F5D9D4FFC0180819181892BA1F602
:100CF0002CC08E010F5D1D4FCE01835E9D4FFC0108
:100D000060817181828193810E94AC2EDC01CB01D4
:100D1000F80191838083CE018B5D9D4F9E012F5DF5
:100D20003D4FF90120813181FC0131832083CE01C7
:100D30008B5D9D4FFC01808191810197F1F79E01B0
:100D40002B5D3D4FF9019183808387EC91E00E94F8
:100D5000510280E090E0A6E9B3E489879A87AB87E7
:100D6000BC878E010D5E1D4F20E030E04AE755E460
:100D700069857A858B859C850E942D2FDC01CB01AE
:100D8000F80180839183A283B383CE018D5E9D4F52
:100D900020E030E040E85FE3FC0160817181828106
:100DA00093810E94A72E88234CF4CE01895E9D4F2B
:100DB00021E030E0FC013183208369C0CE018D5EEB
:100DC0009D4F20E03FEF4FE757E4FC0160817181C8
:100DD000828193810E94282F18160CF046C020E0D3
:100DE00030E040E251E469857A858B859C850E94DC
:100DF0002D2FDC01CB018E01095E1D4FBC01CD0101
:100E00000E94AC2EDC01CB01F8019183808324C0C9
:100E1000CE01875E9D4F20E931E0FC0131832083C4
:100E2000CE01875E9D4FFC01808191810197F1F792
:100E30009E01275E3D4FF90191838083CE01895E3B
:100E40009D4F9E01295E3D4FF90120813181215046
:100E50003109FC0131832083CE01895E9D4FFC0165
:100E600080819181892BA1F62CC08E01095E1D4FD6
:100E7000CE018D5E9D4FFC016081718182819381E5
:100E80000E94AC2EDC01CB01F80191838083CE015E
:100E9000855E9D4F9E01295E3D4FF9012081318184
:100EA000FC0131832083CE01855E9D4FFC01808152
:100EB00091810197F1F79E01255E3D4FF9019183E4
:100EC000808388ED91E00E94510280E090E0A8ECE0
:100ED000B2E48D879E87AF87B88B8E01075F1D4F69
:100EE00020E030E04AE755E46D857E858F8598895E
:100EF0000E942D2FDC01CB01F80180839183A28316
:100F0000B383CE01875F9D4F20E030E040E85FE390
:100F1000FC0160817181828193810E94A72E8823C8
:100F20004CF4CE01835F9D4F21E030E0FC01318322
:100F3000208369C0CE01875F9D4F20E03FEF4FE7E0
:100F400057E4FC0160817181828193810E94282F86
:100F500018160CF046C020E030E040E251E46D8508
:100F60007E858F8598890E942D2FDC01CB018E0113
:100F7000035F1D4FBC01CD010E94AC2EDC01CB01F3
:100F8000F8019183808324C0CE01815F9D4F20E9C9
:100F900031E0FC0131832083CE01815F9D4FFC0154
:100FA000808191810197F1F79E01215F3D4FF90109
:100FB00091838083CE01835F9D4F9E01235F3D4FD0
:100FC000F9012081318121503109FC0131832083D5
:100FD000CE01835F9D4FFC0180819181892BA1F619
:100FE0002CC08E01035F1D4FCE01875F9D4FFC011A
:100FF00060817181828193810E94AC2EDC01CB01E2
:10100000F80191838083CE018F5E9D4F9E01235F07
:101010003D4FF90120813181FC0131832083CE01D4
:101020008F5E9D4FFC01808191810197F1F79E01B8
:101030002F5E3D4FF9019183808387EC91E00E9400
:10104000510280E090E0A6E9B3E4898B9A8BAB8BE8
:10105000BC8B8E0101501E4F20E030E04AE755E482
:1010600069897A898B899C890E942D2FDC01CB01AB
:10107000F80180839183A283B383CE0181509E4F78
:1010800020E030E040E85FE3FC0160817181828113
:1010900093810E94A72E88234CF4CE018D5F9D4F33
:1010A00021E030E0FC013183208369C0CE01815012
:1010B0009E4F20E03FEF4FE757E4FC0160817181D4
:1010C000828193810E94282F18160CF046C020E0E0
:1010D00030E040E251E469897A898B899C890E94D9
:1010E0002D2FDC01CB018E010D5F1D4FBC01CD0109
:1010F0000E94AC2EDC01CB01F8019183808324C0D7
:10110000CE018B5F9D4F20E931E0FC0131832083CC
:10111000CE018B5F9D4FFC01808191810197F1F79A
:101120009E012B5F3D4FF90191838083CE018D5F3E
:101130009D4F9E012D5F3D4FF9012081318121504E
:101140003109FC0131832083CE018D5F9D4FFC016D
:1011500080819181892BA1F62CC08E010D5F1D4FDE
:10116000CE0181509E4FFC0160817181828193810B
:101170000E94AC2EDC01CB01F80191838083CE016B
:10118000895F9D4F9E012D5F3D4FF9012081318187
:10119000FC0131832083CE01895F9D4FFC0180815A
:1011A00091810197F1F79E01295F3D4FF9019183EC
:1011B000808389EE91E00E94510280E090E8A9E0EE
:1011C000B4E48D8B9E8BAF8BB88F8E010B501E4F6E
:1011D00020E030E04AE755E46D897E898F89988D5B
:1011E0000E942D2FDC01CB01F80180839183A28323
:1011F000B383CE018B509E4F20E030E040E85FE3A8
:10120000FC0160817181828193810E94A72E8823D5
:101210004CF4CE0187509E4F21E030E0FC01318339
:10122000208369C0CE018B509E4F20E03FEF4FE7F7
:1012300057E4FC0160817181828193810E94282F93
:1012400018160CF046C020E030E040E251E46D8911
:101250007E898F89988D0E942D2FDC01CB018E0114
:1012600007501E4FBC01CD010E94AC2EDC01CB010A
:10127000F8019183808324C0CE0185509E4F20E9E0
:1012800031E0FC0131832083CE0185509E4FFC016B
:10129000808191810197F1F79E0125503E4FF90120
:1012A00091838083CE0187509E4F9E0127503E4FF1
:1012B000F9012081318121503109FC0131832083E2
:1012C000CE0187509E4FFC0180819181892BA1F630
:1012D0002CC08E0107501E4FCE018B509E4FFC013B
:1012E00060817181828193810E94AC2EDC01CB01EF
:1012F000F80191838083CE0183509E4F9E01275039
:101300003E4FF90120813181FC0131832083CE01E0
:1013100083509E4FFC01808191810197F1F79E01DE
:1013200023503E4FF901918380838AEF91E00E9420
:10133000510280E090ECAFE0B4E4898F9A8FAB8FDC
:10134000BC8F8E0105511E4F20E030E04AE755E486
:10135000698D7A8D8B8D9C8D0E942D2FDC01CB01A8
:10136000F80180839183A283B383CE0185519E4F80
:1013700020E030E040E85FE3FC0160817181828120
:1013800093810E94A72E88234CF4CE0181519E4F59
:1013900021E030E0FC013183208369C0CE0185511A
:1013A0009E4F20E03FEF4FE757E4FC0160817181E1
:1013B000828193810E94282F18160CF046C020E0ED
:1013C00030E040E251E4698D7A8D8B8D9C8D0E94D6
:1013D0002D2FDC01CB018E0101511E4FBC01CD012F
:1013E0000E94AC2EDC01CB01F8019183808324C0E4
:1013F000CE018F509E4F20E931E0FC0131832083E4
:10140000CE018F509E4FFC01808191810197F1F7B1
:101410009E012F503E4FF90191838083CE0181516F
:101420009E4F9E0121513E4FF90120813181215073
:101430003109FC0131832083CE0181519E4FFC0193
:1014400080819181892BA1F62CC08E0101511E4F04
:10145000CE0185519E4FFC01608171818281938113
:101460000E94AC2EDC01CB01F80191838083CE0178
:101470008D509E4F9E0121513E4FF90120813181B7
:10148000FC0131832083CE018D509E4FFC01808171
:1014900091810197F1F79E012D503E4FF901918303
:1014A000808388ED91E00E94510280E090E0A1EEFF
:1014B000B3E48D8F9E8FAF8FB8A38E010F511E4F57
:1014C00020E030E04AE755E46D8D7E8D8F8D98A148
:1014D0000E942D2FDC01CB01F80180839183A28330
:1014E000B383CE018F519E4F20E030E040E85FE3B0
:1014F000FC0160817181828193810E94A72E8823E3
:101500004CF4CE018B519E4F21E030E0FC01318341
:10151000208369C0CE018F519E4F20E03FEF4FE7FF
:1015200057E4FC0160817181828193810E94282FA0
:1015300018160CF046C020E030E040E251E46D8D1A
:101540007E8D8F8D98A10E942D2FDC01CB018E0105
:101550000B511E4FBC01CD010E94AC2EDC01CB0112
:10156000F8019183808324C0CE0189519E4F20E9E8
:1015700031E0FC0131832083CE0189519E4FFC0173
:10158000808191810197F1F79E0129513E4FF90128
:1015900091838083CE018B519E4F9E012B513E4FF4
:1015A000F9012081318121503109FC0131832083EF
:1015B000CE018B519E4FFC0180819181892BA1F638
:1015C0002CC08E010B511E4FCE018F519E4FFC013E
:1015D00060817181828193810E94AC2EDC01CB01FC
:1015E000F80191838083CE0187519E4F9E012B513C
:1015F0003E4FF90120813181FC0131832083CE01EE
:1016000087519E4FFC01808191810197F1F79E01E6
:1016100027513E4FF901918380838AEF91E00E9428
:10162000510280E090E0A8ECB3E489A39AA3ABA3B5
:10163000BCA38E0109521E4F20E030E04AE755E47A
:1016400069A17AA18BA19CA10E942D2FDC01CB0165
:10165000F80180839183A283B383CE0189529E4F88
:1016600020E030E040E85FE3FC016081718182812D
:1016700093810E94A72E88234CF4CE0185529E4F61
:1016800021E030E0FC013183208369C0CE01895222
:101690009E4F20E03FEF4FE757E4FC0160817181EE
:1016A000828193810E94282F18160CF046C020E0FA
:1016B00030E040E251E469A17AA18BA19CA10E9493
:1016C0002D2FDC01CB018E0105521E4FBC01CD0137
:1016D0000E94AC2EDC01CB01F8019183808324C0F1
:1016E000CE0183529E4F20E931E0FC0131832083FB
:1016F000CE0183529E4FFC01808191810197F1F7C9
:101700009E0123523E4FF90191838083CE01855281
:101710009E4F9E0125523E4FF9012081318121507B
:101720003109FC0131832083CE0185529E4FFC019B
:1017300080819181892BA1F62CC08E0105521E4F0C
:10174000CE0189529E4FFC0160817181828193811B
:101750000E94AC2EDC01CB01F80191838083CE0185
:1017600081529E4F9E0125523E4FF90120813181C9
:10177000FC0131832083CE0181529E4FFC01808188
:1017800091810197F1F79E0121523E4FF90191831A
:1017900080838BE092E00E94510280E090E0AAEF0B
:1017A000B3E48DA39EA3AFA3B8A78E0103531E4F2E
:1017B00020E030E04AE755E46DA17EA18FA198A515
:1017C0000E942D2FDC01CB01F80180839183A2833D
:1017D000B383CE0183539E4F20E030E040E85FE3C7
:1017E000FC0160817181828193810E94A72E8823F0
:1017F0004CF4CE018F529E4F21E030E0FC0131834A
:10180000208369C0CE0183539E4F20E03FEF4FE716
:1018100057E4FC0160817181828193810E94282FAD
:1018200018160CF046C020E030E040E251E46DA113
:101830007EA18FA198A50E942D2FDC01CB018E01E6
:101840000F521E4FBC01CD010E94AC2EDC01CB011A
:10185000F8019183808324C0CE018D529E4F20E9F0
:1018600031E0FC0131832083CE018D529E4FFC017B
:10187000808191810197F1F79E012D523E4FF90130
:1018800091838083CE018F529E4F9E012F523E4FF7
:10189000F9012081318121503109FC0131832083FC
:1018A000CE018F529E4FFC0180819181892BA1F640
:1018B0002CC08E010F521E4FCE0183539E4FFC0150
:1018C00060817181828193810E94AC2EDC01CB0109
:1018D000F80191838083CE018B529E4F9E012F523F
:1018E0003E4FF90120813181FC0131832083CE01FB
:1018F0008B529E4FFC01808191810197F1F79E01EF
:101900002B523E4FF901918380838CE192E00E943B
:10191000510280E090E0A6E9B3E489A79AA7ABA7BB
:10192000BCA78E010D531E4F20E030E04AE755E47E
:1019300069A57AA58BA59CA50E942D2FDC01CB0162
:10194000F80180839183A283B383CE018D539E4F90
:1019500020E030E040E85FE3FC016081718182813A
:1019600093810E94A72E88234CF4CE0189539E4F69
:1019700021E030E0FC013183208369C0CE018D532A
:101980009E4F20E03FEF4FE757E4FC0160817181FB
:10199000828193810E94282F18160CF046C020E007
:1019A00030E040E251E469A57AA58BA59CA50E9490
:1019B0002D2FDC01CB018E0109531E4FBC01CD013F
:1019C0000E94AC2EDC01CB01F8019183808324C0FE
:1019D000CE0187539E4F20E931E0FC013183208303
:1019E000CE0187539E4FFC01808191810197F1F7D1
:1019F0009E0127533E4FF90191838083CE01895385
:101A00009E4F9E0129533E4FF90120813181215083
:101A10003109FC0131832083CE0189539E4FFC01A3
:101A200080819181892BA1F62CC08E0109531E4F14
:101A3000CE018D539E4FFC01608171818281938123
:101A40000E94AC2EDC01CB01F80191838083CE0192
:101A500085539E4F9E0129533E4FF90120813181CC
:101A6000FC0131832083CE0185539E4FFC01808190
:101A700091810197F1F79E0125533E4FF901918322
:101A800080838DE292E00E94510280E090E0A5EA1E
:101A9000B3E48DA79EA7AFA7B8AB8E0107541E4F26
:101AA00020E030E04AE755E46DA57EA58FA598A912
:101AB0000E942D2FDC01CB01F80180839183A2834A
:101AC000B383CE0187549E4F20E030E040E85FE3CF
:101AD000FC0160817181828193810E94A72E8823FD
:101AE0004CF4CE0183549E4F21E030E0FC01318361
:101AF000208369C0CE0187549E4F20E03FEF4FE71F
:101B000057E4FC0160817181828193810E94282FBA
:101B100018160CF046C020E030E040E251E46DA51C
:101B20007EA58FA598A90E942D2FDC01CB018E01E7
:101B300003541E4FBC01CD010E94AC2EDC01CB0131
:101B4000F8019183808324C0CE0181549E4F20E907
:101B500031E0FC0131832083CE0181549E4FFC0192
:101B6000808191810197F1F79E0121543E4FF90147
:101B700091838083CE0183549E4F9E0123543E4F18
:101B8000F9012081318121503109FC013183208309
:101B9000CE0183549E4FFC0180819181892BA1F657
:101BA0002CC08E0103541E4FCE0187549E4FFC0162
:101BB00060817181828193810E94AC2EDC01CB0116
:101BC000F80191838083CE018F539E4F9E01235451
:101BD0003E4FF90120813181FC0131832083CE0108
:101BE0008F539E4FFC01808191810197F1F79E01F7
:101BF0002F533E4FF901918380838DE392E00E9441
:101C0000510280E090E0A6E1B3E489AB9AABABABC4
:101C1000BCAB8E0101551E4F20E030E04AE755E491
:101C200069A97AA98BA99CA90E942D2FDC01CB015F
:101C3000F80180839183A283B383CE0181559E4FA7
:101C400020E030E040E85FE3FC0160817181828147
:101C500093810E94A72E88234CF4CE018D549E4F71
:101C600021E030E0FC013183208369C0CE01815541
:101C70009E4F20E03FEF4FE757E4FC016081718108
:101C8000828193810E94282F18160CF046C020E014
:101C900030E040E251E469A97AA98BA99CA90E948D
:101CA0002D2FDC01CB018E010D541E4FBC01CD0147
:101CB0000E94AC2EDC01CB01F8019183808324C00B
:101CC000CE018B549E4F20E931E0FC01318320830B
:101CD000CE018B549E4FFC01808191810197F1F7D9
:101CE0009E012B543E4FF90191838083CE018D5488
:101CF0009E4F9E012D543E4FF9012081318121508C
:101D00003109FC0131832083CE018D549E4FFC01AB
:101D100080819181892BA1F62CC08E010D541E4F1C
:101D2000CE0181559E4FFC0160817181828193813A
:101D30000E94AC2EDC01CB01F80191838083CE019F
:101D400089549E4F9E012D543E4FF90120813181CF
:101D5000FC0131832083CE0189549E4FFC01808198
:101D600091810197F1F79E0129543E4FF90191832A
:101D700080838EE492E00E94510280E090E0A6E928
:101D8000B3E48DAB9EABAFABB8AF8E010B551E4F1E
:101D900020E030E04AE755E46DA97EA98FA998AD0F
:101DA0000E942D2FDC01CB01F80180839183A28357
:101DB000B383CE018B559E4F20E030E040E85FE3D7
:101DC000FC0160817181828193810E94A72E88230A
:101DD0004CF4CE0187559E4F21E030E0FC01318369
:101DE000208369C0CE018B559E4F20E03FEF4FE727
:101DF00057E4FC0160817181828193810E94282FC8
:101E000018160CF046C020E030E040E251E46DA925
:101E10007EA98FA998AD0E942D2FDC01CB018E01E8
:101E200007551E4FBC01CD010E94AC2EDC01CB0139
:101E3000F8019183808324C0CE0185559E4F20E90F
:101E400031E0FC0131832083CE0185559E4FFC019A
:101E5000808191810197F1F79E0125553E4FF9014F
:101E600091838083CE0187559E4F9E0127553E4F1B
:101E7000F9012081318121503109FC013183208316
:101E8000CE0187559E4FFC0180819181892BA1F65F
:101E90002CC08E0107551E4FCE018B559E4FFC0165
:101EA00060817181828193810E94AC2EDC01CB0123
:101EB000F80191838083CE0183559E4F9E01275563
:101EC0003E4FF90120813181FC0131832083CE0115
:101ED00083559E4FFC01808191810197F1F79E010E
:101EE00023553E4FF901918380838AEF91E00E9450
:101EF000510280E090E0A8E4B3E489AF9AAFABAFC1
:101F0000BCAF8E0105561E4F20E030E04AE755E495
:101F100069AD7AAD8BAD9CAD0E942D2FDC01CB015C
:101F2000F80180839183A283B383CE0185569E4FAF
:101F300020E030E040E85FE3FC0160817181828154
:101F400093810E94A72E88234CF4CE0181569E4F88
:101F500021E030E0FC013183208369C0CE01855649
:101F60009E4F20E03FEF4FE757E4FC016081718115
:101F7000828193810E94282F18160CF046C020E021
:101F800030E040E251E469AD7AAD8BAD9CAD0E948A
:101F90002D2FDC01CB018E0101561E4FBC01CD015E
:101FA0000E94AC2EDC01CB01F8019183808324C018
:101FB000CE018F559E4F20E931E0FC013183208313
:101FC000CE018F559E4FFC01808191810197F1F7E1
:101FD0009E012F553E4FF90191838083CE0181569A
:101FE0009E4F9E0121563E4FF901208131812150A3
:101FF0003109FC0131832083CE0181569E4FFC01C3
:1020000080819181892BA1F62CC08E0101561E4F33
:10201000CE0185569E4FFC01608171818281938142
:102020000E94AC2EDC01CB01F80191838083CE01AC
:102030008D559E4F9E0121563E4FF90120813181E1
:10204000FC0131832083CE018D559E4FFC018081A0
:1020500091810197F1F79E012D553E4FF901918332
:1020600080838FE592E00E94510280E090E0A8E436
:10207000B3E49E01235C3F4FF90180839183A283E7
:10208000B3838E010F561E4F20E030E04AE755E43F
:10209000CE01CD96FC0160817181828193810E9485
:1020A0002D2FDC01CB01F80180839183A283B383C0
:1020B000CE018F569E4F20E030E040E85FE3FC0108
:1020C00060817181828193810E94A72E88234CF4C4
:1020D000CE018B569E4F21E030E0FC0131832083FE
:1020E0006CC0CE018F569E4F20E03FEF4FE757E484
:1020F000FC0160817181828193810E94282F1816D2
:102100000CF049C020E030E040E251E4CE01CD9631
:10211000FC0160817181828193810E942D2FDC01FD
:10212000CB018E010B561E4FBC01CD010E94AC2E7F
:10213000DC01CB01F8019183808324C0CE01895654
:102140009E4F20E931E0FC0131832083CE01895686
:102150009E4FFC01808191810197F1F79E012956E4
:102160003E4FF90191838083CE018B569E4F9E0195
:102170002B563E4FF9012081318121503109FC015C
:1021800031832083CE018B569E4FFC01808191814B
:10219000892BA1F62CC08E010B561E4FCE018F56F7
:1021A0009E4FFC0160817181828193810E94AC2EDF
:1021B000DC01CB01F80191838083CE0187569E4FCD
:1021C0009E012B563E4FF90120813181FC01318364
:1021D0002083CE0187569E4FFC018081918101971B
:1021E000F1F79E0127563E4FF901918380838FE6D8
:1021F00092E00E9451029E012F5B3F4F80E090E0F1
:10220000A6E1B3E4F90180839183A283B3838E01B5
:1022100009571E4FCE018F5B9F4F20E030E04AE709
:1022200055E4FC0160817181828193810E942D2F90
:10223000DC01CB01F80180839183A283B383CE01BB
:1022400089579E4F20E030E040E85FE3FC01608169
:102250007181828193810E94A72E88234CF4CE0144
:1022600085579E4F21E030E0FC01318320836DC013
:10227000CE0189579E4F20E03FEF4FE757E4FC0126
:1022800060817181828193810E94282F18160CF041
:102290004AC0CE018F5B9F4F20E030E040E251E426
:1022A000FC0160817181828193810E942D2FDC016C
:1022B000CB018E0105571E4FBC01CD010E94AC2EF3
:1022C000DC01CB01F8019183808324C0CE018357C8
:1022D0009E4F20E931E0FC0131832083CE018357FA
:1022E0009E4FFC01808191810197F1F79E01235758
:1022F0003E4FF90191838083CE0185579E4F9E0109
:1023000025573E4FF9012081318121503109FC01CF
:1023100031832083CE0185579E4FFC0180819181BE
:10232000892BA1F62CC08E0105571E4FCE0189576F
:102330009E4FFC0160817181828193810E94AC2E4D
:10234000DC01CB01F80191838083CE0181579E4F40
:102350009E0125573E4FF90120813181FC013183D7
:102360002083CE0181579E4FFC018081918101978E
:10237000F1F79E0121573E4FF901918380838FE74A
:1023800092E00E9451029E012B5B3F4F80E090E063
:10239000A6E9B3E4F90180839183A283B3838E011C
:1023A00003581E4FCE018B5B9F4F20E030E04AE781
:1023B00055E4FC0160817181828193810E942D2FFF
:1023C000DC01CB01F80180839183A283B383CE012A
:1023D00083589E4F20E030E040E85FE3FC016081DD
:1023E0007181828193810E94A72E88234CF4CE01B3
:1023F0008F579E4F21E030E0FC01318320836DC078
:10240000CE0183589E4F20E03FEF4FE757E4FC0199
:1024100060817181828193810E94282F18160CF0AF
:102420004AC0CE018B5B9F4F20E030E040E251E498
:10243000FC0160817181828193810E942D2FDC01DA
:10244000CB018E010F571E4FBC01CD010E94AC2E57
:10245000DC01CB01F8019183808324C0CE018D572C
:102460009E4F20E931E0FC0131832083CE018D575E
:102470009E4FFC01808191810197F1F79E012D57BC
:102480003E4FF90191838083CE018F579E4F9E016D
:102490002F573E4FF9012081318121503109FC0134
:1024A00031832083CE018F579E4FFC018081918123
:1024B000892BA1F62CC08E010F571E4FCE018358D9
:1024C0009E4FFC0160817181828193810E94AC2EBC
:1024D000DC01CB01F80191838083CE018B579E4FA5
:1024E0009E012F573E4FF90120813181FC0131833C
:1024F0002083CE018B579E4FFC01808191810197F3
:10250000F1F79E012B573E4FF9019183808380E9BB
:1025100092E00E9451029E01275B3F4F80E090E0D5
:10252000A6E1B3E4F90180839183A283B3838E0192
:102530000D581E4FCE01875B9F4F20E030E04AE7E9
:1025400055E4FC0160817181828193810E942D2F6D
:10255000DC01CB01F80180839183A283B383CE0198
:102560008D589E4F20E030E040E85FE3FC01608141
:102570007181828193810E94A72E88234CF4CE0121
:1025800089589E4F21E030E0FC01318320836DC0EB
:10259000CE018D589E4F20E03FEF4FE757E4FC01FE
:1025A00060817181828193810E94282F18160CF01E
:1025B0004AC0CE01875B9F4F20E030E040E251E40B
:1025C000FC0160817181828193810E942D2FDC0149
:1025D000CB018E0109581E4FBC01CD010E94AC2ECB
:1025E000DC01CB01F8019183808324C0CE018758A0
:1025F0009E4F20E931E0FC0131832083CE018758D2
:102600009E4FFC01808191810197F1F79E0127582F
:102610003E4FF90191838083CE0189589E4F9E01E0
:1026200029583E4FF9012081318121503109FC01A7
:1026300031832083CE0189589E4FFC018081918196
:10264000892BA1F62CC08E0109581E4FCE018D5842
:102650009E4FFC0160817181828193810E94AC2E2A
:10266000DC01CB01F80191838083CE0185589E4F18
:102670009E0129583E4FF90120813181FC013183AF
:102680002083CE0185589E4FFC0180819181019766
:10269000F1F79E0125583E4FF901918380838FE623
:1026A00092E00E9451029E01235B3F4F80E090E048
:1026B000AFEAB3E4F90180839183A283B3838E01EF
:1026C00007591E4FCE01835B9F4F20E030E04AE761
:1026D00055E4FC0160817181828193810E942D2FDC
:1026E000DC01CB01F80180839183A283B383CE0107
:1026F00087599E4F20E030E040E85FE3FC016081B5
:102700007181828193810E94A72E88234CF4CE018F
:1027100083599E4F21E030E0FC01318320836DC05E
:10272000CE0187599E4F20E03FEF4FE757E4FC0171
:1027300060817181828193810E94282F18160CF08C
:102740004AC0CE01835B9F4F20E030E040E251E47D
:10275000FC0160817181828193810E942D2FDC01B7
:10276000CB018E0103591E4FBC01CD010E94AC2E3E
:10277000DC01CB01F8019183808324C0CE01815913
:102780009E4F20E931E0FC0131832083CE01815945
:102790009E4FFC01808191810197F1F79E012159A3
:1027A0003E4FF90191838083CE0183599E4F9E0154
:1027B00023593E4FF9012081318121503109FC011B
:1027C00031832083CE0183599E4FFC01808191810A
:1027D000892BA1F62CC08E0103591E4FCE018759BB
:1027E0009E4FFC0160817181828193810E94AC2E99
:1027F000DC01CB01F80191838083CE018F589E4F7D
:102800009E0123593E4FF90120813181FC01318322
:102810002083CE018F589E4FFC01808191810197CA
:10282000F1F79E012F583E4FF901918380838FE588
:1028300092E00E9451029E012F5A3F4F80E090E0AB
:10284000A6E9B3E4F90180839183A283B3838E0167
:10285000015A1E4FCE018F5A9F4F20E030E04AE7C9
:1028600055E4FC0160817181828193810E942D2F4A
:10287000DC01CB01F80180839183A283B383CE0175
:10288000815A9E4F20E030E040E85FE3FC01608128
:102890007181828193810E94A72E88234CF4CE01FE
:1028A0008D599E4F21E030E0FC01318320836DC0C3
:1028B000CE01815A9E4F20E03FEF4FE757E4FC01E5
:1028C00060817181828193810E94282F18160CF0FB
:1028D0004AC0CE018F5A9F4F20E030E040E251E4E1
:1028E000FC0160817181828193810E942D2FDC0126
:1028F000CB018E010D591E4FBC01CD010E94AC2EA3
:10290000DC01CB01F8019183808324C0CE018B5977
:102910009E4F20E931E0FC0131832083CE018B59A9
:102920009E4FFC01808191810197F1F79E012B5907
:102930003E4FF90191838083CE018D599E4F9E01B8
:102940002D593E4FF9012081318121503109FC017F
:1029500031832083CE018D599E4FFC01808191816E
:10296000892BA1F62CC08E010D591E4FCE01815A24
:102970009E4FFC0160817181828193810E94AC2E07
:10298000DC01CB01F80191838083CE0189599E4FF0
:102990009E012D593E4FF90120813181FC01318387
:1029A0002083CE0189599E4FFC018081918101973E
:1029B000F1F79E0129593E4FF901918380838FE9F8
:1029C00092E00E9451029E012B5A3F4F80E090E01E
:1029D000A6E1B3E4F90180839183A283B3838E01DE
:1029E0000B5A1E4FCE018B5A9F4F20E030E04AE732
:1029F00055E4FC0160817181828193810E942D2FB9
:102A0000DC01CB01F80180839183A283B383CE01E3
:102A10008B5A9E4F20E030E040E85FE3FC0160818C
:102A20007181828193810E94A72E88234CF4CE016C
:102A3000875A9E4F21E030E0FC01318320836DC036
:102A4000CE018B5A9E4F20E03FEF4FE757E4FC0149
:102A500060817181828193810E94282F18160CF069
:102A60004AC0CE018B5A9F4F20E030E040E251E453
:102A7000FC0160817181828193810E942D2FDC0194
:102A8000CB018E01075A1E4FBC01CD010E94AC2E16
:102A9000DC01CB01F8019183808324C0CE01855AEB
:102AA0009E4F20E931E0FC0131832083CE01855A1D
:102AB0009E4FFC01808191810197F1F79E01255A7B
:102AC0003E4FF90191838083CE01875A9E4F9E012C
:102AD000275A3E4FF9012081318121503109FC01F3
:102AE00031832083CE01875A9E4FFC0180819181E2
:102AF000892BA1F62CC08E01075A1E4FCE018B5A8E
:102B00009E4FFC0160817181828193810E94AC2E75
:102B1000DC01CB01F80191838083CE01835A9E4F63
:102B20009E01275A3E4FF90120813181FC013183FA
:102B30002083CE01835A9E4FFC01808191810197B1
:102B4000F1F79E01235A3E4FF901918380838FEA6A
:102B500092E00E9451029E01275A3F4F80E090E090
:102B6000A6E1B3E4F90180839183A283B3838E014C
:102B7000055B1E4FCE01875A9F4F20E030E04AE7A9
:102B800055E4FC0160817181828193810E942D2F27
:102B9000DC01CB01F80180839183A283B383CE0152
:102BA000855B9E4F20E030E040E85FE3FC01608100
:102BB0007181828193810E94A72E88234CF4CE01DB
:102BC000815B9E4F21E030E0FC01318320836DC0AA
:102BD000CE01855B9E4F20E03FEF4FE757E4FC01BD
:102BE00060817181828193810E94282F18160CF0D8
:102BF0004AC0CE01875A9F4F20E030E040E251E4C6
:102C0000FC0160817181828193810E942D2FDC0102
:102C1000CB018E01015B1E4FBC01CD010E94AC2E89
:102C2000DC01CB01F8019183808324C0CE018F5A4F
:102C30009E4F20E931E0FC0131832083CE018F5A81
:102C40009E4FFC01808191810197F1F79E012F5ADF
:102C50003E4FF90191838083CE01815B9E4F9E019F
:102C6000215B3E4FF9012081318121503109FC0166
:102C700031832083CE01815B9E4FFC018081918155
:102C8000892BA1F62CC08E01015B1E4FCE01855B06
:102C90009E4FFC0160817181828193810E94AC2EE4
:102CA000DC01CB01F80191838083CE018D5A9E4FC8
:102CB0009E01215B3E4FF90120813181FC0131836E
:102CC0002083CE018D5A9E4FFC0180819181019716
:102CD000F1F79E012D5A3E4FF901918380838DE2D9
:102CE00092E00E9451029E01235A3F4F80E090E003
:102CF000AAEFB3E4F90180839183A283B3838E01A9
:102D00000F5B1E4FCE01835A9F4F20E030E04AE711
:102D100055E4FC0160817181828193810E942D2F95
:102D2000DC01CB01F80180839183A283B383CE01C0
:102D30008F5B9E4F20E030E040E85FE3FC01608164
:102D40007181828193810E94A72E88234CF4CE0149
:102D50008B5B9E4F21E030E0FC01318320836DC00E
:102D6000CE018F5B9E4F20E03FEF4FE757E4FC0121
:102D700060817181828193810E94282F18160CF046
:102D80004AC0CE01835A9F4F20E030E040E251E438
:102D9000FC0160817181828193810E942D2FDC0171
:102DA000CB018E010B5B1E4FBC01CD010E94AC2EEE
:102DB000DC01CB01F8019183808324C0CE01895BC3
:102DC0009E4F20E931E0FC0131832083CE01895BF5
:102DD0009E4FFC01808191810197F1F79E01295B53
:102DE0003E4FF90191838083CE018B5B9E4F9E0104
:102DF0002B5B3E4FF9012081318121503109FC01CB
:102E000031832083CE018B5B9E4FFC0180819181B9
:102E1000892BA1F62CC08E010B5B1E4FCE018F5B60
:102E20009E4FFC0160817181828193810E94AC2E52
:102E3000DC01CB01F80191838083CE01875B9E4F3B
:102E40009E012B5B3E4FF90120813181FC013183D2
:102E50002083CE01875B9E4FFC0180819181019789
:102E6000F1F79E01275B3E4FF9019183808388ED46
:102E700091E00E9451029E012F593F4F80E090E067
:102E8000A1EEB3E4F90180839183A283B3838E0121
:102E9000095C1E4FCE018F599F4F20E030E04AE77A
:102EA00055E4FC0160817181828193810E942D2F04
:102EB000DC01CB01F80180839183A283B383CE012F
:102EC000895C9E4F20E030E040E85FE3FC016081D8
:102ED0007181828193810E94A72E88234CF4CE01B8
:102EE000855C9E4F21E030E0FC01318320836DC082
:102EF000CE01895C9E4F20E03FEF4FE757E4FC0195
:102F000060817181828193810E94282F18160CF0B4
:102F10004AC0CE018F599F4F20E030E040E251E49B
:102F2000FC0160817181828193810E942D2FDC01DF
:102F3000CB018E01055C1E4FBC01CD010E94AC2E61
:102F4000DC01CB01F8019183808324C0CE01835C36
:102F50009E4F20E931E0FC0131832083CE01835C68
:102F60009E4FFC01808191810197F1F79E01235CC6
:102F70003E4FF90191838083CE01855C9E4F9E0177
:102F8000255C3E4FF9012081318121503109FC013E
:102F900031832083CE01855C9E4FFC01808191812D
:102FA000892BA1F62CC08E01055C1E4FCE01895CD9
:102FB0009E4FFC0160817181828193810E94AC2EC1
:102FC000DC01CB01F80191838083CE01815C9E4FAF
:102FD0009E01255C3E4FF90120813181FC01318346
:102FE0002083CE01815C9E4FFC01808191810197FD
:102FF000F1F79E01215C3E4FF901918380838AEFB6
:1030000091E00E9451029E012B593F4F80E090E0D9
:10301000A8ECB3E4F90180839183A283B3838E018A
:10302000035D1E4FCE018B599F4F20E030E04AE7F1
:1030300055E4FC0160817181828193810E942D2F72
:10304000DC01CB01F80180839183A283B383CE019D
:10305000835D9E4F20E030E040E85FE3FC0160814B
:103060007181828193810E94A72E88234CF4CE0126
:103070008F5C9E4F21E030E0FC01318320836DC0E6
:10308000CE01835D9E4F20E03FEF4FE757E4FC0108
:1030900060817181828193810E94282F18160CF023
:1030A0004AC0CE018B599F4F20E030E040E251E40E
:1030B000FC0160817181828193810E942D2FDC014E
:1030C000CB018E010F5C1E4FBC01CD010E94AC2EC6
:1030D000DC01CB01F8019183808324C0CE018D5C9B
:1030E0009E4F20E931E0FC0131832083CE018D5CCD
:1030F0009E4FFC01808191810197F1F79E012D5C2B
:103100003E4FF90191838083CE018F5C9E4F9E01DB
:103110002F5C3E4FF9012081318121503109FC01A2
:1031200031832083CE018F5C9E4FFC018081918191
:10313000892BA1F62CC08E010F5C1E4FCE01835D42
:103140009E4FFC0160817181828193810E94AC2E2F
:10315000DC01CB01F80191838083CE018B5C9E4F13
:103160009E012F5C3E4FF90120813181FC013183AA
:103170002083CE018B5C9E4FFC0180819181019761
:10318000F1F79E012B5C3E4FF901918380838BE028
:1031900092E00E9451029E0127593F4F80E090E04B
:1031A000AAEFB3E4F90180839183A283B3838E01F4
:1031B0000D5D1E4FCE0187599F4F20E030E04AE75A
:1031C00055E4FC0160817181828193810E942D2FE1
:1031D000DC01CB01F80180839183A283B383CE010C
:1031E0008D5D9E4F20E030E040E85FE3FC016081B0
:1031F0007181828193810E94A72E88234CF4CE0195
:10320000895D9E4F21E030E0FC01318320836DC059
:10321000CE018D5D9E4F20E03FEF4FE757E4FC016C
:1032200060817181828193810E94282F18160CF091
:103230004AC0CE0187599F4F20E030E040E251E480
:10324000FC0160817181828193810E942D2FDC01BC
:10325000CB018E01095D1E4FBC01CD010E94AC2E39
:10326000DC01CB01F8019183808324C0CE01875D0E
:103270009E4F20E931E0FC0131832083CE01875D40
:103280009E4FFC01808191810197F1F79E01275D9E
:103290003E4FF90191838083CE01895D9E4F9E014F
:1032A000295D3E4FF9012081318121503109FC0116
:1032B00031832083CE01895D9E4FFC018081918105
:1032C000892BA1F62CC08E01095D1E4FCE018D5DAC
:1032D0009E4FFC0160817181828193810E94AC2E9E
:1032E000DC01CB01F80191838083CE01855D9E4F87
:1032F0009E01295D3E4FF90120813181FC0131831E
:103300002083CE01855D9E4FFC01808191810197D4
:10331000F1F79E01255D3E4FF901918380838CE199
:1033200092E00E9451029E0123593F4F80E090E0BD
:10333000A6E9B3E4F90180839183A283B3838E016C
:10334000075E1E4FCE0183599F4F20E030E04AE7D1
:1033500055E4FC0160817181828193810E942D2F4F
:10336000DC01CB01F80180839183A283B383CE017A
:10337000875E9E4F20E030E040E85FE3FC01608123
:103380007181828193810E94A72E88234CF4CE0103
:10339000835E9E4F21E030E0FC01318320836DC0CD
:1033A000CE01875E9E4F20E03FEF4FE757E4FC01E0
:1033B00060817181828193810E94282F18160CF000
:1033C0004AC0CE0183599F4F20E030E040E251E4F3
:1033D000FC0160817181828193810E942D2FDC012B
:1033E000CB018E01035E1E4FBC01CD010E94AC2EAD
:1033F000DC01CB01F8019183808324C0CE01815E82
:103400009E4F20E931E0FC0131832083CE01815EB3
:103410009E4FFC01808191810197F1F79E01215E11
:103420003E4FF90191838083CE01835E9E4F9E01C2
:10343000235E3E4FF9012081318121503109FC0189
:1034400031832083CE01835E9E4FFC018081918178
:10345000892BA1F62CC08E01035E1E4FCE01875E24
:103460009E4FFC0160817181828193810E94AC2E0C
:10347000DC01CB01F80191838083CE018F5D9E4FEB
:103480009E01235E3E4FF90120813181FC01318391
:103490002083CE018F5D9E4FFC0180819181019739
:1034A000F1F79E012F5D3E4FF901918380838DE2FC
:1034B00092E00E9451029E012F583F4F80E090E021
:1034C000A5EAB3E4F90180839183A283B3838E01DB
:1034D000015F1E4FCE018F589F4F20E030E04AE73A
:1034E00055E4FC0160817181828193810E942D2FBE
:1034F000DC01CB01F80180839183A283B383CE01E9
:10350000815F9E4F20E030E040E85FE3FC01608196
:103510007181828193810E94A72E88234CF4CE0171
:103520008D5E9E4F21E030E0FC01318320836DC031
:10353000CE01815F9E4F20E03FEF4FE757E4FC0153
:1035400060817181828193810E94282F18160CF06E
:103550004AC0CE018F589F4F20E030E040E251E456
:10356000FC0160817181828193810E942D2FDC0199
:10357000CB018E010D5E1E4FBC01CD010E94AC2E11
:10358000DC01CB01F8019183808324C0CE018B5EE6
:103590009E4F20E931E0FC0131832083CE018B5E18
:1035A0009E4FFC01808191810197F1F79E012B5E76
:1035B0003E4FF90191838083CE018D5E9E4F9E0127
:1035C0002D5E3E4FF9012081318121503109FC01EE
:1035D00031832083CE018D5E9E4FFC0180819181DD
:1035E000892BA1F62CC08E010D5E1E4FCE01815F8E
:1035F0009E4FFC0160817181828193810E94AC2E7B
:10360000DC01CB01F80191838083CE01895E9E4F5E
:103610009E012D5E3E4FF90120813181FC013183F5
:103620002083CE01895E9E4FFC01808191810197AC
:10363000F1F79E01295E3E4FF901918380838DE36E
:1036400092E00E9451029E012B583F4F80E090E093
:10365000A6E1B3E4F90180839183A283B3838E0151
:103660000B5F1E4FCE018B589F4F20E030E04AE7A2
:1036700055E4FC0160817181828193810E942D2F2C
:10368000DC01CB01F80180839183A283B383CE0157
:103690008B5F9E4F20E030E040E85FE3FC016081FB
:1036A0007181828193810E94A72E88234CF4CE01E0
:1036B000875F9E4F21E030E0FC01318320836DC0A5
:1036C000CE018B5F9E4F20E03FEF4FE757E4FC01B8
:1036D00060817181828193810E94282F18160CF0DD
:1036E0004AC0CE018B589F4F20E030E040E251E4C9
:1036F000FC0160817181828193810E942D2FDC0108
:10370000CB018E01075F1E4FBC01CD010E94AC2E84
:10371000DC01CB01F8019183808324C0CE01855F59
:103720009E4F20E931E0FC0131832083CE01855F8B
:103730009E4FFC01808191810197F1F79E01255FE9
:103740003E4FF90191838083CE01875F9E4F9E019A
:10375000275F3E4FF9012081318121503109FC0161
:1037600031832083CE01875F9E4FFC018081918150
:10377000892BA1F62CC08E01075F1E4FCE018B5FF7
:103780009E4FFC0160817181828193810E94AC2EE9
:10379000DC01CB01F80191838083CE01835F9E4FD2
:1037A0009E01275F3E4FF90120813181FC01318369
:1037B0002083CE01835F9E4FFC0180819181019720
:1037C000F1F79E01235F3E4FF901918380838EE4E0
:1037D00092E00E9451029E0127583F4F80E090E006
:1037E000A6E9B3E4F90180839183A283B3838E01B8
:1037F00005501F4FCE0187589F4F20E030E04AE729
:1038000055E4FC0160817181828193810E942D2F9A
:10381000DC01CB01F80180839183A283B383CE01C5
:1038200085509F4F20E030E040E85FE3FC0160817D
:103830007181828193810E94A72E88234CF4CE014E
:1038400081509F4F21E030E0FC01318320836DC027
:10385000CE0185509F4F20E03FEF4FE757E4FC013A
:1038600060817181828193810E94282F18160CF04B
:103870004AC0CE0187589F4F20E030E040E251E43B
:10388000FC0160817181828193810E942D2FDC0176
:10389000CB018E0101501F4FBC01CD010E94AC2E07
:1038A000DC01CB01F8019183808324C0CE018F5FBE
:1038B0009E4F20E931E0FC0131832083CE018F5FF0
:1038C0009E4FFC01808191810197F1F79E012F5F4E
:1038D0003E4FF90191838083CE0181509F4F9E011D
:1038E00021503F4FF9012081318121503109FC01E4
:1038F00031832083CE0181509F4FFC0180819181D3
:10390000892BA1F62CC08E0101501F4FCE0185508E
:103910009F4FFC0160817181828193810E94AC2E56
:10392000DC01CB01F80191838083CE018D5F9E4F36
:103930009E0121503F4FF90120813181FC013183EB
:103940002083CE018D5F9E4FFC0180819181019784
:10395000F1F79E012D5F3E4FF901918380838AEF3D
:1039600091E00E9451029E0123583F4F80E090E079
:10397000A8E4B3E4F90180839183A283B3838E0129
:103980000F501F4FCE0183589F4F20E030E04AE791
:1039900055E4FC0160817181828193810E942D2F09
:1039A000DC01CB01F80180839183A283B383CE0134
:1039B0008F509F4F20E030E040E85FE3FC016081E2
:1039C0007181828193810E94A72E88234CF4CE01BD
:1039D0008B509F4F21E030E0FC01318320836DC08C
:1039E000CE018F509F4F20E03FEF4FE757E4FC019F
:1039F00060817181828193810E94282F18160CF0BA
:103A00004AC0CE0183589F4F20E030E040E251E4AD
:103A1000FC0160817181828193810E942D2FDC01E4
:103A2000CB018E010B501F4FBC01CD010E94AC2E6B
:103A3000DC01CB01F8019183808324C0CE01895041
:103A40009F4F20E931E0FC0131832083CE01895072
:103A50009F4FFC01808191810197F1F79E012950D0
:103A60003F4FF90191838083CE018B509F4F9E0180
:103A70002B503F4FF9012081318121503109FC0148
:103A800031832083CE018B509F4FFC018081918137
:103A9000892BA1F62CC08E010B501F4FCE018F50E9
:103AA0009F4FFC0160817181828193810E94AC2EC5
:103AB000DC01CB01F80191838083CE0187509F4FB9
:103AC0009E012B503F4FF90120813181FC01318350
:103AD0002083CE0187509F4FFC0180819181019707
:103AE000F1F79E0127503F4FF901918380838FE5C5
:103AF00092E00E9451029E012F573F4F80E090E0DC
:103B0000A8E4B3E4F90180839183A283B3838E0197
:103B100009511F4FCE018F579F4F20E030E04AE7F9
:103B200055E4FC0160817181828193810E942D2F77
:103B3000DC01CB01F80180839183A283B383CE01A2
:103B400089519F4F20E030E040E85FE3FC01608155
:103B50007181828193810E94A72E88234CF4CE012B
:103B600085519F4F21E030E0FC01318320836DC0FF
:103B7000CE0189519F4F20E03FEF4FE757E4FC0112
:103B800060817181828193810E94282F18160CF028
:103B90004AC0CE018F579F4F20E030E040E251E411
:103BA000FC0160817181828193810E942D2FDC0153
:103BB000CB018E0105511F4FBC01CD010E94AC2EDF
:103BC000DC01CB01F8019183808324C0CE018351B5
:103BD0009F4F20E931E0FC0131832083CE018351E6
:103BE0009F4FFC01808191810197F1F79E01235144
:103BF0003F4FF90191838083CE0185519F4F9E01F4
:103C000025513F4FF9012081318121503109FC01BB
:103C100031832083CE0185519F4FFC0180819181AA
:103C2000892BA1F62CC08E0105511F4FCE01895161
:103C30009F4FFC0160817181828193810E94AC2E33
:103C4000DC01CB01F80191838083CE0181519F4F2C
:103C50009E0125513F4FF90120813181FC013183C3
:103C60002083CE0181519F4FFC018081918101977A
:103C7000F1F79E0121513F4FF901918380838FE637
:103C800092E00E9451029E012B573F4F80E090E04E
:103C9000A6E1B3E4F90180839183A283B3838E010B
:103CA00003521F4FCE018B579F4F20E030E04AE771
:103CB00055E4FC0160817181828193810E942D2FE6
:103CC000DC01CB01F80180839183A283B383CE0111
:103CD00083529F4F20E030E040E85FE3FC016081C9
:103CE0007181828193810E94A72E88234CF4CE019A
:103CF0008F519F4F21E030E0FC01318320836DC064
:103D0000CE0183529F4F20E03FEF4FE757E4FC0185
:103D100060817181828193810E94282F18160CF096
:103D20004AC0CE018B579F4F20E030E040E251E483
:103D3000FC0160817181828193810E942D2FDC01C1
:103D4000CB018E010F511F4FBC01CD010E94AC2E43
:103D5000DC01CB01F8019183808324C0CE018D5119
:103D60009F4F20E931E0FC0131832083CE018D514A
:103D70009F4FFC01808191810197F1F79E012D51A8
:103D80003F4FF90191838083CE018F519F4F9E0158
:103D90002F513F4FF9012081318121503109FC0120
:103DA00031832083CE018F519F4FFC01808191810F
:103DB000892BA1F62CC08E010F511F4FCE018352CB
:103DC0009F4FFC0160817181828193810E94AC2EA2
:103DD000DC01CB01F80191838083CE018B519F4F91
:103DE0009E012F513F4FF90120813181FC01318328
:103DF0002083CE018B519F4FFC01808191810197DF
:103E0000F1F79E012B513F4FF901918380838FE79A
:103E100092E00E9451029E0127573F4F80E090E0C0
:103E2000A6E9B3E4F90180839183A283B3838E0171
:103E30000D521F4FCE0187579F4F20E030E04AE7D9
:103E400055E4FC0160817181828193810E942D2F54
:103E5000DC01CB01F80180839183A283B383CE017F
:103E60008D529F4F20E030E040E85FE3FC0160812D
:103E70007181828193810E94A72E88234CF4CE0108
:103E800089529F4F21E030E0FC01318320836DC0D7
:103E9000CE018D529F4F20E03FEF4FE757E4FC01EA
:103EA00060817181828193810E94282F18160CF005
:103EB0004AC0CE0187579F4F20E030E040E251E4F6
:103EC000FC0160817181828193810E942D2FDC0130
:103ED000CB018E0109521F4FBC01CD010E94AC2EB7
:103EE000DC01CB01F8019183808324C0CE0187528D
:103EF0009F4F20E931E0FC0131832083CE018752BE
:103F00009F4FFC01808191810197F1F79E0127521B
:103F10003F4FF90191838083CE0189529F4F9E01CB
:103F200029523F4FF9012081318121503109FC0193
:103F300031832083CE0189529F4FFC018081918182
:103F4000892BA1F62CC08E0109521F4FCE018D5234
:103F50009F4FFC0160817181828193810E94AC2E10
:103F6000DC01CB01F80191838083CE0185529F4F04
:103F70009E0129523F4FF90120813181FC0131839B
:103F80002083CE0185529F4FFC0180819181019752
:103F9000F1F79E0125523F4FF901918380838FEB0A
:103FA00092E00E9451029E0123573F4F80E090E033
:103FB000A6E1B3E4F90180839183A283B3838E01E8
:103FC00007531F4FCE0183579F4F20E030E04AE751
:103FD00055E4FC0160817181828193810E942D2FC3
:103FE000DC01CB01F80180839183A283B383CE01EE
:103FF00087539F4F20E030E040E85FE3FC016081A1
:104000007181828193810E94A72E88234CF4CE0176
:1040100083539F4F21E030E0FC01318320836DC04A
:10402000CE0187539F4F20E03FEF4FE757E4FC015D
:1040300060817181828193810E94282F18160CF073
:104040004AC0CE0183579F4F20E030E040E251E468
:10405000FC0160817181828193810E942D2FDC019E
:10406000CB018E0103531F4FBC01CD010E94AC2E2A
:10407000DC01CB01F8019183808324C0CE01815300
:104080009F4F20E931E0FC0131832083CE01815331
:104090009F4FFC01808191810197F1F79E0121538F
:1040A0003F4FF90191838083CE0183539F4F9E013F
:1040B00023533F4FF9012081318121503109FC0107
:1040C00031832083CE0183539F4FFC0180819181F6
:1040D000892BA1F62CC08E0103531F4FCE018753AD
:1040E0009F4FFC0160817181828193810E94AC2E7F
:1040F000DC01CB01F80191838083CE018F529F4F69
:104100009E0123533F4FF90120813181FC0131830E
:104110002083CE018F529F4FFC01808191810197B6
:10412000F1F79E012F523F4FF901918380838FE673
:1041300092E00E9451029E012F563F4F80E090E096
:10414000AFEAB3E4F90180839183A283B3838E0144
:1041500001541F4FCE018F569F4F20E030E04AE7B9
:1041600055E4FC0160817181828193810E942D2F31
:10417000DC01CB01F80180839183A283B383CE015C
:1041800081549F4F20E030E040E85FE3FC01608114
:104190007181828193810E94A72E88234CF4CE01E5
:1041A0008D539F4F21E030E0FC01318320836DC0AF
:1041B000CE0181549F4F20E03FEF4FE757E4FC01D1
:1041C00060817181828193810E94282F18160CF0E2
:1041D0004AC0CE018F569F4F20E030E040E251E4CC
:1041E000FC0160817181828193810E942D2FDC010D
:1041F000CB018E010D531F4FBC01CD010E94AC2E8F
:10420000DC01CB01F8019183808324C0CE018B5364
:104210009F4F20E931E0FC0131832083CE018B5395
:104220009F4FFC01808191810197F1F79E012B53F3
:104230003F4FF90191838083CE018D539F4F9E01A3
:104240002D533F4FF9012081318121503109FC016B
:1042500031832083CE018D539F4FFC01808191815A
:10426000892BA1F62CC08E010D531F4FCE01815416
:104270009F4FFC0160817181828193810E94AC2EED
:10428000DC01CB01F80191838083CE0189539F4FDC
:104290009E012D533F4FF90120813181FC01318373
:1042A0002083CE0189539F4FFC018081918101972A
:1042B000F1F79E0129533F4FF901918380838FE5E8
:1042C00092E00E9451029E012B563F4F80E090E009
:1042D000A6E9B3E4F90180839183A283B3838E01BD
:1042E0000B541F4FCE018B569F4F20E030E04AE722
:1042F00055E4FC0160817181828193810E942D2FA0
:10430000DC01CB01F80180839183A283B383CE01CA
:104310008B549F4F20E030E040E85FE3FC01608178
:104320007181828193810E94A72E88234CF4CE0153
:1043300087549F4F21E030E0FC01318320836DC022
:10434000CE018B549F4F20E03FEF4FE757E4FC0135
:1043500060817181828193810E94282F18160CF050
:104360004AC0CE018B569F4F20E030E040E251E43E
:10437000FC0160817181828193810E942D2FDC017B
:10438000CB018E0107541F4FBC01CD010E94AC2E02
:10439000DC01CB01F8019183808324C0CE018554D8
:1043A0009F4F20E931E0FC0131832083CE01855409
:1043B0009F4FFC01808191810197F1F79E01255467
:1043C0003F4FF90191838083CE0187549F4F9E0117
:1043D00027543F4FF9012081318121503109FC01DF
:1043E00031832083CE0187549F4FFC0180819181CE
:1043F000892BA1F62CC08E0107541F4FCE018B5480
:104400009F4FFC0160817181828193810E94AC2E5B
:10441000DC01CB01F80191838083CE0183549F4F4F
:104420009E0127543F4FF90120813181FC013183E6
:104430002083CE0183549F4FFC018081918101979D
:10444000F1F79E0123543F4FF901918380838FE957
:1044500092E00E9451029E0127563F4F80E090E07B
:10446000A6E1B3E4F90180839183A283B3838E0133
:1044700005551F4FCE0187569F4F20E030E04AE799
:1044800055E4FC0160817181828193810E942D2F0E
:10449000DC01CB01F80180839183A283B383CE0139
:1044A00085559F4F20E030E040E85FE3FC016081EC
:1044B0007181828193810E94A72E88234CF4CE01C2
:1044C00081559F4F21E030E0FC01318320836DC096
:1044D000CE0185559F4F20E03FEF4FE757E4FC01A9
:1044E00060817181828193810E94282F18160CF0BF
:1044F0004AC0CE0187569F4F20E030E040E251E4B1
:10450000FC0160817181828193810E942D2FDC01E9
:10451000CB018E0101551F4FBC01CD010E94AC2E75
:10452000DC01CB01F8019183808324C0CE018F543C
:104530009F4F20E931E0FC0131832083CE018F546D
:104540009F4FFC01808191810197F1F79E012F54CB
:104550003F4FF90191838083CE0181559F4F9E018A
:1045600021553F4FF9012081318121503109FC0152
:1045700031832083CE0181559F4FFC018081918141
:10458000892BA1F62CC08E0101551F4FCE018555F8
:104590009F4FFC0160817181828193810E94AC2ECA
:1045A000DC01CB01F80191838083CE018D549F4FB4
:1045B0009E0121553F4FF90120813181FC0131835A
:1045C0002083CE018D549F4FFC0180819181019702
:1045D000F1F79E012D543F4FF901918380838FEABB
:1045E00092E00E9451029E0123563F4F80E090E0EE
:1045F000A6E1B3E4F90180839183A283B3838E01A2
:104600000F551F4FCE0183569F4F20E030E04AE701
:1046100055E4FC0160817181828193810E942D2F7C
:10462000DC01CB01F80180839183A283B383CE01A7
:104630008F559F4F20E030E040E85FE3FC01608150
:104640007181828193810E94A72E88234CF4CE0130
:104650008B559F4F21E030E0FC01318320836DC0FA
:10466000CE018F559F4F20E03FEF4FE757E4FC010D
:1046700060817181828193810E94282F18160CF02D
:104680004AC0CE0183569F4F20E030E040E251E423
:10469000FC0160817181828193810E942D2FDC0158
:1046A000CB018E010B551F4FBC01CD010E94AC2EDA
:1046B000DC01CB01F8019183808324C0CE018955B0
:1046C0009F4F20E931E0FC0131832083CE018955E1
:1046D0009F4FFC01808191810197F1F79E0129553F
:1046E0003F4FF90191838083CE018B559F4F9E01EF
:1046F0002B553F4FF9012081318121503109FC01B7
:1047000031832083CE018B559F4FFC0180819181A5
:10471000892BA1F62CC08E010B551F4FCE018F5552
:104720009F4FFC0160817181828193810E94AC2E38
:10473000DC01CB01F80191838083CE0187559F4F27
:104740009E012B553F4FF90120813181FC013183BE
:104750002083CE0187559F4FFC0180819181019775
:10476000F1F79E0127553F4FF901918380838DE238
:1047700092E00E9451020000C05DDD4F0FB6F89438
:10478000DEBF0FBECDBFDF91CF911F910F91089576
:104790000F931F93CF93DF93CDB7DEB7C256D109E6
:1047A0000FB6F894DEBF0FBECDBF87EC91E00E943C
:1047B000510280E090E0A6E1B3E489839A83AB8361
:1047C000BC838E01075A1F4F20E030E04AE755E4D2
:1047D00069817A818B819C810E942D2FDC01CB0124
:1047E000F80180839183A283B383CE01875A9F4FC0
:1047F00020E030E040E85FE3FC016081718182816C
:1048000093810E94A72E88234CF4CE01835A9F4F98
:1048100021E030E0FC013183208369C0CE01875A5A
:104820009F4F20E03FEF4FE757E4FC01608171812B
:10483000828193810E94282F18160CF046C020E038
:1048400030E040E251E469817A818B819C810E9451
:104850002D2FDC01CB018E01035A1F4FBC01CD016E
:104860000E94AC2EDC01CB01F8019183808324C02F
:10487000CE01815A9F4F20E931E0FC013183208332
:10488000CE01815A9F4FFC01808191810197F1F700
:104890009E01215A3F4FF90191838083CE01835AB3
:1048A0009F4F9E01235A3F4FF901208131812150B2
:1048B0003109FC0131832083CE01835A9F4FFC01D3
:1048C00080819181892BA1F62CC08E01035A1F4F44
:1048D000CE01875A9F4FFC01608171818281938153
:1048E0000E94AC2EDC01CB01F80191838083CE01C4
:1048F0008F599F4F9E01235A3F4FF90120813181EB
:10490000FC0131832083CE018F599F4FFC018081B0
:1049100091810197F1F79E012F593F4FF901918342
:10492000808387EC91E00E94510280E090E0A6E94C
:10493000B3E48D839E83AF83B8878E01015B1F4FE5
:1049400020E030E04AE755E46D817E818F819885D3
:104950000E942D2FDC01CB01F80180839183A2837B
:10496000B383CE01815B9F4F20E030E040E85FE3FE
:10497000FC0160817181828193810E94A72E88232E
:104980004CF4CE018D5A9F4F21E030E0FC01318381
:10499000208369C0CE01815B9F4F20E03FEF4FE74E
:1049A00057E4FC0160817181828193810E94282FEC
:1049B00018160CF046C020E030E040E251E46D8172
:1049C0007E818F8198850E942D2FDC01CB018E0185
:1049D0000D5A1F4FBC01CD010E94AC2EDC01CB0152
:1049E000F8019183808324C0CE018B5A9F4F20E928
:1049F00031E0FC0131832083CE018B5A9F4FFC01B3
:104A0000808191810197F1F79E012B5A3F4FF90167
:104A100091838083CE018D5A9F4F9E012D5A3F4F27
:104A2000F9012081318121503109FC01318320833A
:104A3000CE018D5A9F4FFC0180819181892BA1F677
:104A40002CC08E010D5A1F4FCE01815B9F4FFC0180
:104A500060817181828193810E94AC2EDC01CB0147
:104A6000F80191838083CE01895A9F4F9E012D5A70
:104A70003F4FF90120813181FC0131832083CE0138
:104A8000895A9F4FFC01808191810197F1F79E0126
:104A9000295A3F4FF9019183808387EC91E00E946E
:104AA000510280E090E0A6E9B3E489879A87AB875A
:104AB000BC878E010B5B1F4F20E030E04AE755E4D6
:104AC00069857A858B859C850E942D2FDC01CB0121
:104AD000F80180839183A283B383CE018B5B9F4FC8
:104AE00020E030E040E85FE3FC0160817181828179
:104AF00093810E94A72E88234CF4CE01875B9F4FA1
:104B000021E030E0FC013183208369C0CE018B5B62
:104B10009F4F20E03FEF4FE757E4FC016081718138
:104B2000828193810E94282F18160CF046C020E045
:104B300030E040E251E469857A858B859C850E944E
:104B40002D2FDC01CB018E01075B1F4FBC01CD0176
:104B50000E94AC2EDC01CB01F8019183808324C03C
:104B6000CE01855B9F4F20E931E0FC01318320833A
:104B7000CE01855B9F4FFC01808191810197F1F708
:104B80009E01255B3F4FF90191838083CE01875BB6
:104B90009F4F9E01275B3F4FF901208131812150BA
:104BA0003109FC0131832083CE01875B9F4FFC01DB
:104BB00080819181892BA1F62CC08E01075B1F4F4C
:104BC000CE018B5B9F4FFC0160817181828193815B
:104BD0000E94AC2EDC01CB01F80191838083CE01D1
:104BE000835B9F4F9E01275B3F4FF90120813181FD
:104BF000FC0131832083CE01835B9F4FFC018081C8
:104C000091810197F1F79E01235B3F4FF901918359
:104C1000808388ED91E00E94510280E090E0A8EC52
:104C2000B2E48D879E87AF87B88B20E030E04AE7FB
:104C300055E46D857E858F8598890E942D2FDC0136
:104C4000CB018BAF9CAFADAFBEAF20E030E040E812
:104C50005FE36BAD7CAD8DAD9EAD0E94A72E88232A
:104C600044F421E030E0CE01CF96FC013183208373
:104C70005FC020E03FEF4FE757E46BAD7CAD8DADFB
:104C80009EAD0E94282F18160CF044C020E030E0A2
:104C900040E251E46D857E858F8598890E942D2F95
:104CA000DC01CB01BC01CD010E94AC2EDC01CB01AB
:104CB0009E01215C3F4FF9019183808323C0CE0187
:104CC0008F5B9F4F20E931E0FC0131832083CE01CF
:104CD0008F5B9F4FFC01808191810197F1F79E01CD
:104CE0002F5B3F4FF90191838083CE01CF96FC016A
:104CF000808191819C0121503109CE01CF96FC0128
:104D000031832083CE01CF96FC0180819181892B54
:104D1000B1F628C06BAD7CAD8DAD9EAD0E94AC2EC2
:104D2000DC01CB019E01215C3F4FF901918380831F
:104D3000CE018D5B9F4F9E01215C3F4FF901208189
:104D40003181FC0131832083CE018D5B9F4FFC01BB
:104D5000808191810197F1F79E012D5B3F4FF90111
:104D60009183808387EC91E00E94510280E090E083
:104D7000A6E9B3E4898B9A8BAB8BBC8B20E030E047
:104D80004AE755E469897A898B899C890E942D2F8D
:104D9000DC01CB0189AB9AABABABBCAB20E030E024
:104DA00040E85FE369A97AA98BA99CA90E94A72E74
:104DB00088232CF481E090E09EAB8DAB3FC020E0D7
:104DC0003FEF4FE757E469A97AA98BA99CA90E94F4
:104DD000282F18164CF520E030E040E251E46989B4
:104DE0007A898B899C890E942D2FDC01CB01BC0123
:104DF000CD010E94AC2EDC01CB019EAB8DAB0FC070
:104E000080E991E098AF8FAB8FA998AD0197F1F74A
:104E100098AF8FAB8DA99EA901979EAB8DAB8DA945
:104E20009EA9892B69F714C069A97AA98BA99CA9A5
:104E30000E94AC2EDC01CB019EAB8DAB8DA99EA94F
:104E40009AAF89AF89AD9AAD0197F1F79AAF89AF63
:104E500089EE91E00E94510280E090E8A9E0B4E47C
:104E60008D8B9E8BAF8BB88F20E030E04AE755E406
:104E70006D897E898F89988D0E942D2FDC01CB0151
:104E80008FA398A7A9A7BAA720E030E040E85FE386
:104E90006FA178A589A59AA50E94A72E88232CF436
:104EA00081E090E09CA78BA73FC020E03FEF4FE759
:104EB00057E46FA178A589A59AA50E94282F1816F6
:104EC0004CF520E030E040E251E46D897E898F8925
:104ED000988D0E942D2FDC01CB01BC01CD010E94D9
:104EE000AC2EDC01CB019CA78BA70FC080E991E021
:104EF0009EA78DA78DA59EA50197F1F79EA78DA7CB
:104F00008BA59CA501979CA78BA78BA59CA5892BFE
:104F100069F714C06FA178A589A59AA50E94AC2E47
:104F2000DC01CB019CA78BA78BA59CA598AB8FA779
:104F30008FA598A90197F1F798AB8FA78AEF91E019
:104F40000E94510280E090ECAFE0B4E4898F9A8F28
:104F5000AB8FBC8F20E030E04AE755E4698D7A8D55
:104F60008B8D9C8D0E942D2FDC01CB018D8F9E8F10
:104F7000AF8FB8A320E030E040E85FE36D8D7E8D19
:104F80008F8D98A10E94A72E88232CF481E090E0B9
:104F90009AA389A33FC020E03FEF4FE757E46D8D10
:104FA0007E8D8F8D98A10E94282F18164CF520E039
:104FB00030E040E251E4698D7A8D8B8D9C8D0E94AA
:104FC0002D2FDC01CB01BC01CD010E94AC2EDC01F8
:104FD000CB019AA389A30FC080E991E09CA38BA386
:104FE0008BA19CA10197F1F79CA38BA389A19AA106
:104FF00001979AA389A389A19AA1892B69F714C063
:105000006D8D7E8D8F8D98A10E94AC2EDC01CB0121
:105010009AA389A389A19AA19EA38DA38DA19EA1E4
:105020000197F1F79EA38DA30000CE59DF4F0FB675
:10503000F894DEBF0FBECDBFDF91CF911F910F91CE
:105040000895CF92EF920F93CF93DF93CDB7DEB752
:10505000CC56D1090FB6F894DEBF0FBECDBF0E946B
:10506000D6040E949F048FEC92E00E9451020E949D
:10507000262E6AE070E080E090E00E94FF2B84E63C
:1050800091E0AC0160E080E00E94A92C89E791E00A
:10509000AC0160E081E00E94A92C8EE891E0AC01B7
:1050A00060E082E00E94A92C83EA91E0AC0160E01C
:1050B00083E00E94A92C80E090E4ACE9B5E48F87FE
:1050C000988BA98BBA8B20E030E04AE755E46F85D6
:1050D000788989899A890E942D2FDC01CB018B8BDD
:1050E0009C8BAD8BBE8B20E030E040E85FE36B89AA
:1050F0007C898D899E890E94A72E88232CF481E0CB
:1051000090E0988F8F8B3FC020E03FEF4FE757E450
:105110006B897C898D899E890E94282F18164CF5F1
:1051200020E030E040E251E46F85788989899A89EE
:105130000E942D2FDC01CB01BC01CD010E94AC2EC1
:10514000DC01CB01988F8F8B0FC080E991E09A8FA3
:10515000898F898D9A8D0197F1F79A8F898F8F8921
:10516000988D0197988F8F8B8F89988D892B69F7F0
:1051700014C06B897C898D899E890E94AC2EDC01CC
:10518000CB01988F8F8B8F89988D9C8F8B8F8B8D78
:105190009C8D0197F1F79C8F8B8F80E40E94840394
:1051A0000E94262E0E949F040E94FB008093FC0216
:1051B0000E945D0189838091340390913503CC0175
:1051C000A0E0B0E0C12CE12C04E09C01AD0160E066
:1051D00083E00E94E92C8981882F90E088709927CC
:1051E000892B21F00E949F040E949B038981882FB4
:1051F00090E082709927892B11F00E942005809100
:105200004503882321F00E942005109245038091D8
:105210004403882399F00E949B0362E370E080E0DE
:1052200090E00E94FF2B0E94C8231092440385E265
:1052300090E0FC0120812F5FFC01208380914303DB
:10524000882309F4B1CF1092430381E30E94FA014D
:1052500085E290E025E230E0F90120812260FC0146
:10526000208380914E03882F90E0AC014053510978
:1052700088EE93E0489F9001499F300D589F300D74
:10528000112480914F03882F90E0AC0140535109C5
:1052900064E6649FC001659F900D1124280F391F9B
:1052A00080915003882F90E0C097880F991FAC0120
:1052B000440F551F440F551F840F951F280F391F8A
:1052C00080915103882F90E0820F931FC0979F8396
:1052D0008E8380915303882F90E0AC014053510995
:1052E00088EE93E0489F9001499F300D589F300D04
:1052F000112480915403882F90E0AC014053510950
:1053000064E6649FC001659F900D1124280F391F2A
:1053100080915503882F90E0C097880F991FAC01AA
:10532000440F551F440F551F840F951F280F391F19
:1053300080915603882F90E0820F931FC097998722
:10534000888788859985092E000CAA0BBB0BC12C78
:10535000E12C05E09C01AD0160E080E00E94E92CB9
:105360008E819F81092E000CAA0BBB0BC12CE12C56
:1053700005E09C01AD0160E081E00E94E92C80E045
:1053800090E0A0E0B0E48A839B83AC83BD8320E0FF
:1053900030E04AE755E46A817B818C819D810E94DF
:1053A0002D2FDC01CB018D8F9E8FAF8FB8A320E016
:1053B00030E040E85FE36D8D7E8D8F8D98A10E9477
:1053C000A72E88232CF481E090E09AA389A33FC004
:1053D00020E03FEF4FE757E46D8D7E8D8F8D98A1D4
:1053E0000E94282F18164CF520E030E040E251E4EE
:1053F0006A817B818C819D810E942D2FDC01CB01F4
:10540000BC01CD010E94AC2EDC01CB019AA389A383
:105410000FC080E991E09CA38BA38BA19CA1019775
:10542000F1F79CA38BA389A19AA101979AA389A3C1
:1054300089A19AA1892B69F714C06D8D7E8D8F8DFE
:1054400098A10E94AC2EDC01CB019AA389A389A16B
:105450009AA19EA38DA38DA19EA10197F1F79EA372
:105460008DA38F818F938E818F9389858F9388856C
:105470008F938FED92E0892F8F938FED92E08F9332
:105480001F928EE18F93CE01815B9F4F292F2F9327
:105490008F930E9412308DB79EB70A960FB6F8947C
:1054A000DEBF0FBECDBFCE01815B9F4F0E94300299
:1054B00003C00E945D01898380913203882321F417
:1054C000809148038823A9F38981882F90E0817017
:1054D0009927892B71F780914803882309F4D5C057
:1054E00085E290E0FC018081888599858058914013
:1054F000998788878E819F8192509F838E8388852C
:10550000998525E030E0B9010E94C22FCB019C01B2
:1055100088EC90E0821B930B998788878E819F810E
:1055200025E030E0B9010E94C22FCB019195819511
:1055300091099F838E838F818F938E818F9389852D
:105540008F9388858F9385EE92E0892F8F9385EED8
:1055500092E08F931F928EE18F93CE01C196292FF7
:105560002F938F930E9412308DB79EB70A960FB675
:10557000F894DEBF0FBECDBFCE01C1960E9472026D
:1055800080E090E0A0E0B0E48A879B87AC87BD878D
:1055900020E030E04AE755E46A857B858C859D856F
:1055A0000E942D2FDC01CB018FA398A7A9A7BAA732
:1055B00020E030E040E85FE36FA178A589A59AA5D7
:1055C0000E94A72E88232CF481E090E09CA78BA753
:1055D0003FC020E03FEF4FE757E46FA178A589A5D2
:1055E0009AA50E94282F18164CF520E030E040E2E2
:1055F00051E46A857B858C859D850E942D2FDC0179
:10560000CB01BC01CD010E94AC2EDC01CB019CA7DB
:105610008BA70FC080E991E09EA78DA78DA59EA5C1
:105620000197F1F79EA78DA78BA59CA501979CA735
:105630008BA78BA59CA5892B69F714C06FA178A5B2
:1056400089A59AA50E94AC2EDC01CB019CA78BA753
:105650008BA59CA598AB8FA78FA598A90197F1F76B
:1056600098AB8FA704C080E091E00E945102809126
:1056700003038133C1F38091FC020E94B40481E3EF
:105680000E94FA011092480309C085E290E0FC01F3
:10569000808180E40E9484031092320389818E8786
:1056A00083CDCF93DF93CDB7DEB784E490E024E4DD
:1056B00030E0F90120812260FC01208385E490E044
:1056C00025E430E0F90120812360FC01208387E498
:1056D00090E029EFFC0120838EE690E02EE630E09A
:1056E000F90120812260FC0120830000DF91CF912D
:1056F00008951F920F9200905F000F9211242F9334
:105700003F934F935F936F937F938F939F93AF9349
:10571000BF93EF93FF93CF93DF93CDB7DEB7809125
:105720003A0390913B03A0913C03B0913D03019655
:10573000A11DB11D80933A0390933B03A0933C03BA
:10574000B0933D0380913A0390913B03A0913C03B9
:10575000B0913D0328EE33E040E050E0BC01CD01C4
:105760000E94D62FDC01CB01892B8A2B8B2B99F43D
:1057700080913E0390913F03A0914003B09141037B
:105780000196A11DB11D80933E0390933F03A0930A
:105790004003B09341038091360390913703A09169
:1057A0003803B0913903892B8A2B8B2B99F0809188
:1057B000360390913703A0913803B09139030197D4
:1057C000A109B1098093360390933703A09338035E
:1057D000B09339030000DF91CF91FF91EF91BF911A
:1057E000AF919F918F917F916F915F914F913F9179
:1057F0002F910F9000925F000F901F901895CF93FC
:10580000DF9300D000D0CDB7DEB769837A838B8376
:105810009C8389819A81AB81BC81892B8A2B8B2BBC
:1058200069F089819A81AB81BC8180933603909322
:105830003703A0933803B09339030CC081E090E0A4
:10584000A0E0B0E08093360390933703A093380331
:10585000B093390300008091360390913703A091F3
:105860003803B0913903892B8A2B8B2BA1F70000C9
:105870000F900F900F900F90DF91CF910895CF93DD
:10588000DF9300D0CDB7DEB78A83198204C0000051
:1058900089818F5F898399818A819817C0F300007D
:1058A0000F900F90DF91CF91089591E09093420374
:1058B000409A41984198419A419A41984198419A19
:1058C000419A41984198419A419A41984198419A08
:1058D000419A41984198419A409841984198419AFB
:1058E0008334A9F1409A41984198419A409841984F
:1058F0004198419A84E0419860FF27C0409A66959C
:105900004198419A8150B9F7409884E04198419874
:10591000419A8150D9F784E0419860FF14C0409AC1
:1059200066954198419A8150B9F7409884E0419832
:105930004198419A8150D9F784E1409A8150E9F722
:105940001092420308954098EBCF4098D8CF4098EA
:10595000CACF0F931F93DF938A0190E2899F600D56
:105960001124606883E40E94552CF8016491662339
:1059700069F0D1E084E40E94552C81E08D0FF8019C
:10598000ED0FF11D6491D82F6111F4CFDF911F91BC
:105990000F9108950F931F93DF938A0190E2899FDF
:1059A000600D1124606883E40E94552CF801608129
:1059B000662359F0D0E0DF5F84E40E94552CF801A3
:1059C000ED0FF11D60816111F6CFDF911F910F91F5
:1059D00008952F923F924F925F926F927F928F9293
:1059E0009F92AF92BF92CF92DF92EF92FF920F936E
:1059F0001F93CF93DF93CDB7DEB763970FB6F894BD
:105A0000DEBF0FBECDBF8A8B6B8B29013A01C88ADE
:105A1000043608F4BDC00456198A0B3008F00AE0B9
:105A2000EF8688898E1508F48F87202E312CC101CE
:105A3000EF858E0F911D0B971CF08AE0801B8F87DE
:105A4000C301B2012AE030E040E050E00E94D62FCE
:105A5000605D6C871AE03AE0C32ED12CE12CF12C6A
:105A60004AE0842E912CA12CB12C81E090E08C0F87
:105A70009D1F810F911D9E878D87C301B201A701D4
:105A800096010E94D62FCA01B901A50194010E9476
:105A9000D62F605DED85FE856083CC0CDD1CEE1C91
:105AA000FF1CD701C601880F991FAA1FBB1F880FB3
:105AB000991FAA1FBB1FC80ED91EEA1EFB1E11503C
:105AC000A0F62CE0F8892F1B822F801B002309F4FD
:105AD00085C0FE013196A1E0B0E0AC0FBD1FA80F5C
