:100000000C9452000C946F000C946F000C946F00D1
:100010000C946F000C946F000C946F000C946F00A4
:100020000C946F000C946F000C946F000C946F0094
:100030000C946F000C946F000C946F000C946F0084
:100040000C94D8070C946F000C946F000C946F0004
:100050000C946F000C946F000C946F000C946F0064
:100060000C946F000C946F000C946F000C946F0054
:100070000C946F000C946F000C946F005247422058
:1000800053747269702044454D4F210052474220FD
:1000900053545249502053544152540074696D6571
:1000A0003A20000011241FBECFEFD0E1DEBFCDBF4C
:1000B00011E0A0E0B1E0E2EBF8E102C005900D92A2
:1000C000A030B107D9F722E0A0E0B1E001C01D9255
:1000D000A531B207E1F70E94A9000C94570C0C94CB
:1000E00000002BB1342F309523233BB1432B3FB776
:1000F000F894FC01680F791FE617F70789F08191E2
:1001000098E04BB9000000C087FF2BB9880F0000B2
:1001100000C000C000C02BB900C09A9591F7ECCF89
:100120003FBF08952AB1242B2AB99B01220F331F08
:10013000620F731F0E94710087EC90E00197F1F746
:1001400000C00000089540E80C94920040E80C9430
:100150007100CF92EF920F931F93CF93DF9300D054
:100160001F92CDB7DEB7198287E28A830E94E80A20
:100170008CE790E0AC0164E080E00E94080968EE42
:1001800073E080E090E00E945E080E94850A8CE89F
:1001900090E0AC0160E080E00E9408098CE990E00A
:1001A000AC016BE083E00E9408098FE490E090933B
:1001B00001018093000139C08091000190910101FB
:1001C0009C0121503109C901880F991F820F931F8B
:1001D000875D9E4FFC01108280910001909101018A
:1001E0009C0121503109C901880F991F820F931F6B
:1001F000885D9E4FFC011082809100019091010169
:100200009C0121503109C901880F991F820F931F4A
:10021000865D9E4FFC01108280910001909101014A
:1002200001979093010180930001809100019091CA
:100230000101892B09F686E98093110186E98093F3
:10024000100186E9809312018FEF809314011092C0
:100250001301109215018FEF8093170184E68093AC
:1002600016011092180184E680931A018FEF809393
:10027000190110921B0110921D018FEF80931C0138
:1002800010921E011092200184E680931F018FEFCF
:100290008093210110922301109222018FEF80930D
:1002A000240184E680932601109225018FEF80932C
:1002B000270189E290E0FC018081807F8B838B8124
:1002C000882F90E0A0E0B0E0C12CE12C03E09C017D
:1002D000AD0160E081E00E9448098B81882F90E0A9
:1002E0008032910509F4A4C38132910544F484302D
:1002F000910509F487C2409709F46FC1C3C58034E2
:10030000910509F4AAC48035910521F0C09709F43C
:100310004EC0B8C58FE490E0909301018093000136
:1003200039C080910001909101019C012150310957
:10033000C901880F991F820F931F875D9E4FFC0193
:10034000108280910001909101019C01215031099E
:10035000C901880F991F820F931F885D9E4FFC0172
:10036000108280910001909101019C01215031097E
:10037000C901880F991F820F931F865D9E4FFC0154
:1003800010828091000190910101019790930101E9
:10039000809300018091000190910101892B09F661
:1003A0006DEE70E088E291E00E94A600B8C5109260
:1003B000010110920001ECC08981282F30E080916A
:1003C0000001909101012817390751F08A81282FE7
:1003D00030E080910001909101012817390751F513
:1003E0002091000130910101C901880F991F820FEE
:1003F000931F875D9E4F2FEFFC012083209100010A
:1004000030910101C901880F991F820F931F885DE8
:100410009E4F20E8FC0120832091000130910101D2
:10042000C901880F991F820F931F865D9E4FFC01A3
:100430001082A5C0009100011091010120910001DE
:1004400030910101C901880F991F820F931F875DA9
:100450009E4FFC018081882F90E0092E000CAA0B92
:10046000BB0BBC01CD010E94A90BDC01CB012DEC23
:100470003CEC4CE85FE3BC01CD010E94060BDC01C3
:10048000CB01BC01CD010E94780BDC01CB01282FF0
:10049000C801880F991F800F911F875D9E4FFC0137
:1004A0002083009100011091010120910001309101
:1004B0000101C901880F991F820F931F885D9E4F0C
:1004C000FC018081882F90E0092E000CAA0BBB0B49
:1004D000BC01CD010E94A90BDC01CB012DEC3CEC51
:1004E0004CE85FE3BC01CD010E94060BDC01CB01AF
:1004F000BC01CD010E94780BDC01CB01282FC80183
:10050000880F991F800F911F885D9E4FFC012083EB
:100510000091000110910101209100013091010131
:10052000C901880F991F820F931F865D9E4FFC01A2
:100530008081882F90E0092E000CAA0BBB0BBC0118
:10054000CD010E94A90BDC01CB012DEC3CEC4CE869
:100550005FE3BC01CD010E94060BDC01CB01BC01B5
:10056000CD010E94780BDC01CB01282FC801880F38
:10057000991F800F911F865D9E4FFC012083809103
:100580000001909101010196909301018093000177
:1005900080910001909101018F34910508F40CCFF6
:1005A0008981803510F0198203C089818F5F89832A
:1005B0008A81803510F01A8203C08A818F5F8A8316
:1005C00062E370E080E090E00E945E086FE470E01B
:1005D00088E291E00E94A300A2C41092010110924F
:1005E0000001EBC08981282F30E0809100019091BB
:1005F00001012817390751F08A81282F30E08091B6
:100600000001909101012817390749F52091000157
:1006100030910101C901880F991F820F931F875DD7
:100620009E4F2FEFFC0120832091000130910101AA
:10063000C901880F991F820F931F885D9E4FFC018F
:1006400010822091000130910101C901880F991F8A
:10065000820F931F865D9E4FFC011082A5C0009102
:100660000001109101012091000130910101C901A7
:10067000880F991F820F931F875D9E4FFC01808119
:10068000882F90E0092E000CAA0BBB0BBC01CD01FA
:100690000E94A90BDC01CB012DEC3CEC4CE85FE3A4
:1006A000BC01CD010E94060BDC01CB01BC01CD01D8
:1006B0000E94780BDC01CB01282FC801880F991FFD
:1006C000800F911F875D9E4FFC01208300910001E8
:1006D000109101012091000130910101C901880FA1
:1006E000991F820F931F885D9E4FFC018081882F88
:1006F00090E0092E000CAA0BBB0BBC01CD010E949F
:10070000A90BDC01CB012DEC3CEC4CE85FE3BC0118
:10071000CD010E94060BDC01CB01BC01CD010E9482
:10072000780BDC01CB01282FC801880F991F800F9F
:10073000911F885D9E4FFC01208300910001109164
:1007400001012091000130910101C901880F991F19
:10075000820F931F865D9E4FFC018081882F90E061
:10076000092E000CAA0BBB0BBC01CD010E94A90BEA
:10077000DC01CB012DEC3CEC4CE85FE3BC01CD018E
:100780000E94060BDC01CB01BC01CD010E94780B5D
:10079000DC01CB01282FC801880F991F800F911F02
:1007A000865D9E4FFC0120838091000190910101A4
:1007B0000196909301018093000180910001909136
:1007C00001018F34910508F40DCF8981803510F037
:1007D000198203C089818F5F89838A81803510F0F7
:1007E0001A8203C08A818F5F8A8362E370E080E0AF
:1007F00090E00E945E086FE470E088E291E00E9461
:10080000A3008DC31092010110920001ECC08981F8
:10081000282F30E0809100019091010128173907BD
:1008200051F08A81282F30E08091000190910101E0
:100830002817390751F52091000130910101C901B4
:10084000880F991F820F931F875D9E4F2FEFFC012A
:1008500020832091000130910101C901880F991F67
:10086000820F931F885D9E4F20E8FC01208320911A
:10087000000130910101C901880F991F820F931F58
:10088000865D9E4FFC011082A5C000910001109171
:1008900001012091000130910101C901880F991FC8
:1008A000820F931F875D9E4FFC018081882F90E00F
:1008B000092E000CAA0BBB0BBC01CD010E94A90B99
:1008C000DC01CB012DEC3CEC4CE85FE3BC01CD013D
:1008D0000E94060BDC01CB01BC01CD010E94780B0C
:1008E000DC01CB01282FC801880F991F800F911FB1
:1008F000875D9E4FFC012083009100011091010152
:100900002091000130910101C901880F991F820FC8
:10091000931F885D9E4FFC018081882F90E0092EF7
:10092000000CAA0BBB0BBC01CD010E94A90BDC0182
:10093000CB012DEC3CEC4CE85FE3BC01CD010E9407
:10094000060BDC01CB01BC01CD010E94780BDC0160
:10095000CB01282FC801880F991F800F911F885D38
:100960009E4FFC0120830091000110910101209114
:10097000000130910101C901880F991F820F931F57
:10098000865D9E4FFC018081882F90E0092E000C2F
:10099000AA0BBB0BBC01CD010E94A90BDC01CB0152
:1009A0002DEC3CEC4CE85FE3BC01CD010E94060B52
:1009B000DC01CB01BC01CD010E94780BDC01CB0135
:1009C000282FC801880F991F800F911F865D9E4FA9
:1009D000FC01208380910001909101010196909388
:1009E00001018093000180910001909101018F34F9
:1009F000910508F40CCF8981803510F0198203C06D
:100A000089818F5F89838A81803510F01A8203C0C3
:100A10008A818F5F8A8362E370E080E090E00E94C9
:100A20005E086FE470E088E291E00E94A30077C264
:100A30001092010110920001EBC08981282F30E053
:100A400080910001909101012817390751F08A81A6
:100A5000282F30E08091000190910101281739077B
:100A600049F52091000130910101C901880F991FBA
:100A7000820F931F875D9E4FFC0110822091000121
:100A800030910101C901880F991F820F931F885D62
:100A90009E4F2FEFFC012083209100013091010136
:100AA000C901880F991F820F931F865D9E4FFC011D
:100AB0001082A5C000910001109101012091000158
:100AC00030910101C901880F991F820F931F875D23
:100AD0009E4FFC018081882F90E0092E000CAA0B0C
:100AE000BB0BBC01CD010E94A90BDC01CB012DEC9D
:100AF0003CEC4CE85FE3BC01CD010E94060BDC013D
:100B0000CB01BC01CD010E94780BDC01CB01282F69
:100B1000C801880F991F800F911F875D9E4FFC01B0
:100B2000208300910001109101012091000130917A
:100B30000101C901880F991F820F931F885D9E4F85
:100B4000FC018081882F90E0092E000CAA0BBB0BC2
:100B5000BC01CD010E94A90BDC01CB012DEC3CECCA
:100B60004CE85FE3BC01CD010E94060BDC01CB0128
:100B7000BC01CD010E94780BDC01CB01282FC801FC
:100B8000880F991F800F911F885D9E4FFC01208365
:100B900000910001109101012091000130910101AB
:100BA000C901880F991F820F931F865D9E4FFC011C
:100BB0008081882F90E0092E000CAA0BBB0BBC0192
:100BC000CD010E94A90BDC01CB012DEC3CEC4CE8E3
:100BD0005FE3BC01CD010E94060BDC01CB01BC012F
:100BE000CD010E94780BDC01CB01282FC801880FB2
:100BF000991F800F911F865D9E4FFC01208380917D
:100C000000019091010101969093010180930001F0
:100C100080910001909101018F34910508F40DCF6E
:100C20008981803510F0198203C089818F5F8983A3
:100C30008A81803510F01A8203C08A818F5F8A838F
:100C400062E370E080E090E00E945E086FE470E094
:100C500088E291E00E94A30062C11092010110920B
:100C60000001EBC08981282F30E080910001909134
:100C700001012817390751F08A81282F30E080912F
:100C80000001909101012817390749F520910001D1
:100C900030910101C901880F991F820F931F875D51
:100CA0009E4FFC0110822091000130910101C90189
:100CB000880F991F820F931F885D9E4FFC01108241
:100CC0002091000130910101C901880F991F820F05
:100CD000931F865D9E4F2FEFFC012083A5C00091DE
:100CE0000001109101012091000130910101C90121
:100CF000880F991F820F931F875D9E4FFC01808193
:100D0000882F90E0092E000CAA0BBB0BBC01CD0173
:100D10000E94A90BDC01CB012DEC3CEC4CE85FE31D
:100D2000BC01CD010E94060BDC01CB01BC01CD0151
:100D30000E94780BDC01CB01282FC801880F991F76
:100D4000800F911F875D9E4FFC0120830091000161
:100D5000109101012091000130910101C901880F1A
:100D6000991F820F931F885D9E4FFC018081882F01
:100D700090E0092E000CAA0BBB0BBC01CD010E9418
:100D8000A90BDC01CB012DEC3CEC4CE85FE3BC0192
:100D9000CD010E94060BDC01CB01BC01CD010E94FC
:100DA000780BDC01CB01282FC801880F991F800F19
:100DB000911F885D9E4FFC012083009100011091DE
:100DC00001012091000130910101C901880F991F93
:100DD000820F931F865D9E4FFC018081882F90E0DB
:100DE000092E000CAA0BBB0BBC01CD010E94A90B64
:100DF000DC01CB012DEC3CEC4CE85FE3BC01CD0108
:100E00000E94060BDC01CB01BC01CD010E94780BD6
:100E1000DC01CB01282FC801880F991F800F911F7B
:100E2000865D9E4FFC01208380910001909101011D
:100E300001969093010180930001809100019091AF
:100E400001018F34910508F40DCF8981803510F0B0
:100E5000198203C089818F5F89838A81803510F070
:100E60001A8203C08A818F5F8A8362E370E080E028
:100E700090E00E945E086FE470E088E291E00E94DA
:100E8000A3004DC08FE490E0909301018093000196
:100E900039C080910001909101019C0121503109DC
:100EA000C901880F991F820F931F875D9E4FFC0118
:100EB000108280910001909101019C012150310923
:100EC000C901880F991F820F931F885D9E4FFC01F7
:100ED000108280910001909101019C012150310903
:100EE000C901880F991F820F931F865D9E4FFC01D9
:100EF000108280910001909101010197909301016E
:100F0000809300018091000190910101892B09F6E5
:100F10006DEE70E088E291E00E94A60000008091F2
:100F20000A0190910B01A0910C01B0910D01C12C0F
:100F3000E12C04E09C01AD0160E183E00E944809DE
:100F400080910F01882F90E0A0E0B0E0C12CE12C4F
:100F500003E09C01AD0160E080E00E944809A9C95E
:100F6000CF93DF93CDB7DEB784E490E024E430E0A4
:100F7000F90120812260FC01208385E490E025E4D2
:100F800030E0F90120812360FC01208387E490E0B8
:100F900029EFFC0120838EE690E02EE630E0F90197
:100FA00020812260FC0120830000DF91CF91089511
:100FB0001F920F9200905F000F9211242F933F9386
:100FC0004F935F936F937F938F939F93AF93BF9351
:100FD000EF93FF93CF93DF93CDB7DEB780910601F8
:100FE00090910701A0910801B09109010196A11DFE
:100FF000B11D8093060190930701A0930801B0935F
:1010000009018091060190910701A0910801B0911A
:10101000090128EE33E040E050E0BC01CD010E9420
:10102000350CDC01CB01892B8A2B8B2B99F4809119
:101030000A0190910B01A0910C01B0910D01019654
:10104000A11DB11D80930A0190930B01A0930C0187
:10105000B0930D018091020190910301A0910401D0
:10106000B0910501892B8A2B8B2B99F0809102017D
:1010700090910301A0910401B09105010197A1098C
:10108000B1098093020190930301A0930401B093EE
:1010900005010000DF91CF91FF91EF91BF91AF91DA
:1010A0009F918F917F916F915F914F913F912F9180
:1010B0000F9000925F000F901F901895CF93DF93D1
:1010C00000D000D0CDB7DEB769837A838B839C8351
:1010D00089819A81AB81BC81892B8A2B8B2B69F00A
:1010E00089819A81AB81BC81809302019093030135
:1010F000A0930401B09305010CC081E090E0A0E052
:10110000B0E08093020190930301A0930401B09397
:10111000050100008091020190910301A09104015A
:10112000B0910501892B8A2B8B2BA1F700000F9022
:101130000F900F900F90DF91CF910895CF93DF9391
:1011400000D0CDB7DEB78A83198204C00000898140
:101150008F5F898399818A819817C0F300000F906F
:101160000F90DF91CF91089591E090930E01409AF6
:1011700041984198419A419A41984198419A419A9F
:1011800041984198419A419A41984198419A419A8F
:1011900041984198419A409841984198419A8334A6
:1011A000A9F1409A41984198419A409841984198B4
:1011B000419A84E0419860FF27C0409A6695419823
:1011C000419A8150B9F7409884E041984198419AFA
:1011D0008150D9F784E0419860FF14C0409A669529
:1011E0004198419A8150B9F7409884E041984198DC
:1011F000419A8150D9F784E1409A8150E9F71092E1
:101200000E0108954098EBCF4098D8CF4098CACFB0
:101210000F931F93DF938A0190E2899F600D112441
:10122000606883E40E94B408F8016491662369F061
:10123000D1E084E40E94B40881E08D0FF801ED0F45
:10124000F11D6491D82F6111F4CFDF911F910F919F
:1012500008950F931F93DF938A0190E2899F600D99
:101260001124606883E40E94B408F8016081662359
:1012700059F0D0E0DF5F84E40E94B408F801ED0F7C
:10128000F11D60816111F6CFDF911F910F910895DB
:101290002F923F924F925F926F927F928F929F9286
:1012A000AF92BF92CF92DF92EF92FF920F931F9374
:1012B000CF93DF93CDB7DEB763970FB6F894DEBF59
:1012C0000FBECDBF8A8B6B8B29013A01C88A0436C9
:1012D00008F4BDC00456198A0B3008F00AE0EF8606
:1012E00088898E1508F48F87202E312CC101EF8557
:1012F0008E0F911D0B971CF08AE0801B8F87C30116
:10130000B2012AE030E040E050E00E94350C605D20
:101310006C871AE03AE0C32ED12CE12CF12C4AE084
:10132000842E912CA12CB12C81E090E08C0F9D1F7C
:10133000810F911D9E878D87C301B201A701960180
:101340000E94350CCA01B901A50194010E94350C17
:10135000605DED85FE856083CC0CDD1CEE1CFF1C02
:10136000D701C601880F991FAA1FBB1F880F991F9D
:10137000AA1FBB1FC80ED91EEA1EFB1E1150A0F6E5
:101380002CE0F8892F1B822F801B002309F485C0D5
:10139000FE013196A1E0B0E0AC0FBD1FA80FB11D5A
:1013A0009C9191938F5F2813F5CF8F85811152C047
:1013B000F10181E090E08C0F9D1FE80FF91F108272
:1013C0009989992321F18981803309F5A10141503F
:1013D000510914161506DCF480E090E020E060E28C
:1013E00003C0841795079CF42F5FE1E0F0E0EC0F59
:1013F000FD1FE80FF91F6083822F90E0E1E0F0E02D
:10140000EC0FFD1FE80FF91F3081303351F3AE01AF
:101410004F5F5F4F6B898A890E94290963960FB6D7
:10142000F894DEBF0FBECDBFDF91CF911F910F911A
:10143000FF90EF90DF90CF90BF90AF909F908F90F4
:101440007F906F905F904F903F902F90089521E094
:10145000298B42CF0F5F8EE2E1E0F0E0EC0FFD1F41
:10146000E20DF31D8083E02F201B822F8E0FA1E061
:10147000B0E0AC0FBD1FA80FB11D8C91A1E0B0E092
:10148000AC0FBD1FAE0FB11D8C93EF5F8E2F801B75
:101490009F85891750F3F0E08CCFEF85EE2321F084
:1014A0008EE2898301E0DFCFE0E0F0E082CFDF93DE
:1014B000389A399AD2E388E70E949E08D150D9F72A
:1014C00064E383E40E94B40864E383E40E94B40804
:1014D00069E083E40E94B40860E383E40E94B408F6
:1014E0006CE083E40E94B40861E083E40E94B408E5
:1014F000D8E088E70E949E08D150D9F767E083E4DE
:101500000E94B408DF910C94B007DF9361E083E49C
:101510000E94B408D8E088E70E949E08D150D9F70D
:10152000DF910895CF93DF931F92CDB7DEB785E2A9
:1015300090E021E0FC012083198217C062E370E093
:1015400080E090E00E945E0885E290E02981422FD1
:1015500050E021E030E002C0220F331F4A95E2F74D
:10156000FC01208389818F5F89838981883030F3F2
:1015700085E290E020E8FC012083198217C062E335
:1015800070E080E090E00E945E0885E290E02981B2
:10159000422F50E020E830E002C0359527954A956B
:1015A000E2F7FC01208389818F5F898389818830FC
:1015B00030F364E670E080E090E00E945E0885E22F
:1015C00090E0FC01108200000F90DF91CF91089510
:1015D000CF93DF93CDB7DEB781E290E020E6FC0148
:1015E000208384E290E02FEFFC0120838AE290E0E8
:1015F0002CE8FC01208378940E94570A0E94850AF7
:101600000E94920A0000DF91CF9108950E941A0B68
:101610000C94FB0B0E94F40B58F00E94ED0B40F071
:1016200029F45F3F29F00C94E40B51110C942F0C1A
:101630000C94EA0B0E940C0C68F39923B1F3552328
:1016400091F3951B550BBB27AA27621773078407D5
:1016500038F09F5F5F4F220F331F441FAA1FA9F36B
:1016600035D00E2E3AF0E0E832D091505040E69559
:10167000001CCAF72BD0FE2F29D0660F771F881FBA
:10168000BB1F261737074807AB07B0E809F0BB0BAD
:10169000802DBF01FF2793585F4F3AF09E3F5105C1
:1016A00078F00C94E40B0C942F0C5F3FE4F3983E1D
:1016B000D4F3869577956795B795F7959F5FC9F7AA
:1016C000880F911D9695879597F90895E1E0660F2B
:1016D000771F881FBB1F621773078407BA0720F0A4
:1016E000621B730B840BBA0BEE1F88F7E09508950D
:1016F0000E94140C88F09F5798F0B92F9927B75182
:10170000B0F0E1F0660F771F881F991F1AF0BA95A5
:10171000C9F714C0B13091F00E942E0CB1E00895C9
:101720000C942E0C672F782F8827B85F39F0B93FBB
:10173000CCF3869577956795B395D9F73EF4909558
:101740008095709561957F4F8F4F9F4F0895E894D6
:1017500009C097FB3EF490958095709561957F4FF9
:101760008F4F9F4F9923A9F0F92F96E9BB279395A7
:10177000F695879577956795B795F111F8CFFAF4B7
:10178000BB0F11F460FF1BC06F5F7F4F8F4F9F4FE8
:1017900016C0882311F096E911C0772321F09EE846
:1017A000872F762F05C0662371F096E8862F70E0AC
:1017B00060E02AF09A95660F771F881FDAF7880F86
:1017C0009695879597F9089597F99F6780E870E057
:1017D00060E008959FEF80EC089500240A941616A7
:1017E000170618060906089500240A94121613060F
:1017F000140605060895092E0394000C11F488239D
:1018000052F0BB0F40F4BF2B11F460FF04C06F5FB8
:101810007F4F8F4F9F4F089557FD9058440F551F8E
:1018200059F05F3F71F04795880F97FB991F61F062
:101830009F3F79F087950895121613061406551FD9
:10184000F2CF4695F1DF08C0161617061806991F45
:10185000F1CF86957105610508940895E894BB273A
:1018600066277727CB0197F90895A1E21A2EAA1BC4
:10187000BB1BFD010DC0AA1FBB1FEE1FFF1FA21740
:10188000B307E407F50720F0A21BB30BE40BF50B3D
:10189000661F771F881F991F1A9469F760957095C6
:1018A000809590959B01AC01BD01CF010895F894FE
:0218B000FFCF68
:00000001FF
