:100000000C943E000C945B000C945B000C945B0021
:100010000C945B000C945B000C945B000C945B00F4
:100020000C945B000C945B000C945B000C945B00E4
:100030000C945B000C945B000C945B000C945B00D4
:100040000C94B5030C945B000C945B000C945B0067
:100050000C94E1010C945B000C945B000C945B002D
:100060000C945B000C945B000C945B000C945B00A4
:100070000C945B000C945B000C945B0011241FBE7D
:10008000CFEFD0E1DEBFCDBF11E0A0E0B1E0E4E111
:10009000F4E102C005900D92A23BB107D9F722E02E
:1000A000A2EBB1E001C01D92AE33B207E1F70E94AE
:1000B00054030C94080A0C940000CF93DF9300D0F3
:1000C0001F92CDB7DEB7198282E290E022E230E0E3
:1000D000F90120812062FC01208382E290E022E28B
:1000E00030E0F90120812F7DFC01208382E290E045
:1000F00022E230E0F90120812062FC01208387E0C8
:1001000090E09B838A8330C080E290E0FC01808194
:10011000882F90E08078992747E050E02A813B8142
:10012000BA01621B730B9B0102C0959587952A95B6
:10013000E2F7982F8981892B898382E290E022E27D
:1001400030E0F90120812F7BFC01208382E290E0E6
:1001500022E230E0F90120812064FC0120838A81C1
:100160009B8101979B838A838A819B81992364F673
:1001700089810F900F900F90DF91CF910895CF93C9
:10018000DF931F92CDB7DEB785E290E025E230E045
:10019000F9012081207FFC01208384E290E020EFA0
:1001A000FC012083000000000000000000000000AF
:1001B000000000000000000083E290E0FC0180816C
:1001C0008F70898384E290E02FEFFC012083898186
:1001D0000F90DF91CF910895CF93DF93CDB7DEB726
:1001E0008AE790E02AE730E0F90120812068FC01ED
:1001F00020838CE790E02CE730E0F9012081206437
:10020000FC0120838AE790E02AE730E0F9012081B1
:100210002760FC0120830000DF91CF910895CF93E8
:10022000DF93CDB7DEB784EC90E020E130E0FC0155
:100230003183208380EC90E020EC30E0F9012081D4
:100240002260FC01208381EC90E021EC30E0F90198
:1002500020812869FC0120830000DF91CF9108955F
:10026000CF93DF931F92CDB7DEB78983000080EC78
:1002700090E0FC018081882F90E080729927892B83
:10028000B1F386EC90E02981FC01208300000F90FF
:10029000DF91CF910895CF93DF9300D0CDB7DEB734
:1002A0009A83898381E08093B6010E94410660E0D1
:1002B00071E088EB91E00E94E40690930302809342
:1002C00002021AC080910202909103022091B501AE
:1002D000AC0160E0822F0E94E5048091B5018F5F40
:1002E0008093B50160E071E080E090E00E94E40658
:1002F0009093030280930202809102029091030284
:10030000892B01F71092B5011092B60189819A816B
:10031000CC01A0E0B0E0BC01CD010E943B04000094
:100320000F900F90DF91CF910895CF93DF9300D07E
:10033000CDB7DEB79A8389830BC089819A81FC018E
:1003400080810E94300189819A8101969A838983F4
:1003500089819A81FC018081882379F71092B60106
:1003600000008091B6018823E1F300000F900F9008
:10037000DF91CF910895CF93DF9300D0CDB7DEB753
:100380009A83898389819A810E94950182E091E014
:100390000E94950104C082E091E00E949501809145
:1003A000BC018133C1F389E091E00E94950180E0B6
:1003B00090E00E944B0100000F900F90DF91CF91D1
:1003C00008951F920F9200905F000F9211242F93B7
:1003D0008F939F93EF93FF93CF93DF931F92CDB7AC
:1003E000DEB786EC90E0FC01808189838091B601C4
:1003F000882331F589818A30B1F089818D3099F077
:100400008091B701823378F48091B701882F90E012
:1004100088549E4F2981FC0120838091B7018F5F12
:100420008093B7010DC08091B701882F90E0885468
:100430009E4FFC0110821092B70181E08093B601BB
:1004400000000F90DF91CF91FF91EF919F918F91DD
:100450002F910F9000925F000F901F901895CF93EF
:10046000DF9300D01F92CDB7DEB789837B836A8389
:100470008981882F90E08330910509F464C084302D
:10048000910544F48130910509F4D7C0029709F42D
:10049000A9C0F7C08530910539F0853091050CF47D
:1004A00076C0069761F1EDC08A819B819195819517
:1004B00091099B838A838B818F938A818F938DE4AB
:1004C00091E0892F8F938DE491E08F931F9282E3C7
:1004D0008F9388E092E0892F8F9388E092E08F934A
:1004E0000E9410078DB79EB708960FB6F894DEBF2E
:1004F0000FBECDBF88E092E00E949501C2C08B8103
:100500008F938A818F938DE491E0892F8F938DE46F
:1005100091E08F931F9282E38F9388E092E0892F7E
:100520008F9388E092E08F930E9410078DB79EB75B
:1005300008960FB6F894DEBF0FBECDBF88E092E0FC
:100540000E9495019EC08B818F938A818F9386E64E
:1005500091E0892F8F9386E691E08F931F9282E33B
:100560008F9388E092E0892F8F9388E092E08F93B9
:100570000E9410078DB79EB708960FB6F894DEBF9D
:100580000FBECDBF88E092E00E9495017AC08A81BB
:100590009B819195819591099B838A838B818F9310
:1005A0008A818F9386E691E0892F8F9386E691E08A
:1005B0008F931F9282E38F9388E092E0892F8F932D
:1005C00088E092E08F930E9410078DB79EB708963F
:1005D0000FB6F894DEBF0FBECDBF88E092E00E9458
:1005E00095014FC08A819B819195819591099B834B
:1005F0008A838B818F938A818F938FE791E0892FF4
:100600008F938FE791E08F931F9282E38F9388E01F
:1006100092E0892F8F9388E092E08F930E941007D9
:100620008DB79EB708960FB6F894DEBF0FBECDBF4C
:1006300088E092E00E94950124C08B818F938A818B
:100640008F938FE791E0892F8F938FE791E08F93BE
:100650001F9282E38F9388E092E0892F8F9388E046
:1006600092E08F930E9410078DB79EB708960FB641
:10067000F894DEBF0FBECDBF88E092E00E949501E6
:10068000000000000F900F900F90DF91CF91089520
:10069000CF93DF93CDB7DEB788E991E00E94950153
:1006A0000000DF91CF910895CF92EF920F93CF93F7
:1006B000DF931F92CDB7DEB70E94A40668EE73E009
:1006C00080E090E00E943B040E9441060E94EC0002
:1006D0000E940F0188EA91E00E94BB010E9441063E
:1006E0000E9448030E94BF0089830E945D0080939E
:1006F000B40161E070E089810E942F028981882F16
:1007000090E0A0E0B0E0C12CE12C04E09C01AD0140
:1007100061E081E00E940405E5CFCF93DF93CDB780
:10072000DEB784E490E024E430E0F9012081226027
:10073000FC01208385E490E025E430E0F90120818C
:100740002360FC01208387E490E029EFFC012083F3
:100750008EE690E02EE630E0F90120812260FC0177
:1007600020830000DF91CF9108951F920F92009097
:100770005F000F9211242F933F934F935F936F93DA
:100780007F938F939F93AF93BF93EF93FF93CF93F9
:10079000DF93CDB7DEB78091EF019091F001A0918A
:1007A000F101B091F2010196A11DB11D8093EF01FD
:1007B0009093F001A093F101B093F2018091EF01C9
:1007C0009091F001A091F101B091F20128EE33E097
:1007D00040E050E0BC01CD010E94C206DC01CB012B
:1007E000892B8A2B8B2B99F48091F3019091F40142
:1007F000A091F501B091F6010196A11DB11D809364
:10080000F3019093F401A093F501B093F601809168
:10081000EB019091EC01A091ED01B091EE01892BDB
:100820008A2B8B2B99F08091EB019091EC01A09198
:10083000ED01B091EE010197A109B1098093EB019F
:100840009093EC01A093ED01B093EE010000DF91D5
:10085000CF91FF91EF91BF91AF919F918F917F9138
:100860006F915F914F913F912F910F9000925F0098
:100870000F901F901895CF93DF9300D000D0CDB785
:10088000DEB769837A838B839C8389819A81AB816C
:10089000BC81892B8A2B8B2B69F089819A81AB8152
:1008A000BC818093EB019093EC01A093ED01B09398
:1008B000EE010CC081E090E0A0E0B0E08093EB019D
:1008C0009093EC01A093ED01B093EE0100008091B4
:1008D000EB019091EC01A091ED01B091EE01892B1B
:1008E0008A2B8B2BA1F700000F900F900F900F9089
:1008F000DF91CF910895CF93DF9300D0CDB7DEB7CE
:100900008A83198204C0000089818F5F898399815D
:100910008A819817C0F300000F900F90DF91CF915C
:10092000089591E09093F701409A41984198419A37
:10093000419A41984198419A419A41984198419AE7
:10094000419A41984198419A419A41984198419AD7
:10095000409841984198419A8334A9F1409A41982E
:100960004198419A409841984198419A84E0419831
:1009700060FF27C0409A66954198419A8150B9F727
:10098000409884E041984198419A8150D9F784E099
:10099000419860FF14C0409A66954198419A8150F1
:1009A000B9F7409884E041984198419A8150D9F72D
:1009B00084E1409A8150E9F71092F7010895409838
:1009C000EBCF4098D8CF4098CACF0F931F93DF93B7
:1009D0008A0190E2899F600D1124606883E40E947F
:1009E0009104F8016081662359F0D0E0DF5F84E470
:1009F0000E949104F801ED0FF11D60816111F6CFA5
:100A0000DF911F910F9108952F923F924F925F9225
:100A10006F927F928F929F92AF92BF92CF92DF920E
:100A2000EF92FF920F931F93CF93DF93CDB7DEB773
:100A300063970FB6F894DEBF0FBECDBF8A8B6B8B6A
:100A400029013A01C88A043608F4BDC00456198A3F
:100A50000B3008F00AE0EF8688898E1508F48F873E
:100A6000202E312CC101EF858E0F911D0B971CF0AC
:100A70008AE0801B8F87C301B2012AE030E040E0AA
:100A800050E00E94C206605D6C871AE03AE0C32E17
:100A9000D12CE12CF12C4AE0842E912CA12CB12CEC
:100AA00081E090E08C0F9D1F810F911D9E878D87A7
:100AB000C301B201A70196010E94C206CA01B90191
:100AC000A50194010E94C206605DED85FE856083EC
:100AD000CC0CDD1CEE1CFF1CD701C601880F991F32
:100AE000AA1FBB1F880F991FAA1FBB1FC80ED91EA4
:100AF000EA1EFB1E1150A0F62CE0F8892F1B822F56
:100B0000801B002309F485C0FE013196A1E0B0E00E
:100B1000AC0FBD1FA80FB11D9C9191938F5F28133F
:100B2000F5CF8F85811152C0F10181E090E08C0FEB
:100B30009D1FE80FF91F10829989992321F189815E
:100B4000803309F5A1014150510914161506DCF452
:100B500080E090E020E060E203C0841795079CF4F9
:100B60002F5FE1E0F0E0EC0FFD1FE80FF91F60835D
:100B7000822F90E0E1E0F0E0EC0FFD1FE80FF91F9D
:100B80003081303351F3AE014F5F5F4F6B898A89FB
:100B90000E94E50463960FB6F894DEBF0FBECDBF8A
:100BA000DF91CF911F910F91FF90EF90DF90CF9049
:100BB000BF90AF909F908F907F906F905F904F907D
:100BC0003F902F90089521E0298B42CF0F5F8EE256
:100BD000E1E0F0E0EC0FFD1FE20DF31D8083E02F5C
:100BE000201B822F8E0FA1E0B0E0AC0FBD1FA80F1D
:100BF000B11D8C91A1E0B0E0AC0FBD1FAE0FB11DD7
:100C00008C93EF5F8E2F801B9F85891750F3F0E048
:100C10008CCFEF85EE2321F08EE2898301E0DFCFD8
:100C2000E0E0F0E082CFDF93389A399AD2E388E7A8
:100C30000E947B04D150D9F764E383E40E949104BD
:100C400064E383E40E94910469E083E40E949104D8
:100C500060E383E40E9491046CE083E40E949104C9
:100C600061E083E40E949104D8E088E70E947B045D
:100C7000D150D9F767E083E40E949104DF910C948E
:100C80008D03DF9361E083E40E949104D8E088E75C
:100C90000E947B04D150D9F7DF910895CF93DF9361
:100CA0001F92CDB7DEB785E290E021E0FC01208302
:100CB000198217C062E370E080E090E00E943B047C
:100CC00085E290E02981422F50E021E030E002C02F
:100CD000220F331F4A95E2F7FC01208389818F5F41
:100CE00089838981883030F385E290E020E8FC0137
:100CF0002083198217C062E370E080E090E00E94D8
:100D00003B0485E290E02981422F50E020E830E06A
:100D100002C0359527954A95E2F7FC012083898129
:100D20008F5F89838981883030F364E670E080E0EA
:100D300090E00E943B0485E290E0FC0110820000FC
:100D40000F90DF91CF910895CF93DF93CDB7DEB7AA
:100D500081E290E020E6FC01208384E290E02FEF26
:100D6000FC0120838AE290E02CEFFC012083789440
:100D70000E9413060E9441060E944E060000DF9169
:100D8000CF910895A1E21A2EAA1BBB1BFD010DC035
:100D9000AA1FBB1FEE1FFF1FA217B307E407F5072B
:100DA00020F0A21BB30BE40BF50B661F771F881F07
:100DB000991F1A9469F760957095809590959B019D
:100DC000AC01BD01CF01089542EB51E00E94E9065C
:100DD0000895FA01A191B081009719F41097E1F0FC
:100DE000CD01DC01CD010D90002011F4C00113C034
:100DF000FB012191222319F02015D9F7F3CFFB0134
:100E00002191201519F41E92119606C02223C1F7D4
:100E10000D900020A1F7D001FA01A193B0830895AD
:100E2000AEE0B0E0E6E1F7E00C94DF090D891E8941
:100E30008F89988D26E02C831A83098397FF02C03F
:100E400080E090E801979E838D83AE01455E5F4F01
:100E5000698D7A8DCE0101960E9440074D815E8199
:100E600057FD0AC02F813885421753070CF49A01A9
:100E7000F801E20FF31F10822E96E4E00C94FB09B8
:100E8000ABE0B0E0E6E4F7E00C94D1096C017B0143
:100E90008A01FC0117821682838181FFCCC1CE01B9
:100EA00001963C01F6019381F70193FD859193FF33
:100EB00081917F01882309F4BAC1853239F493FD09
:100EC000859193FF81917F01853229F4B60190E0ED
:100ED0000E943709E7CF912C212C312CFFE1F3152B
:100EE000D8F08B3279F038F4803279F08332A1F483
:100EF000232D20611DC08D3261F0803369F4232DD4
:100F0000216016C0832D8260382EE32DE4603E2ED2
:100F10002AC0F32DF8601DC037FC2DC020ED280F2E
:100F20002A3040F08E32B9F436FC81C1232D206482
:100F3000322E19C036FE06C08AE0989E200D11247C
:100F4000922E11C0EAE02E9E200D1124222EF32DA8
:100F5000F0623F2E08C08C3621F4832D8068382E35
:100F600002C0883641F4F70193FD859193FF81918A
:100F70007F018111B3CF982F9F7D9554933028F432
:100F80000C5F1F4F9FE399830DC0833631F0833789
:100F900071F0833509F059C021C0F801808189833F
:100FA0000E5F1F4F88248394912C530113C0280196
:100FB000F2E04F0E511CF801A080B18036FE03C054
:100FC000692D70E002C06FEF7FEFC5010E942C0910
:100FD0004C018201F32DFF773F2E16C0280122E03D
:100FE000420E511CF801A080B18036FE03C0692D6D
:100FF00070E002C06FEF7FEFC5010E9421094C0134
:10100000F32DF0683F2E820133FC1BC0822D90E04F
:1010100088169906B0F4B60180E290E00E94370984
:101020002A94F4CFF50137FC859137FE81915F0159
:10103000B60190E00E94370921102A9421E0821A1B
:1010400091088114910471F7E8C0843611F0893653
:1010500041F5F80137FE07C060817181828193817B
:101060000C5F1F4F08C060817181072E000C880B38
:10107000990B0E5F1F4FF32DFF763F2E97FF09C090
:1010800090958095709561957F4F8F4F9F4FF06839
:101090003F2E2AE030E0A3010E947309882E8618B3
:1010A00045C0853731F4232D2F7EB22E2AE030E063
:1010B00025C0932D997FB92E8F36C1F018F488354D
:1010C00079F0B5C0803719F0883721F0B0C0E92F2A
:1010D000E061BE2EB4FE0DC0FB2DF460BF2E09C032
:1010E00034FE0AC0292F2660B22E06C028E030E068
:1010F00005C020E130E002C020E132E0F801B7FE97
:1011000007C060817181828193810C5F1F4F06C08F
:101110006081718180E090E00E5F1F4FA3010E940B
:101120007309882E8618FB2DFF773F2E36FE0DC0E3
:10113000232D2E7FA22E891458F434FE0BC032FCCE
:1011400009C0832D8E7EA82E05C0B82CA32C03C009
:10115000B82C01C0B92CA4FE0FC0FE01E80DF11D92
:101160008081803321F49A2D997EA92E09C0A2FE98
:1011700006C0B394B39404C08A2D867809F0B39462
:10118000A3FC11C0A0FE06C0B21488F4280C922C57
:101190009B180EC0B21460F4B60180E290E00E9489
:1011A0003709B394F7CFB21418F42B1802C0982C57
:1011B000212CA4FE10C0B60180E390E00E94370904
:1011C000A2FE17C0A1FC03C088E790E002C088E53A
:1011D00090E0B6010CC08A2D867859F0A1FE02C0BD
:1011E0008BE201C080E2A7FC8DE2B60190E00E9494
:1011F0003709891438F4B60180E390E00E9437097A
:101200009A94F7CF8A94F301E80DF11D8081B6011D
:1012100090E00E9437098110F5CF222009F442CED8
:10122000B60180E290E00E9437092A94F6CFF601D9
:101230008681978102C08FEF9FEF2B96E2E10C949D
:10124000ED09FC010590615070400110D8F78095C0
:1012500090958E0F9F1F0895FC0161507040019082
:101260000110D8F7809590958E0F9F1F08950F93CA
:101270001F93CF93DF93FB01238121FD03C08FEFE9
:101280009FEF2CC022FF16C04681578124813581F3
:101290004217530744F4A081B1819D012F5F3F4F56
:1012A000318320838C93268137812F5F3F4F378393
:1012B000268314C08B01EC01FB010084F185E02D35
:1012C0000995892BE1F6D80116968D919C91179777
:1012D000019617969C938E931697CE01DF91CF912E
:1012E0001F910F910895FA01AA27283051F120315A
:1012F00081F1E8946F936E7F6E5F7F4F8F4F9F4FAA
:10130000AF4FB1E03ED0B4E03CD0670F781F891FEB
:101310009A1FA11D680F791F8A1F911DA11D6A0FB9
:10132000711D811D911DA11D20D009F468943F916C
:101330002AE0269F11243019305D3193DEF6CF016B
:101340000895462F4770405D4193B3E00FD0C9F731
:10135000F6CF462F4F70405D4A3318F0495D31FD9E
:101360004052419302D0A9F7EACFB4E0A6959795F1
:10137000879577956795BA95C9F7009761057105C7
:1013800008959B01AC010A2E069457954795379511
:101390002795BA95C9F7620F731F841F951FA01D6B
:1013A00008952F923F924F925F926F927F928F9209
:1013B0009F92AF92BF92CF92DF92EF92FF920F93E4
:1013C0001F93CF93DF93CDB7DEB7CA1BDB0B0FB6EE
:1013D000F894DEBF0FBECDBF09942A8839884888AB
:1013E0005F846E847D848C849B84AA84B984C88441
:1013F000DF80EE80FD800C811B81AA81B981CE0F38
:10140000D11D0FB6F894DEBF0FBECDBFED0108951C
:04141000F894FFCF7E
:1014140020004D323230300A0050323232300A006D
:10142400473020580050323230300A0050323230C7
:10143400310A0050323230320A0050323230330A2C
:101444000050323230340A0050323230350A005003
:10145400323430300A0040392056300A00473232E4
:1014640030342058256420593030205A30302046FA
:10147400313030300A004732323034205830302096
:10148400593030205A25642046313030300A004724
:10149400323230342058303020592564205A3030CC
:1014A4002046313030300A004D3232343520475531
:1014B400475553454C490A004D32323032204E30A4
:0214C4000A001C
:00000001FF
