:100000000C943E000C945B000C945B000C945B0021
:100010000C945B000C945B000C945B000C945B00F4
:100020000C945B000C945B000C945B000C945B00E4
:100030000C945B000C945B000C945B000C945B00D4
:100040000C949F020C945B000C945B000C945B007E
:100050000C94E1010C945B000C945B000C945B002D
:100060000C945B000C945B000C945B000C945B00A4
:100070000C945B000C945B000C945B0011241FBE7D
:10008000CFEFD0E1DEBFCDBF11E0A0E0B1E0E8EFFF
:10009000FBE002C005900D92A234B107D9F721E030
:1000A000A2E4B1E001C01D92AC39B207E1F70E94B1
:1000B0002F020C94FA050C940000CF93DF9300D02C
:1000C0001F92CDB7DEB7198282E290E022E230E0E3
:1000D000F90120812062FC01208382E290E022E28B
:1000E00030E0F90120812F7DFC01208382E290E045
:1000F00022E230E0F90120812062FC01208387E0C8
:1001000090E09B838A8330C080E290E0FC01808194
:10011000882F90E08078992747E050E02A813B8142
:10012000BA01621B730B9B0102C0959587952A95B6
:10013000E2F7982F8981892B898382E290E022E27D
:1001400030E0F90120812F7BFC01208382E290E0E6
:1001500022E230E0F90120812064FC0120838A81C1
:100160009B8101979B838A838A819B81992364F673
:1001700089810F900F900F90DF91CF910895CF93C9
:10018000DF931F92CDB7DEB785E290E025E230E045
:10019000F9012081207FFC01208384E290E020EFA0
:1001A000FC012083000000000000000000000000AF
:1001B000000000000000000083E290E0FC0180816C
:1001C0008F70898384E290E02FEFFC012083898186
:1001D0000F90DF91CF910895CF93DF93CDB7DEB726
:1001E0008AE790E02AE730E0F90120812068FC01ED
:1001F00020838CE790E02CE730E0F9012081206437
:10020000FC0120838AE790E02AE730E0F9012081B1
:100210002760FC0120830000DF91CF910895CF93E8
:10022000DF93CDB7DEB784EC90E020E130E0FC0155
:100230003183208380EC90E020EC30E0F9012081D4
:100240002260FC01208381EC90E021EC30E0F90198
:1002500020812869FC0120830000DF91CF9108955F
:10026000CF93DF931F92CDB7DEB78983000080EC78
:1002700090E0FC018081882F90E080729927892B83
:10028000B1F386EC90E02981FC01208300000F90FF
:10029000DF91CF910895CF93DF9300D0CDB7DEB734
:1002A0009A83898381E0809346010E942B0560E058
:1002B00071E088E491E00E94CE05909393018093D1
:1002C00092011AC080919201909193012091450171
:1002D000AC0160E0822F0E94CF03809145018F5FC7
:1002E0008093450160E071E080E090E00E94CE05DF
:1002F0009093930180939201809192019091930148
:10030000892B01F7109245011092460189819A814B
:10031000CC01A0E0B0E0BC01CD010E9425030000AB
:100320000F900F90DF91CF910895CF93DF9300D07E
:10033000CDB7DEB79A8389830BC089819A81FC018E
:1003400080810E94300189819A8101969A838983F4
:1003500089819A81FC018081882379F71092460176
:100360000000809146018823E1F300000F900F9078
:10037000DF91CF910895CF93DF9300D0CDB7DEB753
:100380009A83898389819A810E94950182E091E014
:100390000E94950104C082E091E00E949501809145
:1003A0004C018133C1F389E091E00E94950180E026
:1003B00090E00E944B0100000F900F90DF91CF91D1
:1003C00008951F920F9200905F000F9211242F93B7
:1003D0008F939F93EF93FF93CF93DF931F92CDB7AC
:1003E000DEB786EC90E0FC01808189838091460134
:1003F000882331F589818A30B1F089818D3099F077
:1004000080914701823378F480914701882F90E0F2
:10041000885B9E4F2981FC012083809147018F5F7B
:10042000809347010DC080914701882F90E0885B41
:100430009E4FFC0110821092470181E0809346019B
:1004400000000F90DF91CF91FF91EF919F918F91DD
:100450002F910F9000925F000F901F901895CF92F0
:10046000EF920F93CF93DF9300D0CDB7DEB70E940A
:100470008E0568EE73E080E090E00E9425030E9404
:100480002B050E94EC000E940F0185E191E00E9483
:10049000BB010E942B0581E291E00E94BB01898192
:1004A000882F90E0A0E0B0E06894CC24C1F8689474
:1004B000EE24E1F802E09C01AD0167E080E00E94DB
:1004C000EE030E94BF008A830E945D008093440176
:1004D0008A81813121F488E291E00E94BB018A8106
:1004E000823279F785E391E00E94BB01EACFCF9396
:1004F000DF93CDB7DEB784E490E024E430E0F90187
:1005000020812260FC01208385E490E025E430E036
:10051000F90120812360FC01208387E490E029EF2A
:10052000FC0120838EE690E02EE630E0F901208188
:100530002260FC0120830000DF91CF9108951F927B
:100540000F9200905F000F9211242F933F934F93CF
:100550005F936F937F938F939F93AF93BF93EF932B
:10056000FF93CF93DF93CDB7DEB780917F0190915A
:100570008001A0918101B09182010196A11DB11D60
:1005800080937F0190938001A0938101B0938201B9
:1005900080917F0190918001A0918101B0918201B1
:1005A00028EE33E040E050E0BC01CD010E94AC05F4
:1005B000DC01CB01892B8A2B8B2B99F48091830151
:1005C00090918401A0918501B09186010196A11DB1
:1005D000B11D8093830190938401A0938501B09312
:1005E000860180917B0190917C01A0917D01B09169
:1005F0007E01892B8A2B8B2B99F080917B01909126
:100600007C01A0917D01B0917E010197A109B10902
:1006100080937B0190937C01A0937D01B0937E0138
:100620000000DF91CF91FF91EF91BF91AF919F912A
:100630008F917F916F915F914F913F912F910F908B
:1006400000925F000F901F901895CF93DF9300D01A
:1006500000D0CDB7DEB769837A838B839C83898191
:100660009A81AB81BC81892B8A2B8B2B69F0898184
:100670009A81AB81BC8180937B0190937C01A09394
:100680007D01B0937E010CC081E090E0A0E0B0E07D
:1006900080937B0190937C01A0937D01B0937E01B8
:1006A000000080917B0190917C01A0917D01B0912F
:1006B0007E01892B8A2B8B2BA1F700000F900F90C6
:1006C0000F900F90DF91CF910895CF93DF9300D0DB
:1006D000CDB7DEB78A83198204C0000089818F5F9D
:1006E000898399818A819817C0F300000F900F9039
:1006F000DF91CF91089591E090938701409A4198BE
:100700004198419A419A41984198419A419A419819
:100710004198419A419A41984198419A419A419809
:100720004198419A409841984198419A8334A9F15F
:10073000409A41984198419A409841984198419AED
:1007400084E0419860FF27C0409A66954198419A9D
:100750008150B9F7409884E041984198419A81507E
:10076000D9F784E0419860FF14C0409A669541989B
:10077000419A8150B9F7409884E041984198419A54
:100780008150D9F784E1409A8150E9F710928701AE
:1007900008954098EBCF4098D8CF4098CACF0F9398
:1007A0001F93DF938A0190E2899F600D1124606896
:1007B00083E40E947B03F8016081662359F0D0E056
:1007C000DF5F84E40E947B03F801ED0FF11D60817F
:1007D0006111F6CFDF911F910F9108952F923F92F3
:1007E0004F925F926F927F928F929F92AF92BF9241
:1007F000CF92DF92EF92FF920F931F93CF93DF93ED
:10080000CDB7DEB763970FB6F894DEBF0FBECDBF8E
:100810008A8B6B8B29013A01C88A043608F4BDC063
:100820000456198A0B3008F00AE0EF8688898E1585
:1008300008F48F87202E312CC101EF858E0F911D7A
:100840000B971CF08AE0801B8F87C301B2012AE05E
:1008500030E040E050E00E94AC05605D6C871AE03B
:100860003AE0C32ED12CE12CF12C4AE0842E912CBD
:10087000A12CB12C81E090E08C0F9D1F810F911D68
:100880009E878D87C301B201A70196010E94AC0526
:10089000CA01B901A50194010E94AC05605DED8516
:1008A000FE856083CC0CDD1CEE1CFF1CD701C6014D
:1008B000880F991FAA1FBB1F880F991FAA1FBB1F54
:1008C000C80ED91EEA1EFB1E1150A0F62CE0F889B6
:1008D0002F1B822F801B002309F485C0FE01319657
:1008E000A1E0B0E0AC0FBD1FA80FB11D9C9191938A
:1008F0008F5F2813F5CF8F85811152C0F10181E000
:1009000090E08C0F9D1FE80FF91F108299899923A1
:1009100021F18981803309F5A10141505109141653
:100920001506DCF480E090E020E060E203C084176C
:1009300095079CF42F5FE1E0F0E0EC0FFD1FE80F5E
:10094000F91F6083822F90E0E1E0F0E0EC0FFD1FE3
:10095000E80FF91F3081303351F3AE014F5F5F4F25
:100960006B898A890E94CF0363960FB6F894DEBF25
:100970000FBECDBFDF91CF911F910F91FF90EF90F0
:10098000DF90CF90BF90AF909F908F907F906F90AF
:100990005F904F903F902F90089521E0298B42CF98
:1009A0000F5F8EE2E1E0F0E0EC0FFD1FE20DF31DC2
:1009B0008083E02F201B822F8E0FA1E0B0E0AC0FD0
:1009C000BD1FA80FB11D8C91A1E0B0E0AC0FBD1F01
:1009D000AE0FB11D8C93EF5F8E2F801B9F85891703
:1009E00050F3F0E08CCFEF85EE2321F08EE2898387
:1009F00001E0DFCFE0E0F0E082CFDF93389A399A70
:100A0000D2E388E70E946503D150D9F764E383E419
:100A10000E947B0364E383E40E947B0369E083E438
:100A20000E947B0360E383E40E947B036CE083E429
:100A30000E947B0361E083E40E947B03D8E088E7A7
:100A40000E946503D150D9F767E083E40E947B03DD
:100A5000DF910C947702DF9361E083E40E947B03D3
:100A6000D8E088E70E946503D150D9F7DF91089557
:100A7000CF93DF931F92CDB7DEB785E290E021E000
:100A8000FC012083198217C062E370E080E090E0EF
:100A90000E94250385E290E02981422F50E021E069
:100AA00030E002C0220F331F4A95E2F7FC01208399
:100AB00089818F5F89838981883030F385E290E076
:100AC00020E8FC012083198217C062E370E080E017
:100AD00090E00E94250385E290E02981422F50E0BA
:100AE00020E830E002C0359527954A95E2F7FC01F1
:100AF000208389818F5F89838981883030F364E620
:100B000070E080E090E00E94250385E290E0FC0127
:100B1000108200000F90DF91CF910895CF93DF9363
:100B2000CDB7DEB781E290E020E6FC01208384E2CD
:100B300090E02FEFFC0120838AE290E02CEFFC0193
:100B4000208378940E94FD040E942B050E943805A2
:100B50000000DF91CF910895A1E21A2EAA1BBB1BC2
:100B6000FD010DC0AA1FBB1FEE1FFF1FA217B30779
:100B7000E407F50720F0A21BB30BE40BF50B661F8F
:100B8000771F881F991F1A9469F760957095809553
:100B900090959B01AC01BD01CF01089542E451E065
:100BA0000E94D3050895FA01A191B081009719F42C
:100BB0001097E1F0CD01DC01CD010D90002011F482
:100BC000C00113C0FB012191222319F02015D9F790
:100BD000F3CFFB012191201519F41E92119606C046
:100BE0002223C1F70D900020A1F7D001FA01A193B3
:080BF000B0830895F894FFCFD3
:100BF80020004D323230300A0050323232300A0092
:100C080047302058004730204D323032204E300ACD
:100C18000050323230310A004730204D3232303203
:100C2800204E300A004730204D32323031204E30CD
:020C38000A00B0
:00000001FF
