:100000000C9445000C9462000C9462000C94620005
:100010000C9462000C9462000C9462000C946200D8
:100020000C9462000C9462000C9462000C946200C8
:100030000C9462000C9462000C9462000C946200B8
:100040000C9426030C9462000C9462000C946200E1
:100050000C94AF010C9462000C9462000C9462004A
:100060000C9462000C9462000C9462000C94620088
:100070000C9462000C9462000C946200524541445E
:100080005920544F20474F21000011241FBECFEFAD
:10009000D0E1DEBFCDBF11E0A0E0B1E0EEE4FFE0D3
:1000A00002C005900D92A030B107D9F721E0A0E081
:1000B000B1E001C01D92A434B207E1F70E9493029F
:1000C0000C94A5070C940000CF93DF93CDB7DEB757
:1000D0008AE790E02AE730E0F90120812068FC01FE
:1000E00020838CE790E02CE730E0F9012081206448
:1000F000FC0120838AE790E02AE730E0F9012081C3
:100100002760FC0120830000DF91CF910895CF93F9
:10011000DF9300D01F92CDB7DEB7198282E290E064
:1001200022E230E0F90120812062FC01208382E29A
:1001300090E022E230E0F90120812F7DFC01208354
:1001400082E290E022E230E0F90120812062FC01AD
:10015000208387E090E09B838A8330C080E290E038
:10016000FC018081882F90E08078992747E050E05B
:100170002A813B81BA01621B730B9B0102C09595DA
:1001800087952A95E2F7982F8981892B898382E2C6
:1001900090E022E230E0F90120812F7BFC012083F6
:1001A00082E290E022E230E0F90120812064FC014B
:1001B00020838A819B8101979B838A838A819B818B
:1001C000992364F689810F900F900F90DF91CF9162
:1001D0000895CF93DF93CDB7DEB780E890E0FC01C0
:1001E000108281E890E0FC01108280E890E020E835
:1001F00030E0F9012081226AFC01208381E890E04F
:1002000021E830E0F90120812A61FC01208386E8A1
:1002100090E024E630E0FC013183208388E890E020
:1002200022E330E0FC01318320838AE890E022E37E
:1002300030E0FC01318320838BE290E02BE230E060
:10024000F90120812C60FC0120830000DF91CF9117
:100250000895CF93DF93CDB7DEB780E890E0FC013F
:10026000108281E890E0FC01108280EB90E0FC01BC
:10027000108281EB90E0FC01108280E890E020E8A1
:1002800030E0F90120812160FC01208381E890E0C9
:1002900021E830E0F90120812860FC01208380E81A
:1002A00090E020E830E0F9012081206AFC01208301
:1002B00081E890E021E830E0F90120812260FC0132
:1002C000208388E890E0FC01118210828AE890E0A7
:1002D000FC011182108280EB90E020EB30E0F9010C
:1002E00020812360FC01208380EB90E020EB30E054
:1002F000F90120812062FC01208381EB90E021EB59
:1003000030E0F90120812260FC01208384EB90E041
:10031000FC0110820000DF91CF910895CF93DF930D
:10032000CDB7DEB784EC90E020E130E0FC01318312
:10033000208380EC90E020EC30E0F9012081226005
:10034000FC01208381EC90E021EC30E0F901208178
:100350002869FC0120830000DF91CF9108951F924E
:100360000F9200905F000F9211242F933F934F93B1
:100370005F936F937F938F939F93AF93BF93EF930D
:10038000FF93CF93DF9300D000D0CDB7DEB780913D
:100390000001882F90E026EC30E0F9012081205305
:1003A000805F9E4FFC012083809110018C3129F4E5
:1003B000809100018F5F809300018091000188305F
:1003C00009F098C0109200019091110184E6989F65
:1003D000902D112480911201880F282F220F220FB7
:1003E000820F980F80911301890F809343018091B0
:1003F0004301882F90E0092E000CAA0BBB0BBC0117
:10040000CD010E94F706DC01CB0123E333E343E295
:1004100050E4BC01CD010E945406DC01CB01BC01BB
:10042000CD010E94C606DC01CB019A8389838981B4
:100430009A818B35910520F08AE590E09A83898333
:1004400089819A810A9720F48AE090E09A838983CF
:1004500088E890E029813A81FC01318320839091E2
:10046000150184E6989F902D112480911601880F24
:10047000282F220F220F820F980F80911701890FCA
:100480008093420180914201882F90E0092E000C58
:10049000AA0BBB0BBC01CD010E94F706DC01CB010E
:1004A00023E333E343E250E4BC01CD010E94540650
:1004B000DC01CB01BC01CD010E94C606DC01CB01F1
:1004C0009C838B838B819C818B35910520F08AE501
:1004D00090E09C838B838B819C810A9720F48AE037
:1004E00090E09C838B838AE890E02B813C81FC0127
:1004F0003183208300000F900F900F900F90DF91B9
:10050000CF91FF91EF91BF91AF919F918F917F918B
:100510006F915F914F913F912F910F9000925F00EB
:100520000F901F901895CF92EF920F93CF93DF9378
:10053000CDB7DEB70E9436068CE790E0AC0164E0F0
:1005400080E00E94560468EE73E080E090E00E9434
:10055000AC030E94D3050E9464000E9429010E94FE
:100560008E010E94E9000E94870080930E01809115
:100570000E01813071F488E890E02AE030E0FC015F
:10058000318320838AE890E02AE030E0FC01318367
:10059000208380910E01823071F488E890E02AE592
:1005A00030E0FC01318320838AE890E02AE530E0E6
:1005B000FC013183208388E890E0FC0180819181F7
:1005C000CC01A0E0B0E0C12CE12C03E09C01AD0126
:1005D00060E080E00E9496048AE890E0FC0180815F
:1005E0009181CC01A0E0B0E0C12CE12C03E09C01A2
:1005F000AD0160E081E00E949604B5CFCF93DF9318
:10060000CDB7DEB784E490E024E430E0F901208146
:100610002260FC01208385E490E025E430E0F901CC
:1006200020812360FC01208387E490E029EFFC0116
:1006300020838EE690E02EE630E0F90120812260F2
:10064000FC0120830000DF91CF9108951F920F924B
:1006500000905F000F9211242F933F934F935F936D
:100660006F937F938F939F93AF93BF93EF93FF937A
:10067000CF93DF93CDB7DEB780910501909106014E
:10068000A0910701B09108010196A11DB11D8093B1
:10069000050190930601A0930701B0930801809192
:1006A000050190910601A0910701B091080128EE83
:1006B00033E040E050E0BC01CD010E948307DC0143
:1006C000CB01892B8A2B8B2B99F480910901909176
:1006D0000A01A0910B01B0910C010196A11DB11D61
:1006E0008093090190930A01A0930B01B0930C0130
:1006F0008091010190910201A0910301B091040148
:10070000892B8A2B8B2B99F080910101909102010A
:10071000A0910301B09104010197A109B10980934F
:10072000010190930201A0930301B0930401000022
:10073000DF91CF91FF91EF91BF91AF919F918F91F9
:100740007F916F915F914F913F912F910F90009208
:100750005F000F901F901895CF93DF9300D000D0CB
:10076000CDB7DEB769837A838B839C8389819A8135
:10077000AB81BC81892B8A2B8B2B69F089819A8173
:10078000AB81BC818093010190930201A09303018E
:10079000B09304010CC081E090E0A0E0B0E0809351
:1007A000010190930201A0930301B09304010000A2
:1007B0008091010190910201A0910301B091040187
:1007C000892B8A2B8B2BA1F700000F900F900F9095
:1007D0000F90DF91CF910895CF93DF9300D0CDB7E5
:1007E000DEB78A83198204C0000089818F5F898304
:1007F00099818A819817C0F300000F900F90DF91C4
:10080000CF91089591E090930D01409A41984198BD
:10081000419A419A41984198419A419A4198419808
:10082000419A419A41984198419A419A41984198F8
:10083000419A409841984198419A8334A9F1409A4D
:1008400041984198419A409841984198419A84E052
:10085000419860FF27C0409A66954198419A81501F
:10086000B9F7409884E041984198419A8150D9F76E
:1008700084E0419860FF14C0409A66954198419A7F
:100880008150B9F7409884E041984198419A81504D
:10089000D9F784E1409A8150E9F710920D0108954B
:1008A0004098EBCF4098D8CF4098CACF0F931F9372
:1008B000DF938A0190E2899F600D1124606883E4D0
:1008C0000E940204F8016491662369F0D1E084E497
:1008D0000E94020481E08D0FF801ED0FF11D64917B
:1008E000D82F6111F4CFDF911F910F9108950F93CD
:1008F0001F93DF938A0190E2899F600D1124606845
:1009000083E40E940204F8016081662359F0D0E07C
:10091000DF5F84E40E940204F801ED0FF11D6081A5
:100920006111F6CFDF911F910F9108952F923F92A1
:100930004F925F926F927F928F929F92AF92BF92EF
:10094000CF92DF92EF92FF920F931F93CF93DF939B
:10095000CDB7DEB763970FB6F894DEBF0FBECDBF3D
:100960008A8B6B8B29013A01C88A043608F4BDC012
:100970000456198A0B3008F00AE0EF8688898E1534
:1009800008F48F87202E312CC101EF858E0F911D29
:100990000B971CF08AE0801B8F87C301B2012AE00D
:1009A00030E040E050E00E948307605D6C871AE011
:1009B0003AE0C32ED12CE12CF12C4AE0842E912C6C
:1009C000A12CB12C81E090E08C0F9D1F810F911D17
:1009D0009E878D87C301B201A70196010E948307FC
:1009E000CA01B901A50194010E948307605DED85EC
:1009F000FE856083CC0CDD1CEE1CFF1CD701C601FC
:100A0000880F991FAA1FBB1F880F991FAA1FBB1F02
:100A1000C80ED91EEA1EFB1E1150A0F62CE0F88964
:100A20002F1B822F801B002309F485C0FE01319605
:100A3000A1E0B0E0AC0FBD1FA80FB11D9C91919338
:100A40008F5F2813F5CF8F85811152C0F10181E0AE
:100A500090E08C0F9D1FE80FF91F10829989992350
:100A600021F18981803309F5A10141505109141602
:100A70001506DCF480E090E020E060E203C084171B
:100A800095079CF42F5FE1E0F0E0EC0FFD1FE80F0D
:100A9000F91F6083822F90E0E1E0F0E0EC0FFD1F92
:100AA000E80FF91F3081303351F3AE014F5F5F4FD4
:100AB0006B898A890E94770463960FB6F894DEBF2B
:100AC0000FBECDBFDF91CF911F910F91FF90EF909F
:100AD000DF90CF90BF90AF909F908F907F906F905E
:100AE0005F904F903F902F90089521E0298B42CF47
:100AF0000F5F8EE2E1E0F0E0EC0FFD1FE20DF31D71
:100B00008083E02F201B822F8E0FA1E0B0E0AC0F7E
:100B1000BD1FA80FB11D8C91A1E0B0E0AC0FBD1FAF
:100B2000AE0FB11D8C93EF5F8E2F801B9F858917B1
:100B300050F3F0E08CCFEF85EE2321F08EE2898335
:100B400001E0DFCFE0E0F0E082CFDF93389A399A1E
:100B5000D2E388E70E94EC03D150D9F764E383E441
:100B60000E94020464E383E40E94020469E083E4D7
:100B70000E94020460E383E40E9402046CE083E4C8
:100B80000E94020461E083E40E940204D8E088E746
:100B90000E94EC03D150D9F767E083E40E9402047D
:100BA000DF910C94FE02DF9361E083E40E94020473
:100BB000D8E088E70E94EC03D150D9F7DF9108957F
:100BC000CF93DF931F92CDB7DEB785E290E021E0AF
:100BD000FC012083198217C062E370E080E090E09E
:100BE0000E94AC0385E290E02981422F50E021E091
:100BF00030E002C0220F331F4A95E2F7FC01208348
:100C000089818F5F89838981883030F385E290E024
:100C100020E8FC012083198217C062E370E080E0C5
:100C200090E00E94AC0385E290E02981422F50E0E1
:100C300020E830E002C0359527954A95E2F7FC019F
:100C4000208389818F5F89838981883030F364E6CE
:100C500070E080E090E00E94AC0385E290E0FC014F
:100C6000108200000F90DF91CF910895CF93DF9312
:100C7000CDB7DEB781E290E020E6FC01208384E27C
:100C800090E02FEFFC0120838AE290E02CEFFC0142
:100C9000208378940E94A5050E94D3050E94E00558
:100CA0000000DF91CF9108950E9468060C944907D7
:100CB0000E94420758F00E943B0740F029F45F3F32
:100CC00029F00C94320751110C947D070C943807CD
:100CD0000E945A0768F39923B1F3552391F3951BAA
:100CE000550BBB27AA2762177307840738F09F5F4D
:100CF0005F4F220F331F441FAA1FA9F335D00E2EBA
:100D00003AF0E0E832D091505040E695001CCAF726
:100D10002BD0FE2F29D0660F771F881FBB1F2617E9
:100D200037074807AB07B0E809F0BB0B802DBF01C0
:100D3000FF2793585F4F3AF09E3F510578F00C948F
:100D400032070C947D075F3FE4F3983ED4F3869519
:100D500077956795B795F7959F5FC9F7880F911DB0
:100D60009695879597F90895E1E0660F771F881F9C
:100D7000BB1F621773078407BA0720F0621B730B4F
:100D8000840BBA0BEE1F88F7E09508950E94620766
:100D900088F09F5798F0B92F9927B751B0F0E1F03C
:100DA000660F771F881F991F1AF0BA95C9F714C0EC
:100DB000B13091F00E947C07B1E008950C947C075B
:100DC000672F782F8827B85F39F0B93FCCF3869525
:100DD00077956795B395D9F73EF490958095709582
:100DE00061957F4F8F4F9F4F0895E89409C097FBFF
:100DF0003EF490958095709561957F4F8F4F9F4FF2
:100E00009923A9F0F92F96E9BB279395F695879535
:100E100077956795B795F111F8CFFAF4BB0F11F4F8
:100E200060FF1BC06F5F7F4F8F4F9F4F16C088239F
:100E300011F096E911C0772321F09EE8872F762FD5
:100E400005C0662371F096E8862F70E060E02AF016
:100E50009A95660F771F881FDAF7880F9695879502
:100E600097F9089597F99F6780E870E060E008952A
:100E70009FEF80EC089500240A94161617061806B2
:100E80000906089500240A9412161306140605068E
:100E90000895092E0394000C11F4882352F0BB0F1F
:100EA00040F4BF2B11F460FF04C06F5F7F4F8F4F82
:100EB0009F4F089557FD9058440F551F59F05F3FBD
:100EC00071F04795880F97FB991F61F09F3F79F06C
:100ED00087950895121613061406551FF2CF4695EE
:100EE000F1DF08C0161617061806991FF1CF869570
:100EF0007105610508940895E894BB276627772754
:100F0000CB0197F90895A1E21A2EAA1BBB1BFD0184
:100F10000DC0AA1FBB1FEE1FFF1FA217B307E407D8
:100F2000F50720F0A21BB30BE40BF50B661F771F30
:100F3000881F991F1A9469F7609570958095909510
:0E0F40009B01AC01BD01CF010895F894FFCFD5
:00000001FF
